:020000040800F2
:1000000000000420B1B200084D9D0008539D000877
:100010005B9D0008619D0008679D000800000000CE
:100020000000000000000000000000006D9D0008BE
:100030007B9D000800000000899D0008979D000836
:1000400001B3000801B3000801B3000801B30008C0
:1000500001B3000801B3000801B3000801B30008B0
:1000600001B3000801B3000801B3000801B30008A0
:1000700001B30008A59D0008B99D0008CD9D0008AA
:1000800001B3000801B3000801B3000801B3000880
:1000900001B3000801B3000801B3000801B3000870
:1000A00001B3000801B3000801B3000801B3000860
:1000B00001B3000801B30008319E000801B3000835
:1000C00001B3000801B3000801B3000801B3000840
:1000D000E19D0008F59D000801B3000801B3000888
:1000E000099E000801B3000801B3000801B300082D
:1000F00001B3000801B3000801B3000801B3000810
:1001000001B3000801B3000801B3000801B30008FF
:1001100001B3000801B3000801B30008459E0008C0
:10012000599E000801B300086D9E000801B3000845
:1001300001B3000800000000000000000000000003
:1001400000000000000000000000000001B30008F3
:1001500001B3000801B30008819E000801B3000844
:1001600001B3000801B3000801B3000801B300089F
:1001700001B3000801B30008000000000000000007
:1001800001B3000801B3000801B3000801B300087F
:1001900001B3000801B300080000000001B300082B
:1001A00000000000000000000000000001B3000893
:1001B00001B3000801B300080000000000000000C7
:1001C000000000000000000000000000000000002F
:1001D00000000000000000000000000001B3000863
:1001E00010B5054C237833B9044B13B10448AFF371
:1001F00000800123237010BDE018012000000000E2
:100200006418010808B5034B1BB103490348AFF359
:10021000008008BD00000000E418012064180108F7
:1002200081F0004102E000BF83F0004330B54FEAA7
:1002300041044FEA430594EA050F08BF90EA020F14
:100240001FBF54EA000C55EA020C7FEA645C7FEAA7
:10025000655C00F0E2804FEA5454D4EB5555B8BFCA
:100260006D420CDD2C4480EA020281EA030382EA3B
:10027000000083EA010180EA020281EA0303362DCD
:1002800088BF30BD11F0004F4FEA01314FF4801CA0
:100290004CEA113102D0404261EB410113F0004FB2
:1002A0004FEA03334CEA133302D0524263EB430369
:1002B00094EA050F00F0A780A4F10104D5F1200E07
:1002C0000DDB02FA0EFC22FA05F2801841F1000162
:1002D00003FA0EF2801843FA05F359410EE0A5F136
:1002E00020050EF1200E012A03FA0EFC28BF4CF067
:1002F000020C43FA05F3C01851EBE37101F000451D
:1003000007D54FF0000EDCF1000C7EEB00006EEB29
:100310000101B1F5801F1BD3B1F5001F0CD34908B3
:100320005FEA30004FEA3C0C04F101044FEA44520A
:1003300012F5800F80F09A80BCF1004F08BF5FEA91
:10034000500C50F1000041EB045141EA050130BD71
:100350005FEA4C0C404141EB010111F4801FA4F114
:100360000104E9D191F0000F04BF01460020B1FA69
:1003700081F308BF2033A3F10B03B3F120020CDAA1
:100380000C3208DD02F1140CC2F10C0201FA0CF07F
:1003900021FA02F10CE002F11402D8BFC2F1200CE4
:1003A00001FA02F120FA0CFCDCBF41EA0C0190409A
:1003B000E41AA2BF01EB0451294330BD6FEA0404E3
:1003C0001F3C1CDA0C340EDC04F11404C4F12002CE
:1003D00020FA04F001FA02F340EA030021FA04F3E0
:1003E00045EA030130BDC4F10C04C4F1200220FA37
:1003F00002F001FA04F340EA0300294630BD21FA75
:1004000004F0294630BD94F0000F83F4801306BF3A
:1004100081F480110134013D4EE77FEA645C18BF2E
:100420007FEA655C29D094EA050F08BF90EA020FC5
:1004300005D054EA000C04BF1946104630BD91EABD
:10044000030F1EBF0021002030BD5FEA545C05D1C0
:100450004000494128BF41F0004130BD14F58004FF
:100460003CBF01F5801130BD01F0004545F0FE4173
:1004700041F470014FF0000030BD7FEA645C1ABFA8
:10048000194610467FEA655C1CBF0B46024650EADF
:10049000013406BF52EA033591EA030F41F400210B
:1004A00030BD00BF90F0000F04BF0021704730B591
:1004B0004FF4806404F132044FF000054FF0000166
:1004C00050E700BF90F0000F04BF0021704730B527
:1004D0004FF4806404F1320410F0004548BF4042FC
:1004E0004FF000013EE700BF42004FEAE2014FEA51
:1004F00031014FEA02701FBF12F07F4393F07F4F2C
:1005000081F06051704732F07F4208BF704793F02E
:100510007F4F04BF41F40021704730B54FF4607441
:1005200001F0004521F000411CE700BF50EA010244
:1005300008BF704730B54FF000050AE050EA0102ED
:1005400008BF704730B511F0004502D5404261EB5D
:1005500041014FF4806404F132045FEA915C3FF49E
:10056000D8AE4FF003025FEADC0C18BF03325FEA3B
:10057000DC0C18BF033202EBDC02C2F1200300FAEC
:1005800003FC20FA02F001FA03FE40EA0E0021FA11
:1005900002F11444BDE600BF70B54FF0FF0C4CF4FF
:1005A000E06C1CEA11541DBF1CEA135594EA0C0FB1
:1005B00095EA0C0F00F0DEF82C4481EA030621EAEC
:1005C0004C5123EA4C5350EA013518BF52EA033527
:1005D00041F4801143F4801338D0A0FB02CE4FF0D9
:1005E0000005E1FB02E506F00042E0FB03E54FF009
:1005F0000006E1FB03569CF0000F18BF4EF0010E01
:10060000A4F1FF04B6F5007F64F5407404D25FEAFC
:100610004E0E6D4146EB060642EAC62141EA5551AF
:100620004FEAC52040EA5E504FEACE2EB4F1FD0CF1
:1006300088BFBCF5E06F1ED8BEF1004F08BF5FEA6F
:10064000500E50F1000041EB045170BD06F0004621
:1006500046EA010140EA020081EA0301B4EB5C04CE
:10066000C2BFD4EB0C0541EA045170BD41F48011C6
:100670004FF0000E013C00F3AB8014F1360FDEBFEB
:10068000002001F0004170BDC4F10004203C35DAC7
:100690000C341BDC04F11404C4F1200500FA05F34A
:1006A00020FA04F001FA05F240EA020001F00042EB
:1006B00021F0004110EBD37021FA04F642EB060161
:1006C0005EEA430E08BF20EAD37070BDC4F10C048B
:1006D000C4F1200500FA04F320FA05F001FA04F24F
:1006E00040EA020001F0004110EBD37041F100013B
:1006F0005EEA430E08BF20EAD37070BDC4F1200546
:1007000000FA05F24EEA020E20FA04F301FA05F2AD
:1007100043EA020321FA04F001F0004121FA04F255
:1007200020EA020000EBD3705EEA430E08BF20EA25
:10073000D37070BD94F0000F0FD101F0004640005F
:1007400041EB010111F4801F08BF013CF7D041EAE1
:10075000060195F0000F18BF704703F000465200E5
:1007600043EB030313F4801F08BF013DF7D043EAB6
:100770000603704794EA0C0F0CEA135518BF95EA6C
:100780000C0F0CD050EA410618BF52EA4306D1D1F3
:1007900081EA030101F000414FF0000070BD50EA12
:1007A000410606BF1046194652EA430619D094EA9C
:1007B0000C0F02D150EA013613D195EA0C0F05D186
:1007C00052EA03361CBF104619460AD181EA0301DA
:1007D00001F0004141F0FE4141F470014FF0000092
:1007E00070BD41F0FE4141F4780170BD70B54FF02D
:1007F000FF0C4CF4E06C1CEA11541DBF1CEA1355AD
:1008000094EA0C0F95EA0C0F00F0A7F8A4EB05048E
:1008100081EA030E52EA03354FEA013100F0888085
:100820004FEA03334FF0805545EA131343EA12634E
:100830004FEA022245EA111545EA10654FEA002603
:100840000EF000419D4208BF964244F1FD0404F5BC
:10085000407402D25B084FEA3202B61A65EB030518
:100860005B084FEA32024FF480104FF4002CB6EBD5
:10087000020E75EB030E22BFB61A754640EA0C0055
:100880005B084FEA3202B6EB020E75EB030E22BF95
:10089000B61A754640EA5C005B084FEA3202B6EBD6
:1008A000020E75EB030E22BFB61A754640EA9C0095
:1008B0005B084FEA3202B6EB020E75EB030E22BF65
:1008C000B61A754640EADC0055EA060E18D04FEA23
:1008D000051545EA16754FEA06164FEAC30343EAC3
:1008E00052734FEAC2025FEA1C1CC0D111F4801F90
:1008F0000BD141EA00014FF000004FF0004CB6E789
:1009000011F4801F04BF01430020B4F1FD0C88BF27
:10091000BCF5E06F3FF6AFAEB5EB030C04BFB6EB32
:10092000020C5FEA500C50F1000041EB045170BD25
:100930000EF0004E4EEA113114EB5C04C2BFD4EB52
:100940000C0541EA045170BD41F480114FF0000ED6
:10095000013C90E645EA060E8DE60CEA135594EA52
:100960000C0F08BF95EA0C0F3FF43BAF94EA0C0F55
:100970000AD150EA01347FF434AF95EA0C0F7FF4CA
:1009800025AF104619462CE795EA0C0F06D152EA1E
:1009900003353FF4FDAE1046194622E750EA410602
:1009A00018BF52EA43067FF4C5AE50EA41047FF413
:1009B0000DAF52EA43057FF4EBAE12E74FEA410276
:1009C000B2F1E04324BFB3F5001CDCF1FE5C0DD9AD
:1009D00001F0004C4FEAC0024CEA5070B2F1004FF7
:1009E00040EB830008BF20F00100704711F0804FFA
:1009F00021D113F13872BCBF01F00040704741F4BF
:100A000080114FEA5252C2F11802C2F1200C10FAC2
:100A10000CF320FA02F018BF40F001004FEAC123A6
:100A20004FEAD32303FA0CFC40EA0C0023FA02F34A
:100A30004FEA4303CCE77FEA625307D150EA013320
:100A40001EBF4FF0FE4040F44000704701F00040F0
:100A500040F0FE4040F40000704700BF53B94AB96F
:100A6000002908BF00281CBF4FF0FF314FF0FF30B6
:100A700000F072B9ADF1080C6DE904CE00F006F893
:100A8000DDF804E0DDE9022304B070472DE9F0470A
:100A9000089E04468846002B4BD18A42154667D9EA
:100AA000B2FA82F24AB1C2F1200701FA02F320FA47
:100AB00007F7954047EA030894404FEA154E230C88
:100AC000B8FBFEF71FFA85FC0EFB178843EA0843C4
:100AD00007FB0CF1994209D9EB1807F1FF3080F0C0
:100AE0001B81994240F21881023F2B445B1AA4B249
:100AF000B3FBFEF00EFB103344EA034400FB0CFC96
:100B0000A44509D92C1900F1FF3380F00781A445D1
:100B100040F2048102382C4440EA0740A4EB0C0464
:100B200000271EB1D4400023C6E900433946BDE882
:100B3000F0878B4209D9002E00F0EB800027C6E930
:100B4000000138463946BDE8F087B3FA83F7002F35
:100B500047D18B4202D3824200F2FA80841A61EBC1
:100B6000030301209846002EE0D0C6E90048DDE7E7
:100B700002B9FFDEB2FA82F2002A40F08F80491BF0
:100B80004FEA154E1FFA85F80127B1FBFEFC230C36
:100B90000EFB1C1143EA014308FB0CF1994207D9F3
:100BA000EB180CF1FF3002D2994200F2CD8084465E
:100BB000591AA3B2B1FBFEF00EFB101443EA044431
:100BC00008FB00F8A04507D92C1900F1FF3302D229
:100BD000A04500F2B6801846A4EB080440EA0C4099
:100BE0009FE7C7F1200CBB4022FA0CFE4EEA030E31
:100BF00001FA07F420FA0CF521FA0CF34FEA1E482B
:100C00002543B3FBF8F92C0C08FB19331FFA8EFAB5
:100C100044EA034309FB0AF49C4202FA07F200FA91
:100C200007F10BD91EEB030309F1FF3080F0878039
:100C30009C4240F28480A9F1020973441B1BADB2AF
:100C4000B3FBF8F008FB103345EA034400FB0AFA53
:100C5000A24508D91EEB040400F1FF336BD2A24574
:100C600069D90238744440EA0940A0FB0289A4EB28
:100C70000A044C45C2464B4654D351D0002E69D08D
:100C8000B1EB0A0564EB030404FA0CFCFD40FC40E4
:100C90004CEA0505C6E90054002747E7C2F12003E6
:100CA00020FA03F7954001FA02F021FA03F34FEA24
:100CB000154E3843010CB3FBFEF71FFA85F80EFB07
:100CC000173341EA034107FB08F38B4204FA02F4AD
:100CD00007D9691807F1FF3C2FD28B422DD9023F6B
:100CE0002944CB1A81B2B3FBFEF00EFB103341EA6C
:100CF000034100FB08F38B4207D9691800F1FF3C60
:100D000017D28B4215D902382944C91A40EA07473D
:100D10003BE73746304609E70746E7E61846FBE675
:100D20004145ABD2B8EB020A69EB0E02013813461B
:100D3000A4E76046E9E7184695E76746D1E78146AC
:100D40007CE702382C4447E7ACF1020C2B442FE738
:100D5000384608E73746E9E6704700BF80B487B0F9
:100D600000AF786039607B68002B02D03B68002BB5
:100D700002D14FF0FF3337E07B687B613B683B611A
:100D80007B6901331B78BB817B6901331A783B692E
:100D900001331B789A420ED17B691A783B691B7824
:100DA0009A4208D1B7F90C30002B04D0B7F90C30B7
:100DB000B3F5C07F02DD6FF0010315E00223FB7382
:100DC0000AE03A69531C3B617B69591C79611278CE
:100DD0001A70FB7B0133FB73FA7BB7F90C300233DB
:100DE0009A42EEDBB7F90C3018461C37BD465DF869
:100DF000047B704780B582B000AF0223FB714FF4D3
:100E0000C06301220A490B480AF00CF90A4AFB792F
:100E100013700A4805F04CFC09480EF06DFC0122E5
:100E2000012108480BF02EFF00BF0837BD4680BDEA
:100E3000EC0A0220EC100220A604012080140220FB
:100E4000E44702200008024080B5B6B000AF87ED4D
:100E5000010A8C4A07F1600311465822184610F027
:100E6000E5FC894A07F1080311465822184610F09C
:100E7000DDFC4FF00003C7F8D4304FF00003C7F893
:100E8000CC304FF00003C7F8C830D7ED187A97ED93
:100E9000017AB4EEE77AF1EE10FA1ADB002387F854
:100EA000D330012387F8D23097F8D3309B0007F175
:100EB000D8021344783B1B68C7F8CC3097F8D2307F
:100EC0009B0007F1D8021344783B1B68C7F8C83071
:100ED0006AE0D7ED2D7A97ED017AB4EEE77AF1EE7C
:100EE00010FA1AD8042387F8D330052387F8D230B4
:100EF00097F8D3309B0007F1D8021344783B1B6866
:100F0000C7F8CC3097F8D2309B0007F1D8021344D1
:100F1000783B1B68C7F8C83046E00123C7F8C430E7
:100F20003EE0D7F8C430013B9B0007F1D8021344E0
:100F3000783B1B68C7F8CC30D7F8C4309B0007F16A
:100F4000D8021344783B1B68C7F8C83097ED337A52
:100F5000D7ED017AB4EEE77AF1EE10FA13DD97EDF2
:100F6000327AD7ED017AB4EEE77AF1EE10FA0AD5CB
:100F7000D7F8C430DBB2013B87F8D330D7F8C430A0
:100F800087F8D23010E04FF00003C7F8CC304FF0B4
:100F90000003C7F8C830D7F8C4300133C7F8C430ED
:100FA000D7F8C430152BBCD9D7ED337AF5EE407A9B
:100FB000F1EE10FA06D1D7ED327AF5EE407AF1EE85
:100FC00010FA49D097F8D3309B0007F1D8021344A8
:100FD000D03B1B68C7F8C03097F8D2309B0007F1B0
:100FE000D8021344D03B1B68C7F8BC3097ED327A67
:100FF000D7ED337AB4EE677AF1EE10FA20D097EDA0
:10100000017AD7ED337A77EE676A97ED327AD7EDCA
:10101000337A37EE677AC6EE877AC7ED2E7A97ED88
:101020002F7AD7ED307A37EE677AD7ED2E7A67EEE2
:10103000277A97ED307A77EE277AC7ED357A0BE08D
:1010400097ED307AD7ED2F7A37EE277AF0EE006AF7
:10105000C7EE267AC7ED357AD7ED357A9FED0B7A54
:10106000F4EEC77AF1EE10FA02DD094BC7F8D4307E
:10107000D7F8D43007EE903AB0EE670AD837BD46BD
:1010800080BD00BF7C180108D41801080000164379
:101090000000164380B500AF4FF4006109480BF023
:1010A000D9FD0346012B05D10022012106480BF092
:1010B000E9FD04E00122012103480BF0E3FD00BF3C
:1010C00080BD00BF000002400008024080B483B031
:1010D00000AF78603960074A7B681360064A3B6856
:1010E0001360064B01221A7000BF0C37BD465DF835
:1010F000047B70476009022064090220680902200D
:1011000080B500AF0A4B1B680A4A13600A4B5B6A42
:10111000074A13600122802108480BF0B3FD084BF9
:1011200000221A70074B00221A7000BF80BD00BF5A
:10113000041901200C190120000C00400004024099
:10114000A50401205A09022080B500AF0A4B1B6894
:101150000A4A13600A4B5B6A074A13600122402166
:1011600008480BF08FFD084B00221A70074B002235
:101170001A7000BF80BD00BF08190120101901209E
:10118000000C004000040240A50401205B0902207D
:1011900080B582B000AF114B5B6A114A13604FF407
:1011A000006110480BF056FD0346002B0CBF0123D5
:1011B0000023DBB2FB71FB79002B04D000228021DD
:1011C00009480BF05FFD094B00221A70084B012201
:1011D0001A7000BF0837BD4680BD00BF000C00403C
:1011E000FC1801200000024000040240A504012078
:1011F0005A09022080B582B000AF114B5B6A114AD8
:1012000013604FF4006110480BF024FD0346002BDF
:101210000CBF01230023DBB2FB71FB79002B04D050
:101220000022402109480BF02DFD094B00221A70C5
:10123000084B01221A7000BF0837BD4680BD00BFB1
:10124000000C004000190120000002400004024090
:10125000A50401205B09022080B582B000AF0346DF
:10126000FB71FB79002B02D1FFF74AFF04E0FB7909
:10127000012B01D1FFF768FF00BF0837BD4680BDD5
:1012800080B582B000AF0346FB71FB79002B02D121
:10129000FFF77EFF04E0FB79012B01D1FFF7AAFFE6
:1012A00000BF0837BD4680BD90B58BB000AF06F0DB
:1012B0007BFC87ED090A06F0AFFC0346002B04D146
:1012C000AE4B1B78DBB2002B01D0012300E00023E2
:1012D00087F823304FF40061A9480BF0BBFC0346AC
:1012E000002B0CBF01230023DBB287F8223097F8D4
:1012F0002230002B00F02B81A24B1B78002B40F0FA
:10130000268197F82330002B00F021819E4B1B781B
:1013100087F821309D4B1B68FB619D4B1B68BB61AF
:101320009C4B1B687B619C4B5B6A3B61B96938696C
:1013300006F058FD0246994B9A4210D9F96938696E
:1013400006F050FD0246954B9A4208D901228021B1
:1013500093480BF097FC8C4B00221A7062E097F8D0
:101360002130002B5ED18F4B5B69002B5AD0D7ED1B
:10137000097A9FED8D7AF4EEC77AF1EE10FA19D55D
:10138000B969386906F02EFD04467969B86906F036
:1013900029FD024613465B0013445B01DB099C42B6
:1013A00040D3002280217E480BF06CFC764B01225A
:1013B0001A7037E07969B86906F014FD024643F601
:1013C00098239A4218D97969B86906F00BFD03464B
:1013D0001C46B969386906F005FD0346E31A42F672
:1013E000C65293421EDC002280216D480BF04AFC5D
:1013F000654B01221A7015E0B969386906F0F2FCF4
:1014000004467969B86906F0EDFC03469B01DB09E7
:101410009C4207D30022802161480BF033FC5A4BD9
:1014200001221A70614B1B78FB73614B1B68BB6018
:10143000604B1B687B60604B1B683B60564B5B6A74
:101440003B617968386906F0CDFC0246534B9A42FD
:1014500010D9B968386906F0C5FC02464F4B9A426C
:1014600008D9012240214E480BF00CFC4F4B0022C2
:101470001A706BE0FB7B002B7AD14A4B5B69002B27
:1014800076D0D7ED097A9FED487AF4EEC77AF1EE7F
:1014900010FA19D57968386906F0A4FC0446396851
:1014A000786806F09FFC024613465B0013445B011C
:1014B000DB099C425CD30022402139480BF0E2FB5F
:1014C0003A4B01221A7053E0D7ED097A9FED3B7A2F
:1014D000F4EEC77AF1EE10FA21DD3968786806F08B
:1014E00081FC024643F698239A4218D939687868F5
:1014F00006F078FC03461C467968386906F072FCF1
:101500000346E31A42F6C65293421FDC00224021F2
:1015100023480BF0B7FB254B01221A7016E07968BF
:10152000386906F05FFC04463968786806F05AFCB2
:1015300003469B01DB099C421AD300224021184834
:101540000BF0A0FB194B01221A7011E010E00122F0
:10155000802113480BF096FB0122402110480BF02C
:1015600091FB094B00221A70104B00221A7000E008
:1015700000BF00BF2C37BD4690BD00BF2019012021
:1015800000000240A50401205A090220FC18012095
:10159000041901200C190120000C0040BF2709008C
:1015A0000004024080140220000096435B090220E0
:1015B0000019012008190120101901200000FA4328
:1015C00080B586B000AF2C4B5B6AFB600023FB75D7
:1015D0002A4AFB6813604FF000033B6106F0EEF906
:1015E00087ED020A97ED020A06F0AAFA87ED010AD2
:1015F00006F01EFB034607EE903AF8EE677AC7ED59
:10160000007AD7ED027A9FED1E7AF4EEC77AF1EEFA
:1016100010FA0DD5D7ED027A9FED1A7AF4EEC77A5B
:10162000F1EE10FA04DB0123FB75BB683B6103E0BC
:101630000223FB757B683B61134A3B691360D7ED5E
:10164000007AF5EE407AF1EE10FA0ED00F4B5B699E
:10165000002B0AD0FB7D012B02D1FFF751FD04E0E6
:10166000FB7D022B01D1FFF76FFD094B01221A70A0
:1016700000BF1837BD4680BD000C00401419012082
:101680000000B4420000B4C21819012080140220E6
:10169000201901200000000090B583B000AF264B58
:1016A0001B687B60254B5B6A3B60254B1B681946BA
:1016B000386806F097FB024642F210739A4215D939
:1016C000204B1B681846FEF70FFF19A3D3E9002330
:1016D000FEF762FF03460C4618462146FFF76EF9F7
:1016E0000246184B1A60164A3B68136079683868DE
:1016F00006F078FB0246144B9A4212D9134B9B69B1
:10170000002B03D1114B5B69002B07D006F090FA38
:101710000346002B02D00B4B0D4A1A600D4B0022E2
:101720001A7000BF0C37BD4690BD00BFAFF30080FC
:10173000666666666666EE3F14190120000C00407E
:10174000281102201C190120C02709008014022042
:10175000000040402019012080B5A4B000AF06F081
:1017600023FA87ED110A07F013FB87ED100ABC4B33
:10177000FB634FF40041BB480BF06CFA0346012BAE
:101780000CBF01230023DBB287F83B30B64B5B6A0A
:101790007B634FF00003C7F88C304FF00003C7F8AD
:1017A00088304FF00003C7F884304FF00003C7F8CB
:1017B00080304FF00003FB674FF00003BB674FF032
:1017C00000037B674FF000033B634FF00003FB62B5
:1017D0004FF00003BB624FF000037B624FF0000349
:1017E0003B624FF00003FB6100233B670023FB6675
:1017F0000023BB6600237B6600233B660023FB655A
:101800000023BB65994B1B78BB61994B1B68BA6978
:101810009A4202DBBB69032B08DCBB6940F66C42D1
:1018200002FB03F3E033924A1344BB65D7ED117A10
:101830009FED907AF4EEC77AF1EE10FA06DD8E4B4A
:1018400000221A708D4A7B6B136015E0D7ED117A78
:10185000B2EE047AF4EEC77AF1EE10FA0CD5874BAB
:101860001B681946786B06F0BDFA0246844B9A4213
:1018700002D8814B01221A70BB6D002B00F0A584A9
:10188000BB6D5B69C7F88C307B4B1B78002B40F03D
:101890007B84D7ED117AB2EE047AF4EEC77AF1EEDA
:1018A00010FA40F3718497F83B30002B00F0EA8087
:1018B000BB6DDB69002B40F3E580BB6DDB69012B61
:1018C00004D1BB6D1B6AC7F88C3057E3BB6DD3EDF9
:1018D000207A97ED117AB4EEE77AF1EE10FA04D897
:1018E000BB6D1B6AC7F88C3065E0BB6DD3F8443123
:1018F000013BBA6D20339B001344D3ED007A97ED82
:10190000117AB4EEE77AF1EE10FA18DBBB6DDB6901
:10191000023B3B67BB6DDB69013BFB66BA6D3B6F0E
:1019200020339B0013441B68C7F88830BA6DFB6EE8
:1019300020339B0013441B68C7F884303BE001232D
:101940007B6533E07B6D013BBA6D20339B00134414
:101950001B68C7F88830BA6D7B6D20339B00134439
:101960001B68C7F8843097ED227AD7ED117AB4EE70
:10197000E77AF1EE10FA0ED597ED217AD7ED117ACC
:10198000B4EEE77AF1EE10FA05DD7B6D013B3B67C3
:101990007B6DFB660FE04FF00003C7F888304FF017
:1019A0000003C7F884307B6D01337B65BB6DDB6959
:1019B0007A6D9A42C6DBD7ED227AF5EE407AF1EEE7
:1019C00010FA07D1D7ED217AF5EE407AF1EE10FA50
:1019D00000F0D482BA6D3B6F08339B0013441B6840
:1019E0003B63BA6DFB6E08339B0013441B68FB62BC
:1019F00097ED227AD7ED217AB4EE677AF1EE10FAFC
:101A000020D097ED117AD7ED227A77EE676A97EDBD
:101A1000217AD7ED227A37EE677AC6EE877AC7ED5C
:101A2000057A97ED0B7AD7ED0C7A37EE677AD7ED1A
:101A3000057A67EE277A97ED0C7A77EE277AC7ED6D
:101A4000237A9BE297ED0C7AD7ED0B7A37EE277A63
:101A5000F0EE006AC7EE267AC7ED237A8EE200BF69
:101A60000000B44200080240000C00403019012080
:101A7000801402200000C843A7040120A80401200C
:101A80009F860100BB6DD3F8E030002B00F0778219
:101A9000BB6DD3F84431002B00F07182BB6DD3F8DD
:101AA000E030012B0DD10023BB6600237B66BB6DAC
:101AB000D3F8E430C7F88030BB6DD3F8E430FB676F
:101AC0008AE0BB6DD3ED397A97ED107AB4EEE77A00
:101AD000F1EE10FA15D80023BB6601237B66BA6DC0
:101AE000BB6E38339B00134404331B68C7F8803047
:101AF000BA6D7B6E38339B00134404331B68FB675D
:101B00006AE0BB6DD3F8E030013BBA6D38339B001F
:101B100013440433D3ED007A97ED107AB4EEE77AEC
:101B2000F1EE10FA1BDBBB6DD3F8E030023BBB6675
:101B3000BB6DD3F8E030013B7B66BA6DBB6E3833CA
:101B40009B00134404331B68C7F88030BA6D7B6E6A
:101B500038339B00134404331B68FB673CE00123CC
:101B60003B6533E03B6D013BBA6D38339B0013445A
:101B700004331B68C7F88030BA6D3B6D38339B0067
:101B8000134404331B68FB6797ED207AD7ED107A76
:101B9000B4EEE77AF1EE10FA0ED597ED1F7AD7ED95
:101BA000107AB4EEE77AF1EE10FA05DD3B6D013BF9
:101BB000BB663B6D7B660FE04FF00003C7F88030DB
:101BC0004FF00003FB673B6D01333B65BB6DD3F802
:101BD000E0303A6D9A42C5DBBB6DD3F84431012B3E
:101BE0000ED100233B670023FB66BB6DD3F8483161
:101BF000C7F88830BB6DD3F84831C7F8843087E028
:101C0000BB6DD3ED527A97ED117AB4EEE77AF1EE2F
:101C100010FA14D800233B670123FB66BA6D3B6FB3
:101C200052339B0013441B68C7F88830BA6DFB6EB3
:101C300052339B0013441B68C7F8843068E0BB6DC7
:101C4000D3F84431013BBA6D52339B001344D3EDBA
:101C5000007A97ED117AB4EEE77AF1EE10FA1ADB1A
:101C6000BB6DD3F84431023B3B67BB6DD3F84431C5
:101C7000013BFB66BA6D3B6F52339B0013441B68FC
:101C8000C7F88830BA6DFB6E52339B0013441B6853
:101C9000C7F884303CE00123FB6433E0FB6C013B7C
:101CA000BA6D52339B0013441B68C7F88830BA6D75
:101CB000FB6C52339B0013441B68C7F8843097EDCC
:101CC000227AD7ED117AB4EEE77AF1EE10FA0ED55A
:101CD00097ED217AD7ED117AB4EEE77AF1EE10FAAA
:101CE00005DDFB6C013B3B67FB6CFB6610E04FF0D6
:101CF0000003C7F888304FF00003C7F88430FB6C4E
:101D00000133FB64BB6DD3F84431FA6C9A42C5DBF6
:101D1000B96DBA6E13465B001344DB003A6F13448F
:101D20006A339B000B441B68BB62B96DBA6E1346E5
:101D30005B001344DB00FA6E13446A339B000B44D0
:101D40001B687B62B96D7A6E13465B001344DB003F
:101D50003A6F13446A339B000B441B683B62B96DB6
:101D60007A6E13465B001344DB00FA6E13446A3349
:101D70009B000B441B68FB61D7ED227AF5EE407A9D
:101D8000F1EE10FA07D1D7ED217AF5EE407AF1EEB7
:101D900010FA00F0F480D7ED207AF5EE407AF1EEFB
:101DA00010FA07D1D7ED1F7AF5EE407AF1EE10FA6E
:101DB00000F0E58097ED217AD7ED227AB4EE677ACC
:101DC000F1EE10FA59D097ED207AD7ED1F7AB4EEE4
:101DD000677AF1EE10FA50D097ED117AD7ED227AAA
:101DE00077EE676A97ED217AD7ED227A37EE677A38
:101DF000C6EE877AC7ED047A97ED107AD7ED207A90
:101E000077EE676A97ED1F7AD7ED207A37EE677A1B
:101E1000C6EE877AC7ED037A97ED097AD7ED0A7A8D
:101E200037EE677AD7ED047A67EE277A97ED0A7A6C
:101E300077EE277AC7ED027A97ED077AD7ED087A21
:101E400037EE677AD7ED047A67EE277A97ED087A4E
:101E500077EE277AC7ED017A97ED017AD7ED027A0E
:101E600037EE677AD7ED037A67EE277A97ED027A35
:101E700077EE277AC7ED237A81E097ED217AD7EDC7
:101E8000227AB4EE677AF1EE10FA2CD197ED207A2F
:101E9000D7ED1F7AB4EE677AF1EE10FA23D097ED02
:101EA000107AD7ED207A77EE676A97ED1F7AD7ED33
:101EB000207A37EE677AC6EE877AC7ED037A4FF05D
:101EC0007E533B6197ED087AD7ED0A7A37EE677A51
:101ED000D7ED037A67EE277A97ED0A7A77EE277ABD
:101EE000C7ED237A4BE097ED217AD7ED227AB4EE55
:101EF000677AF1EE10FA2CD097ED207AD7ED1F7AA1
:101F0000B4EE677AF1EE10FA23D197ED117AD7ED9E
:101F1000227A77EE676A97ED217AD7ED227A37EE4B
:101F2000677AC6EE877AC7ED047A4FF07E53FB607E
:101F300097ED097AD7ED0A7A37EE677AD7ED047A0A
:101F400067EE277A97ED0A7A77EE277AC7ED237A3C
:101F500015E097ED0A7AD7ED097A37EE277AD7EDB3
:101F6000087A37EE277AD7ED077A37EE277AF1EE3F
:101F7000006AC7EE267AC7ED237A00E000BF974BD0
:101F80009B68002B00F00081BB6DD3F8A83A002BB2
:101F900040F3FA80BB6DD3F8A83A012B0BD1BB6D8F
:101FA00003F6DC23D3ED007A97ED237A77EE277AD8
:101FB000C7ED237AE8E0BB6DD3F8A83A012B40F3D4
:101FC000E380BB6D03F6AC23D3ED007A97ED0F7A77
:101FD000B4EEE77AF1EE10FA0BD8BB6D03F6DC2312
:101FE000D3ED007A97ED237A77EE277AC7ED237A3F
:101FF0006CE0BB6DD3F8A83A013BBA6D03F2AA239B
:102000009B0013440433D3ED007A97ED0F7AB4EEBE
:10201000E77AF1EE10FA1CDBBB6DD3F8A83A023B6D
:102020003B66BB6DD3F8A83A013BFB65BA6D3B6ECE
:1020300003F2AA239B00134404331B68BB67BA6DE9
:10204000FB6D03F2AA239B00134404331B687B67D8
:102050003CE00123BB6433E0BB6C013BBA6D03F28F
:10206000AA239B00134404331B68BB67BA6DBB6C87
:1020700003F2AA239B00134404331B687B6797ED8C
:102080001E7AD7ED0F7AB4EEE77AF1EE10FA0ED59C
:1020900097ED1D7AD7ED0F7AB4EEE77AF1EE10FAEC
:1020A00005DDBB6C013B3B66BB6CFB650EE04FF096
:1020B0000003BB674FF000037B67BB6C0133BB645D
:1020C000BB6DD3F8A83ABA6C9A42C5DBD7ED1E7A3D
:1020D000F5EE407AF1EE10FA06D1D7ED1D7AF5EE65
:1020E000407AF1EE10FA4FD0BA6D3B6E03F2B62390
:1020F0009B00134404331B683B63BA6DFB6D03F212
:10210000B6239B00134404331B68FB6297ED1E7AD1
:10211000D7ED1D7AB4EE677AF1EE10FA24D097ED80
:102120000F7AD7ED1E7A77EE676A97ED1D7AD7EDB5
:102130001E7A37EE677AC6EE877AC7ED057A97ED95
:102140000B7AD7ED0C7A37EE677AD7ED057A27EE62
:10215000277AD7ED0C7A77EE277A97ED237A77EE08
:10216000277AC7ED237A0FE097ED0C7AD7ED0B7A3B
:1021700037EE277AF0EE006AC7EE267A97ED237ADB
:1021800077EE277AC7ED237ABB6DD3ED067A97ED0C
:10219000237A77EE277AC7ED237AD7ED237A9FED5E
:1021A000107AF4EEC77AF1EE10FA02DD0D4BC7F8A3
:1021B0008C30D7ED237A9FED0C7AF4EEC77AF1EEEE
:1021C00010FA02D5094BC7F88C30D7F88C3007EEDF
:1021D000903AB0EE670A9037BD4680BD8014022069
:1021E0000000B4420000B442000070C2000070C29F
:1021F00080B5A2B000AF9A4B1B78DBB2002B00F089
:102200003C8605F0D1FC87ED150A964B1B683B65B3
:1022100006F0BEFD87ED130A4FF4004192480AF024
:1022200019FD0346012B0CBF01230023DBB287F805
:102230004B308E4B5B6A7B644FF000033B644FF086
:102240000003C7F884304FF00003C7F880304FF028
:102250000003FB674FF00003BB674FF00003FB6315
:102260004FF00003BB634FF000037B634FF00003AC
:102270003B634FF00003FB624FF00003BB6200239F
:102280007B6700233B670023FB660023BB660023BC
:102290007B66774B1B787B62764B1B687A6A9A4227
:1022A00002DB7B6A032B08DC7B6A40F66C4202FB94
:1022B00003F3E0336F4A13447B66D7ED157A9FED45
:1022C0006E7AF4EEC77AF1EE10FA06DD6B4B00225F
:1022D0001A706B4A7B6C136018E0D7ED157AB2EE7A
:1022E000047AF4EEC77AF1EE10FA0FD5654A7B6CEA
:1022F0001360634B1B681946786C05F073FD02464A
:10230000614B9A4202D85D4B01221A705D4B1B68EB
:102310001946786C05F066FD07EE900AF8EE677ACC
:10232000C7ED087AD7ED087A9FED587AF4EEC77AB0
:10233000F1EE10FA00F1A38597ED087ADFED546A0B
:10234000C7EE267AC7ED077AB7EE007AD7ED077A9F
:1023500077EE677AC7ED067A4A4A7B6C13607B6E2C
:10236000002B00F08F85454B1B78002B40F08A85B1
:1023700097F84B30002B00F045817B6EDB69002B1A
:1023800040F340817B6EDB69012B04D17B6E1B6ABD
:102390003B6400F076BD7B6ED3ED207A97ED157A25
:1023A000B4EEE77AF1EE10FA03D87B6E1B6A3B6459
:1023B00080E07B6ED3F84431013B7A6E20339B0082
:1023C0001344D3ED007A97ED157AB4EEE77AF1EE87
:1023D00010FA18DB7B6EDB69023B7B677B6EDB6987
:1023E000013B3B677A6E7B6F20339B0013441B6875
:1023F000C7F884307A6E3B6F20339B0013441B6810
:10240000C7F8803056E001233B664EE03B6E013B4F
:102410007A6E20339B0013441B68C7F884307A6EB1
:102420003B6E20339B0013441B68C7F8803097ED48
:10243000217AD7ED157AB4EEE77AF1EE10FA29D5C4
:1024400097ED207AD7ED157AB4EEE77AF1EE10FA2F
:1024500020DD3B6E013B7B673B6E3B672AE000BFA4
:10246000201901201819012000080240000C00402A
:1024700030190120801402200000C842AC04012061
:10248000B0040120001102209F86010000401C467C
:102490008096184B4FF00003C7F884304FF00003CC
:1024A000C7F880303B6E01333B667B6EDB693A6E6A
:1024B0009A42ABDBD7ED217AF5EE407AF1EE10FAD5
:1024C00007D1D7ED207AF5EE407AF1EE10FA00F060
:1024D000D8847A6E7B6F08339B0013441B68FB63C0
:1024E0007A6E3B6F08339B0013441B68BB6397ED08
:1024F0000F7AD7ED0E7AB4EE677AF1EE10FA5FD06C
:1025000097ED157AD7ED217A77EE676A97ED207A05
:10251000D7ED217A37EE677AC6EE877AC7ED057A6E
:1025200097ED0E7AD7ED0F7A37EE677AD7ED057A09
:1025300067EE277A97ED0F7A77EE277AC7ED107A54
:1025400097ED107AD7ED067A27EE277AD7ED076A4E
:10255000D7ED147A66EEA77A77EE277AC7ED147A6C
:1025600097ED147AD7ED107A77EE677AC7ED047A93
:10257000B7EE007AD7ED057A37EE677AD7ED047AB1
:1025800027EE277AD7ED0F7A77EE277A7A6E7B6F70
:1025900008339B001344C3ED007A97ED047AD7ED1E
:1025A000057A27EE277AD7ED0E7A77EE277A7A6EBC
:1025B0003B6F08339B001344C3ED007A00F061BC0D
:1025C000FB6B3B6497ED107AD7ED067A27EE277AFE
:1025D000D7ED076AD7ED147A66EEA77A77EE277AF9
:1025E000C7ED147A7A6E7B6F08339B0013443A6D03
:1025F0001A607A6E3B6F08339B0013443A6D1A6081
:1026000000F03FBC7B6ED3F8E030002B00F03A8442
:102610007B6ED3F84431002B00F034847B6ED3F80A
:10262000E030012B0CD10023FB660023BB667B6EE0
:10263000D3F8E430FB677B6ED3F8E430BB6786E009
:102640007B6ED3ED397A97ED137AB4EEE77AF1EE3B
:1026500010FA14D80023FB660123BB667A6EFB6E6A
:1026600038339B00134404331B68FB677A6EBB6EE0
:1026700038339B00134404331B68BB6767E07B6EF1
:10268000D3F8E030013B7A6E38339B0013440433B7
:10269000D3ED007A97ED137AB4EEE77AF1EE10FA03
:1026A0001ADB7B6ED3F8E030023BFB667B6ED3F81F
:1026B000E030013BBB667A6EFB6E38339B001344FF
:1026C00004331B68FB677A6EBB6E38339B00134480
:1026D00004331B68BB673AE00123FB6531E0FB6D07
:1026E000013B7A6E38339B00134404331B68FB674D
:1026F0007A6EFB6D38339B00134404331B68BB6751
:1027000097ED1F7AD7ED137AB4EEE77AF1EE10FA6F
:102710000ED597ED1E7AD7ED137AB4EEE77AF1EE87
:1027200010FA05DDFB6D013BFB66FB6DBB660EE041
:102730004FF00003FB674FF00003BB67FB6D0133F5
:10274000FB657B6ED3F8E030FA6D9A42C7DB7B6E97
:10275000D3F84431012B0ED100237B6700233B6764
:102760007B6ED3F84831C7F884307B6ED3F848319C
:10277000C7F8803087E07B6ED3ED527A97ED157AFB
:10278000B4EEE77AF1EE10FA14D800237B67012348
:102790003B677A6E7B6F52339B0013441B68C7F80C
:1027A00084307A6E3B6F52339B0013441B68C7F82A
:1027B000803068E07B6ED3F84431013B7A6E52334F
:1027C0009B001344D3ED007A97ED157AB4EEE77AC7
:1027D000F1EE10FA1ADB7B6ED3F84431023B7B67D3
:1027E0007B6ED3F84431013B3B677A6E7B6F52338B
:1027F0009B0013441B68C7F884307A6E3B6F5233DA
:102800009B0013441B68C7F880303CE00123BB6584
:1028100033E0BB6D013B7A6E52339B0013441B685F
:10282000C7F884307A6EBB6D52339B0013441B682B
:10283000C7F8803097ED217AD7ED157AB4EEE77AB4
:10284000F1EE10FA0ED597ED207AD7ED157AB4EEA9
:10285000E77AF1EE10FA05DDBB6D013B7B67BB6DDE
:102860003B6710E04FF00003C7F884304FF00003DF
:10287000C7F88030BB6D0133BB657B6ED3F8443144
:10288000BA6D9A42C5DBD7ED217AF5EE407AF1EECA
:1028900010FA07D1D7ED207AF5EE407AF1EE10FA72
:1028A00000F0F082D7ED1F7AF5EE407AF1EE10FAE3
:1028B00007D1D7ED1E7AF5EE407AF1EE10FA00F06E
:1028C000E182796EFA6E13465B001344DB007A6F87
:1028D00013446A339B000B441B687B63796EFA6E6A
:1028E00013465B001344DB003A6F13446A339B00CA
:1028F0000B441B683B63796EBA6E13465B0013444E
:10290000DB007A6F13446A339B000B441B68FB6245
:10291000796EBA6E13465B001344DB003A6F1344C2
:102920006A339B000B441B68BB6297ED207AD7ED9E
:10293000217AB4EE677AF1EE10FA00F0EF8097EDAD
:102940001F7AD7ED1E7AB4EE677AF1EE10FA00F036
:10295000E58097ED157AD7ED217A77EE676A97EDE6
:10296000207AD7ED217A37EE677AC6EE877AC7EDFF
:10297000037A97ED137AD7ED1F7A77EE676A97EDB2
:102980001E7AD7ED1F7A37EE677AC6EE877AC7EDE3
:10299000027A97ED0C7AD7ED0D7A37EE677AD7ED9C
:1029A000037A67EE277A97ED0D7A77EE277AC7EDEF
:1029B000017A97ED0A7AD7ED0B7A37EE677AD7ED81
:1029C000037A67EE277A97ED0B7A77EE277AC7EDD1
:1029D000007A97ED007AD7ED017A37EE677AD7ED76
:1029E000027A67EE277A97ED017A77EE277AC7EDBC
:1029F000107A97ED107AD7ED067A27EE277AD7ED81
:102A0000076AD7ED147A66EEA77A77EE277AC7EDD4
:102A1000147A97ED147AD7ED107A77EE677AC7EDCE
:102A2000047AB7EE007AD7ED037A37EE677AD7EDFE
:102A3000047A27EE277AF7EE006AD7ED027A76EE6F
:102A4000E77A27EE277AD7ED0D7A77EE277A796E37
:102A5000FA6E13465B001344DB007A6F13446A334B
:102A60009B000B44C3ED007A97ED047AD7ED037A0F
:102A700027EE277AF7EE006AD7ED027A76EEE77A4C
:102A800027EE277AD7ED0C7A77EE277A796EFA6EF1
:102A900013465B001344DB003A6F13446A339B0018
:102AA0000B44C3ED007AB7EE007AD7ED037A37EE28
:102AB000677AD7ED047A27EE277AD7ED027A27EEE8
:102AC000277AD7ED0B7A77EE277A796EBA6E1346AE
:102AD0005B001344DB007A6F13446A339B000B44A2
:102AE000C3ED007A97ED047AD7ED037A27EE277AC3
:102AF000D7ED027A27EE277AD7ED0A7A77EE277A92
:102B0000796EBA6E13465B001344DB003A6F1344D0
:102B10006A339B000B44C3ED007AB3E197ED207A52
:102B2000D7ED217AB4EE677AF1EE10FA40F0AA8080
:102B300097ED1F7AD7ED1E7AB4EE677AF1EE10FAB0
:102B400000F0A08097ED137AD7ED1F7A77EE676AD1
:102B500097ED1E7AD7ED1F7A37EE677AC6EE877A41
:102B6000C7ED027A4FF07E53FB6097ED0B7AD7EDFD
:102B70000D7A37EE677AD7ED027A67EE277A97ED0E
:102B80000D7A77EE277AC7ED107A97ED107AD7EDA8
:102B9000067A27EE277AD7ED076AD7ED147A66EE24
:102BA000A77A77EE277AC7ED147A97ED147AD7EDE6
:102BB000107A77EE677AC7ED047AB7EE007AD7ED30
:102BC000027A37EE677AD7ED047A27EE277AD7EDC7
:102BD0000D7A77EE277A796EFA6E13465B0013440E
:102BE000DB007A6F13446A339B000B44C3ED007A19
:102BF000B7EE007AD7ED027A37EE677AD7ED047A2E
:102C000027EE277AD7ED0C7A77EE277A796EFA6E6F
:102C100013465B001344DB003A6F13446A339B0096
:102C20000B44C3ED007A97ED047AD7ED027A27EED4
:102C3000277AD7ED0B7A77EE277A796EBA6E13463C
:102C40005B001344DB007A6F13446A339B000B4430
:102C5000C3ED007A97ED047AD7ED027A27EE277A52
:102C6000D7ED0A7A77EE277A796EBA6E13465B0053
:102C70001344DB003A6F13446A339B000B44C3EDEB
:102C8000007AFFE097ED207AD7ED217AB4EE677AEB
:102C9000F1EE10FA00F0AA8097ED1F7AD7ED1E7AB8
:102CA000B4EE677AF1EE10FA40F0A08097ED157A55
:102CB000D7ED217A77EE676A97ED207AD7ED217A02
:102CC00037EE677AC6EE877AC7ED037A4FF07E5308
:102CD000BB6097ED0C7AD7ED0D7A37EE677AD7EDBA
:102CE000037A67EE277A97ED0D7A77EE277AC7EDAC
:102CF000107A97ED107AD7ED067A27EE277AD7ED7E
:102D0000076AD7ED147A66EEA77A77EE277AC7EDD1
:102D1000147A97ED147AD7ED107A77EE677AC7EDCB
:102D2000047AB7EE007AD7ED037A37EE677AD7EDFB
:102D3000047A27EE277AD7ED0D7A77EE277A796E27
:102D4000FA6E13465B001344DB007A6F13446A3358
:102D50009B000B44C3ED007A97ED047AD7ED037A1C
:102D600027EE277AD7ED0C7A77EE277A796EFA6E0E
:102D700013465B001344DB003A6F13446A339B0035
:102D80000B44C3ED007AB7EE007AD7ED037A37EE45
:102D9000677AD7ED047A27EE277AD7ED0B7A77EEAC
:102DA000277A796EBA6E13465B001344DB007A6FA4
:102DB00013446A339B000B44C3ED007A97ED047A09
:102DC000D7ED037A27EE277AD7ED0A7A77EE277ABE
:102DD000796EBA6E13465B001344DB003A6F1344FE
:102DE0006A339B000B44C3ED007A4BE07B6B3B6482
:102DF00097ED107AD7ED067A27EE277AD7ED076A96
:102E0000D7ED147A66EEA77A77EE277AC7ED147AB3
:102E1000796EFA6E13465B001344DB007A6F13443D
:102E20006A339B000B443A6D1A60796EFA6E134652
:102E30005B001344DB003A6F13446A339B000B447E
:102E40003A6D1A60796EBA6E13465B001344DB006C
:102E50007A6F13446A339B000B443A6D1A60796EA3
:102E6000BA6E13465B001344DB003A6F13446A33B7
:102E70009B000B443A6D1A6004E000BF02E000BF03
:102E800000E000BF8837BD4680BD00BF80B58EB072
:102E900000AFCC4B5B6AFB624FF00003BB604FF0AE
:102EA0000003FB604FF40061C74809F0D3FE0346FE
:102EB000002B0CBF01230023DBB287F82B3004F07A
:102EC0007DFDF0EE407AC7ED027AD7ED027AB0EEE2
:102ED000670A04F035FEF0EE407AC7ED037A97F802
:102EE0002B30002B00F07482B84B1B6A002B21D0D2
:102EF00004F092FE0346002B17D0D7ED027ABFEE06
:102F0000007AF4EEC77AF1EE10FA0EDDD7ED027A10
:102F1000B7EE007AF4EEC77AF1EE10FA05D5012289
:102F20000421AB4809F0AEFE04E000220421A848C9
:102F300009F0A8FEA54B5B69002B40F04B8204F022
:102F400033FE87ED090A04F04BFE87ED080A04F012
:102F500055FE87ED070A9F4B7B63D7ED097A9FEDFE
:102F60009E7AF4EEC77AF1EE10FA02D59B4B7B63A2
:102F70002EE0D7ED097A9FED9A7AF4EEC77AF1EE5A
:102F800010FA02D5974B7B6322E0D7ED097A9FEDCB
:102F9000967AF4EEC77AF1EE10FA02D5934B7B6382
:102FA00016E0D7ED097A9FED927AF4EEC77AF1EE4A
:102FB00010FA02D58F4B7B630AE0D7ED097A9FEDBB
:102FC0008E7AF4EEC77AF1EE10FA01D58B4B7B6363
:102FD0004FF00003BB6104F02BFE034607EE903A6E
:102FE000F8EE677AC7ED057AD7ED057AF5EE407A07
:102FF000F1EE10FA00F0E781D7ED077A9FED807AC5
:10300000F4EEC77AF1EE10FA07D5D7ED077A9FED07
:103010007D7A67EE877AC7ED0D7AD7ED0D6A97ED69
:10302000087AC6EE877AC7ED047A774B1B68BB61D6
:10303000764A3B69136097ED067AD7ED087A67EE1A
:10304000277A734BC3ED007A00233B63B6E13B6BF9
:103050009B0007F138021344303B93ED007AD7ED23
:10306000067AF1EE677AB4EEE77AF1EE10FA16D549
:103070003B6B9B0007F138021344303BD3ED007AE1
:10308000B1EE677AD7ED067A77EE677A3B6B9B00F5
:1030900007F138021344383BC3ED007A17E03B6B6D
:1030A0009B0007F138021344303BD3ED007A9FEDCB
:1030B000597A37EE677AD7ED067A77EE677A3B6B07
:1030C0009B0007F138021344383BC3ED007A3B6B99
:1030D0009B0007F138021344383B93ED007A4E4AC7
:1030E0003B6B9B001344D3ED007A77EE677AF5EEE5
:1030F000C07AF1EE10FA22DD3B6B9B0007F138023B
:103100001344383B93ED007A434A3B6B9B001344D6
:10311000D3ED007A77EE677A9FED407AF4EEC77AC6
:10312000F1EE10FA0BD53C4A3B6B9B0013441A6836
:103130003B6B9B0007F138010B44383B1A60D7ED1D
:10314000097A9FED377AF4EEC77AF1EE10FA40F182
:103150009380344A3B6B13441B78002B00F08C8027
:103160003B6B9B0007F138021344303BD3ED007AF0
:103170009FED2D7AF4EEC77AF1EE10FA7CD52B4A4A
:103180003B6B13441B78002B54D0294A3B6B52F8FD
:1031900023301946F86A04F025FE0346B3F57A6F2A
:1031A00048D93B6BDBB21846FEF756F81F4A3B6B1B
:1031B000134400221A701E493B6BFA6A41F823201F
:1031C00070E000BF000C00400000024080140220AC
:1031D000000C02400000E1440000C84300C0DA4592
:1031E00000002F440080BB4500007A4400409C450D
:1031F0000080A24400007A450080BB4400803B452B
:10320000006086455953D63E281901202C1901200B
:10321000241901200000B4430411022000003443AB
:103220000000AF430C1102200000A0421011022048
:1032300014110220694A3B6B13441B78002B31D1D7
:10324000674A3B6B52F823301946F86A04F0CAFD0E
:103250000346B3F57A7F25D93B6BDBB21846FEF700
:103260000FF85E4A3B6B134401221A705C493B6BBA
:10327000FA6A41F8232015E0584A3B6B13441B7847
:10328000002B09D0554A3B6B134400221A703B6B4C
:10329000DBB21846FDF7E0FF524A3B6B13440022B5
:1032A0001A7000E000BF3B6B9B0007F1380213442B
:1032B000383B93ED007AD7ED047A77EE677AF5EE36
:1032C000C07AF1EE10FA1AD5474A3B6B13441B78CB
:1032D000002B14D1454A3B6B13441B78002B0ED1B5
:1032E000414A3B6B134401221A703E4A3B6B134424
:1032F00000221A703B6BDBB21846FDF7C1FF3C4A57
:103300003B6B9B00134493ED007A3B6B9B0007F1F2
:1033100038021344383BD3ED007A77EE677ABFEE7C
:10332000007AF4EEC77AF1EE10FA33D52F4A3B6BF0
:1033300013441B78002B32D12B4A3B6B13441B7870
:10334000002B2CD0294A3B6B134401221A70264AC9
:103350003B6B134400221A703B6BDBB21846FDF73F
:103360007BFFD7ED097A9FED237AF4EEC77AF1EE71
:1033700010FA14D51A493B6BFA6A41F82320174A10
:103380003B6B134400221A70164A3B6B1344012214
:103390001A7004E0154A3B6B134400221A703B6B11
:1033A0009B0007F138021344383B1A6810493B6B05
:1033B0009B000B441A603B6B01333B633B6B012B5F
:1033C0007FF745AE07E00C4B4FF000021A6002E0B9
:1033D00000BF00E000BF3837BD4680BD101102209D
:1033E000141102200C110220B4040120B8040120A1
:1033F000041102200000AF432819012090B591B0BC
:1034000000AF022387F82730AC4B5B6A3B6204F0C5
:10341000CBFB87ED070A05F0BBFC87ED060A05F03C
:10342000B7FCF0EE406A9FEDA67AC6EE877A9FED74
:10343000A57A67EE877AC7ED057A0023FB63002340
:10344000BB634FF40041A04809F004FC0346012B84
:103450000CBF01230023DBB2FB744FF400619B48D7
:1034600009F0F8FB0346002B0CBF01230023DBB25D
:10347000BB74002387F83230954B93F900307B748E
:10348000944B1B68002B0DD0D7ED077AB2EE047A6F
:10349000F4EEC77AF1EE10FA04DC04F0BDFB03464B
:1034A000002B02D08B4A3B6A13608B4B1B78002B9E
:1034B00033D18A4807F0A6FD0346042B2DD9884A4C
:1034C0000121864807F0B8FE864A0221834807F0AA
:1034D000B3FE824807F096FD0246814B1B789A4264
:1034E0001BD3814B7B630023FB6209E07B6B5A1C7F
:1034F0007A631946794807F090FEFB6A0133FB6254
:10350000774B1B781A46FB6A9342EFDB754B1B78AF
:10351000002B02D0704B01221A706F4B1B78002BCE
:1035200012D0704B18786E4B1B781A466E4901F01A
:10353000E5F9034687F8333097F93330002B03D091
:10354000654B00221A7000BF684B1B78DBB2002B62
:103550007BD0674B1B68FB60664B1B68BB60634B93
:1035600000221A70FB68002B6FD00023BB6215E0AD
:10357000BB6A5A1CBA625B00FA6813441B881A467D
:10358000BB6B1344BB63BB6A5A1CBA625B00FA682C
:1035900013441B881A46FB6B1344FB63BB6ABA686F
:1035A0009A42E5D8BB685B08BA6BB2FBF3F3BB6326
:1035B000BB685B08FA6BB2FBF3F3FB63FB6B07EED4
:1035C000903AB8EE677ADFED4C6AC7EE267A9FED47
:1035D0004B7A67EE877AB1EE067A67EE877A484BC8
:1035E000C3ED007ABB6B07EE903AB8EE677ADFED79
:1035F000426AC7EE267A9FED417A67EE877AB2EE8D
:10360000067A67EE877AC7ED017A3E4B3B603C4B0A
:1036100093ED007AD7ED016AC6EE877AB7EE007AAD
:1036200077EE677AD7ED006A86EEA77AD7ED007A53
:1036300077EE677AC7ED007A97ED000AFDF704FC94
:10364000F0EE407A304BC3ED007A304B1B78002B04
:1036500012D12F4B1B78002B0ED12E4B1B78002B39
:1036600003D02A4B01221A7006E02B4B1B78002B4B
:1036700002D0274B01221A70244B1B78002B53D009
:10368000264803F0E3FC034687F8273097F82730F5
:10369000022B6AD0224B1A78224B9A7097F933305A
:1036A000002B14BF01230023DBB21A461D4B5A60C6
:1036B00008221C49094807F090FD56E0000C004024
:1036C00000D8D6470000C84200080240000002406F
:1036D0003C1901201C11022020110220EC100220B4
:1036E00021110220221102206C0902206809022007
:1036F000600902206409022000FF7F474A0C524003
:103700003819012000002A44341901202311022015
:103710002411022058090220590902208014022095
:103720005C09022000030120B14B1B78002B1CD048
:10373000B04801F0F5F8034687F8273097F82730AE
:10374000022B12D0AC4B1A78AC4B9A7097F93330ED
:10375000002B14BF01230023DBB21A46A74B5A608B
:103760000822A649A64807F038FDBB7C002B0BD0E9
:10377000A04B5B69002B07D1FDF7EEFFF0EE407A1E
:10378000A04BC3ED007A03E09E4B4FF000021A609D
:10379000BB7C002B05D0974B9B69002B01D0FEF71B
:1037A00027FDFDF779FFFDF77FFDBB7C002B00F0C7
:1037B000EA80904B5B6A002B04D08E4B9B6A87F8A3
:1037C000323051E08B4BDB69002B36D000224FF4B6
:1037D00080718D4809F056FA00224FF400718A4832
:1037E00009F050FA2021884809F034FA0346002BEA
:1037F0000BD11021844809F02DFA0346012B04D186
:103800007C4BDB6A87F832302EE020217E4809F0BD
:1038100021FA0346012B0BD110217B4809F01AFA3B
:103820000346002B04D1734B5B6B87F832301BE0EF
:10383000704B1B6B87F8323016E07B7C002B04D179
:103840006C4B1B6B87F832300EE07B7C012B04D174
:10385000684BDB6A87F8323006E07B7C022B03D1B1
:10386000644B5B6B87F8323097F83230032B00F2F1
:103870009680664A97F83230137097F832305D4A76
:1038800040F66C4101FB03F31344EC331A78604BB0
:103890001A705F4B1A785F4B1B789A4206D05C4BCC
:1038A0001A785C4B1A705C4A3B6A1360514BDB69B7
:1038B000002B74D197F832304E4A40F66C4101FB30
:1038C00003F31344EC331B78002B1DD097F83230F0
:1038D000484A40F66C4101FB03F31344F0331B6884
:1038E000002B1ED04C4B1B681946386A04F07AFA3C
:1038F00097F832303F4A40F66C4101FB03F3134422
:10390000F0331B6898420CD900224FF480713E4876
:1039100009F0B8F900224FF400713B4809F0B2F900
:103920003DE097F83230334A40F66C4101FB03F337
:103930001344EC331B78012B0CD100224FF480711F
:10394000314809F09FF901224FF400712E4809F027
:1039500099F924E097F83230264A40F66C4101FB91
:1039600003F31344EC331B78022B18D101224FF4DC
:103970008071254809F086F900224FF40071224831
:1039800009F080F90BE000224FF480711E4809F025
:1039900079F900224FF400711B4809F073F9BB7CE0
:1039A000002B05D1002204211C4809F06BF955E0D9
:1039B000104B1B6A002B51D10E4BDB68002B48D0FB
:1039C000FB7C002B2ED00B4BD3ED0E7A9FED147A9F
:1039D00077EE877A97ED077AB4EEE77AF1EE10FA90
:1039E00020DD002204210D4809F04CF936E000BF2B
:1039F00024110220801402205D09022020030120EE
:103A0000EC10022028190120000402403019012086
:103A100031190120251102201C110220000C024046
:103A200000009642FB7C002B0DD08F4BD3ED0E7A1D
:103A30009FED8E7A77EEC77A97ED077AB4EEE77A44
:103A4000F1EE10FA0AD501220421894809F01AF989
:103A500004E001220421864809F014F9854B1B7803
:103A6000002B00F0FD81844B1B78002B06D0814B8E
:103A700000221A70814B00221A70F1E17F4B1B78F3
:103A8000002B00F011817E4B1B681946386A04F048
:103A9000A9F9024644F61F639A4240F2E181784A4E
:103AA0003B6A1360774B1B68B3F5406F80F0CB80A7
:103AB000744B1A68744B1968744813469B0013447E
:103AC0009B0003440C3319606E4B1A686F49134610
:103AD0009B0013449B000B44FA691A60694B1A68F7
:103AE0006A4913469B0013449B000B440433BA6994
:103AF0001A60644B1A68654913469B0013449B0087
:103B00000B4408337A691A60614B1A685D4B1C6874
:103B10001146386A04F066F901465C4A23469B0068
:103B200023449B00134410331960564B1B68013328
:103B3000544A1360574B93ED007A574BD3ED007AFC
:103B4000B4EEE77AF1EE10FA38D5534BD3ED007AA4
:103B500097ED077AB4EEE77AF1EE10FA0FDB474BF8
:103B600000221A704D4B00221A70424B00221A702C
:103B7000414B01221A70424B00221A6070E1454B02
:103B8000D3ED007A9FED467A77EEC77A97ED077A04
:103B9000B4EEE77AF1EE10FA00D461E1374B00227F
:103BA0001A703E4B04221A70324B00221A70324BAC
:103BB00001221A70324B00221A6051E1354B93ED0D
:103BC000007A354BD3ED007AB4EEE77AF1EE10FAD5
:103BD00000DC45E1304BD3ED007A97ED077AB4EE87
:103BE000E77AF1EE10FA0FD8244B00221A702B4B13
:103BF00000221A701F4B00221A701F4B01221A70EC
:103C00001F4B00221A602BE1224BD3ED007A9FED6F
:103C1000257A77EE877A97ED077AB4EEE77AF1EEB8
:103C200010FA00DC1CE1154B00221A701B4B042219
:103C30001A70104B00221A700F4B01221A70104B91
:103C400000221A600CE10D4B00221A70134B052262
:103C50001A70084B00221A70074B01221A70084B89
:103C600000221A60FCE000BF80140220000096428F
:103C7000000C02404C0902204E0902204D0902208E
:103C80005009022040090220281901204019012072
:103C90005409022044090220480902204F09022049
:103CA0000000C842000048426F4B93ED007A6F4B12
:103CB000D3ED007AB4EEE77AF1EE10FA64D56A4BF0
:103CC000D3ED007A97ED077AB4EEE77AF1EE10FAC9
:103CD00056DB674B1B68002B00F0C280644A3B6ACE
:103CE0001360644B01221A70634B00221A70634BFD
:103CF00000221A60624A3B6A1360604B1A68614B8B
:103D00001968614813469B0013449B0003440C331D
:103D100019605A4B1A685C4913469B0013449B0078
:103D20000B44FA691A60554B1A68574913469B00B1
:103D300013449B000B440433BA691A604F4B1A6852
:103D4000514913469B0013449B000B4408337A6986
:103D50001A604B4B1A68494B1C681146386A04F0CC
:103D600041F80146484A23469B0023449B001344E4
:103D700010331960414B1B680133404A13606FE0F8
:103D80003B4A3B6A13606BE0374B93ED007A374B4D
:103D9000D3ED007AB4EEE77AF1EE10FA00DC5FE0E2
:103DA000314BD3ED007A97ED077AB4EEE77AF1EE76
:103DB00010FA52D82E4B1B68002B51D02C4A3B6A6C
:103DC00013602C4B01221A702C4B00221A602C4AD3
:103DD0003B6A1360294B1A682A4B19682A48134614
:103DE0009B0013449B0003440C331960234B1A6857
:103DF000254913469B0013449B000B44FA691A6043
:103E00001E4B1A68204913469B0013449B000B4429
:103E10000433BA691A60194B1A681B4913469B0090
:103E200013449B000B4408337A691A60144B1A68D8
:103E3000124B1C681146386A03F0D4FF0146124A3F
:103E400023469B0023449B001344103319600B4B03
:103E50001B680133094A136002E0054A3B6A13609C
:103E600000BF4437BD4690BD4409022048090220E6
:103E7000500902204D0902204F090220400902206A
:103E800054090220281901204019012080B58EB064
:103E900000AF0346B9607A60FB73B04B5B6A7B632B
:103EA000E0233B63FB7B012B14D1AD4B1B68194610
:103EB000786B03F097FF0246AA4B9A420AD9A84AA8
:103EC0007B6B1360A84B03229A700422A649A74873
:103ED00007F083F9BB681B78013B172B00F2EA84DB
:103EE00001A252F823F000BF493F00086D3F0008CF
:103EF000793F0008B54800085F400008B541000858
:103F00008F4800089742000867430008854800086A
:103F1000414400086F440008B5480008B54800084F
:103F20009D44000819460008B5480008914500085E
:103F300071470008B5480008B5480008B5480008B2
:103F4000B548000899480008B9688948FCF706FF99
:103F5000874B5B68874A5360864AFB7B93700822D5
:103F60008449824807F039F900F0A7BCB968814854
:103F7000FCF7F4FE00F0A1BC7F4AFB7B937003F0DA
:103F800013FEF0EE407A7C4BC3ED057A03F01AFE87
:103F9000F0EE407A784BC3ED067A04F0F9FEF0EECD
:103FA000407A754BC3ED077A04F0F2FEF0EE406AFA
:103FB0009FED727AC6EE877A9FED717A67EE877A07
:103FC0006D4BC3ED087A6F4B1B686B4A53626E4BA7
:103FD0001B68694AD3626D4B1B68674A13636C4B5D
:103FE0001A78654B5A7103F02FFE0346002B11D14E
:103FF000684BD3ED007AB7EE007AF4EEC77AF1EEB3
:1040000010FA07DC5C4BD3ED087AF5EE407AF1EE5E
:1040100010FA01D1012300E00023DAB2564B9A7165
:104020005D4B1A78544B1A71534B1B79032B0AD8EA
:10403000514B1B791A4640F66C4303FB02F3E03305
:10404000564A134400E0564B194656480DF001FC01
:1040500034224949454807F0C0F800F02EBCB96841
:104060005148FCF77BFE514AFB7B93704E4BDB685B
:104070004E4A13614D4B1B69BB624B4B1B694B4A4C
:1040800053614A4B5B697B62474B5B68474A93606D
:10409000464B9B68BB61444B9B68444AD360434B8F
:1040A000DB687B61414B00225A607B6940F66C42C1
:1040B000934202D03D4B01225A607A6ABB6A134494
:1040C00040F66C42934202D9384B02225A607B6A16
:1040D000E02B04D87B6A40F66C42934202D9334B02
:1040E00003225A60BB69032B02D9304B04225A6069
:1040F0002E4B5B68002B23D1BB6940F66C4202FB60
:1041000003F3E033254A1A44BB6A13447A6A19461A
:1041100027480DF08BFB7B6A1833244A1344981C04
:104120007B6AC3F1E0031A4600210DF08AFBE0210F
:104130001F4803F04DF803461A461C4B1A8307E04C
:10414000E02200211A480DF07CFB184B00221A8354
:10415000FC221649054807F040F8AEE3000C004089
:104160002C11022020A1070080040120EC10022065
:1041700000000120200001204000012000D8D64787
:104180000000C842281901203819012034190120E3
:10419000311901201C19012030190120801402203E
:1041A0002C1901084700012080000120A0000120F7
:1041B000BA000120B9689948FCF7D0FD984AFB7B0A
:1041C0009370964B1B69964A1361954B1B69BB62B2
:1041D000924B5B69924A5361914B5B697B628F4B57
:1041E0009B688F4A93608E4B9B68BB618B4BDB68EF
:1041F0008B4AD3608A4BDB687B61894B00225A6013
:104200007B6940F66C42934202D0854B01225A6092
:104210007A6ABB6A134440F66C42934202D9804BDF
:1042200002225A607B6AE02B04D87B6A40F66C421B
:10423000934202D97A4B03225A60BB69032B02D9FD
:10424000774B04225A60764B5B68002B1DD1E0212E
:10425000744802F0BDFF03467B82704B1B8B7A8A49
:104260009A420FD1BB6940F66C4202FB03F3E03384
:104270006D4A1A44BB6A13447A6A6A4918460DF0BB
:10428000D5FA02E0664B05225A6018226449674855
:1042900006F0A3FF11E3B9686548FCF75FFD654AC6
:1042A000FB7B9370624B9B68624AD360614BDB6817
:1042B000BB625F4BDB685F4A13615E4B1B697B62CD
:1042C0005B4B5B685B4A93605A4B9B683B62594B04
:1042D00000225A603A6A3B6B9A4202D0554B012247
:1042E0005A607A6ABB6A13443A6B9A4202D2514BC3
:1042F00002225A607A6A3B6B9A4202D87B6AD42BBC
:1043000002D94C4B03225A604A4B5B68002B1CD1EC
:10431000BB6A454A13447A6A194647480DF086FA43
:104320007B6A1033434A1344981D7B6AC3F1D4035C
:104330001A4600210DF085FAD4213F4802F048FFCB
:1043400003461A463B4B9A8207E0D42200213A48A2
:104350000DF077FA374B00229A82EC223549334828
:1043600006F03BFFA9E2B9683248FCF7F7FC334A94
:10437000FB7B93702F4BDB68304AD3602F4BDB689D
:10438000BB622C4B1B692D4A13612C4B1B697B6252
:10439000284B9B68294A9360284B9B683B62274BBC
:1043A00000225A603A6A3B6B9A4202D0214B0122AA
:1043B0005A607A6ABB6A13443A6B9A4202D21D4B26
:1043C00002225A607A6A3B6B9A4202D87B6AD42BEB
:1043D00002D9184B03225A60184B5B68002B16D188
:1043E000D421154802F0F4FE0346FB83114B9B8A4F
:1043F000FA8B9A4208D1BB6A0B4A13447A6A0E4977
:1044000018460DF013FA02E00C4B05225A601422F4
:104410000A49064806F0E1FE4FE200BFA000012075
:10442000A0010120BA00012080140220EC1002201B
:10443000C0010120E0010120F6010120E00201207D
:10444000A84B1B78002B06D1A74AFB7B1370A54B0A
:1044500001221A7031E2A54AFB7B9370A34B022222
:104460005A600822A149A24806F0B7FE25E2A14BF6
:104470001B78002B06D1A04AFB7B13709D4B0122B9
:104480001A701AE29D4AFB7B93709C4B02225A6081
:1044900008229A49964806F0A0FE0EE2B9689848AC
:1044A000FCF75CFC974AFB7B9370954B5B68954AE5
:1044B0009360944B9B68944A1360914B9B68914A1C
:1044C000D360904BDB68914A1360914B00221A70C5
:1044D000904B00221A70904B00221A708F4B0022D2
:1044E0001A608F4B00221A608E4B00221A60864B96
:1044F000D3ED007A9FED8C7AF4EEC77AF1EE10FAE4
:1045000039DD814BD3ED007A9FED887AF4EEC77ADE
:10451000F1EE10FA2FD57D4BD3ED007A9FED827A24
:10452000F4EEC77AF1EE10FA25DD784BD3ED007A80
:104530009FED7E7AF4EEC77AF1EE10FA1BD5724B3E
:1045400093ED007A714BD3ED007A77EE677AF0EE57
:10455000E77A9FED777AF4EEC77AF1EE10FA0ADD8A
:10456000684B00221A71674B1A79724B1A70694BAB
:1045700001221A7006E0634B01221A71614B1A790D
:104580006C4B1A7010225F49594806F026FE94E1E0
:10459000B9686948FCF7E2FB684AFB7B9370664B9D
:1045A0005B68664A9360644B9B68644AD360634B64
:1045B00000221A71614B1A795E4B1A70544B00221B
:1045C0001A70544B00221A70534B00221A70534B2E
:1045D00000221A60524B00221A60574B93ED017A69
:1045E000494BD3ED007AB4EE677AF1EE10FA0AD1B6
:1045F000514B93ED027A454BD3ED007AB4EE677AD6
:10460000F1EE10FA02D04D4B02221A7110224B49E2
:10461000374806F0E2FD50E1B9684948FCF79EFBD7
:10462000484AFB7B9370474B00221A71444B5B68EE
:10463000444A9360424B9B68424AD36003F0B4FA09
:10464000F0EE407A3F4BC3ED047A3F4B1B683D4A86
:10465000D36104F09DFBF0EE407A3A4BC3ED057A4E
:1046600004F096FBF0EE406A9FED387AC6EE877A4A
:104670009FED2D7A67EE877A324BC3ED067A274B92
:104680001B68304A5362244B1A782E4B83F828203B
:10469000234B1B68002B07D0214B1B681946786BF6
:1046A00003F0A0FB034600E00023264A1362244BDC
:1046B00093ED017A144BD3ED007AB4EE677AF1EE04
:1046C00010FA0AD11E4B93ED027A104BD3ED007A0B
:1046D000B4EE677AF1EE10FA3AD01A4B02221A7150
:1046E00040E000BF580902205C09022000030120BD
:1046F000EC100220590902205D090220200301204C
:1047000040030120400401204409022048090220FE
:104710004D0902204C0902204E09022040090220C6
:1047200054090220500902200000C84200409C4663
:1047300000008C424F090220C003012060040120C8
:1047400060030120800301202819012000D8D647EA
:104750005C4B1B78002B05D05A4B1B780A33DAB21E
:10476000594B1A712C225849584806F036FDA4E0DE
:10477000B9685748FCF7F2FA564AFB7B9370564BE0
:104780005B68544A9360544B9B68524AD360514BC8
:1047900000221A714E4B5B684E4A13614D4B1B69E8
:1047A000FB624E4B1B68FA6A9A4216D3494B4FF094
:1047B0000002DA61474B4FF000029A61454B4FF01F
:1047C00000021A62434B4FF000025A62414B002232
:1047D0005A61404B03221A714EE04149FA6A13466E
:1047E0009B0013449B000B4404331B68394AD3617C
:1047F0003B49FA6A13469B0013449B000B441B6819
:10480000344A93613649FA6A13469B0013449B006D
:104810000B4408331B682F4A13623149FA6A134666
:104820009B0013449B000B440C331B68294A5362C2
:104830002B49FA6A13469B0013449B000B44103328
:104840001B68244A5361224B93ED027A254BD3ED2A
:10485000007AB4EE677AF1EE10FA0AD11C4B93EDB0
:10486000037A214BD3ED007AB4EE677AF1EE10FAB9
:1048700002D0184B02221A7128221649134806F05A
:10488000ACFC1AE0B9681948FCF768FA15E0B96899
:104890001748FCF763FA10E0B9681648FCF75EFAAF
:1048A000144B1B79022B07D8124B1B795AB2124BAF
:1048B0001A7001E000BF00E000BF00BF3837BD46FE
:1048C00080BD00BF4F09022080030120EC100220B0
:1048D000E003012000040120C00301204009022060
:1048E000401901204409022048090220E002012069
:1048F000A0010120A00401203C19012080B584B052
:1049000000AF0346B9607A60FB73FB7B7A68B968D5
:10491000184605F04FFD034618461037BD4680BDCA
:1049200080B586B000AF78600223FB7543F2A02308
:104930003B617A684FF44B51002004F080FE03463F
:10494000FB73FB7B002B12D03969786802F040FCC6
:104950000346BB817A6843F2A02313441B88BA89BB
:104960009A4202D10023FB7501E00123FB75FB7D18
:1049700018461837BD4680BD80B483B000AF78605C
:104980000B46FB70FB787A6840F66C4101FB03F341
:10499000134403F5097310221A60FB787A6840F615
:1049A0006C4101FB03F3134403F50A73BA4A1A601E
:1049B000FB787A6840F66C4101FB03F3134403F57E
:1049C0000B73B64A1A60FB787A6840F66C4101FBBB
:1049D00003F3134403F50C73B14A1A60FB787A6849
:1049E00040F66C4101FB03F3134403F50D73AD4A2C
:1049F0001A60FB787A6840F66C4101FB03F31344BC
:104A000003F50E73A84A1A60FB787A6840F66C4189
:104A100001FB03F3134403F50F73A44A1A60FB78F8
:104A20007A6840F66C4101FB03F3134403F51073FD
:104A30009F4A1A60FB787A6840F66C4101FB03F3E9
:104A4000134403F511739B4A1A60FB787A6840F6A9
:104A50006C4101FB03F3134403F51273964A1A6089
:104A6000FB787A6840F66C4101FB03F3134403F5CD
:104A70001373924A1A60FB787A6840F66C4101FB26
:104A800003F3134403F514738D4A1A60FB787A68B4
:104A900040F66C4101FB03F3134403F51573894A97
:104AA0001A60FB787A6840F66C4101FB03F313440B
:104AB00003F51673844A1A60FB787A6840F66C41F5
:104AC00001FB03F3134403F51773804A1A60FB7864
:104AD0007A6840F66C4101FB03F3134403F5187345
:104AE0007B4A1A60FB787A6840F66C4101FB03F35D
:104AF000134403F51973774A1A60FB787A6840F615
:104B00006C4101FB03F3134403F5E07310221A60B8
:104B1000FB787A6840F66C4101FB03F3134403F51C
:104B2000E2736D4A1A60FB787A6840F66C4101FBCB
:104B300003F3134403F5E473684A1A60FB787A6858
:104B400040F66C4101FB03F3134403F5E673644A3A
:104B50001A60FB787A6840F66C4101FB03F313445A
:104B600003F5E8735F4A1A60FB787A6840F66C4197
:104B700001FB03F3134403F5EA735B4A1A60FB7805
:104B80007A6840F66C4101FB03F3134403F5EC73C0
:104B9000564A1A60FB787A6840F66C4101FB03F3D1
:104BA000134403F5EE73524A1A60FB787A6840F6B4
:104BB0006C4101FB03F3134403F5F0734D4A1A6093
:104BC000FB787A6840F66C4101FB03F3134403F56C
:104BD000F273494A1A60FB787A6840F66C4101FB2F
:104BE00003F3134403F5F473444A1A60FB787A68BC
:104BF00040F66C4101FB03F3134403F5F673404A9E
:104C00001A60FB787A6840F66C4101FB03F31344A9
:104C100003F5F8733B4A1A60FB787A6840F66C41FA
:104C200001FB03F3134403F5FA73374A1A60FB7868
:104C30007A6840F66C4101FB03F3134403F5FC73FF
:104C4000324A1A60FB787A6840F66C4101FB03F344
:104C5000134403F5FE732E4A1A60FB787A6840F617
:104C60006C4101FB03F3134403F50073294A1A60F6
:104C7000FB787A6840F66C4101FB03F3134403F5BB
:104C80002273254A1A60FB787A6840F66C4101FB72
:104C900003F3134442E000BF000016440000344414
:104CA0000000524400807744004092440080AC44AD
:104CB0000040CE4400C0F3440060104500A02A45E7
:104CC00000A048450000704500908D4500D0A745E4
:104CD00000C0C6450060EA4500C0DA460020004733
:104CE00000E0124700A025470060384700204B47EE
:104CF00000E05D4700A0704700B0814700108B477F
:104D00000070944700D09D470030A7470090B047FF
:104D100000F0B9470050C3470000684103F5237312
:104D2000BA4A1A60FB787A6840F66C4101FB03F3DB
:104D3000134403F52473B64A1A60FB787A6840F688
:104D40006C4101FB03F3134403F52573B14A1A6068
:104D5000FB787A6840F66C4101FB03F3134403F5DA
:104D60002673AD4A1A60FB787A6840F66C4101FB05
:104D700003F3134403F52773A84A1A60FB787A6893
:104D800040F66C4101FB03F3134403F52873A44A76
:104D90001A60FB787A6840F66C4101FB03F3134418
:104DA00003F529739F4A1A60FB787A6840F66C41D4
:104DB00001FB03F3134403F52A739B4A1A60FB7843
:104DC0007A6840F66C4101FB03F3134403F52B733F
:104DD000964A1A60FB787A6840F66C4101FB03F34F
:104DE000134403F52C73924A1A60FB787A6840F6F4
:104DF0006C4101FB03F3134403F52D738D4A1A60D4
:104E0000FB787A6840F66C4101FB03F3134403F529
:104E10002E73894A1A60FB787A6840F66C4101FB70
:104E200003F3134403F52F73834A1A60FB787A68FF
:104E300040F66C4101FB03F3134403F530737F4AE2
:104E40001A60FB787A6840F66C4101FB03F3134467
:104E500003F531737A4A1A60FB787A6840F66C4140
:104E600001FB03F3134403F53A73684A1A60FB78B5
:104E70007A6840F66C4101FB03F3134403F53B737E
:104E8000634A1A60FB787A6840F66C4101FB03F3D1
:104E9000134403F53C736B4A1A60FB787A6840F65A
:104EA0006C4101FB03F3134403F53D73664A1A603A
:104EB000FB787A6840F66C4101FB03F3134403F579
:104EC0003E73624A1A60FB787A6840F66C4101FBD7
:104ED00003F3134403F53F735D4A1A60FB787A6865
:104EE00040F66C4101FB03F3134403F54073594A48
:104EF0001A60FB787A6840F66C4101FB03F31344B7
:104F000003F54173544A1A60FB787A6840F66C41A5
:104F100001FB03F3134403F54273434A1A60FB7821
:104F20007A6840F66C4101FB03F3134403F54373C5
:104F30003E4A1A60FB787A6840F66C4101FB03F345
:104F4000134403F54473454A1A60FB787A6840F6C7
:104F50006C4101FB03F3134403F54573354A1A60B2
:104F6000FB787A6840F66C4101FB03F3134403F5C8
:104F70004673314A1A60FB787A6840F66C4101FB4F
:104F800003F3134403F547732B4A1A60FB787A68DE
:104F900040F66C4101FB03F3134403F54873274AC1
:104FA0001A60FB787A6840F66C4101FB03F3134406
:104FB00003F54973224A1A60FB787A6840F66C411F
:104FC00001FB03F3134403F55273254A1A60FB787F
:104FD0007A6840F66C4101FB03F3134403F5537305
:104FE000204A1A60FB787A6840F66C4101FB03F3B3
:104FF000134403F554731C4A1A60FB787A6840F630
:105000006C4101FB03F3134430E000BFCDCC804181
:10501000000090413333A7419A99C5419A99ED41D7
:10502000333317429A99234266662A429A992D424F
:10503000000030429A9931423333314233333342A4
:1050400000003442CDCCA041CDCCB841CDCCD44130
:105050000000F841666618420000244200002C421D
:1050600066668E419A999D410000AC4103F55573E7
:10507000BA4A1A60FB787A6840F66C4101FB03F388
:10508000134403F55673B64A1A60FB787A6840F603
:105090006C4101FB03F3134403F55773B14A1A60E3
:1050A000FB787A6840F66C4101FB03F3134403F587
:1050B0005873AD4A1A60FB787A6840F66C4101FB80
:1050C00003F3134403F55973A84A1A60FB787A680E
:1050D00040F66C4101FB03F3134403F55A73A44AF1
:1050E0001A60FB787A6840F66C4101FB03F31344C5
:1050F00003F55B739F4A1A60FB787A6840F66C414F
:1051000001FB03F3134403F55C739B4A1A60FB78BD
:105110007A6840F66C4101FB03F3134403F55D73B9
:10512000964A1A60FB787A6840F66C4101FB03F3FB
:10513000134403F55E73924A1A60FB787A6840F66E
:105140006C4101FB03F3134403F55F738C4A1A604F
:10515000FB787A6840F66C4101FB03F3134403F5D6
:105160006073884A1A60FB787A6840F66C4101FBEC
:1051700003F3134403F56173834A1A60FB787A687A
:1051800040F66C4101FB03F3134403F56A737F4A55
:105190001A60FB787A6840F66C4101FB03F3134414
:1051A00003F56B737A4A1A60FB787A6840F66C41B3
:1051B00001FB03F3134403F56C73764A1A60FB7822
:1051C0007A6840F66C4101FB03F3134403F56D73F9
:1051D000714A1A60FB787A6840F66C4101FB03F370
:1051E000134403F56E736D4A1A60FB787A6840F6D3
:1051F0006C4101FB03F3134403F56F73684A1A60B3
:10520000FB787A6840F66C4101FB03F3134403F525
:105210007073644A1A60FB787A6840F66C4101FB4F
:1052200003F3134403F571735F4A1A60FB787A68DD
:1052300040F66C4101FB03F3134403F572735B4AC0
:105240001A60FB787A6840F66C4101FB03F3134463
:1052500003F57373564A1A60FB787A6840F66C411E
:1052600001FB03F3134403F57473524A1A60FB788D
:105270007A6840F66C4101FB03F3134403F5757340
:105280004D4A1A60FB787A6840F66C4101FB03F3E3
:10529000134403F57673494A1A60FB787A6840F63E
:1052A0006C4101FB03F3134403F57773424A1A6020
:1052B000FB787A6840F66C4101FB03F3134403F575
:1052C00078733F4A1A60FB787A6840F66C4101FBBC
:1052D00003F3134403F579733A4A1A60FB787A684A
:1052E00040F66C4101FB03F3134403F58163274A45
:1052F0001A60FB787A6840F66C4101FB03F31344B3
:1053000003F20C43304A1A60FB787A6840F66C412D
:1053100001FB03F3134403F582632C4A1A60FB7804
:105320007A6840F66C4101FB03F3134403F2144323
:10533000274A1A60FB787A6840F66C4101FB03F358
:10534000134403F58363234A1A60FB787A6840F6B6
:105350006C4101FB03F313443EE000BF9A99C14145
:10536000CDCCDC419A99FD41333319426666244223
:1053700066662A429A992D4200002C429A9931423F
:105380003333314233333342000034429A999541EA
:105390000000A4419A99B141CDCCC4419A99DD4114
:1053A0006666FE41CDCC18429A9923429A992942C9
:1053B000CDCC2C42CDCC2E4266663042000030422D
:1053C000CDCC32429A9933423333A3413333AF4188
:1053D0006666C2416666DA4103F21C43BA4A1A6045
:1053E000FB787A6840F66C4101FB03F3134403F544
:1053F0008463B64A1A60FB787A6840F66C4101FB18
:1054000003F3134403F22443B14A1A60FB787A6829
:1054100040F66C4101FB03F3134403F58563AD4A89
:105420001A60FB787A6840F66C4101FB03F3134481
:1054300003F22C43A84A1A60FB787A6840F66C4164
:1054400001FB03F3134403F58663A44A1A60FB7857
:105450007A6840F66C4101FB03F3134403F23443D2
:105460009F4A1A60FB787A6840F66C4101FB03F3AF
:10547000134403F587639B4A1A60FB787A6840F609
:105480006C4101FB03F3134403F23C43964A1A6058
:10549000FB787A6840F66C4101FB03F3134403F593
:1054A0008863924A1A60FB787A6840F66C4101FB87
:1054B00003F3134403F244438D4A1A60FB787A687D
:1054C00040F66C4101FB03F3134403F58D63894AF5
:1054D0001A60FB787A6840F66C4101FB03F31344D1
:1054E00003F26C43844A1A60FB787A6840F66C4198
:1054F00001FB03F3134403F58E63804A1A60FB78C3
:105500007A6840F66C4101FB03F3134403F27443E1
:105510007B4A1A60FB787A6840F66C4101FB03F322
:10552000134403F58F63774A1A60FB787A6840F674
:105530006C4101FB03F3134403F27C43724A1A608B
:10554000FB787A6840F66C4101FB03F3134403F5E2
:1055500090636E4A1A60FB787A6840F66C4101FBF2
:1055600003F3134403F28443694A1A60FB787A68B0
:1055700040F66C4101FB03F3134403F59163654A64
:105580001A60FB787A6840F66C4101FB03F3134420
:1055900003F28C43604A1A60FB787A6840F66C41EB
:1055A00001FB03F3134403F592635C4A1A60FB7832
:1055B0007A6840F66C4101FB03F3134403F2944311
:1055C000574A1A60FB787A6840F66C4101FB03F396
:1055D000134403F59363534A1A60FB787A6840F6E4
:1055E0006C4101FB03F3134403F29C434E4A1A60DF
:1055F000FB787A6840F66C4101FB03F3134403F532
:105600009463364A1A60FB787A6840F66C4101FB75
:1056100003F3134403F2A443324A1A60FB787A6816
:1056200040F66C4101FB03F3134403F599633F4AD1
:105630001A60FB787A6840F66C4101FB03F313446F
:1056400003F2CC433A4A1A60FB787A6840F66C4120
:1056500001FB03F3134403F59A63364A1A60FB789F
:105660007A6840F66C4101FB03F3134403F2D44320
:10567000314A1A60FB787A6840F66C4101FB03F30B
:10568000134403F59B632D4A1A60FB787A6840F651
:105690006C4101FB03F3134403F2DC43284A1A6014
:1056A000FB787A6840F66C4101FB03F3134403F581
:1056B0009C63244A1A60FB787A6840F66C4101FBCF
:1056C00003F3134440E000BF6666FA416666164283
:1056D00033332142CDCC26429A9929429A992B42C2
:1056E000CDCC2C4266662C4233332D4200002C4236
:1056F000CDCC304233338B4133339B413333A741DD
:105700009A99B9419A99D141CDCCF04133331142A4
:1057100066661C4266662242333325429A992742C6
:10572000CDCC2842666628423333294266666E41F4
:105730009A9989419A999541CDCCA8416666C24112
:105740003333E3413333094203F2E443BA4A1A6084
:10575000FB787A6840F66C4101FB03F3134403F5D0
:105760009D63B64A1A60FB787A6840F66C4101FB8B
:1057700003F3134403F2EC43B14A1A60FB787A68EE
:1057800040F66C4101FB03F3134403F59E63AD4AFD
:105790001A60FB787A6840F66C4101FB03F313440E
:1057A00003F2F443A84A1A60FB787A6840F66C4129
:1057B00001FB03F3134403F59F63A34A1A60FB78CC
:1057C0007A6840F66C4101FB03F3134403F2FC4397
:1057D0009E4A1A60FB787A6840F66C4101FB03F33D
:1057E000134403F5A0639A4A1A60FB787A6840F67E
:1057F0006C4101FB03F3134403F20453954A1A600E
:10580000FB787A6840F66C4101FB03F3134403F51F
:10581000A563914A1A60FB787A6840F66C4101FBF7
:1058200003F3134403F22C538C4A1A60FB787A6812
:1058300040F66C4101FB03F3134403F5A663884A69
:105840001A60FB787A6840F66C4101FB03F313445D
:1058500003F23453834A1A60FB787A6840F66C414D
:1058600001FB03F3134403F5A7637F4A1A60FB7837
:105870007A6840F66C4101FB03F3134403F23C5396
:105880007A4A1A60FB787A6840F66C4101FB03F3B0
:10589000134403F5A863764A1A60FB787A6840F6E9
:1058A0006C4101FB03F3134403F24453714A1A6041
:1058B000FB787A6840F66C4101FB03F3134403F56F
:1058C000A9636D4A1A60FB787A6840F66C4101FB67
:1058D00003F3134403F24C53684A1A60FB787A6866
:1058E00040F66C4101FB03F3134403F5AA63534AEA
:1058F0001A60FB787A6840F66C4101FB03F31344AD
:1059000003F254535E4A1A60FB787A6840F66C41A1
:1059100001FB03F3134403F5AB63594A1A60FB78A8
:105920007A6840F66C4101FB03F3134403F25C53C5
:10593000544A1A60FB787A6840F66C4101FB03F325
:10594000134403F5AC63504A1A60FB787A6840F65A
:105950006C4101FB03F3134403F264533A4A1A60A7
:10596000FB787A6840F66C4101FB03F3134403F5BE
:10597000B163464A1A60FB787A6840F66C4101FBD5
:1059800003F3134403F28C53414A1A60FB787A689C
:1059900040F66C4101FB03F3134403F5B2633D4A47
:1059A0001A60FB787A6840F66C4101FB03F31344FC
:1059B00003F29453384A1A60FB787A6840F66C41D7
:1059C00001FB03F3134403F5B363344A1A60FB7815
:1059D0007A6840F66C4101FB03F3134403F29C53D5
:1059E0002F4A1A60FB787A6840F66C4101FB03F39A
:1059F000134403F5B4632B4A1A60FB787A6840F6C7
:105A00006C4101FB03F3134403F2A453184A1A60D8
:105A1000FB787A6840F66C4101FB03F3134403F50D
:105A2000B563214A1A60FB787A6840F66C4101FB45
:105A300003F313443AE000BF333315429A991B42F3
:105A400033331F426666224200002442333325422C
:105A5000333327420000284233334341000068417A
:105A600066667E4133338F410000AC410000D04177
:105A70003333FF4100000C42333313429A991742EB
:105A800000001E42CDCC2042333323423333234126
:105A900066663E419A99514166666E4166669241DC
:105AA0006666B6413333E341CDCC084203F2AC53D2
:105AB000BA4A1A60FB787A6840F66C4101FB03F33E
:105AC000134403F5B663B64A1A60FB787A6840F669
:105AD0006C4101FB03F3134403F2B453B14A1A605F
