:020000040800F2
:1000000000000420DD9600087D810008838100083F
:100010008B81000891810008978100080000000092
:100020000000000000000000000000009D810008AA
:10003000AB81000800000000B9810008C7810008FA
:100040002D9700082D9700082D9700082D97000880
:100050002D9700082D9700082D9700082D97000870
:100060002D9700082D9700082D9700082D97000860
:100070002D970008D5810008E9810008FD8100085E
:100080002D9700082D9700082D9700082D97000840
:100090002D9700082D9700082D9700082D97000830
:1000A0002D9700082D9700082D9700082D97000820
:1000B0002D9700082D970008618200082D970008F1
:1000C0002D9700082D9700082D9700082D97000800
:1000D00011820008258200082D9700082D9700083E
:1000E000398200082D9700082D9700082D970008E9
:1000F0002D9700082D9700082D9700082D970008D0
:100100002D9700082D9700082D9700082D970008BF
:100110002D9700082D9700082D970008758200087C
:10012000898200082D9700089D8200082D970008FD
:100130002D970008000000000000000000000000F3
:100140000000000000000000000000002D970008E3
:100150002D9700082D970008B18200082D97000800
:100160002D9700082D9700082D9700082D9700085F
:100170002D9700082D9700080000000000000000E7
:100180002D9700082D9700082D9700082D9700083F
:100190002D9700082D970008000000002D970008FB
:1001A0000000000000000000000000002D97000883
:1001B0002D9700082D9700080000000000000000A7
:1001C000000000000000000000000000000000002F
:1001D0000000000000000000000000002D97000853
:1001E00010B5054C237833B9044B13B10448AFF371
:1001F00000800123237010BD601401200000000066
:1002000080EE000808B5034B1BB103490348AFF368
:10021000008008BD000000006414012080EE00088A
:1002200081F0004102E000BF83F0004330B54FEAA7
:1002300041044FEA430594EA050F08BF90EA020F14
:100240001FBF54EA000C55EA020C7FEA645C7FEAA7
:10025000655C00F0E2804FEA5454D4EB5555B8BFCA
:100260006D420CDD2C4480EA020281EA030382EA3B
:10027000000083EA010180EA020281EA0303362DCD
:1002800088BF30BD11F0004F4FEA01314FF4801CA0
:100290004CEA113102D0404261EB410113F0004FB2
:1002A0004FEA03334CEA133302D0524263EB430369
:1002B00094EA050F00F0A780A4F10104D5F1200E07
:1002C0000DDB02FA0EFC22FA05F2801841F1000162
:1002D00003FA0EF2801843FA05F359410EE0A5F136
:1002E00020050EF1200E012A03FA0EFC28BF4CF067
:1002F000020C43FA05F3C01851EBE37101F000451D
:1003000007D54FF0000EDCF1000C7EEB00006EEB29
:100310000101B1F5801F1BD3B1F5001F0CD34908B3
:100320005FEA30004FEA3C0C04F101044FEA44520A
:1003300012F5800F80F09A80BCF1004F08BF5FEA91
:10034000500C50F1000041EB045141EA050130BD71
:100350005FEA4C0C404141EB010111F4801FA4F114
:100360000104E9D191F0000F04BF01460020B1FA69
:1003700081F308BF2033A3F10B03B3F120020CDAA1
:100380000C3208DD02F1140CC2F10C0201FA0CF07F
:1003900021FA02F10CE002F11402D8BFC2F1200CE4
:1003A00001FA02F120FA0CFCDCBF41EA0C0190409A
:1003B000E41AA2BF01EB0451294330BD6FEA0404E3
:1003C0001F3C1CDA0C340EDC04F11404C4F12002CE
:1003D00020FA04F001FA02F340EA030021FA04F3E0
:1003E00045EA030130BDC4F10C04C4F1200220FA37
:1003F00002F001FA04F340EA0300294630BD21FA75
:1004000004F0294630BD94F0000F83F4801306BF3A
:1004100081F480110134013D4EE77FEA645C18BF2E
:100420007FEA655C29D094EA050F08BF90EA020FC5
:1004300005D054EA000C04BF1946104630BD91EABD
:10044000030F1EBF0021002030BD5FEA545C05D1C0
:100450004000494128BF41F0004130BD14F58004FF
:100460003CBF01F5801130BD01F0004545F0FE4173
:1004700041F470014FF0000030BD7FEA645C1ABFA8
:10048000194610467FEA655C1CBF0B46024650EADF
:10049000013406BF52EA033591EA030F41F400210B
:1004A00030BD00BF90F0000F04BF0021704730B591
:1004B0004FF4806404F132044FF000054FF0000166
:1004C00050E700BF90F0000F04BF0021704730B527
:1004D0004FF4806404F1320410F0004548BF4042FC
:1004E0004FF000013EE700BF42004FEAE2014FEA51
:1004F00031014FEA02701FBF12F07F4393F07F4F2C
:1005000081F06051704732F07F4208BF704793F02E
:100510007F4F04BF41F40021704730B54FF4607441
:1005200001F0004521F000411CE700BF50EA010244
:1005300008BF704730B54FF000050AE050EA0102ED
:1005400008BF704730B511F0004502D5404261EB5D
:1005500041014FF4806404F132045FEA915C3FF49E
:10056000D8AE4FF003025FEADC0C18BF03325FEA3B
:10057000DC0C18BF033202EBDC02C2F1200300FAEC
:1005800003FC20FA02F001FA03FE40EA0E0021FA11
:1005900002F11444BDE600BF70B54FF0FF0C4CF4FF
:1005A000E06C1CEA11541DBF1CEA135594EA0C0FB1
:1005B00095EA0C0F00F0DEF82C4481EA030621EAEC
:1005C0004C5123EA4C5350EA013518BF52EA033527
:1005D00041F4801143F4801338D0A0FB02CE4FF0D9
:1005E0000005E1FB02E506F00042E0FB03E54FF009
:1005F0000006E1FB03569CF0000F18BF4EF0010E01
:10060000A4F1FF04B6F5007F64F5407404D25FEAFC
:100610004E0E6D4146EB060642EAC62141EA5551AF
:100620004FEAC52040EA5E504FEACE2EB4F1FD0CF1
:1006300088BFBCF5E06F1ED8BEF1004F08BF5FEA6F
:10064000500E50F1000041EB045170BD06F0004621
:1006500046EA010140EA020081EA0301B4EB5C04CE
:10066000C2BFD4EB0C0541EA045170BD41F48011C6
:100670004FF0000E013C00F3AB8014F1360FDEBFEB
:10068000002001F0004170BDC4F10004203C35DAC7
:100690000C341BDC04F11404C4F1200500FA05F34A
:1006A00020FA04F001FA05F240EA020001F00042EB
:1006B00021F0004110EBD37021FA04F642EB060161
:1006C0005EEA430E08BF20EAD37070BDC4F10C048B
:1006D000C4F1200500FA04F320FA05F001FA04F24F
:1006E00040EA020001F0004110EBD37041F100013B
:1006F0005EEA430E08BF20EAD37070BDC4F1200546
:1007000000FA05F24EEA020E20FA04F301FA05F2AD
:1007100043EA020321FA04F001F0004121FA04F255
:1007200020EA020000EBD3705EEA430E08BF20EA25
:10073000D37070BD94F0000F0FD101F0004640005F
:1007400041EB010111F4801F08BF013CF7D041EAE1
:10075000060195F0000F18BF704703F000465200E5
:1007600043EB030313F4801F08BF013DF7D043EAB6
:100770000603704794EA0C0F0CEA135518BF95EA6C
:100780000C0F0CD050EA410618BF52EA4306D1D1F3
:1007900081EA030101F000414FF0000070BD50EA12
:1007A000410606BF1046194652EA430619D094EA9C
:1007B0000C0F02D150EA013613D195EA0C0F05D186
:1007C00052EA03361CBF104619460AD181EA0301DA
:1007D00001F0004141F0FE4141F470014FF0000092
:1007E00070BD41F0FE4141F4780170BD70B54FF02D
:1007F000FF0C4CF4E06C1CEA11541DBF1CEA1355AD
:1008000094EA0C0F95EA0C0F00F0A7F8A4EB05048E
:1008100081EA030E52EA03354FEA013100F0888085
:100820004FEA03334FF0805545EA131343EA12634E
:100830004FEA022245EA111545EA10654FEA002603
:100840000EF000419D4208BF964244F1FD0404F5BC
:10085000407402D25B084FEA3202B61A65EB030518
:100860005B084FEA32024FF480104FF4002CB6EBD5
:10087000020E75EB030E22BFB61A754640EA0C0055
:100880005B084FEA3202B6EB020E75EB030E22BF95
:10089000B61A754640EA5C005B084FEA3202B6EBD6
:1008A000020E75EB030E22BFB61A754640EA9C0095
:1008B0005B084FEA3202B6EB020E75EB030E22BF65
:1008C000B61A754640EADC0055EA060E18D04FEA23
:1008D000051545EA16754FEA06164FEAC30343EAC3
:1008E00052734FEAC2025FEA1C1CC0D111F4801F90
:1008F0000BD141EA00014FF000004FF0004CB6E789
:1009000011F4801F04BF01430020B4F1FD0C88BF27
:10091000BCF5E06F3FF6AFAEB5EB030C04BFB6EB32
:10092000020C5FEA500C50F1000041EB045170BD25
:100930000EF0004E4EEA113114EB5C04C2BFD4EB52
:100940000C0541EA045170BD41F480114FF0000ED6
:10095000013C90E645EA060E8DE60CEA135594EA52
:100960000C0F08BF95EA0C0F3FF43BAF94EA0C0F55
:100970000AD150EA01347FF434AF95EA0C0F7FF4CA
:1009800025AF104619462CE795EA0C0F06D152EA1E
:1009900003353FF4FDAE1046194622E750EA410602
:1009A00018BF52EA43067FF4C5AE50EA41047FF413
:1009B0000DAF52EA43057FF4EBAE12E74FEA410276
:1009C000B2F1E04324BFB3F5001CDCF1FE5C0DD9AD
:1009D00001F0004C4FEAC0024CEA5070B2F1004FF7
:1009E00040EB830008BF20F00100704711F0804FFA
:1009F00021D113F13872BCBF01F00040704741F4BF
:100A000080114FEA5252C2F11802C2F1200C10FAC2
:100A10000CF320FA02F018BF40F001004FEAC123A6
:100A20004FEAD32303FA0CFC40EA0C0023FA02F34A
:100A30004FEA4303CCE77FEA625307D150EA013320
:100A40001EBF4FF0FE4040F44000704701F00040F0
:100A500040F0FE4040F40000704700BF53B94AB96F
:100A6000002908BF00281CBF4FF0FF314FF0FF30B6
:100A700000F072B9ADF1080C6DE904CE00F006F893
:100A8000DDF804E0DDE9022304B070472DE9F0470A
:100A9000089E04468846002B4BD18A42154667D9EA
:100AA000B2FA82F24AB1C2F1200701FA02F320FA47
:100AB00007F7954047EA030894404FEA154E230C88
:100AC000B8FBFEF71FFA85FC0EFB178843EA0843C4
:100AD00007FB0CF1994209D9EB1807F1FF3080F0C0
:100AE0001B81994240F21881023F2B445B1AA4B249
:100AF000B3FBFEF00EFB103344EA034400FB0CFC96
:100B0000A44509D92C1900F1FF3380F00781A445D1
:100B100040F2048102382C4440EA0740A4EB0C0464
:100B200000271EB1D4400023C6E900433946BDE882
:100B3000F0878B4209D9002E00F0EB800027C6E930
:100B4000000138463946BDE8F087B3FA83F7002F35
:100B500047D18B4202D3824200F2FA80841A61EBC1
:100B6000030301209846002EE0D0C6E90048DDE7E7
:100B700002B9FFDEB2FA82F2002A40F08F80491BF0
:100B80004FEA154E1FFA85F80127B1FBFEFC230C36
:100B90000EFB1C1143EA014308FB0CF1994207D9F3
:100BA000EB180CF1FF3002D2994200F2CD8084465E
:100BB000591AA3B2B1FBFEF00EFB101443EA044431
:100BC00008FB00F8A04507D92C1900F1FF3302D229
:100BD000A04500F2B6801846A4EB080440EA0C4099
:100BE0009FE7C7F1200CBB4022FA0CFE4EEA030E31
:100BF00001FA07F420FA0CF521FA0CF34FEA1E482B
:100C00002543B3FBF8F92C0C08FB19331FFA8EFAB5
:100C100044EA034309FB0AF49C4202FA07F200FA91
:100C200007F10BD91EEB030309F1FF3080F0878039
:100C30009C4240F28480A9F1020973441B1BADB2AF
:100C4000B3FBF8F008FB103345EA034400FB0AFA53
:100C5000A24508D91EEB040400F1FF336BD2A24574
:100C600069D90238744440EA0940A0FB0289A4EB28
:100C70000A044C45C2464B4654D351D0002E69D08D
:100C8000B1EB0A0564EB030404FA0CFCFD40FC40E4
:100C90004CEA0505C6E90054002747E7C2F12003E6
:100CA00020FA03F7954001FA02F021FA03F34FEA24
:100CB000154E3843010CB3FBFEF71FFA85F80EFB07
:100CC000173341EA034107FB08F38B4204FA02F4AD
:100CD00007D9691807F1FF3C2FD28B422DD9023F6B
:100CE0002944CB1A81B2B3FBFEF00EFB103341EA6C
:100CF000034100FB08F38B4207D9691800F1FF3C60
:100D000017D28B4215D902382944C91A40EA07473D
:100D10003BE73746304609E70746E7E61846FBE675
:100D20004145ABD2B8EB020A69EB0E02013813461B
:100D3000A4E76046E9E7184695E76746D1E78146AC
:100D40007CE702382C4447E7ACF1020C2B442FE738
:100D5000384608E73746E9E6704700BF80B582B0FD
:100D600000AF0223FB714FF4806301220A490B4854
:100D700008F070FB0A4AFB7913700A4804F06EFB16
:100D800009480BF0C7FF0122012108480AF016F8B4
:100D900000BF0837BD4680BD24190120101801206E
:100DA00031000120241D0120906001200008024034
:100DB00080B500AF4FF40061094809F0E7FF034632
:100DC000012B05D100220121064809F0F7FF04E0BC
:100DD00001220121034809F0F1FF00BF80BD00BFDF
:100DE000000002400008024080B500AF0A4B1B68BB
:100DF0000A4A13600A4B5B6A074A1360012280218A
:100E0000084809F0DBFF084B00221A70074B00224C
:100E10001A7000BF80BD00BF841401208C14012013
:100E2000000C00400004024030000120B9140120F1
:100E300080B500AF0A4B1B680A4A13600A4B5B6A15
:100E4000074A136001224021084809F0B7FF084B08
:100E500000221A70074B00221A7000BF80BD00BF2D
:100E60008814012090140120000C0040000402406E
:100E700030000120BA14012080B582B000AF114BC0
:100E80005B6A114A13604FF40061104809F07EFF5D
:100E90000346002B0CBF01230023DBB2FB71FB795F
:100EA000002B04D000228021094809F087FF094B5C
:100EB00000221A70084B01221A7000BF0837BD4685
:100EC00080BD00BF000C00407C14012000000240E7
:100ED0000004024030000120B914012080B582B026
:100EE00000AF114B5B6A114A13604FF40061104868
:100EF00009F04CFF0346002B0CBF01230023DBB29B
:100F0000FB71FB79002B04D000224021094809F035
:100F100055FF094B00221A70084B01221A7000BFBE
:100F20000837BD4680BD00BF000C00408014012082
:100F3000000002400004024030000120BA140120E9
:100F400080B582B000AF0346FB71FB79002B02D164
:100F5000FFF74AFF04E0FB79012B01D1FFF768FF9F
:100F600000BF0837BD4680BD80B582B000AF0346E4
:100F7000FB71FB79002B02D1FFF77EFF04E0FB79C8
:100F8000012B01D1FFF7AAFF00BF0837BD4680BD86
:100F900090B58BB000AFB74B5B6AB74A136005F0F2
:100FA0006FFB87ED090A05F0A3FB0346002B04D174
:100FB000B24B1B78DBB2002B01D0012300E00023F1
:100FC00087F823304FF40061AD4809F0DFFE034697
:100FD000002B0CBF01230023DBB287F8223097F8E7
:100FE0002230002B00F03481A64B1B78002B40F000
:100FF0002F8197F82330002B00F02A81A24B1B7819
:1010000087F82130A14B1B68FB61A14B1B68BB61BA
:10101000A04B1B687B61974B5B6A3B61B969386980
:1010200005F052FC02469C4B9A4210D9F969386986
:1010300005F04AFC0246984B9A4208D901228021C9
:10104000964809F0BBFE904B00221A7065E097F8B5
:101050002130002B61D1924A43F6B85313441B78D8
:10106000002B5AD0D7ED097A9FED8E7AF4EEC77A2D
:10107000F1EE10FA19D5B969386905F025FC044676
:101080007969B86905F020FC024613465B001344F9
:101090005B01DB099C4240D3002280217F4809F09C
:1010A0008DFE794B01221A7037E07969B86905F035
:1010B0000BFC024643F698239A4218D97969B8691D
:1010C00005F002FC03461C46B969386905F0FCFBD3
:1010D0000346E31A42F6C65293421EDC00228021E8
:1010E0006E4809F06BFE684B01221A7015E0B96971
:1010F000386905F0E9FB04467969B86905F0E4FB55
:1011000003469B01DB099C4207D3002280216348F0
:1011100009F054FE5C4B01221A70634B1B78FB7381
:10112000624B1B68BB60624B1B687B60614B1B683A
:101130003B60504B5B6A3B617968386905F0C4FBE2
:101140000246554B9A4210D9B968386905F0BCFB84
:101150000246514B9A4208D9012240214F4809F0DA
:101160002DFE514B00221A7071E0FB7B002B40F0EA
:10117000A5804B4A43F6B85313441B78002B00F06C
:101180009D80D7ED097A9FED477AF4EEC77AF1EEAC
:1011900010FA1AD57968386905F096FB0446396863
:1011A000786805F091FB024613465B0013445B012F
:1011B000DB099C42C0F0828000224021374809F0C0
:1011C000FDFD394B01221A7078E0D7ED097A9FEDC9
:1011D0003A7AF4EEC77AF1EE10FA21DD39687868D0
:1011E00005F072FB024643F698239A4218D93968F3
:1011F000786805F069FB03461C467968386905F094
:1012000063FB0346E31A42F6C65293421FDC0022F8
:101210004021224809F0D2FD234B01221A7016E02A
:101220007968386905F050FB04463968786805F03C
:101230004BFB03469B01DB099C423FD3002240212C
:10124000164809F0BBFD184B01221A7036E035E054
:1012500001228021114809F0B1FD012240210F48EF
:1012600009F0ACFD084B00221A700F4B00221A70D7
:1012700025E000BF000C0040C8140120A01401208C
:101280000000024030000120B91401207C1401202C
:10129000841401208C140120BF270900000402409F
:1012A000241D012000009643BA140120801401205F
:1012B00088140120901401200000FA4300BF054B60
:1012C0005A6A054B1B68D31A044A136000BF2C37B7
:1012D000BD4690BD000C0040C8140120BC14012084
:1012E00080B586B000AF2E4B5B6AFB600023FB75B8
:1012F0002C4AFB6813604FF000033B6105F0CAF80D
:1013000087ED020A97ED020A05F086F987ED010ADA
:1013100005F0FAF9034607EE903AF8EE677AC7ED62
:10132000007AD7ED027A9FED207AF4EEC77AF1EEDB
:1013300010FA0DD5D7ED027A9FED1C7AF4EEC77A3C
:10134000F1EE10FA04DB0123FB75BB683B6103E09F
:101350000223FB757B683B61154A3B691360D7ED3F
:10136000007AF5EE407AF1EE10FA11D0114A43F608
:10137000B85313441B78002B0AD0FB7D012B02D1FC
:10138000FFF732FD04E0FB7D022B01D1FFF750FD9A
:10139000094B01221A7000BF1837BD4680BD00BF3F
:1013A000000C0040941401200000B4420000B4C2BC
:1013B00098140120241D0120A01401200000000029
:1013C00090B583B000AF284B1B687B60274B5B6AEE
:1013D0003B60274B1B681946386805F075FA0246D2
:1013E00042F210739A4215D9224B1B681846FFF738
:1013F0007BF81BA3D3E90023FFF7CEF803460C4686
:1014000018462146FFF7DAFA02461A4B1A60184AC4
:101410003B6813607968386805F056FA0246164B47
:101420009A4218D9154A43F6BA5313441B78002B35
:1014300006D1124A43F6B85313441B78002B07D049
:1014400005F062F90346002B02D00A4B0C4A1A60E1
:101450000C4B00221A7000BF0C37BD4690BD00BF78
:10146000666666666666EE3F94140120000C0040D6
:10147000F81401209C140120C0270900241D01201C
:1014800000004040A014012080B5A4B000AF05F0DA
:10149000F7F887ED0F0A06F07BF987ED0E0ABE4BD1
:1014A0007B634FF40041BD4809F070FC0346012BFB
:1014B0000CBF01230023DBB287F83330B84B5B6AE3
:1014C000FB624FF00003C7F88C304FF00003C7F801
:1014D00088304FF00003C7F884304FF00003C7F89E
:1014E00080304FF00003FB674FF00003BB674FF005
:1014F00000037B674FF000033B674FF00003FB6680
:101500004FF00003BB624FF000037B624FF000031B
:101510003B624FF00003FB610023BB6600237B6648
:1015200000233B660023FB650023BB6500237B652E
:1015300000233B659B4B1B78DBB2BB619A4B1A685F
:10154000BB699A4202D8BB69032B08DCBB6940F631
:101550006C7202FB03F3944A134404333B65D7EDEA
:101560000F7A9FED927AF4EEC77AF1EE10FA06DD6B
:101570008F4B00221A708F4AFB6A136015E0D7ED7B
:101580000F7AB2EE047AF4EEC77AF1EE10FA0CD5C7
:10159000884B1B681946F86A05F096F90246864B97
:1015A0009A4202D8824B01221A703B6D002B00F048
:1015B000A3843B6D5B69C7F88C307D4B1B78002B97
:1015C00040F07984D7ED0F7AB2EE047AF4EEC77A60
:1015D000F1EE10FA40F36F8497F83330002B00F0EF
:1015E000ED803B6DDB69002B04D13B6D5B69C7F877
:1015F0008C305EE33B6DDB69012B04D13B6D1B6AD4
:10160000C7F88C3055E33B6DD3ED207A97ED0F7A18
:10161000B4EEE77AF1EE10FA04D83B6D1B6AC7F816
:101620008C3065E03B6DD3F84431013B3A6D20339B
:101630009B001344D3ED007A97ED0F7AB4EEE77A6E
:10164000F1EE10FA18DB3B6DDB69023BBB663B6DCC
:10165000DB69013B7B663A6DBB6E20339B00134414
:101660001B68C7F888303A6D7B6E20339B001344AB
:101670001B68C7F884303BE00123FB6433E0FB6C5C
:10168000013B3A6D20339B0013441B68C7F8883038
:101690003A6DFB6C20339B0013441B68C7F8843001
:1016A00097ED227AD7ED0F7AB4EEE77AF1EE10FAE1
:1016B0000ED597ED217AD7ED0F7AB4EEE77AF1EEF9
:1016C00010FA05DDFB6C013BBB66FB6C7B660FE033
:1016D0004FF00003C7F888304FF00003C7F884309C
:1016E000FB6C0133FB643B6DDA69FB6C9A42C6D834
:1016F000D7ED227AF5EE407AF1EE10FA07D1D7ED68
:10170000217AF5EE407AF1EE10FA00F0D28297EDF0
:10171000227AD7ED217AB4EE677AF1EE10FA2ED064
:101720003A6DBB6E08339B0013441B683B673A6DF0
:101730007B6E08339B0013441B68FB6697ED0F7AA2
:10174000D7ED227A77EE676A97ED217AD7ED227A84
:1017500037EE677AC6EE877AC7ED017A97ED1B7A86
:10176000D7ED1C7A37EE677AD7ED017A67EE277AE4
:1017700097ED1C7A77EE277AC7ED237A99E297EDF9
:101780001C7AD7ED1B7A37EE277AF0EE006AC7EEA7
:10179000267AC7ED237A8CE20000A04200080240BE
:1017A000000C0040B0140120241D01200000C8439B
:1017B00032000120340001209F8601003B6DD3F8E8
:1017C000E030002B00F075823B6DD3F84431002BE4
:1017D00000F06F823B6DD3F8E030012B0DD1002378
:1017E0003B660023FB653B6DD3F8E430C7F88030DF
:1017F0003B6DD3F8E430FB678AE03B6DD3ED397A7B
:1018000097ED0E7AB4EEE77AF1EE10FA15D80023D0
:101810003B660123FB653A6D3B6E38339B001344F6
:1018200004331B68C7F880303A6DFB6D38339B007A
:10183000134404331B68FB676AE03B6DD3F8E03068
:10184000013B3A6D38339B0013440433D3ED007AE7
:1018500097ED0E7AB4EEE77AF1EE10FA1BDB3B6DF2
:10186000D3F8E030023B3B663B6DD3F8E030013B00
:10187000FB653A6D3B6E38339B00134404331B68A1
:10188000C7F880303A6DFB6D38339B001344043346
:101890001B68FB673CE00123BB6433E0BB6C013B8E
:1018A0003A6D38339B00134404331B68C7F880300B
:1018B0003A6DBB6C38339B00134404331B68FB67E1
:1018C00097ED207AD7ED0E7AB4EEE77AF1EE10FAC2
:1018D0000ED597ED1F7AD7ED0E7AB4EEE77AF1EEDA
:1018E00010FA05DDBB6C013B3B66BB6CFB650FE092
:1018F0004FF00003C7F880304FF00003FB67BB6C6C
:101900000133BB643B6DD3F8E020BB6C9A42C5D871
:101910003B6DD3F84431012B0ED10023BB6600236D
:101920007B663B6DD3F84831C7F888303B6DD3F800
:101930004831C7F8843087E03B6DD3ED527A97ED9C
:101940000F7AB4EEE77AF1EE10FA14D80023BB66F2
:1019500001237B663A6DBB6E52339B0013441B68B8
:10196000C7F888303A6D7B6E52339B0013441B6876
:10197000C7F8843068E03B6DD3F84431013B3A6DE1
:1019800052339B001344D3ED007A97ED0F7AB4EEF7
:10199000E77AF1EE10FA1ADB3B6DD3F84431023BE3
:1019A000BB663B6DD3F84431013B7B663A6DBB6E41
:1019B00052339B0013441B68C7F888303A6D7B6E26
:1019C00052339B0013441B68C7F884303CE001236A
:1019D0007B6433E07B6C013B3A6D52339B001344D4
:1019E0001B68C7F888303A6D7B6C52339B001344F8
:1019F0001B68C7F8843097ED227AD7ED0F7AB4EEE2
:101A0000E77AF1EE10FA0ED597ED217AD7ED0F7A3D
:101A1000B4EEE77AF1EE10FA05DD7B6C013BBB66B4
:101A20007B6C7B6610E04FF00003C7F888304FF006
:101A30000003C7F884307B6C01337B643B6DD3F8C3
:101A400044217B6C9A42C5D8D7ED227AF5EE407AD4
:101A5000F1EE10FA07D1D7ED217AF5EE407AF1EEEA
:101A600010FA00F02681D7ED207AF5EE407AF1EEFB
:101A700010FA07D1D7ED1F7AF5EE407AF1EE10FAA1
:101A800000F01781396D3A6E13465B001344DB009A
:101A9000BA6E13446A339B000B441B68BB62396DFA
:101AA0003A6E13465B001344DB007A6E13446A33CC
:101AB0009B000B441B687B62396DFA6D13465B001B
:101AC0001344DB00BA6E13446A339B000B441B685B
:101AD0003B62396DFA6D13465B001344DB007A6E8E
:101AE00013446A339B000B441B68FB6197ED217A1A
:101AF000D7ED227AB4EE677AF1EE10FA59D097ED6D
:101B0000207AD7ED1F7AB4EE677AF1EE10FA50D052
:101B100097ED0F7AD7ED227A77EE676A97ED217A03
:101B2000D7ED227A37EE677AC6EE877AC7ED057A67
:101B300097ED0E7AD7ED207A77EE676A97ED1F7AE8
:101B4000D7ED207A37EE677AC6EE877AC7ED047A4A
:101B500097ED097AD7ED0A7A37EE677AD7ED057AED
:101B600067EE277A97ED0A7A77EE277AC7ED037A40
:101B700097ED077AD7ED087A37EE677AD7ED057AD1
:101B800067EE277A97ED087A77EE277AC7ED027A23
:101B900097ED027AD7ED037A37EE677AD7ED047ABC
:101BA00067EE277A97ED037A77EE277AC7ED237AE7
:101BB0007FE097ED217AD7ED227AB4EE677AF1EEE5
:101BC00010FA2CD197ED207AD7ED1F7AB4EE677A10
:101BD000F1EE10FA23D097ED0E7AD7ED207A77EE5A
:101BE000676A97ED1F7AD7ED207A37EE677AC6EEEF
:101BF000877AC7ED047A4FF07E537B6197ED087AC0
:101C0000D7ED0A7A37EE677AD7ED047A67EE277A4E
:101C100097ED0A7A77EE277AC7ED237A49E097EDB8
:101C2000217AD7ED227AB4EE677AF1EE10FA2CD051
:101C300097ED207AD7ED1F7AB4EE677AF1EE10FABD
:101C400023D197ED0F7AD7ED227A77EE676A97ED79
:101C5000217AD7ED227A37EE677AC6EE877AC7ED1A
:101C6000057A4FF07E533B6197ED097AD7ED0A7AFA
:101C700037EE677AD7ED057A67EE277A97ED0A7A1D
:101C800077EE277AC7ED237A13E097ED0A7AD7ED3E
:101C9000097A37EE277AD7ED087A37EE277AD7ED2B
:101CA000077A37EE277AF1EE006AC7EE267AC7ED9B
:101CB000237A964A43F6B55313441B78002B00F061
:101CC000FA803B6DD3F8A83A012B0BD13B6D03F69C
:101CD000DC23D3ED007A97ED237A77EE277AC7EDF0
:101CE000237AE8E03B6DD3F8A83A012B40F2E38079
:101CF0003B6D03F6AC23D3ED007A97ED0D7AB4EE8D
:101D0000E77AF1EE10FA0BD83B6D03F6DC23D3ED46
:101D1000007A97ED237A77EE277AC7ED237A6CE085
:101D20003B6DD3F8A83A013B3A6D03F2AA239B001E
:101D300013440433D3ED007A97ED0D7AB4EEE77ACD
:101D4000F1EE10FA1CDB3B6DD3F8A83A023BBB6501
:101D50003B6DD3F8A83A013B7B653A6DBB6D03F24E
:101D6000AA239B00134404331B68BB673A6D7B6D49
:101D700003F2AA239B00134404331B687B673CE0F7
:101D800001233B6433E03B6C013B3A6D03F2AA2331
:101D90009B00134404331B68BB673A6D3B6C03F232
:101DA000AA239B00134404331B687B6797ED1E7ABC
:101DB000D7ED0D7AB4EEE77AF1EE10FA0ED597ED85
:101DC0001D7AD7ED0D7AB4EEE77AF1EE10FA05DD63
:101DD0003B6C013BBB653B6C7B650EE04FF0000349
:101DE000BB674FF000037B673B6C01333B643B6D8B
:101DF000D3F8A82A3B6C9A42C5D8D7ED1E7AF5EEE7
:101E0000407AF1EE10FA06D1D7ED1D7AF5EE407A60
:101E1000F1EE10FA4FD097ED1E7AD7ED1D7AB4EEA1
:101E2000677AF1EE10FA36D03A6DBB6D03F2B62345
:101E30009B00134404331B683B673A6D7B6D03F2D0
:101E4000B6239B00134404331B68FB6697ED0D7AA1
:101E5000D7ED1E7A77EE676A97ED1D7AD7ED1E7A79
:101E600037EE677AC6EE877AC7ED017A97ED1B7A6F
:101E7000D7ED1C7A37EE677AD7ED017A27EE277A0D
:101E8000D7ED1C7A77EE277A97ED237A77EE277ACB
:101E9000C7ED237A0FE097ED1C7AD7ED1B7A37EE6A
:101EA000277AF0EE006AC7EE267A97ED237A77EE6E
:101EB000277AC7ED237A3B6DD3ED067A97ED237A27
:101EC00077EE277AC7ED237AD7ED237A9FED107A44
:101ED000F4EEC77AF1EE10FA02DD0E4BC7F88C3043
:101EE000D7ED237A9FED0C7AF4EEC77AF1EE10FA73
:101EF00002D50A4BC7F88C30D7F88C3007EE903AF1
:101F0000B0EE670A9037BD4680BD00BF241D01209A
:101F10000000704200007042000070C2000070C2F9
:101F200080B5A2B000AF9C4B1B78DBB2002B00F059
:101F3000408604F0A5FB87ED150A984B1B683B65AE
:101F400005F026FC87ED130A4FF40041944808F091
:101F50001DFF0346012B0CBF01230023DBB287F8D2
:101F60004B30904B5B6A7B644FF000033B644FF057
:101F70000003C7F884304FF00003C7F880304FF0FB
:101F80000003FB674FF00003BB674FF00003FB63E8
:101F90004FF00003BB634FF000037B634FF000037F
:101FA0003B634FF00003FB624FF00003BB62002372
:101FB0007B6700233B670023FB660023BB6600238F
:101FC0007B66794B1B78DBB27B62784B1A687B6A45
:101FD0009A4202D87B6A032B08DC7B6A40F66C725B
:101FE00002FB03F3714A134404337B66D7ED157A81
:101FF0009FED6F7AF4EEC77AF1EE10FA06DD6D4BC5
:1020000000221A706C4A7B6C136018E0D7ED157AC9
:10201000B2EE047AF4EEC77AF1EE10FA0FD5674A01
:102020007B6C1360644B1B681946786C04F04CFCA5
:102030000246634B9A4202D85E4B01221A705F4BF4
:102040001B681946786C04F03FFC07EE900AF8EE26
:10205000677AC7ED087AD7ED087A9FED5A7AF4EEE1
:10206000C77AF1EE10FA00F1A68597ED087ADFED58
:10207000566AC7EE267AC7ED077AB7EE007AD7ED33
:10208000077A77EE677AC7ED067A4C4A7B6C136065
:102090007B6E002B00F09085464B1B78002B40F0A8
:1020A0008B8597F84B30002B00F048817B6EDB6905
:1020B000002B04D17B6E5B693B6400F07DBD7B6EC1
:1020C000DB69012B04D17B6E1B6A3B6400F074BD9D
:1020D0007B6ED3ED207A97ED157AB4EEE77AF1EEC8
:1020E00010FA03D87B6E1B6A3B647FE07B6ED3F8EB
:1020F0004431013B7A6E20339B001344D3ED007AC8
:1021000097ED157AB4EEE77AF1EE10FA18DB7B6EF4
:10211000DB69023B7B677B6EDB69013B3B677A6E69
:102120007B6F20339B0013441B68C7F884307A6EA2
:102130003B6F20339B0013441B68C7F8803055E089
:1021400001233B664DE03B6E013B7A6E20339B00E2
:1021500013441B68C7F884307A6E3B6E20339B00B3
:1021600013441B68C7F8803097ED217AD7ED157AB4
:10217000B4EEE77AF1EE10FA28D597ED207AD7ED94
:10218000157AB4EEE77AF1EE10FA1FDD3B6E013BF3
:102190007B673B6E3B6729E0A01401209814012067
:1021A00000080240000C0040B0140120241D012052
:1021B0000000C842380001203C000120D414012056
:1021C0009F86010000401C468096184B4FF000038C
:1021D000C7F884304FF00003C7F880303B6E0133FE
:1021E0003B667B6EDA693B6E9A42ACD8D7ED217ABA
:1021F000F5EE407AF1EE10FA07D1D7ED207AF5EE40
:10220000407AF1EE10FA00F0D7847A6E7B6F0833D3
:102210009B0013441B68FB637A6E3B6F08339B0083
:1022200013441B68BB6397ED0F7AD7ED0E7AB4EEBB
:10223000677AF1EE10FA5FD097ED157AD7ED217A33
:1022400077EE676A97ED207AD7ED217A37EE677AD5
:10225000C6EE877AC7ED007A97ED0E7AD7ED0F7A42
:1022600037EE677AD7ED007A67EE277A97ED0F7A27
:1022700077EE277AC7ED107A97ED107AD7ED067AC8
:1022800027EE277AD7ED076AD7ED147A66EEA77A9C
:1022900077EE277AC7ED147A97ED147AD7ED107A96
:1022A00077EE677AC7ED017AB7EE007AD7ED007A5C
:1022B00037EE677AD7ED017A27EE277AD7ED0F7AD6
:1022C00077EE277A7A6E7B6F08339B001344C3ED59
:1022D000007A97ED017AD7ED007A27EE277AD7EDCD
:1022E0000E7A77EE277A7A6E3B6F08339B001344A1
:1022F000C3ED007A00F060BCFB6B3B6497ED107A95
:10230000D7ED067A27EE277AD7ED076AD7ED147A4C
:1023100066EEA77A77EE277AC7ED147A7A6E7B6F2E
:1023200008339B0013443A6D1A607A6E3B6F083392
:102330009B0013443A6D1A6000F03EBC7B6ED3F8EC
:10234000E030002B00F038847B6ED3F84431002B52
:1023500000F032847B6ED3F8E030012B0CD10023E7
:10236000FB660023BB667B6ED3F8E430FB677B6EB5
:10237000D3F8E430BB6786E07B6ED3ED397A97ED16
:10238000137AB4EEE77AF1EE10FA14D80023FB6664
:102390000123BB667A6EFB6E38339B001344043313
:1023A0001B68FB677A6EBB6E38339B0013440433A3
:1023B0001B68BB6767E07B6ED3F8E030013B7A6E49
:1023C00038339B0013440433D3ED007A97ED137A2E
:1023D000B4EEE77AF1EE10FA1ADB7B6ED3F8E03058
:1023E000023BFB667B6ED3F8E030013BBB667A6E46
:1023F000FB6E38339B00134404331B68FB677A6E13
:10240000BB6E38339B00134404331B68BB673AE050
:102410000123FB6531E0FB6D013B7A6E38339B0095
:10242000134404331B68FB677A6EFB6D38339B00E3
:10243000134404331B68BB6797ED1F7AD7ED137AFB
:10244000B4EEE77AF1EE10FA0ED597ED1E7AD7EDDD
:10245000137AB4EEE77AF1EE10FA05DDFB6D013B7D
:10246000FB66FB6DBB660EE04FF00003FB674FF0B1
:102470000003BB67FB6D0133FB657B6ED3F8E02087
:10248000FB6D9A42C7D87B6ED3F84431012B0ED135
:1024900000237B6700233B677B6ED3F84831C7F886
:1024A00084307B6ED3F84831C7F8803087E07B6E8C
:1024B000D3ED527A97ED157AB4EEE77AF1EE10FA91
:1024C00014D800237B6701233B677A6E7B6F5233FE
:1024D0009B0013441B68C7F884307A6E3B6F5233FD
:1024E0009B0013441B68C7F8803068E07B6ED3F80C
:1024F0004431013B7A6E52339B001344D3ED007A92
:1025000097ED157AB4EEE77AF1EE10FA1ADB7B6EEE
:10251000D3F84431023B7B677B6ED3F84431013BF7
:102520003B677A6E7B6F52339B0013441B68C7F87E
:1025300084307A6E3B6F52339B0013441B68C7F89C
:1025400080303CE00123BB6533E0BB6D013B7A6E1C
:1025500052339B0013441B68C7F884307A6EBB6DFE
:1025600052339B0013441B68C7F8803097ED217AE3
:10257000D7ED157AB4EEE77AF1EE10FA0ED597EDB5
:10258000207AD7ED157AB4EEE77AF1EE10FA05DD90
:10259000BB6D013B7B67BB6D3B6710E04FF00003F9
:1025A000C7F884304FF00003C7F88030BB6D0133AB
:1025B000BB657B6ED3F84421BB6D9A42C5D8D7ED7D
:1025C000217AF5EE407AF1EE10FA07D1D7ED207AB4
:1025D000F5EE407AF1EE10FA00F0EE82D7ED1F7AB8
:1025E000F5EE407AF1EE10FA07D1D7ED1E7AF5EE4E
:1025F000407AF1EE10FA00F0DF82796EFA6E13463F
:102600005B001344DB007A6F13446A339B000B4476
:102610001B687B63796EFA6E13465B001344DB0024
:102620003A6F13446A339B000B441B683B63796E1B
:10263000BA6E13465B001344DB007A6F13446A33AF
:102640009B000B441B68FB62796EBA6E13465B00FD
:102650001344DB003A6F13446A339B000B441B683E
:10266000BB6297ED207AD7ED217AB4EE677AF1EE6E
:1026700010FA00F0EF8097ED1F7AD7ED1E7AB4EED6
:10268000677AF1EE10FA00F0E58097ED157AD7ED54
:10269000217A77EE676A97ED207AD7ED217A37EEC7
:1026A000677AC6EE877AC7ED057A97ED137AD7ED8C
:1026B0001F7A77EE676A97ED1E7AD7ED1F7A37EEAD
:1026C000677AC6EE877AC7ED047A97ED0C7AD7ED74
:1026D0000D7A37EE677AD7ED057A67EE277A97EDB0
:1026E0000D7A77EE277AC7ED037A97ED0A7AD7ED60
:1026F0000B7A37EE677AD7ED057A67EE277A97ED92
:102700000B7A77EE277AC7ED027A97ED027AD7ED4A
:10271000037A37EE677AD7ED047A67EE277A97ED7A
:10272000037A77EE277AC7ED107A97ED107AD7ED16
:10273000067A27EE277AD7ED076AD7ED147A66EE88
:10274000A77A77EE277AC7ED147A97ED147AD7ED4A
:10275000107A77EE677AC7ED017AB7EE007AD7ED97
:10276000057A37EE677AD7ED017A27EE277AF7EE0A
:10277000006AD7ED047A76EEE77A27EE277AD7ED6E
:102780000D7A77EE277A796EFA6E13465B00134462
:10279000DB007A6F13446A339B000B44C3ED007A6D
:1027A00097ED017AD7ED057A27EE277AF7EE006AE2
:1027B000D7ED047A76EEE77A27EE277AD7ED0C7A12
:1027C00077EE277A796EFA6E13465B001344DB00CE
:1027D0003A6F13446A339B000B44C3ED007AB7EEA3
:1027E000007AD7ED057A37EE677AD7ED017A27EED2
:1027F000277AD7ED047A27EE277AD7ED0B7A77EE92
:10280000277A796EBA6E13465B001344DB007A6F49
:1028100013446A339B000B44C3ED007A97ED017AB1
:10282000D7ED057A27EE277AD7ED047A27EE277AB7
:10283000D7ED0A7A77EE277A796EBA6E13465B0087
:102840001344DB003A6F13446A339B000B44C3ED1F
:10285000007AB1E197ED207AD7ED217AB4EE677A6C
:10286000F1EE10FA40F0AA8097ED1F7AD7ED1E7AAC
:10287000B4EE677AF1EE10FA00F0A08097ED137ACB
:10288000D7ED1F7A77EE676A97ED1E7AD7ED1F7A3C
:1028900037EE677AC6EE877AC7ED047A4FF07E533B
:1028A0007B6197ED0B7AD7ED0D7A37EE677AD7ED2E
:1028B000047A67EE277A97ED0D7A77EE277AC7EDDF
:1028C000107A97ED107AD7ED067A27EE277AD7EDB2
:1028D000076AD7ED147A66EEA77A77EE277AC7ED06
:1028E000147A97ED147AD7ED107A77EE677AC7ED00
:1028F000017AB7EE007AD7ED047A37EE677AD7ED32
:10290000017A27EE277AD7ED0D7A77EE277A796E5E
:10291000FA6E13465B001344DB007A6F13446A338C
:102920009B000B44C3ED007AB7EE007AD7ED047A32
:1029300037EE677AD7ED017A27EE277AD7ED0C7A52
:1029400077EE277A796EFA6E13465B001344DB004C
:102950003A6F13446A339B000B44C3ED007A97ED42
:10296000017AD7ED047A27EE277AD7ED0B7A77EE46
:10297000277A796EBA6E13465B001344DB007A6FD8
:1029800013446A339B000B44C3ED007A97ED017A40
:10299000D7ED047A27EE277AD7ED0A7A77EE277AF1
:1029A000796EBA6E13465B001344DB003A6F134432
:1029B0006A339B000B44C3ED007AFDE097ED207A6B
:1029C000D7ED217AB4EE677AF1EE10FA00F0AA8022
:1029D00097ED1F7AD7ED1E7AB4EE677AF1EE10FA12
:1029E00040F0A08097ED157AD7ED217A77EE676AEF
:1029F00097ED207AD7ED217A37EE677AC6EE877A9F
:102A0000C7ED057A4FF07E533B6197ED0C7AD7ED19
:102A10000D7A37EE677AD7ED057A67EE277A97ED6C
:102A20000D7A77EE277AC7ED107A97ED107AD7ED09
:102A3000067A27EE277AD7ED076AD7ED147A66EE85
:102A4000A77A77EE277AC7ED147A97ED147AD7ED47
:102A5000107A77EE677AC7ED017AB7EE007AD7ED94
:102A6000057A37EE677AD7ED017A27EE277AD7ED28
:102A70000D7A77EE277A796EFA6E13465B0013446F
:102A8000DB007A6F13446A339B000B44C3ED007A7A
:102A900097ED017AD7ED057A27EE277AD7ED0C7AF4
:102AA00077EE277A796EFA6E13465B001344DB00EB
:102AB0003A6F13446A339B000B44C3ED007AB7EEC0
:102AC000007AD7ED057A37EE677AD7ED017A27EEEF
:102AD000277AD7ED0B7A77EE277A796EBA6E13469E
:102AE0005B001344DB007A6F13446A339B000B4492
:102AF000C3ED007A97ED017AD7ED057A27EE277AB4
:102B0000D7ED0A7A77EE277A796EBA6E13465B00B4
:102B10001344DB003A6F13446A339B000B44C3ED4C
:102B2000007A49E07B6B3B6497ED107AD7ED067A2B
:102B300027EE277AD7ED076AD7ED147A66EEA77AE3
:102B400077EE277AC7ED147A796EFA6E13465B003A
:102B50001344DB007A6F13446A339B000B443A6DD5
:102B60001A60796EFA6E13465B001344DB003A6F0D
:102B700013446A339B000B443A6D1A60796EBA6E47
:102B800013465B001344DB007A6F13446A339B00E7
:102B90000B443A6D1A60796EBA6E13465B001344AB
:102BA000DB003A6F13446A339B000B443A6D1A60A2
:102BB00002E000BF00E000BF8837BD4680BD00BF17
:102BC00080B58EB000AF884B5B6A884A1360864B35
:102BD0005B6AFB624FF00003BB604FF00003FB60D9
:102BE0004FF40061824808F0D1F80346002B0CBF77
:102BF00001230023DBB287F82B3003F04BFCF0EE0F
:102C0000407AC7ED027AD7ED027AB0EE670A03F098
:102C100003FDF0EE407AC7ED037A97F82B30002BD6
:102C200000F07382734A43F6BC5313441B78002BA5
:102C300021D003F05DFD0346002B17D0D7ED027ABB
:102C4000BFEE007AF4EEC77AF1EE10FA0EDDD7EDA2
:102C5000027AB7EE007AF4EEC77AF1EE10FA05D5F3
:102C600001220421644808F0A9F804E000220421AC
:102C7000614808F0A3F85F4A43F6B85313441B7841
:102C8000002B40F0448203F0FBFC87ED090A03F0BF
:102C900013FD87ED080A03F01DFD87ED070A574B6A
:102CA0007B63D7ED097A9FED567AF4EEC77AF1EEA1
:102CB00010FA02D5534B7B632EE0D7ED097A9FEDD6
:102CC000527AF4EEC77AF1EE10FA02D54F4B7B63DD
:102CD00022E0D7ED097A9FED4E7AF4EEC77AF1EE55
:102CE00010FA02D54B4B7B6316E0D7ED097A9FEDC6
:102CF0004A7AF4EEC77AF1EE10FA02D5474B7B63BD
:102D00000AE0D7ED097A9FED467AF4EEC77AF1EE44
:102D100010FA01D5434B7B634FF00003BB6103F016
:102D2000F3FC034607EE903AF8EE677AC7ED057AB2
:102D3000D7ED057AF5EE407AF1EE10FA00F0D98180
:102D4000D7ED077A9FED387AF4EEC77AF1EE10FAF4
:102D500007D5D7ED077A9FED357A67EE877AC7ED0D
:102D60000D7AD7ED0D6A97ED087AC6EE877AC7ED32
:102D7000047A2F4B1B68BB612E4A3B69136097EDA9
:102D8000067AD7ED087A67EE277A2B4BC3ED007AE7
:102D900000233B63A8E13B6B9B0007F1380213441F
:102DA000303B93ED007AD7ED067AF1EE677AB4EE18
:102DB000E77AF1EE10FA43D53B6B9B0007F138023E
:102DC0001344303BD3ED007AB1EE677AD7ED067A43
:102DD00077EE677A3B6B9B0007F138021344383B70
:102DE000C3ED007A44E000BF000C0040CC14012089
:102DF00000000240241D0120000C02400000E144BC
:102E00000000C84300C0DA4500002F440080BB45E5
:102E100000007A4400409C450080A24400007A45AE
:102E20000080BB4400803B45006086455953D63E38
:102E3000A8140120AC140120A41401200000B44304
:102E40003B6B9B0007F138021344303BD3ED007A13
:102E50001FED067A37EE677AD7ED067A77EE677A56
:102E60003B6B9B0007F138021344383BC3ED007AFB
:102E70003B6B9B0007F138021344383B93ED007A1B
:102E8000A54A3B6B9B001344D3ED007A77EE677A3B
:102E9000F5EEC07AF1EE10FA22DD3B6B9B0007F1F4
:102EA00038021344383B93ED007A9B4A3B6B9B00FE
:102EB0001344D3ED007A77EE677A9FED987AF4EEBB
:102EC000C77AF1EE10FA0BD5934A3B6B9B00134483
:102ED0001A683B6B9B0007F138010B44383B1A60C2
:102EE000D7ED097A9FED8E7AF4EEC77AF1EE10FAFB
:102EF00058D58C4A3B6B13441B78002B52D03B6B4C
:102F00009B0007F138021344303BD3ED007A9FED6C
:102F1000867AF4EEC77AF1EE10FA43D5834A3B6B1A
:102F200013441B78002B1BD0814A3B6B52F8233093
:102F30001946F86A03F0C8FC0346B3F57A6F0FD957
:102F40003B6BDBB21846FDF7FBFF784A3B6B134443
:102F500000221A7076493B6BFA6A41F8232037E069
:102F6000724A3B6B13441B78002B31D1704A3B6B88
:102F700052F823301946F86A03F0A6FC0346B3F56D
:102F80007A7F25D93B6BDBB21846FDF7EDFF674A28
:102F90003B6B134401221A7065493B6BFA6A41F896
:102FA000232015E0614A3B6B13441B78002B09D0AA
:102FB0005E4A3B6B134400221A703B6BDBB218462F
:102FC000FDF7BEFF574A3B6B134400221A7000E026
:102FD00000BF3B6B9B0007F138021344383B93ED75
:102FE000007AD7ED047A77EE677AF5EEC07AF1EEE3
:102FF00010FA1AD54F4A3B6B13441B78002B14D19F
:103000004D4A3B6B13441B78002B0ED1494A3B6B56
:10301000134401221A70434A3B6B134400221A7076
:103020003B6BDBB21846FDF79FFF3B4A3B6B9B00B7
:10303000134493ED007A3B6B9B0007F13802134475
:10304000383BD3ED007A77EE677ABFEE007AF4EE84
:10305000C77AF1EE10FA33D5374A3B6B13441B782D
:10306000002B32D1334A3B6B13441B78002B2CD0FE
:10307000314A3B6B134401221A702E4A3B6B1344B6
:1030800000221A703B6BDBB21846FDF759FFD7EDF3
:10309000097A9FED237AF4EEC77AF1EE10FA14D58F
:1030A00023493B6BFA6A41F82320204A3B6B1344C7
:1030B00000221A701B4A3B6B134401221A7004E071
:1030C0001D4A3B6B134400221A703B6B9B0007F1B7
:1030D00038021344383B1A680F493B6B9B000B4482
:1030E0001A603B6B01333B633B6B012B7FF753AEA5
:1030F00003E0124B4FF000021A60114B5A6A114B59
:103100001B68D31A104A136002E000BF00E000BF42
:103110003837BD4680BD00BFD814012000003443BD
:103120000000AF43E01401200000A042E41401209D
:10313000E81401204000012044000120A8140120CF
:10314000000C0040CC140120C014012080B586B0D2
:1031500000AF8A4B5B6A8A4A1360884B5B6ABB602C
:1031600003F08EFA87ED010A4FF40041854807F01D
:103170000DFE0346012B0CBF01230023DBB2FB70C5
:103180004FF40061804807F001FE0346002B0CBF9E
:1031900001230023DBB2BB700023FB747B4B1B7845
:1031A0005BB27B707A4B1B68002B08D0D7ED017A9D
:1031B000B2EE047AF4EEC77AF1EE10FA02DD744A48
:1031C000BB681360734B1B78002B33D1724806F039
:1031D00031F90346042B2DD9704A01216E4806F0BF
:1031E00041FA6F4A02216C4806F03CFA6A4806F040
:1031F00021F90246694B1B789A421BD3694B7B61CC
:103200000023FB6009E07B695A1C7A611946624819
:1032100006F019FAFB680133FB60604B1B781A4615
:10322000FB689342EFDB5E4B1B78002B02D0594BBF
:1032300001221A70574B1B78002B10D0584B18786E
:10324000564B1B781A46574900F05EFA03463B700E
:103250003B78002B03D04F4B00221A7000BFBB7885
:10326000002B0ED0504A43F6B85313441B78002B62
:1032700007D1FEF709F9F0EE407A4C4BC3ED007A26
:1032800003E04A4B4FF000021A60BB78002B08D0D5
:10329000454A43F6BA5313441B78002B01D0FEF77E
:1032A0003FFEFEF78DF8FDF773FEBB78002B00F0B4
:1032B00016813D4A43F6B95313441B78002B05D0C1
:1032C000394B03F577531B78FB747CE0364A43F6A1
:1032D000BB5313441B78002B3CD000224FF4807169
:1032E000334807F06BFD00224FF40071304807F0BF
:1032F00065FD20212E4807F049FD0346002B0DD126
:1033000010212B4807F042FD0346012B06D1264A27
:1033100043F6BD5313441B78FB7454E0202124482A
:1033200007F034FD0346012B0DD11021204807F092
:103330002DFD0346002B06D11B4A43F6BF53134411
:103340001B78FB743FE0184A43F6BE5313441B78C6
:10335000FB7438E07B78002B06D1134A43F6BE534A
:1033600013441B78FB742EE07B78012B22D10E4A8C
:1033700043F6BD5313441B78FB7424E0000C00405B
:10338000D01401200008024000000240B8140120BF
:10339000F0140120F414012010180120F51401206C
:1033A000F614012024180120241D0120A814012056
:1033B000000402407B78022B05D17C4A43F6BF53C0
:1033C00013441B78FB74FB7C032B00F29480784A37
:1033D000FB7C1370FB7C754A40F66C7101FB03F3B8
:1033E000134410331A78734B1A70724B1B78DAB28D
:1033F000714B1B789A4207D06E4B1B78DAB26E4B3A
:103400001A706E4ABB681360684A43F6BB53134494
:103410001B78002B6FD1FB7C644A40F66C7101FB7A
:1034200003F3134410331B78002B1BD0FB7C5F4A43
:1034300040F66C7101FB03F3134414331B68002B3B
:103440001DD05E4B1B681946B86803F03DFAFB7C43
:10345000564A40F66C7101FB03F3134414331B68A6
:1034600098420CD900224FF48071554807F0A6FC11
:1034700000224FF40071524807F0A0FC3BE0FB7CB7
:103480004A4A40F66C7101FB03F3134410331B7876
:10349000012B0CD100224FF48071494807F08EFCBB
:1034A00001224FF40071464807F088FC23E0FB7CC2
:1034B0003E4A40F66C7101FB03F3134410331B7852
:1034C000022B18D101224FF480713D4807F076FCA1
:1034D00000224FF400713A4807F070FC0BE0002224
:1034E0004FF48071364807F069FC00224FF40071F8
:1034F000334807F063FCBB78002B05D10022042180
:10350000304807F05BFC46E0284A43F6BC531344BE
:103510001B78002B3FD1254A43F6B65313441B7842
:10352000002B33D0FB78002B16D0204A43F6BC6327
:103530001344D3ED007A9FED247A77EE877A97EDE6
:10354000017AB4EEE77AF1EE10FA05DD00220421EB
:103550001C4807F033FC1EE0FB78002B10D0134A08
:1035600043F6BC631344D3ED007A9FED177A77EEF0
:10357000C77A97ED017AB4EEE77AF1EE10FA0AD540
:10358000012204210F4807F019FC04E00122042164
:103590000C4807F013FC0D4B5A6A0D4B1B68D31AED
:1035A0000C4A136000BF1837BD4680BD241D0120A2
:1035B000B0140120B1140120F7140120F0140120EF
:1035C00000040240000C024000009642000C004043
:1035D000D0140120C414012080B584B000AF03468C
:1035E000B9607A60FB73BB681B78012B00D06FE079
:1035F000394AFB7B937003F043F8F0EE407A364B88
:10360000C3ED057A03F04AF8F0EE407A324BC3ED91
:10361000067A04F0BDF8F0EE407A2F4BC3ED077A3E
:1036200004F0B6F8F0EE406A9FED2C7AC6EE877A89
:103630009FED2B7A67EE877A274BC3ED087A294BEB
:103640001B68254A5362284B1B68234AD362274BC9
:103650001B78DAB2204B5A7103F062F80346002B54
:1036600011D1234BD3ED007AB7EE007AF4EEC77A8E
:10367000F1EE10FA07DC184BD3ED087AF5EE407A3C
:10368000F1EE10FA01D1012300E00023DAB2124B6F
:103690009A71184B1B78DAB20F4B1A710E4B1B79CB
:1036A000032B0AD80C4B1B791A4640F66C7303FBAC
:1036B00002F3114A1344043300E0104B194610483A
:1036C0000BF0D5FB302204490E4805F09CFF00BFEB
:1036D00000BF1037BD4680BD0000012000D8D6478E
:1036E0000000C842A8140120B4140120B114012024
:1036F0009C140120B0140120241D012098EE000824
:10370000070001201018012080B584B000AF0346E7
:10371000B9607A60FB73FB7B7A68B968184605F07C
:1037200061F8034618461037BD4680BD80B483B0AB
:1037300000AF78600B46FB70FB787A6840F66C71DE
:1037400001FB03F3134403F5A47310221A60FB7802
:103750007A6840F66C7101FB03F3134403F5A6731A
:10376000B94A1A60FB787A6840F66C7101FB03F382
:10377000134403F5A873B54A1A60FB787A6840F6DB
:103780006C7101FB03F3134403F5AA73B04A1A608A
:10379000FB787A6840F66C7101FB03F3134403F580
:1037A000AC73AC4A1A60FB787A6840F66C7101FB26
:1037B00003F3134403F5AE73A74A1A60FB787A68E3
:1037C00040F66C7101FB03F3134403F5B073A34A95
:1037D0001A60FB787A6840F66C7101FB03F31344BE
:1037E00003F5B2739E4A1A60FB787A6840F66C71F2
:1037F00001FB03F3134403F5B4739A4A1A60FB7890
:103800007A6840F66C7101FB03F3134403F5B67359
:10381000954A1A60FB787A6840F66C7101FB03F3F5
:10382000134403F5B873914A1A60FB787A6840F63E
:103830006C7101FB03F3134403F5BA738C4A1A60ED
:10384000FB787A6840F66C7101FB03F3134403F5CF
:10385000BC73884A1A60FB787A6840F66C7101FB89
:1038600003F3134403F5BE73834A1A60FB787A6846
:1038700040F66C7101FB03F3134403F5C0737F4AF8
:103880001A60FB787A6840F66C7101FB03F313440D
:1038900003F5C2737A4A1A60FB787A6840F66C7155
:1038A00001FB03F3134403F5C473764A1A60FB78F3
:1038B0007A6840F66C7101FB03F31344E433102281
:1038C0001A60FB787A6840F66C7101FB03F31344CD
:1038D000E8336D4A1A60FB787A6840F66C7101FB38
:1038E00003F31344EC33694A1A60FB787A6840F6B4
:1038F0006C7101FB03F31344F033654A1A60FB78E3
:103900007A6840F66C7101FB03F31344F433614AA7
:103910001A60FB787A6840F66C7101FB03F313447C
:10392000F8335D4A1A60FB787A6840F66C7101FBE7
:1039300003F31344FC33594A1A60FB787A6840F663
:103940006C7101FB03F3134403F58073544A1A604E
:10395000FB787A6840F66C7101FB03F3134403F5BE
:103960008273504A1A60FB787A6840F66C7101FBEA
:1039700003F3134403F584734B4A1A60FB787A68A7
:1039800040F66C7101FB03F3134403F58673474A59
:103990001A60FB787A6840F66C7101FB03F31344FC
:1039A00003F58873424A1A60FB787A6840F66C71B6
:1039B00001FB03F3134403F58A733E4A1A60FB7854
:1039C0007A6840F66C7101FB03F3134403F58C73C2
:1039D000394A1A60FB787A6840F66C7101FB03F390
:1039E000134403F58E73354A1A60FB787A6840F603
:1039F0006C7101FB03F3134403F59073304A1A60B2
:103A0000FB787A6840F66C7101FB03F3134403F50D
:103A100092732C4A1A60FB787A6840F66C7101FB4D
:103A200003F3134403F5D673274A1A60FB787A68C8
:103A300040F66C7101FB03F3134403F5D873234A7A
:103A40001A60FB7844E000BF0000164400003444D4
:103A50000000524400807744004092440080AC440F
:103A60000040CE4400C0F3440060104500A02A4549
:103A700000A048450000704500908D4500D0A74546
:103A800000C0C6450060EA4500C0DA460020004795
:103A900000E0124700A025470060384700204B4750
:103AA00000E05D4700A0704700B0814700108B47E1
:103AB0000070944700D09D470030A7470090B04762
:103AC00000F0B9470050C34700006841CDCC8041A9
:103AD0007A6840F66C7101FB03F3134403F5DA7363
:103AE000BA4A1A60FB787A6840F66C7101FB03F3FE
:103AF000134403F5DC73B64A1A60FB787A6840F623
:103B00006C7101FB03F3134403F5DE73B14A1A60D1
:103B1000FB787A6840F66C7101FB03F3134403F5FC
:103B2000E073AD4A1A60FB787A6840F66C7101FB6D
:103B300003F3134403F5E273A84A1A60FB787A682A
:103B400040F66C7101FB03F3134403F5E473A44ADC
:103B50001A60FB787A6840F66C7101FB03F313443A
:103B600003F5E6739F4A1A60FB787A6840F66C7139
:103B700001FB03F3134403F5E8739B4A1A60FB78D7
:103B80007A6840F66C7101FB03F3134403F5EA73A2
:103B9000964A1A60FB787A6840F66C7101FB03F371
:103BA000134403F5EC73924A1A60FB787A6840F686
:103BB0006C7101FB03F3134403F5EE738D4A1A6035
:103BC000FB787A6840F66C7101FB03F3134403F54C
:103BD000F073884A1A60FB787A6840F66C7101FBD2
:103BE00003F3134403F5F273834A1A60FB787A688F
:103BF00040F66C7101FB03F3134403F5F4737F4A41
:103C00001A60FB787A6840F66C7101FB03F3134489
:103C100003F503737A4A1A60FB787A6840F66C7190
:103C200001FB03F3134403F50473684A1A60FB783D
:103C30007A6840F66C7101FB03F3134403F50573D6
:103C4000704A1A60FB787A6840F66C7101FB03F3E6
:103C5000134403F506736C4A1A60FB787A6840F6E1
:103C60006C7101FB03F3134403F50773674A1A6091
:103C7000FB787A6840F66C7101FB03F3134403F59B
:103C80000873634A1A60FB787A6840F66C7101FB2E
:103C900003F3134403F509735E4A1A60FB787A68EC
:103CA00040F66C7101FB03F3134403F50A735A4A9F
:103CB0001A60FB787A6840F66C7101FB03F31344D9
:103CC00003F50B73474A1A60FB787A6840F66C710B
:103CD00001FB03F3134403F50C73434A1A60FB78AA
:103CE0007A6840F66C7101FB03F3134403F50D731E
:103CF0004A4A1A60FB787A6840F66C7101FB03F35C
:103D0000134403F50E733A4A1A60FB787A6840F65A
:103D10006C7101FB03F3134403F50F73354A1A600A
:103D2000FB787A6840F66C7101FB03F3134403F5EA
:103D30001073304A1A60FB787A6840F66C7101FBA8
:103D400003F3134403F511732B4A1A60FB787A6866
:103D500040F66C7101FB03F3134403F51273274A19
:103D60001A60FB787A6840F66C7101FB03F3134428
:103D700003F51B732A4A1A60FB787A6840F66C7167
:103D800001FB03F3134403F51C73264A1A60FB7806
:103D90007A6840F66C7101FB03F3134403F51D735D
:103DA000214A1A60FB787A6840F66C7101FB03F3D4
:103DB000134403F51E731D4A1A60FB787A6840F6B7
:103DC0006C7101FB03F3134432E000BF000090412B
:103DD0003333A7419A99C5419A99ED41333317423C
:103DE0009A99234266662A429A992D4200003042EF
:103DF0009A993142333331423333334200003442F3
:103E0000CDCC8041CDCCA041CDCCB841CDCCD4419E
:103E10000000F841666618420000244200002C426F
:103E200066668E419A999D410000AC419A99C141C4
:103E300003F51F73BA4A1A60FB787A6840F66C7112
:103E400001FB03F3134403F52073B64A1A60FB78B1
:103E50007A6840F66C7101FB03F3134403F5217398
:103E6000B14A1A60FB787A6840F66C7101FB03F383
:103E7000134403F52273AD4A1A60FB787A6840F662
:103E80006C7101FB03F3134403F52373A84A1A6012
:103E9000FB787A6840F66C7101FB03F3134403F579
:103EA0002473A44A1A60FB787A6840F66C7101FBAF
:103EB00003F3134403F525739F4A1A60FB787A686D
:103EC00040F66C7101FB03F3134403F526739B4A20
:103ED0001A60FB787A6840F66C7101FB03F31344B7
:103EE00003F52773964A1A60FB787A6840F66C717E
:103EF00001FB03F3134403F52873914A1A60FB781E
:103F00007A6840F66C7101FB03F3134403F52973DF
:103F10008C4A1A60FB787A6840F66C7101FB03F3F7
:103F2000134403F52A73884A1A60FB787A6840F6CE
:103F30006C7101FB03F3134403F53373834A1A6076
:103F4000FB787A6840F66C7101FB03F3134403F5C8
:103F500034737F4A1A60FB787A6840F66C7101FB13
:103F600003F3134403F535737A4A1A60FB787A68D1
:103F700040F66C7101FB03F3134403F53673764A84
:103F80001A60FB787A6840F66C7101FB03F3134406
:103F900003F53773714A1A60FB787A6840F66C71E2
:103FA00001FB03F3134403F538736D4A1A60FB7881
:103FB0007A6840F66C7101FB03F3134403F539731F
:103FC000684A1A60FB787A6840F66C7101FB03F36B
:103FD000134403F53A73644A1A60FB787A6840F632
:103FE0006C7101FB03F3134403F53B735F4A1A60E2
:103FF000FB787A6840F66C7101FB03F3134403F518
:104000003C735B4A1A60FB787A6840F66C7101FB7E
:1040100003F3134403F53D73564A1A60FB787A683C
:1040200040F66C7101FB03F3134403F53E73524AEF
:104030001A60FB787A6840F66C7101FB03F3134455
:1040400003F53F734D4A1A60FB787A6840F66C714D
:1040500001FB03F3134403F54073474A1A60FB78EE
:104060007A6840F66C7101FB03F3134403F5417366
:10407000434A1A60FB787A6840F66C7101FB03F3DF
:10408000134403F542733F4A1A60FB787A6840F69E
:104090006C7101FB03F3134403F54B732B4A1A6055
:1040A000FB787A6840F66C7101FB03F3134403F567
:1040B0004C73354A1A60FB787A6840F66C7101FBE4
:1040C00003F3134403F54D73304A1A60FB787A68A2
:1040D00040F66C7101FB03F3134403F54E732C4A55
:1040E0001A60FB787A6840F66C7101FB03F31344A5
:1040F00003F54F73274A1A60FB787A6840F66C71B3
:1041000001FB03F3134403F55073234A1A60FB7851
:104110007A6840F66C7101FB03F313443EE000BF84
:10412000CDCCDC419A99FD41333319426666244275
:1041300066662A429A992D4200002C429A99314291
:104140003333314233333342000034429A9995413C
:104150000000A4419A99B141CDCCC4419A99DD4166
:104160006666FE41CDCC18429A9923429A9929421B
:10417000CDCC2C42CDCC2E4266663042000030427F
:10418000CDCC32429A9933423333A3413333AF41DA
:104190006666C2416666DA416666FA4103F55173A6
:1041A000BA4A1A60FB787A6840F66C7101FB03F337
:1041B000134403F55273B64A1A60FB787A6840F6E6
:1041C0006C7101FB03F3134403F55373B14A1A6096
:1041D000FB787A6840F66C7101FB03F3134403F536
:1041E0005473AD4A1A60FB787A6840F66C7101FB33
:1041F00003F3134403F55573A84A1A60FB787A68F1
:1042000040F66C7101FB03F3134403F55673A44AA3
:104210001A60FB787A6840F66C7101FB03F3134473
:1042200003F557739F4A1A60FB787A6840F66C7101
:1042300001FB03F3134403F558739B4A1A60FB78A0
:104240007A6840F66C7101FB03F3134403F559736C
:10425000964A1A60FB787A6840F66C7101FB03F3AA
:10426000134403F55A73924A1A60FB787A6840F651
:104270006C7101FB03F3134403F563738D4A1A60F9
:10428000FB787A6840F66C7101FB03F3134403F585
:104290006473894A1A60FB787A6840F66C7101FB96
:1042A00003F3134403F56573844A1A60FB787A6854
:1042B00040F66C7101FB03F3134403F56673804A07
:1042C0001A60FB787A6840F66C7101FB03F31344C3
:1042D00003F567737B4A1A60FB787A6840F66C7165
:1042E00001FB03F3134403F56873774A1A60FB7804
:1042F0007A6840F66C7101FB03F3134403F56973AC
:10430000724A1A60FB787A6840F66C7101FB03F31D
:10431000134403F56A736E4A1A60FB787A6840F6B4
:104320006C7101FB03F3134403F56B73694A1A6064
:10433000FB787A6840F66C7101FB03F3134403F5D4
:104340006C73654A1A60FB787A6840F66C7101FB01
:1043500003F3134403F56D73604A1A60FB787A68BF
:1043600040F66C7101FB03F3134403F56E735C4A72
:104370001A60FB787A6840F66C7101FB03F3134412
:1043800003F56F73574A1A60FB787A6840F66C71D0
:1043900001FB03F3134403F57073534A1A60FB786F
:1043A0007A6840F66C7101FB03F3134403F57173F3
:1043B0003A4A1A60FB787A6840F66C7101FB03F3A5
:1043C000134403F57273374A1A60FB787A6840F633
:1043D0006C7101FB03F3134403F57B73434A1A60CA
:1043E000FB787A6840F66C7101FB03F3134403F524
:1043F0007C733F4A1A60FB787A6840F66C7101FB67
:1044000003F3134403F57D733A4A1A60FB787A6824
:1044100040F66C7101FB03F3134403F57E73364AD7
:104420001A60FB787A6840F66C7101FB03F3134461
:1044300003F57F73314A1A60FB787A6840F66C7135
:1044400001FB03F3134403F580632D4A1A60FB78E4
:104450007A6840F66C7101FB03F3134403F20443E2
:10446000284A1A60FB787A6840F66C7101FB03F306
:10447000134403F58163244A1A60FB787A6840F696
:104480006C7101FB03F3134440E000BF6666164203
:1044900033332142CDCC26429A9929429A992B4214
:1044A000CDCC2C4266662C4233332D4200002C4288
:1044B000CDCC304233338B4133339B413333A7412F
:1044C0009A99B9419A99D141CDCCF04133331142F7
:1044D00066661C4266662242333325429A99274219
:1044E000CDCC2842666628423333294266666E4147
:1044F0009A9989419A999541CDCCA8416666C24165
:104500003333E341333309423333154203F20C436F
:10451000BA4A1A60FB787A6840F66C7101FB03F3C3
:10452000134403F58263B64A1A60FB787A6840F652
:104530006C7101FB03F3134403F21443B14A1A6094
:10454000FB787A6840F66C7101FB03F3134403F5C2
:104550008363AD4A1A60FB787A6840F66C7101FBA0
:1045600003F3134403F21C43A74A1A60FB787A68EA
:1045700040F66C7101FB03F3134403F58463A34A13
:104580001A60FB787A6840F66C7101FB03F3134400
:1045900003F224439E4A1A60FB787A6840F66C71F5
:1045A00001FB03F3134403F585639A4A1A60FB7811
:1045B0007A6840F66C7101FB03F3134403F24C4339
:1045C000954A1A60FB787A6840F66C7101FB03F338
:1045D000134403F58A63914A1A60FB787A6840F6BF
:1045E0006C7101FB03F3134403F254438C4A1A60C9
:1045F000FB787A6840F66C7101FB03F3134403F512
:104600008B63884A1A60FB787A6840F66C7101FB0C
:1046100003F3134403F25C43834A1A60FB787A681D
:1046200040F66C7101FB03F3134403F58C637F4A7E
:104630001A60FB787A6840F66C7101FB03F313444F
:1046400003F264437A4A1A60FB787A6840F66C7128
:1046500001FB03F3134403F58D63764A1A60FB787C
:104660007A6840F66C7101FB03F3134403F26C4368
:10467000714A1A60FB787A6840F66C7101FB03F3AB
:10468000134403F58E636D4A1A60FB787A6840F62E
:104690006C7101FB03F3134403F27443574A1A602D
:1046A000FB787A6840F66C7101FB03F3134403F561
:1046B0008F63634A1A60FB787A6840F66C7101FB7D
:1046C00003F3134403F27C435D4A1A60FB787A6873
:1046D00040F66C7101FB03F3134403F59063594AF0
:1046E0001A60FB787A6840F66C7101FB03F313449F
:1046F00003F28443544A1A60FB787A6840F66C717E
:1047000001FB03F3134403F591633F4A1A60FB78FE
:104710007A6840F66C7101FB03F3134403F2AC4377
:104720004A4A1A60FB787A6840F66C7101FB03F321
:10473000134403F59663464A1A60FB787A6840F69C
:104740006C7101FB03F3134403F2B443414A1A6052
:10475000FB787A6840F66C7101FB03F3134403F5B0
:1047600097633D4A1A60FB787A6840F66C7101FBEA
:1047700003F3134403F2BC43384A1A60FB787A68A7
:1047800040F66C7101FB03F3134403F59863344A5C
:104790001A60FB787A6840F66C7101FB03F31344EE
:1047A00003F2C4432F4A1A60FB787A6840F66C71B2
:1047B00001FB03F3134403F599631D4A1A60FB7868
:1047C0007A6840F66C7101FB03F3134403F2CC43A7
:1047D000254A1A60FB787A6840F66C7101FB03F396
:1047E000134403F59A63214A1A60FB787A6840F60D
:1047F0006C7101FB03F313443AE000BF9A991B422A
:1048000033331F426666224200002442333325427E
:1048100033332742000028423333434100006841CC
:1048200066667E4133338F410000AC410000D041C9
:104830003333FF4100000C42333313429A9917423D
:1048400000001E42CDCC2042333323423333234178
:1048500066663E419A99514166666E41666692412E
:104860006666B6413333E341CDCC084233330F4261
:1048700003F2D443BA4A1A60FB787A6840F66C7146
:1048800001FB03F3134403F59B63B64A1A60FB78FC
:104890007A6840F66C7101FB03F3134403F2DC43C6
:1048A000B14A1A60FB787A6840F66C7101FB03F339
:1048B000134403F59C63AD4A1A60FB787A6840F6AE
:1048C0006C7101FB03F3134403F2E443A84A1A603A
:1048D000FB787A6840F66C7101FB03F3134403F52F
:1048E0009D63A44A1A60FB787A6840F66C7101FBFC
:1048F00003F3134403F20C539F4A1A60FB787A685F
:1049000040F66C7101FB03F3134403F5A2639B4A69
:104910001A60FB787A6840F66C7101FB03F313446C
:1049200003F21453964A1A60FB787A6840F66C7169
:1049300001FB03F3134403F5A363924A1A60FB7867
:104940007A6840F66C7101FB03F3134403F21C53C5
:104950008D4A1A60FB787A6840F66C7101FB03F3AC
:10496000134403F5A463894A1A60FB787A6840F619
:104970006C7101FB03F3134403F22453844A1A605D
:10498000FB787A6840F66C7101FB03F3134403F57E
:10499000A563804A1A60FB787A6840F66C7101FB67
:1049A00003F3134403F22C537B4A1A60FB787A68B2
:1049B00040F66C7101FB03F3134403F5A663774AD9
:1049C0001A60FB787A6840F66C7101FB03F31344BC
:1049D00003F23453724A1A60FB787A6840F66C71BD
:1049E00001FB03F3134403F5A7636E4A1A60FB78D7
:1049F0007A6840F66C7101FB03F3134403F23C53F5
:104A0000694A1A60FB787A6840F66C7101FB03F31F
:104A1000134403F5A863654A1A60FB787A6840F688
:104A20006C7101FB03F3134403F24453604A1A60B0
:104A3000FB787A6840F66C7101FB03F3134403F5CD
:104A4000A9635C4A1A60FB787A6840F66C7101FBD6
:104A500003F3134403F26C53574A1A60FB787A68E5
:104A600040F66C7101FB03F3134403F5AE63534A44
:104A70001A60FB787A6840F66C7101FB03F313440B
:104A800003F274534E4A1A60FB787A6840F66C71F0
:104A900001FB03F3134403F5AF634A4A1A60FB7842
:104AA0007A6840F66C7101FB03F3134403F27C5304
:104AB000454A1A60FB787A6840F66C7101FB03F393
:104AC000134403F5B063414A1A60FB787A6840F6F4
:104AD0006C7101FB03F3134403F284533C4A1A60E4
:104AE000FB787A6840F66C7101FB03F3134403F51D
:104AF000B163384A1A60FB787A6840F66C7101FB42
:104B000003F3134403F28C53334A1A60FB787A6838
:104B100040F66C7101FB03F3134403F5B2632F4AB3
:104B20001A60FB787A6840F66C7101FB03F313445A
:104B300003F294532A4A1A60FB787A6840F66C7143
:104B400001FB03F3134403F5B363264A1A60FB78B1
:104B50007A6840F66C7101FB03F3134444E000BF34
:104B6000CDCC144266661842CDCC1A4266661C4211
:104B7000CDCC1E429A991F420000084133331B419D
:104B8000CDCC2C4166664641CDCC74419A99994171
:104B90000000B8413333DF410000F041CDCC044286
:104BA0009A990D4200001242CDCC124200001442EC
:104BB00000001642CDCC16423333E3403333034179
:104BC000333313419A99294166664E41CDCC8041D9
:104BD0006666A6410000C0416666E2416666F6412F
:104BE0009A990542CDCC084203F29C53BA4A1A6006
:104BF000FB787A6840F66C7101FB03F3134403F50C
:104C0000B463B64A1A60FB787A6840F66C7101FBAF
:104C100003F3134403F2A453B14A1A60FB787A6891
:104C200040F66C7101FB03F3134403F5B563AD4A21
:104C30001A60FB787A6840F66C7101FB03F3134449
:104C400003F2CC53A84A1A60FB787A6840F66C717C
:104C500001FB03F3134403F5BA63A44A1A60FB781B
:104C60007A6840F66C7101FB03F3134403F2D453EA
:104C70009F4A1A60FB787A6840F66C7101FB03F377
:104C8000134403F5BB639B4A1A60FB787A6840F6CD
:104C90006C7101FB03F3134403F2DC53964A1A6070
:104CA000FB787A6840F66C7101FB03F3134403F55B
:104CB000BC63924A1A60FB787A6840F66C7101FB1B
:104CC00003F3134403F2E4538D4A1A60FB787A68C5
:104CD00040F66C7101FB03F3134403F5BD63894A8D
:104CE0001A60FB787A6840F66C7101FB03F3134499
:104CF00003F2EC53844A1A60FB787A6840F66C71D0
:104D000001FB03F3134403F5BE63804A1A60FB788A
:104D10007A6840F66C7101FB03F3134403F2F45319
:104D20007B4A1A60FB787A6840F66C7101FB03F3EA
:104D3000134403F5BF634FF084421A60FB787A682E
:104D400040F66C7101FB03F3134403F2FC53714A08
:104D50001A60FB787A6840F66C7101FB03F3134428
:104D600003F5C0636C4A1A60FB787A6840F66C7190
:104D700001FB03F3134403F20463684A1A60FB78EF
:104D80007A6840F66C7101FB03F3134403F5C163C9
:104D9000634A1A60FB787A6840F66C7101FB03F392
:104DA000134403F22C635F4A1A60FB787A6840F67A
:104DB0006C7101FB03F3134403F5C6635A4A1A608E
:104DC000FB787A6840F66C7101FB03F3134403F23D
:104DD0003463564A1A60FB787A6840F66C7101FBBE
:104DE00003F3134403F5C763514A1A60FB787A68EA
:104DF00040F66C7101FB03F3134403F23C634D4A2C
:104E00001A60FB787A6840F66C7101FB03F3134477
:104E100003F5C863484A1A60FB787A6840F66C71FB
:104E200001FB03F3134403F24463444A1A60FB7822
:104E30007A6840F66C7101FB03F3134403F5C96310
:104E40003F4A1A60FB787A6840F66C7101FB03F305
:104E5000134403F24C633B4A1A60FB787A6840F6CD
:104E60006C7101FB03F3134403F5CA63364A1A60FD
:104E7000FB787A6840F66C7101FB03F3134403F28C
:104E80005463324A1A60FB787A6840F66C7101FB11
:104E900003F3134403F5CB632D4A1A60FB787A6859
:104EA00040F66C7101FB03F3134403F25C63294A7F
:104EB0001A60FB787A6840F66C7101FB03F31344C7
:104EC00003F5CC63244A1A60FB787A6840F66C716B
:104ED00001FB03F3134441E0CDCC06429A9907420B
:104EE000CDCC0842333309429A99C9406666E64000
:104EF0009A990141CDCC14419A9931410000604109
:104F0000000090416666BA413333D741CDCCE841C9
:104F1000CDCCFC410000F8416666FA419A99FD410A
:104F20006666FE413333C3406666D6409A99E940CF
:104F30006666064166661E41000048419A998D41A9
:104F40000000B0413333CF413333DF41CDCCF041AA
:104F50006666F2419A99E9413333EB4103F26463A7
:104F6000BA4A1A60FB787A6840F66C7101FB03F369
:104F7000134403F5CD63B64A1A60FB787A6840F6AD
:104F80006C7101FB03F3134403F28C63B14A1A60A2
:104F9000FB787A6840F66C7101FB03F3134403F568
:104FA000D263AD4A1A60FB787A6840F66C7101FBF7
:104FB00003F3134403F29463A84A1A60FB787A68F7
:104FC00040F66C7101FB03F3134403F5D363A44A69
:104FD0001A60FB787A6840F66C7101FB03F31344A6
:104FE00003F29C639F4A1A60FB787A6840F66C7102
:104FF00001FB03F3134403F5D4639B4A1A60FB7867
:105000007A6840F66C7101FB03F3134403F2A46366
:10501000964A1A60FB787A6840F66C7101FB03F3DC
:10502000134403F5D563924A1A60FB787A6840F618
:105030006C7101FB03F3134403F2AC638D4A1A60F5
:10504000FB787A6840F66C7101FB03F3134403F5B7
:10505000D663894A1A60FB787A6840F66C7101FB66
:1050600003F3134403F2B463844A1A60FB787A684A
:1050700040F66C7101FB03F3134403F5D763804AD8
:105080001A60FB787A6840F66C7101FB03F31344F5
:1050900003F2BC637B4A1A60FB787A6840F66C7155
:1050A00001FB03F3134403F5D863774A1A60FB78D6
:1050B0007A6840F66C7101FB03F3134403F2C46396
:1050C000724A1A60FB787A6840F66C7101FB03F350
:1050D000134403F5D9636A4A1A60FB787A6840F68C
:1050E0006C7101FB03F3134403F2EC63594A1A6039
:1050F000FB787A6840F66C7101FB03F3134403F507
:10510000DE63554A1A60FB787A6840F66C7101FBE1
:1051100003F3134403F2F4635D4A1A60FB787A6880
:1051200040F66C7101FB03F3134403F5DF63594A46
:105130001A60FB787A6840F66C7101FB03F3134444
:1051400003F2FC63544A1A60FB787A6840F66C718B
:1051500001FB03F3134403F5E063504A1A60FB7844
:105160007A6840F66C7101FB03F3134403F2047395
:105170004B4A1A60FB787A6840F66C7101FB03F3C6
:10518000134403F5E163474A1A60FB787A6840F6F6
:105190006C7101FB03F3134403F20C73424A1A606F
:1051A000FB787A6840F66C7101FB03F3134403F556
:1051B000E2633E4A1A60FB787A6840F66C7101FB44
:1051C00003F3134403F21473394A1A60FB787A68C4
:1051D00040F66C7101FB03F3134403F5E363354AB6
:1051E0001A60FB787A6840F66C7101FB03F3134494
:1051F00003F21C73304A1A60FB787A6840F66C71CF
:1052000001FB03F3134403F5E4632C4A1A60FB78B3
:105210007A6840F66C7101FB03F3134403F22473C4
:10522000234A1A60FB787A6840F66C7101FB03F33D
:10523000134403F5E5631F4A1A60FB787A6840F669
:105240006C7101FB03F313443AE000BF0000F0412E
:105250009A99F1410000C0400000D0403333E34050
:10526000CDCCFC409A991141CDCC3441CDCC7C4180
:105270006666A2413333C341CDCCD4419A99E5410E
:105280006666E641CDCCDC413333DF41CDCCE44131
:105290000000E0406666F64033330B4100002841D1
:1052A0009A9961419A999141CDCCB0410000C44195
:1052B0006666D6410000D8413333CF419A99D14137
:1052C00003F24C73564A1A60FB787A6840F66C71A8
:1052D00001FB03F3134403F5EA63524A1A60FB78B7
:1052E0007A6840F66C7101FB03F3134403F25473C4
:1052F0004D4A1A60FB787A6840F66C7101FB03F343
:10530000134403F5EB63494A1A60FB787A6840F668
:105310006C7101FB03F3134403F25C73444A1A609B
:10532000FB787A6840F66C7101FB03F3134403F5D4
:10533000EC63404A1A60FB787A6840F66C7101FBB6
:1053400003F3134403F264733B4A1A60FB787A68F0
:1053500040F66C7101FB03F3134403F5ED63374A28
:105360001A60FB787A6840F66C7101FB03F3134412
:1053700003F26C73324A1A60FB787A6840F66C71FB
:1053800001FB03F3134403F5EE632E4A1A60FB7826
:105390007A6840F66C7101FB03F3134403F27473F3
:1053A000294A1A60FB787A6840F66C7101FB03F3B6
:1053B000134403F5EF63254A1A60FB787A6840F6D8
:1053C0006C7101FB03F3134403F27C73204A1A60EF
:1053D000FB787A6840F66C7101FB03F3134403F524
:1053E000F0631C4A1A60FB787A6840F66C7101FB26
:1053F00003F3134403F28473134A1A60FB787A6848
:1054000040F66C7101FB03F3134403F5F163124A98
:105410001A6000BF0C37BD465DF8047B704700BFC3
:105420000000C0400000D0400000E0403333F340B3
:105430000000084166661E41CDCC4441CDCC7C4184
:1054400000009C419A99B1416666C641CDCCC841E5
:105450000000C0416666C2410000C84180B586B008
:1054600000AF78600023FB7300237B6107E07B695A
:105470007A68134400221A707B6901337B617B696F
:1054800044F2C7229342F2D97A6843F6B4531344E4
:1054900001221A707A6843F6B553134401221A7038
:1054A0007A6843F6B653134401221A707A6843F6B9
:1054B000B753134400221A707A6843F6B853134462
:1054C00000221A707A6843F6B953134400221A7006
:1054D0007A6843F6BA53134400221A707A6843F686
:1054E000BB53134401221A707A6843F6BC53134429
:1054F00000221A707A6843F6BD53134400221A70D2
:105500007A6843F6BE53134400221A707A6843F651
:10551000BF53134400221A707B6803F577530022AF
:105520001A707A6843F6B86313440A4A1A607A68B4
:1055300043F6BC631344084A1A607B6803F57B5347
:10554000064A1A607B6801221A6000233B6100F062
:105550003FBC00BF0000C8430000FA4400409C4527
:105560003B6940F66C7202FB03F37A681344043320
:10557000B8491A460B4603CB106051601B88138153
:105580007A683B6940F66C7101FB03F313441033F6
:1055900001221A707A683B6940F66C7101FB03F3D3
:1055A0001344143300221A607A683B6940F66C7128
:1055B00001FB03F3134418334FF000021A607A68BA
:1055C0003B6940F66C7101FB03F313441C334FF04D
:1055D00000021A607A683B6940F66C7101FB03F3C4
:1055E0001344203314221A607A683B6940F66C71C8
:1055F00001FB03F313448433974A1A607A683B69CA
:1056000040F66C7101FB03F313448833934A1A602C
:105610007A683B6940F66C7101FB03F313448C33E9
:105620008F4A1A607A683B6940F66C7101FB03F39C
:10563000134490338B4A1A607A683B6940F66C7168
:1056400001FB03F313449433874A1A607A683B6979
:1056500040F66C7101FB03F313449833834A1A60DC
:105660007A683B6940F66C7101FB03F313449C3389
:105670007F4A1A607A683B6940F66C7101FB03F35C
:105680001344A0337B4A1A607A683B6940F66C7118
:1056900001FB03F31344A433774A1A607A683B6929
:1056A00040F66C7101FB03F31344A833734A1A608C
:1056B0007A683B6940F66C7101FB03F31344AC3329
:1056C0006F4A1A607A683B6940F66C7101FB03F31C
:1056D0001344B0336B4A1A607A683B6940F66C71C8
:1056E00001FB03F31344B433674A1A607A683B69D9
:1056F00040F66C7101FB03F31344B833634A1A603C
:105700007A683B6940F66C7101FB03F31344BC33C8
:105710005F4A1A607A683B6940F66C7101FB03F3DB
:105720001344C0335B4A1A607A683B6940F66C7177
:1057300001FB03F31344C433574A1A607A683B6988
:1057400040F66C7101FB03F31344C833534A1A60EB
:105750007A683B6940F66C7101FB03F31344CC3368
:105760004F4A1A607A683B6940F66C7101FB03F39B
:105770001344D0334B4A1A607A683B6940F66C7127
:1057800001FB03F313442433474A1A607A683B69E8
:1057900040F66C7101FB03F313442833434A1A604B
:1057A0007A683B6940F66C7101FB03F313442C33B8
:1057B0003F4A1A607A683B6940F66C7101FB03F35B
:1057C000134430333B4A1A607A683B6940F66C7187
:1057D00001FB03F313443433374A1A607A683B6998
:1057E00040F66C7101FB03F3134438334FF08342EE
:1057F0001A607A683B6940F66C7101FB03F313444D
:105800003C332E4A1A607A683B6940F66C7101FBA2
:1058100003F3134440332A4A1A607A683B6940F61E
:105820006C7101FB03F313444433254A1A607A6810
:105830003B6940F66C7101FB03F313444833214A82
:105840001A607A683B6940F66C7101FB03F31344FC
:105850004C3339E09CEE00080080D0430080E343E5
:105860000000EE430000FA430040034400000B44F4
:105870000000134400401C4400C026440080324411
:1058800000404044004050440040634400007A44DB
:1058900000E08A4400409C4400A0B2440060D04430
:1058A0000000FA4400401C45000020410000304147
:1058B0000000404100005041000060410000904164
:1058C0000000A04100009841BF4A1A607A683B6915
:1058D00040F66C7101FB03F313445033BB4A1A606A
:1058E0007A683B6940F66C7101FB03F3134454334F
:1058F000B74A1A607A683B6940F66C7101FB03F3A2
:10590000134458334FF082421A607A683B6940F67C
:105910006C7101FB03F313445C334FF082421A6055
:105920007A683B6940F66C7101FB03F31344603302
:10593000A74A1A607A683B6940F66C7101FB03F371
:1059400013446433A34A1A607A683B6940F66C7169
:1059500001FB03F3134468339F4A1A607A683B697A
:1059600040F66C7101FB03F313446C339B4A1A60DD
:105970007A683B6940F66C7101FB03F313447033A2
:10598000974A1A603B69DBB219467868FDF7CEFE8C
:105990007A683B6940F66C7101FB03F3134403F62C
:1059A000AC230B221A607A683B6940F66C7101FBEC
:1059B00003F3134403F52B638A4A1A607A683B6940
:1059C00040F66C7101FB03F3134403F6B423864ADB
:1059D0001A607A683B6940F66C7101FB03F313446B
:1059E00003F6B8234FF000021A607A683B6940F66C
:1059F0006C7101FB03F3134403F6BC23754A1A6070
:105A00007A683B6940F66C7101FB03F3134403F5BC
:105A10002C63764A1A607A683B6940F66C7101FB28
:105A200003F3134403F6C423714A1A607A683B698E
:105A300040F66C7101FB03F3134403F6C8236D4A6F
:105A40001A607A683B6940F66C7101FB03F31344FA
:105A500003F6CC23684A1A607A683B6940F66C7199
:105A600001FB03F3134403F52D63644A1A607A685B
:105A70003B6940F66C7101FB03F3134403F6D42336
:105A80005F4A1A607A683B6940F66C7101FB03F368
:105A9000134403F6D8235B4A1A607A683B6940F6E0
:105AA0006C7101FB03F3134403F52E63564A1A602D
:105AB0007A683B6940F66C7101FB03F3134403F60B
:105AC000E4234FF081421A607A683B6940F66C71BA
:105AD00001FB03F3134403F6E8234C4A1A607A6887
