:020000040800F2
:1000000000000420C5530008693E00086F3E000848
:10001000753E00087B3E0008813E0008000000009D
:10002000000000000000000000000000873E000803
:10003000953E000800000000A33E0008B13E000805
:1000400015540008155400081554000815540008EC
:1000500015540008155400081554000815540008DC
:1000600015540008155400081554000815540008CC
:1000700015540008BD3E0008D13E0008E53E0008CA
:1000800015540008155400081554000815540008AC
:10009000155400081554000815540008155400089C
:1000A000155400081554000815540008155400088C
:1000B0001554000815540008493F0008155400085D
:1000C000155400081554000815540008155400086C
:1000D000F93E00080D3F00081554000815540008AB
:1000E000213F000815540008155400081554000855
:1000F000155400081554000815540008155400083C
:10010000155400081554000815540008155400082B
:100110001554000815540008155400085D3F0008E8
:10012000713F000815540008853F00081554000869
:10013000155400080000000000000000000000004E
:10014000000000000000000000000000155400083E
:100150001554000815540008993F0008155400086C
:1001600015540008155400081554000815540008CB
:10017000155400081554000800000000000000009D
:1001800015540008155400081554000815540008AB
:10019000155400081554000800000000155400080C
:1001A00000000000000000000000000015540008DE
:1001B000155400081554000800000000000000005D
:1001C000000000000000000000000000000000002F
:1001D00000000000000000000000000015540008AE
:1001E00010B5054C237833B9044B13B10448AFF371
:1001F00000800123237010BD28140120000000009E
:1002000000A1000808B5034B1BB103490348AFF335
:10021000008008BD000000002C14012000A100088F
:1002200081F0004102E000BF83F0004330B54FEAA7
:1002300041044FEA430594EA050F08BF90EA020F14
:100240001FBF54EA000C55EA020C7FEA645C7FEAA7
:10025000655C00F0E2804FEA5454D4EB5555B8BFCA
:100260006D420CDD2C4480EA020281EA030382EA3B
:10027000000083EA010180EA020281EA0303362DCD
:1002800088BF30BD11F0004F4FEA01314FF4801CA0
:100290004CEA113102D0404261EB410113F0004FB2
:1002A0004FEA03334CEA133302D0524263EB430369
:1002B00094EA050F00F0A780A4F10104D5F1200E07
:1002C0000DDB02FA0EFC22FA05F2801841F1000162
:1002D00003FA0EF2801843FA05F359410EE0A5F136
:1002E00020050EF1200E012A03FA0EFC28BF4CF067
:1002F000020C43FA05F3C01851EBE37101F000451D
:1003000007D54FF0000EDCF1000C7EEB00006EEB29
:100310000101B1F5801F1BD3B1F5001F0CD34908B3
:100320005FEA30004FEA3C0C04F101044FEA44520A
:1003300012F5800F80F09A80BCF1004F08BF5FEA91
:10034000500C50F1000041EB045141EA050130BD71
:100350005FEA4C0C404141EB010111F4801FA4F114
:100360000104E9D191F0000F04BF01460020B1FA69
:1003700081F308BF2033A3F10B03B3F120020CDAA1
:100380000C3208DD02F1140CC2F10C0201FA0CF07F
:1003900021FA02F10CE002F11402D8BFC2F1200CE4
:1003A00001FA02F120FA0CFCDCBF41EA0C0190409A
:1003B000E41AA2BF01EB0451294330BD6FEA0404E3
:1003C0001F3C1CDA0C340EDC04F11404C4F12002CE
:1003D00020FA04F001FA02F340EA030021FA04F3E0
:1003E00045EA030130BDC4F10C04C4F1200220FA37
:1003F00002F001FA04F340EA0300294630BD21FA75
:1004000004F0294630BD94F0000F83F4801306BF3A
:1004100081F480110134013D4EE77FEA645C18BF2E
:100420007FEA655C29D094EA050F08BF90EA020FC5
:1004300005D054EA000C04BF1946104630BD91EABD
:10044000030F1EBF0021002030BD5FEA545C05D1C0
:100450004000494128BF41F0004130BD14F58004FF
:100460003CBF01F5801130BD01F0004545F0FE4173
:1004700041F470014FF0000030BD7FEA645C1ABFA8
:10048000194610467FEA655C1CBF0B46024650EADF
:10049000013406BF52EA033591EA030F41F400210B
:1004A00030BD00BF90F0000F04BF0021704730B591
:1004B0004FF4806404F132044FF000054FF0000166
:1004C00050E700BF90F0000F04BF0021704730B527
:1004D0004FF4806404F1320410F0004548BF4042FC
:1004E0004FF000013EE700BF42004FEAE2014FEA51
:1004F00031014FEA02701FBF12F07F4393F07F4F2C
:1005000081F06051704732F07F4208BF704793F02E
:100510007F4F04BF41F40021704730B54FF4607441
:1005200001F0004521F000411CE700BF50EA010244
:1005300008BF704730B54FF000050AE050EA0102ED
:1005400008BF704730B511F0004502D5404261EB5D
:1005500041014FF4806404F132045FEA915C3FF49E
:10056000D8AE4FF003025FEADC0C18BF03325FEA3B
:10057000DC0C18BF033202EBDC02C2F1200300FAEC
:1005800003FC20FA02F001FA03FE40EA0E0021FA11
:1005900002F11444BDE600BF70B54FF0FF0C4CF4FF
:1005A000E06C1CEA11541DBF1CEA135594EA0C0FB1
:1005B00095EA0C0F00F0DEF82C4481EA030621EAEC
:1005C0004C5123EA4C5350EA013518BF52EA033527
:1005D00041F4801143F4801338D0A0FB02CE4FF0D9
:1005E0000005E1FB02E506F00042E0FB03E54FF009
:1005F0000006E1FB03569CF0000F18BF4EF0010E01
:10060000A4F1FF04B6F5007F64F5407404D25FEAFC
:100610004E0E6D4146EB060642EAC62141EA5551AF
:100620004FEAC52040EA5E504FEACE2EB4F1FD0CF1
:1006300088BFBCF5E06F1ED8BEF1004F08BF5FEA6F
:10064000500E50F1000041EB045170BD06F0004621
:1006500046EA010140EA020081EA0301B4EB5C04CE
:10066000C2BFD4EB0C0541EA045170BD41F48011C6
:100670004FF0000E013C00F3AB8014F1360FDEBFEB
:10068000002001F0004170BDC4F10004203C35DAC7
:100690000C341BDC04F11404C4F1200500FA05F34A
:1006A00020FA04F001FA05F240EA020001F00042EB
:1006B00021F0004110EBD37021FA04F642EB060161
:1006C0005EEA430E08BF20EAD37070BDC4F10C048B
:1006D000C4F1200500FA04F320FA05F001FA04F24F
:1006E00040EA020001F0004110EBD37041F100013B
:1006F0005EEA430E08BF20EAD37070BDC4F1200546
:1007000000FA05F24EEA020E20FA04F301FA05F2AD
:1007100043EA020321FA04F001F0004121FA04F255
:1007200020EA020000EBD3705EEA430E08BF20EA25
:10073000D37070BD94F0000F0FD101F0004640005F
:1007400041EB010111F4801F08BF013CF7D041EAE1
:10075000060195F0000F18BF704703F000465200E5
:1007600043EB030313F4801F08BF013DF7D043EAB6
:100770000603704794EA0C0F0CEA135518BF95EA6C
:100780000C0F0CD050EA410618BF52EA4306D1D1F3
:1007900081EA030101F000414FF0000070BD50EA12
:1007A000410606BF1046194652EA430619D094EA9C
:1007B0000C0F02D150EA013613D195EA0C0F05D186
:1007C00052EA03361CBF104619460AD181EA0301DA
:1007D00001F0004141F0FE4141F470014FF0000092
:1007E00070BD41F0FE4141F4780170BD70B54FF02D
:1007F000FF0C4CF4E06C1CEA11541DBF1CEA1355AD
:1008000094EA0C0F95EA0C0F00F0A7F8A4EB05048E
:1008100081EA030E52EA03354FEA013100F0888085
:100820004FEA03334FF0805545EA131343EA12634E
:100830004FEA022245EA111545EA10654FEA002603
:100840000EF000419D4208BF964244F1FD0404F5BC
:10085000407402D25B084FEA3202B61A65EB030518
:100860005B084FEA32024FF480104FF4002CB6EBD5
:10087000020E75EB030E22BFB61A754640EA0C0055
:100880005B084FEA3202B6EB020E75EB030E22BF95
:10089000B61A754640EA5C005B084FEA3202B6EBD6
:1008A000020E75EB030E22BFB61A754640EA9C0095
:1008B0005B084FEA3202B6EB020E75EB030E22BF65
:1008C000B61A754640EADC0055EA060E18D04FEA23
:1008D000051545EA16754FEA06164FEAC30343EAC3
:1008E00052734FEAC2025FEA1C1CC0D111F4801F90
:1008F0000BD141EA00014FF000004FF0004CB6E789
:1009000011F4801F04BF01430020B4F1FD0C88BF27
:10091000BCF5E06F3FF6AFAEB5EB030C04BFB6EB32
:10092000020C5FEA500C50F1000041EB045170BD25
:100930000EF0004E4EEA113114EB5C04C2BFD4EB52
:100940000C0541EA045170BD41F480114FF0000ED6
:10095000013C90E645EA060E8DE60CEA135594EA52
:100960000C0F08BF95EA0C0F3FF43BAF94EA0C0F55
:100970000AD150EA01347FF434AF95EA0C0F7FF4CA
:1009800025AF104619462CE795EA0C0F06D152EA1E
:1009900003353FF4FDAE1046194622E750EA410602
:1009A00018BF52EA43067FF4C5AE50EA41047FF413
:1009B0000DAF52EA43057FF4EBAE12E74FEA410276
:1009C000B2F1E04324BFB3F5001CDCF1FE5C0DD9AD
:1009D00001F0004C4FEAC0024CEA5070B2F1004FF7
:1009E00040EB830008BF20F00100704711F0804FFA
:1009F00021D113F13872BCBF01F00040704741F4BF
:100A000080114FEA5252C2F11802C2F1200C10FAC2
:100A10000CF320FA02F018BF40F001004FEAC123A6
:100A20004FEAD32303FA0CFC40EA0C0023FA02F34A
:100A30004FEA4303CCE77FEA625307D150EA013320
:100A40001EBF4FF0FE4040F44000704701F00040F0
:100A500040F0FE4040F40000704700BF53B94AB96F
:100A6000002908BF00281CBF4FF0FF314FF0FF30B6
:100A700000F072B9ADF1080C6DE904CE00F006F893
:100A8000DDF804E0DDE9022304B070472DE9F0470A
:100A9000089E04468846002B4BD18A42154667D9EA
:100AA000B2FA82F24AB1C2F1200701FA02F320FA47
:100AB00007F7954047EA030894404FEA154E230C88
:100AC000B8FBFEF71FFA85FC0EFB178843EA0843C4
:100AD00007FB0CF1994209D9EB1807F1FF3080F0C0
:100AE0001B81994240F21881023F2B445B1AA4B249
:100AF000B3FBFEF00EFB103344EA034400FB0CFC96
:100B0000A44509D92C1900F1FF3380F00781A445D1
:100B100040F2048102382C4440EA0740A4EB0C0464
:100B200000271EB1D4400023C6E900433946BDE882
:100B3000F0878B4209D9002E00F0EB800027C6E930
:100B4000000138463946BDE8F087B3FA83F7002F35
:100B500047D18B4202D3824200F2FA80841A61EBC1
:100B6000030301209846002EE0D0C6E90048DDE7E7
:100B700002B9FFDEB2FA82F2002A40F08F80491BF0
:100B80004FEA154E1FFA85F80127B1FBFEFC230C36
:100B90000EFB1C1143EA014308FB0CF1994207D9F3
:100BA000EB180CF1FF3002D2994200F2CD8084465E
:100BB000591AA3B2B1FBFEF00EFB101443EA044431
:100BC00008FB00F8A04507D92C1900F1FF3302D229
:100BD000A04500F2B6801846A4EB080440EA0C4099
:100BE0009FE7C7F1200CBB4022FA0CFE4EEA030E31
:100BF00001FA07F420FA0CF521FA0CF34FEA1E482B
:100C00002543B3FBF8F92C0C08FB19331FFA8EFAB5
:100C100044EA034309FB0AF49C4202FA07F200FA91
:100C200007F10BD91EEB030309F1FF3080F0878039
:100C30009C4240F28480A9F1020973441B1BADB2AF
:100C4000B3FBF8F008FB103345EA034400FB0AFA53
:100C5000A24508D91EEB040400F1FF336BD2A24574
:100C600069D90238744440EA0940A0FB0289A4EB28
:100C70000A044C45C2464B4654D351D0002E69D08D
:100C8000B1EB0A0564EB030404FA0CFCFD40FC40E4
:100C90004CEA0505C6E90054002747E7C2F12003E6
:100CA00020FA03F7954001FA02F021FA03F34FEA24
:100CB000154E3843010CB3FBFEF71FFA85F80EFB07
:100CC000173341EA034107FB08F38B4204FA02F4AD
:100CD00007D9691807F1FF3C2FD28B422DD9023F6B
:100CE0002944CB1A81B2B3FBFEF00EFB103341EA6C
:100CF000034100FB08F38B4207D9691800F1FF3C60
:100D000017D28B4215D902382944C91A40EA07473D
:100D10003BE73746304609E70746E7E61846FBE675
:100D20004145ABD2B8EB020A69EB0E02013813461B
:100D3000A4E76046E9E7184695E76746D1E78146AC
:100D40007CE702382C4447E7ACF1020C2B442FE738
:100D5000384608E73746E9E6704700BF80B500AF80
:100D60004FF4806301220449044804F0E7F9044881
:100D700007F018F900BF80BD581801204417012062
:100D80008C7D012080B500AF01228021074805F04D
:100D900089FE074B1B68074A1360074B5B6A044ACE
:100DA0001360064B00221A7000BF80BD0004024091
:100DB000441401204C140120000C004014000120B8
:100DC00080B500AF01224021074805F06BFE074BBC
:100DD0001B68074A1360074B5B6A044A1360064BA3
:100DE00000221A7000BF80BD000402404814012098
:100DF00050140120000C00401400012080B500AF09
:100E000000228021034805F04DFE034B00221A709A
:100E100000BF80BD000402401400012080B500AF77
:100E200000224021034805F03DFE034B00221A70CA
:100E300000BF80BD000402401400012080B582B0D4
:100E400000AF0346FB71FB79002B02D1FFF79AFF3D
:100E500004E0FB79012B01D1FFF7B2FF00BF083797
:100E6000BD4680BD80B582B000AF0346FB71FB7903
:100E7000002B02D1FFF7C2FF04E0FB79012B01D167
:100E8000FFF7CCFF00BF0837BD4680BD90B585B0E9
:100E900000AF9F4B5B6AFB6001F076FC87ED020AB6
:100EA00001F09CFC0346002B04D19A4B1B78DBB26B
:100EB000002B01D0012300E00023FB71964B1B782F
:100EC000002B40F01481FB79002B00F01081934B34
:100ED0001B681946F86801F06FFD0246904B9A4274
:100EE00005D9012280218F4805F0DCFD71E08E4A92
:100EF00045F6893313441B78002B6AD0D7ED027A6C
:100F00009FED8A7AF4EEC77AF1EE10FA1CD5834B86
:100F10001B681946F86801F04FFD04467F4B1A68BC
:100F2000834B1B681946104601F046FD02461346E6
:100F30005B0013445B01DB099C424AD30022802101
:100F4000784805F0AFFD44E0744B1A68784B1B6895
:100F50001946104601F030FD024643F698239A42A6
:100F60001BD96E4B1A68724B1B681946104601F06C
:100F700023FD03461C46694B1B681946F86801F0BF
:100F80001BFD0346E31A42F6C652934221DC0022BF
:100F90008021644805F086FD1BE0604B1B68194604
:100FA000F86801F009FD04465C4B1A68604B1B6849
:100FB0001946104601F000FD02461346DB009B1A5D
:100FC0009B00DB099C4204D300228021554805F098
:100FD00069FD584B1B681946F86801F0EDFC0246A4
:100FE0004F4B9A4205D9012240214E4805F05AFD47
:100FF00088E04D4A45F6893313441B78002B00F0F6
:101000008180D7ED027A9FED497AF4EEC77AF1EE4E
:1010100010FA1CD5474B1B681946F86801F0CCFC48
:101020000446444B1A68444B1B681946104601F0AD
:10103000C3FC024613465B0013445B01DB099C4280
:1010400060D300224021374805F02CFD5AE0D7ED4F
:10105000027A9FED3A7AF4EEC77AF1EE10FA28DDC3
:10106000344B1A68344B1B681946104601F0A4FC37
:10107000024643F698239A421BD92E4B1A682E4BF0
:101080001B681946104601F097FC03461C46294B85
:101090001B681946F86801F08FFC0346E31A42F614
:1010A000C652934222DC002240211E4805F0FAFC81
:1010B0001CE0204B1B681946F86801F07DFC0446D3
:1010C0001C4B1A681C4B1B681946104601F074FC37
:1010D00002461346DB009B1A9B00DB099C4211D39E
:1010E000002240210F4805F0DDFC0BE00AE0012260
:1010F00080210C4805F0D6FC01224021094805F06A
:10110000D1FC00E000BF00BF1437BD4690BD00BF5A
:10111000000C004060140120140001204414012040
:101120001FA1070000040240581C01200000964344
:101130004C14012048140120501401200000FA43EF
:1011400080B588B000AF424B5B6A7B610023FB77C0
:10115000404A7B6913604FF00003BB6101F032FA33
:1011600087ED040A01F010FB87ED030A02F022FB71
:1011700087ED020A97ED040A01F0DCFA87ED010A17
:1011800001F038FB034607EE903AF8EE677AC7EDB8
:10119000007AD7ED017A9FED307AF4EEC77AF1EE5E
:1011A00010FA08DCD7ED017A9FED2C7AF4EEC77ABD
:1011B000F1EE10FA03D80223FB773B69BB61D7ED50
:1011C000047A9FED257AF4EEC77AF1EE10FA08DC86
:1011D000D7ED047A9FED217AF4EEC77AF1EE10FA9A
:1011E00013D8FB7F002B04D10123FB777B68BB6105
:1011F0000BE00023FB771A4BD3ED007AB7EE007AB1
:1012000077EE877A164BC3ED007A164ABB691360F6
:10121000D7ED007AF5EE407AF1EE10FA11D0124ACD
:1012200045F6893313441B78002B0AD0FB7F012B32
:1012300002D1FFF7A7FD04E0FB7F022B01D1FFF7EE
:10124000BFFD0A4B01221A7000BF2037BD4680BD8A
:10125000000C0040541401200000B4420000B4C24D
:101260005C14012058140120581C01206014012036
:1012700090B583B000AF1C4B1B687B601B4B5B6A57
:101280003B601B4B1B681946386801F095FB024612
:10129000184B9A4215D9184B1B681846FFF724F9CA
:1012A0000FA3D3E90023FFF777F903460C4618464E
:1012B0002146FFF783FB02460F4B1A600C4A3B683E
:1012C00013607968386801F077FB02460B4B9A424D
:1012D00002D90B4B00221A7000BF0C37BD4690BDDF
:1012E000666666666666EE3F54140120000C004098
:1012F00078140120A08601005C140120C027090099
:101300006014012080B5A4B000AF01F03DFA87ED74
:10131000110A02F04FFA87ED100ABA4BFB634FF443
:101320000041B94805F0A6FB0346012B0CBF012381
:101330000023DBB287F83B30B44B5B6A7B634FF032
:101340000003C7F88C304FF00003C7F888304FF027
:101350000003C7F884304FF00003C7F880304FF027
:101360000003FB674FF00003BB674FF000037B6790
:101370004FF000033B634FF00003FB624FF00003AC
:10138000BB624FF000037B624FF000033B624FF003
:101390000003FB6100233B670023FB660023BB6661
:1013A00000237B6600233B660023FB650023BB65AF
:1013B000974B1B78DBB2BB61964B1A68BB699A42AC
:1013C00002D8BB69032B08DCBB694FF4B75202FBA0
:1013D00003F3904A13440433BB65D7ED117A9FEDB4
:1013E0008E7AF4EEC77AF1EE10FA06DD8B4B00220E
:1013F0001A708B4A7B6B136015E0D7ED117AB2EE51
:10140000047AF4EEC77AF1EE10FA0CD5844B1B681F
:101410001946786B01F0D0FA0246824B9A4202D804
:101420007E4B01221A70BB6D002B00F0AF83BB6DA9
:101430005B6CC7F88C30794B1B78002B40F09D8398
:10144000D7ED117AB2EE047AF4EEC77AF1EE10FA23
:1014500040F3938397F83B30002B00F0E580BB6DA1
:10146000D3F85831002B04D1BB6D5B6CC7F88C30BE
:10147000B1E2BB6DD3F85831012B05D1BB6DD3F868
:101480005C31C7F88C30A6E2BB6DD3ED777A97ED6F
:10149000117AB4EEE77AF1EE10FA05D8BB6DD3F805
:1014A0005C31C7F88C306DE0BB6DD3F8D430013BB4
:1014B000BA6D76339B0013440433D3ED007A97ED75
:1014C000117AB4EEE77AF1EE10FA1CDBBB6DD3F8BB
:1014D0005831023B3B67BB6DD3F85831013BFB668B
:1014E000BA6D3B6F76339B00134404331B68C7F817
:1014F0008830BA6DFB6E76339B00134404331B684F
:10150000C7F884303EE001237B6535E07B6D013B0D
:10151000BA6D76339B00134404331B68C7F88830D8
:10152000BA6D7B6D76339B00134404331B68C7F898
:10153000843097ED227AD7ED117AB4EEE77AF1EEA6
:1015400010FA0ED597ED217AD7ED117AB4EEE77A3D
:10155000F1EE10FA05DD7B6D013B3B677B6DFB66B1
:1015600010E04FF00003C7F888304FF00003C7F8D1
:1015700084307B6D01337B65BB6DD3F858217B6D67
:101580009A42C3D8D7ED227AF5EE407AF1EE10FAFE
:1015900007D1D7ED217AF5EE407AF1EE10FA00F09E
:1015A0001A82BA6D3B6F56339B00134404331B6899
:1015B0003B63BA6DFB6E56339B00134404331B68C8
:1015C000FB6297ED117AD7ED227A77EE676A97ED95
:1015D000217AD7ED227A37EE677AC6EE877AC7EDA1
:1015E000017A97ED0B7AD7ED0C7A37EE677AD7ED63
:1015F000017A67EE277A97ED0C7A77EE277AC7EDB6
:10160000237AE8E10000A04200080240000C0040FC
:101610006C140120581C01200000C8431500012053
:10162000180001209F860100BB6D1B6D002B00F090
:10163000D281BB6DD3F8D430002B00F0CC81BB6DD0
:101640001B6D012B0BD10023BB6600237B66BB6D9A
:101650005B6DC7F88030BB6D5B6DFB6786E0BB6D73
:10166000D3ED157A97ED107AB4EEE77AF1EE10FA31
:1016700015DB0023BB6601237B66BA6DBB6E14339A
:101680009B00134404331B68C7F88030BA6D7B6E2F
:1016900014339B00134404331B68FB6766E0BB6D87
:1016A0001B6D013BBA6D14339B0013440433D3ED1F
:1016B000007A97ED107AB4EEE77AF1EE10FA19D8C5
:1016C000BB6D1B6D023BBB66BB6D1B6D013B7B663F
:1016D000BA6DBB6E14339B00134404331B68C7F808
:1016E0008030BA6D7B6E14339B00134404331B6847
:1016F000FB673BE001233B6533E03B6D013BBA6D8B
:1017000014339B00134404331B68C7F88030BA6D50
:101710003B6D14339B00134404331B68FB6797ED48
:10172000207AD7ED107AB4EEE77AF1EE10FA0EDDFA
:1017300097ED1F7AD7ED107AB4EEE77AF1EE10FA52
:1017400005D53B6D013BBB663B6D7B660EE04FF004
:101750000003C7F880304FF00003FB673B6D013397
:101760003B65BB6D1A6D3B6D9A42C6D8BB6DD3F815
:10177000D430012B0ED100233B670023FB66BB6DE9
:10178000D3F8D830C7F88830BB6DD3F8D830C7F855
:10179000843087E0BB6DD3ED367A97ED117AB4EEE5
:1017A000E77AF1EE10FA14D800233B670123FB66B9
:1017B000BA6D3B6F36339B0013441B68C7F8883003
:1017C000BA6DFB6E36339B0013441B68C7F8843038
:1017D00068E0BB6DD3F8D430013BBA6D36339B0063
:1017E0001344D3ED007A97ED117AB4EEE77AF1EE77
:1017F00010FA1ADBBB6DD3F8D430023B3B67BB6DEC
:10180000D3F8D430013BFB66BA6D3B6F36339B0097
:1018100013441B68C7F88830BA6DFB6E36339B00E3
:1018200013441B68C7F884303CE00123FB6433E0B9
:10183000FB6C013BBA6D36339B0013441B68C7F841
:101840008830BA6DFB6C36339B0013441B68C7F8B5
:10185000843097ED227AD7ED117AB4EEE77AF1EE83
:1018600010FA0ED597ED217AD7ED117AB4EEE77A1A
:10187000F1EE10FA05DDFB6C013B3B67FB6CFB6690
:1018800010E04FF00003C7F888304FF00003C7F8AE
:101890008430FB6C0133FB64BB6DD3F8D420FB6C4C
:1018A0009A42C5D8D7ED227AF5EE407AF1EE10FAD9
:1018B00007D1D7ED217AF5EE407AF1EE10FA00F07B
:1018C0008A80D7ED207AF5EE407AF1EE10FA06D153
:1018D000D7ED1F7AF5EE407AF1EE10FA7BD0BA6DB3
:1018E000BB6E59013B6F0B4496339B00134404338A
:1018F0001B68BB62BA6DBB6E5901FB6E0B4496331D
:101900009B00134404331B687B62BA6D7B6E5901E4
:101910003B6F0B4496339B00134404331B683B62BC
:10192000BA6D7B6E5901FB6E0B4496339B001344DA
:1019300004331B68FB6197ED117AD7ED227A77EEBD
:10194000676A97ED217AD7ED227A37EE677AC6EE8D
:10195000877AC7ED057A97ED107AD7ED207A77EE82
:10196000676A97ED1F7AD7ED207A37EE677AC6EE71
:10197000877AC7ED047A97ED097AD7ED0A7A37EEC0
:10198000677AD7ED057A67EE277A97ED0A7A77EED0
:10199000277AC7ED037A97ED077AD7ED087A37EE05
:1019A000677AD7ED057A67EE277A97ED087A77EEB2
:1019B000277AC7ED027A97ED027AD7ED037A37EEF0
:1019C000677AD7ED047A67EE277A97ED037A77EE98
:1019D000277AC7ED237ABA6D41F29C2313441B6822
:1019E000012B40F2CA80BB6D03F59553D3ED007A0D
:1019F00097ED0F7AB4EEE77AF1EE10FA0BD8BB6DE3
:101A000003F59653D3ED007A97ED237A77EE277A94
:101A1000C7ED237A6FE0BA6D41F29C2313441B6833
:101A2000013BBA6D03F595639B001344D3ED007A37
:101A300097ED0F7AB4EEE77AF1EE10FA1EDBBA6D8D
:101A400041F29C2313441B68023B3B66BA6D41F292
:101A50009C2313441B68013BFB65BA6D3B6E03F589
:101A600095639B0013441B68BB67BA6DFB6D03F560
:101A700095639B0013441B687B673CE00123BB64B8
:101A800031E0BB6C013BBA6D03F595639B001344D9
:101A90001B68BB67BA6DBB6C03F595639B00134471
:101AA0001B687B6797ED1E7AD7ED0F7AB4EEE77A65
:101AB000F1EE10FA0ED597ED1D7AD7ED0F7AB4EE50
:101AC000E77AF1EE10FA05DDBB6C013B3B66BB6CBF
:101AD000FB6510E04FF00003BB674FF000037B672E
:101AE000BB6C0133BB64BA6D41F29C2313441A688A
:101AF000BB6C9A42C5D8D7ED1E7AF5EE407AF1EE6E
:101B000010FA06D1D7ED1D7AF5EE407AF1EE10FA13
:101B100033D0BA6D3B6E03F596639B0013441B688C
:101B20003B63BA6DFB6D03F596639B0013441B6822
:101B3000FB6297ED0F7AD7ED1E7A77EE676A97ED25
:101B40001D7AD7ED1E7A37EE677AC6EE877AC7ED33
:101B5000017A97ED0B7AD7ED0C7A37EE677AD7EDED
:101B6000017A27EE277AD7ED0C7A77EE277A97ED70
:101B7000237A77EE277AC7ED237ABB6DD3ED137AFC
:101B800097ED237A77EE277AC7ED237AD7F88C3052
:101B900007EE903AB0EE670A9037BD4680BD00BFB1
:101BA00080B58CB000AFAB4A45F6893313441B783F
:101BB000002B40F04A814FF00003FB604FF0000320
:101BC0003B6100F0FFFCF0EE407AC7ED037AD7ED01
:101BD000037AB0EE670A00F0ADFDF0EE407AC7ED93
:101BE000047A00F0DFFD87ED090A00F0E9FD87EDDA
:101BF000080A994BFB624FF00003FB6100F0FAFD0D
:101C0000034607EE903AF8EE677AC7ED067AD7ED0D
:101C1000087A9FED927AF4EEC77AF1EE10FA07D5C2
:101C2000D7ED087A9FED8E7A67EE877AC7ED0B7A4B
:101C3000D7ED0B6A97ED097AC6EE877AC7ED057A7C
:101C4000884B1B68FB61884A7B691360D7ED067A75
:101C5000F5EE407AF1EE10FA00F0EE800023BB6260
:101C6000E5E0BB6A9B0007F130021344243B93ED8F
:101C7000007AD7ED077AF1EE677AB4EEE77AF1EE03
:101C800010FA16D5BB6A9B0007F130021344243BBF
:101C9000D3ED007AB1EE677AD7ED077A77EE677AFF
:101CA000BB6A9B0007F1300213442C3BC3ED007A62
:101CB00017E0BB6A9B0007F130021344243BD3EDCD
:101CC000007A9FED6A7A37EE677AD7ED077A77EE7A
:101CD000677ABB6A9B0007F1300213442C3BC3EDCB
:101CE000007ABB6A9B0007F1300213442C3B93ED52
:101CF000007A5F4ABB6A9B001344D3ED007A77EE0B
:101D0000677AF5EEC07AF1EE10FA22DDBB6A9B002D
:101D100007F1300213442C3B93ED007A544ABB6A1E
:101D20009B001344D3ED007A77EE677A9FED517AEA
:101D3000F4EEC77AF1EE10FA0BD54D4ABB6A9B0060
:101D400013441A68BB6A9B0007F130010B442C3B1B
:101D50001A60BB6A9B0007F1300213442C3B93EDE1
:101D6000007AD7ED057A77EE677AF5EEC07AF1EE74
:101D700010FA15D5404ABB6A13441B78002B0FD1CB
:101D80003E4ABB6A13441B78002B09D13A4ABB6A0E
:101D9000134401221A70BB6ADBB21846FFF762F8DF
:101DA000334ABB6A9B00134493ED007ABB6A9B00E5
:101DB00007F1300213442C3BD3ED007A77EE677ABB
:101DC000BFEE007AF4EEC77AF1EE10FA1BD52B4A7B
:101DD000BB6A13441B78002B1AD1274ABB6A1344F1
:101DE0001B78002B14D0254ABB6A134401221A70B9
:101DF000214ABB6A134400221A70BB6ADBB2184640
:101E0000FFF71CF804E01D4ABB6A134400221A7055
:101E1000BB6A9B0007F1300213442C3B1A6814493B
:101E2000BB6A9B000B441A60BB6A0133BB62BB6A8E
:101E3000012B7FF716AF03E00A4B4FF000021A6048
:101E4000FFF716FAFFF722F800E000BF3037BD4673
:101E500080BD00BF581C012000803B4600906246B8
:101E6000B1DC533F64140120681401200000B44326
:101E700070140120000034431C00012020000120C8
:101E800080B582B000AF314B1B78002B33D1304886
:101E900003F044F90346042B2DD92E4A01212C4886
:101EA00003F054FA2C4A0221294803F04FFA28483B
:101EB00003F034F90246274B1B789A421BD3274B79
:101EC0007B6000233B6009E07B685A1C7A601946FE
:101ED0001F4803F02CFA3B6801333B601D4B1B7815
:101EE0001A463B689342EFDB1B4B1B78002B02D05A
:101EF000164B01221A70154B1B78002B0ED0164B77
:101F00001878144B1B781A46144900F071F80346F0
:101F1000002B03D00D4B00221A7000BF104A45F66B
:101F2000893313441B78002B07D1FFF7EBF9F0EE50
:101F3000407A0C4BC3ED007A03E00A4B4FF00002ED
:101F40001A6000BF0837BD4680BD00BF7C14012069
:101F5000441701207D1401207E1401205817012010
:101F6000581C01206414012080B584B000AF0346E2
:101F7000B9607A60FB73BB681B78012B00D029E045
:101F8000164AFB7B937000F0FFFBF0EE407A134B98
:101F9000C3ED017A01F00EFCF0EE407A0F4BC3ED79
:101FA000027A01F007FCF0EE406A9FED0D7AC6EE72
:101FB000877A9FED0C7A67EE877A084BC3ED037A38
:101FC000094B1B68054A136114220449074803F0B2
:101FD0008EF900BF00BF1037BD4680BD0000012054
:101FE00000D8D6470000C8426414012044170120DD
:101FF00080B584B000AF0346B9607A60FB73FB7BA9
:102000007A68B968184602F061FA03461846103734
:10201000BD4680BD80B483B000AF7860044A7B6861
:10202000136000BF0C37BD465DF8047B704700BFEE
:102030008014012080B584B000AF7860396000233F
:10204000FB81094B1B68002B08D0074B1B683A68C3
:102050007968184603F044FE0346FB81FB89184665
:102060001037BD4680BD00BF8014012080B584B00C
:1020700000AF786039600023FB810D4B1B68002B9B
:1020800008D00B4B1B683A687968184603F028FEA5
:102090000346FB81FB895AB2FB891B0A9BB25BB2E8
:1020A00053405BB2DBB218461037BD4680BD00BF5F
:1020B00080140120B0B592B000AF4FF00003FB6375
:1020C0004FF000037B63AF4BBB63AF4B3B63AF4B46
:1020D0005B6AFB62AE4AFB6A136001237B640BE020
:1020E0007B6C013BAB497A6C51F82220A94941F83D
:1020F00023207B6C01337B647B6C072BF0D9A54AD2
:10210000FB6AD361A34B1B68002B00F03982A14B03
:102110009B693B64A04B01221A70A04B1B680133E2
:102120009E4A136001237B6418E09A4A7B6C52F844
:1021300023007B6C013B974A52F82330194600F08C
:102140003BFC07EE900AF8EE677A97ED0F7A77EE90
:10215000277AC7ED0F7A7B6C01337B647B6C072B8E
:10216000E3D997ED0F7AF1EE0C6AC7EE267AC7ED48
:102170000F7A8B4B93ED007AD7ED0F6AC6EE877A14
:10218000884BC3ED007A864B93ED007AD7ED0F6A4A
:10219000C6EE877AB7EE027AF4EEC77AF1EE10FA5D
:1021A00026DD814B1B6801337F4A13607E4B1B6821
:1021B000022B2ED1794B1B68BB62784B00221A6030
:1021C000794B00221A60BB6A742B0AD0774BD3ED8F
:1021D000007AB7EE007A77EE877A744BC3ED007A17
:1021E00017E0734AFB6A1360724B01221A7010E009
:1021F0006A4B1B68732B0CD9684B01221A606B4B1E
:10220000D3ED007AB7EE007A77EE877A674BC3EDAD
:10221000007A634AFB6B1360664B1B78DBB2002BC2
:1022200000F062815D4B1B68002B02D0012B29D08E
:1022300036E0614B614A1A60614B624A1A605E4B3C
:10224000D3ED007AB0EE087A77EEC77A5E4BC3ED35
:10225000007A5B4BD3ED007AB0EE087A77EEC77A5E
:102260005A4BC3ED007A396CF86A00F0A5FB0246C0
:10227000574BA3FB02235B081946F86A00F09CFB4E
:102280003864B6E0396CF86A00F096FB0246504BB1
:10229000A3FB02235B081946F86A00F08DFB386443
:1022A000454BD3ED007AB0EE087A77EE877AC7ED2A
:1022B000097AD7ED097A9FED477AF4EEC77AF1EE05
:1022C00010FA09DDD7ED097A9FED437A77EEC77AE8
:1022D000394BC3ED007A02E0374A7B6A1360384B12
:1022E000D3ED007AB0EE087A77EE877AC7ED087AF8
:1022F000D7ED087A9FED377AF4EEC77AF1EE10FA4F
:1023000009DDD7ED087A9FED347A77EEC77A2C4B4A
:10231000C3ED007A02E02A4A3B6A13602A4BD3EDF0
:10232000007AB0EE087A77EE877A274BC3ED007A11
:10233000254BD3ED007A9FED277AF4EEC77AF1EEC4
:1023400010FA09DD204BD3ED007A9FED237A77EE6A
:10235000C77A1D4BC3ED007A1C4BD3ED007AB0EE6B
:10236000087A77EE877A194BC3ED007A174BD3EDD5
:10237000007A9FED187AF4EEC77AF1EE10FA2DDCB0
:1023800036E000BF8988883CCDCCCC3D000C0040B5
:10239000A814012084140120A5140120C4160120D2
:1023A000C8160120C0140120CC160120B014012051
:1023B000AC140120A4140120D01601200000E4C2B6
:1023C000D416012000008442D8160120DC1601201A
:1023D000ABAAAAAA000034430000B4436A4BD3ED71
:1023E000007A9FED6A7A77EEC77A674BC3ED007A81
:1023F00000BF674BD3ED007AF5EE407AF1EE10FAAC
:1024000002D14FF07E53BB63396CF86A00F0D4FA06
:1024100007EE900AF8EE677AC7ED0D7A5D4BD3EDC3
:10242000007A9FED5D7AF4EEC77AF1EE10FA02DDE4
:10243000584B5A4A1A60B7EE007AD7ED0E7A37EE4B
:10244000677A544BD3ED007A27EE277AD7ED0D7AD1
:10245000DFED536A67EEA66AD7ED0E7A66EEA77ACD
:1024600077EE277A4B4BC3ED007A4A4B93ED007A17
:10247000DFED496AC6EE877A9FED4A7A67EE877A82
:10248000434BC3ED007AB7EE007AD7ED0C7A37EE06
:10249000677A454BD3ED007A27EE277AD7ED0D7A90
:1024A000B0EE086AC7EE866AD7ED0C7A66EEA77AB8
:1024B00077EE277A3C4BC3ED007A3C4B1B68BB6040
:1024C0003B4B1B683B613B4B1B68FB602E4B1B6807
:1024D0007B613B6C7B60FB6A3B602D4B1B68BB6187
:1024E000314B1B68FB6129E04FF00003BB604FF0EC
:1024F00000033B614FF00003FB604FF000037B6182
:1025000000237B6000233B604FF00003BB61204B46
:102510004FF000021A601E4B93ED007AF7EE006A4E
:10252000C6EE877AC7ED077A194B93ED007AF7EE7E
:10253000006AC6EE877A174BC3ED007A1E4B1B78F4
:102540001E4A5B0113441D463C460FCC0FC594E860
:102550000F0085E80F00184B1B785B01174A1344E6
:10256000174A1360144B1B780133DAB2124B1A70FE
:10257000114B1B780F2B04D90F4B00221A7000E06F
:1025800000BF4837BD46B0BDDC1601200000B44393
:10259000B4140120BC14012000247449002474499F
:1025A0000000F04200007042B8140120D016012053
:1025B000D4160120D8160120E0160120C4140120F1
:1025C00024000120B0B58EB000AF534B5B6A07EE1C
:1025D000903AF8EE677AC7ED0B7A504B1B683C4691
:1025E0001D460FCD0FC495E80F0084E80F003B682F
:1025F0007A681146184600F0DFF907EE900AF8EE07
:10260000677AC7ED0A7AD7ED0B7AFCEEE77A7B683A
:10261000194617EE900A00F0CFF907EE900AF8EE8F
:10262000677AC7ED0B7ABB683B63FB687B6297ED0B
:102630000C7AD7ED097AB4EEE77AF1EE10FA07D505
:10264000D7ED0C7A9FED367A77EE877AC7ED0C7A64
:1026500097ED0C7AD7ED097A77EE677AC7ED0D7AA8
:10266000D7ED0D6A97ED0A7AC6EE877AC7ED087A3C
:1026700097ED087AD7ED0B7A67EE277A97ED097A0E
:1026800077EE277AC7ED0D7A07E0D7ED0D7A9FED4B
:10269000247A77EEC77AC7ED0D7AD7ED0D7A9FEDE4
:1026A000217AF4EEC77AF1EE10FAEEDC1E4BD3ED90
:1026B000007A97ED0D7A77EE677AF5EEC07AF1EE53
:1026C00010FA0DD5184BD3ED007A97ED0D7A77EE11
:1026D000677A9FED167AF4EEC77AF1EE10FA0DDC08
:1026E000114BD3ED007A97ED0D7A77EE677A9FED77
:1026F000107AF4EEC77AF1EE10FA02DD0A4B1B688D
:102700007B63094A7B6B13607B6B07EE903AB0EEFC
:10271000670A3837BD46B0BD000C004024000120D8
:102720000000B44300003443E41601200000B4C2AA
:102730000000B44280B483B000AF87ED010AD7ED4A
:10274000017AF5EEC07AF1EE10FA08DDD7ED017AE4
:102750009FED0C7A77EEC77AC7ED017A07E0D7EDE7
:10276000017A9FED087A77EE877AC7ED017A7B6868
:1027700007EE903AB0EE670A0C37BD465DF8047B71
:10278000704700BF0000344380B400AF044B1B68A7
:1027900007EE903AB0EE670ABD465DF8047B7047DD
:1027A000B414012080B400AF044B1B6807EE903ACC
:1027B000B0EE670ABD465DF8047B7047B81401208F
:1027C00080B400AF044B1B6807EE903AB0EE670A86
:1027D000BD465DF8047B7047BC14012080B400AF97
:1027E000034B1B78DBB21846BD465DF8047B70478F
:1027F000A514012080B400AF034B1B78DBB2184650
:10280000BD465DF8047B7047A414012080B584B0F8
:1028100000AF374B1B68BB60364B1B687B60364B89
:102820005B6A3B60B968386800F0C6F802464CF253
:1028300050339A4221D93B68BB600023FB6007E01C
:102840002E4AFB68002142F82310FB680133FB602D
:10285000FB68072BF4DD2A4B00221A70294B4FF03E
:1028600000021A60274B93ED007AF7EE006AC6EE7D
:10287000877A254BC3ED007A1DE07968386800F04F
:102880009BF80246214B9A4215D93B687B601C4B52
:1028900000221A701B4B4FF000021A601C4B0022E2
:1028A0001A70184B93ED007AF7EE006AC6EE877A3D
:1028B000154BC3ED007A174B1B681946386800F0BA
:1028C0007BF802464CF250339A420CD9124BD3EDAE
:1028D000007A9FED127A67EE877A0F4BC3ED007A8C
:1028E0000C4A3B68136000BF1037BD4680BD00BF77
:1028F000A8140120AC140120000C00408414012015
:10290000A4140120B4140120BC140120C0C62D0061
:10291000A5140120E8160120B01401203333733FC1
:1029200080B588B000AF204B1B6C1F4A43F00803F2
:1029300013641D4B1B6C03F008033B603B681B4B8F
:102940001B4A1A6004F08EFD03465B00194AA2FB85
:1029500003239B0C013B154A5360144B00229A60E1
:10296000124B4FF0FF32DA60104B00221A610F4811
:1029700005F0C3FA4FF480533B6107F11003194689
:102980000A4805F0E1FD00237B600023FB603B1D4E
:102990001946064806F082FA044805F0D9FA00BF45
:1029A0002037BD4680BD00BF00380240EC16012034
:1029B000000C004083DE1B4380B483B000AF78601E
:1029C00039607A683B689A4203D37A683B68D31AC5
:1029D00003E07A683B68D31A013B18460C37BD46C2
:1029E0005DF8047B7047000080B400AFBFF34F8FE9
:1029F000BFF36F8F0B4B0022C3F85022BFF34F8FF2
:102A0000BFF36F8F074B5B69064A43F40033536192
:102A1000BFF34F8FBFF36F8F00BFBD465DF8047BE0
:102A2000704700BF00ED00E080B485B000AF1D4BE3
:102A30000022C3F88420BFF34F8F1A4BD3F88030A5
:102A40007B607B685B0BC3F30E03FB607B68DB087A
:102A5000C3F30903BB60FB685A0143F6E0731340FC
:102A6000BA6892070F491343C1F86032BB685A1E17
:102A7000BA60002BEFD1FB685A1EFA60002BE5D13B
:102A8000BFF34F8F074B5B69064A43F480335361B2
:102A9000BFF34F8FBFF36F8F00BF1437BD465DF894
:102AA000047B704700ED00E080B582B000AF0346C4
:102AB000FB80FB88B3F5005F06D0B3F5804F06D0EE
:102AC000B3F5006F06D009E0FFF7F4FA06E0FEF771
:102AD00037FB03E0034805F065FA00BF00BF083785
:102AE000BD4680BD5881012080B582B000AF7860BE
:102AF0007B68104A934212D1FFF752F80E4B1B88A5
:102B000001339AB20C4B1A800B4B1B88B3F5FA7F3A
:102B10000BD3FFF77BFE084B00221A8005E07B6891
:102B2000064A934201D100F0E5FD00BF0837BD46DB
:102B300080BD00BF8C7D01202C1701205881012011
:102B400080B582B000AF7860786802F017F800BFF7
:102B50000837BD4680BD80B582B000AF7860786828
:102B600002F070F800BF0837BD4680BD80B500AFE9
:102B7000FFF73AFFFFF758FF02F04EFC00F0B2F803
:102B800000F046FC00F0F2FB00F0B8FB00F0E4F9C6
:102B900000F040F900F01EFA00F08CFA00F0CCFAD8
:102BA00000F012FB00F098F900F0C2F90C48FFF7B2
:102BB00031FA02F081F802F0CFF8FFF7B1FE00F031
:102BC00075FDFEF7CBF8074805F0C2F900F00CF8E8
:102BD00000F02CF802F0F6F8FFF752F9F6E700BF24
:102BE0003C7E01204C7D012080B582B000AF0B4BB4
:102BF0005B6A7B600A4B1B6819467868FFF7DCFE4E
:102C00000246084B9A4205D9054A7B68136006487C
:102C100003F07AFF00BF0837BD4680BD000C0040BE
:102C20003017012040420F002C7E012080B483B079
:102C300000AF2A4B5B68DBB203F00703FB71284B44
:102C40001B78FA799A4242D0254AFB791370FB79B6
:102C5000002B1ED0214B9B68204A43F48053936085
:102C60001E4B9B681D4A43F0040393601B4B9B68FB
:102C70001A4A43F008039360184B9B68174A43F0C5
:102C800020039360154BDB68144A43F00203D360C2
:102C90001DE0124B9B68114A23F4805393600F4B45
:102CA0009B680E4A23F0040393600C4B9B680B4A0D
:102CB00023F008039360094B9B68084A23F0200324
:102CC0009360064BDB68054A23F00203D36000BF24
:102CD0000C37BD465DF8047B704700BF002004E060
:102CE0003417012080B5B4B000AF07F1A003302243
:102CF0000021184607F0FBF907F18C0300221A6047
:102D00005A609A60DA601A6107F10C038022002190
:102D1000184607F0ECF93C4B1B6C3B4A43F08053E0
:102D20001364394B1B6C03F08053BB60BB68374B9B
:102D30001B68364A43F440431360344B1B6803F46A
:102D400040437B607B680A23C7F8A0300123C7F8A3
:102D5000AC300A23C7F8B0300123C7F8B4300223DF
:102D6000C7F8B8300023C7F8BC300823C7F8C03014
:102D7000D823C7F8C4300223C7F8C8300923C7F8DE
:102D8000CC3007F1A003184603F01EFF0346002BCA
:102D900001D000F087FC03F0C7FE0346002B01D0F2
:102DA00000F080FC0F23C7F88C300223C7F8903066
:102DB0000023C7F894304FF4A053C7F898304FF46D
:102DC0008053C7F89C3007F18C030721184604F0A4
:102DD0009FF90346002B01D000F064FC0C4BFB6014
:102DE0000023BB640023C7F8803007F10C031846AA
:102DF00004F060FB0346002B01D000F053FC00BF41
:102E0000D037BD4680BD00BF003802400070004092
:102E10004000200080B584B000AF3B4600221A601D
:102E20005A609A60DA602A4B2A4A1A60284B4FF49B
:102E300080325A60264B00229A60254B01221A618B
:102E4000234B00229A61224B002283F82020204B42
:102E50004FF08052DA621E4B4FF0E0629A621C4BD8
:102E60004FF40062DA601A4B0222DA61184B012239
:102E700083F83020164B00225A61154802F032FBCD
:102E80000346002B01D000F00DFC0C233B60012316
:102E90007B600023BB603B4619460D4802F066FB91
:102EA0000346002B01D000F0FDFB0D233B60022305
:102EB0007B603B461946064802F058FB0346002B50
:102EC00001D000F0EFFB00BF1037BD4680BD00BF52
:102ED000607F01200020014080B500AF124B134AF3
:102EE0001A60114B01221A710F4B01225A710E4BBD
:102EF0004AF201029A600C4B0822DA600A4B002267
:102F00001A61094B20225A61074B80229A61064BB5
:102F100001221A62044802F07FFE0346002B01D012
:102F200000F0C0FB00BF80BD3C7E012000300240AD
:102F300080B500AF064B074A1A60054804F002FE50
:102F40000346002B01D000F0ADFB00BF80BD00BFE9
:102F5000E88001200008065080B500AF1B4B1C4ADA
:102F60001A601A4B4FF482725A60184B00229A6012
:102F7000164B4FF4E062DA60144B00221A61134BD7
:102F800000225A61114B4FF400729A610F4B0022DC
:102F9000DA610E4B00221A620C4B00225A620B4B74
:102FA00000229A62094B0722DA62084B00221A6358
:102FB000064B08225A63054804F0EEFD0346002B39
:102FC00001D000F06FFB00BF80BD00BFE87C012096
:102FD0000038004080B58AB000AF07F11C03002222
:102FE0001A605A609A603B4600221A605A609A60E2
:102FF000DA601A615A619A612B4B2C4A1A6004F00C
:1030000031FA03465B002A4AA2FB03239B0B013BD8
:10301000254A5360244B00229A60234B41F2FF3231
:10302000DA60214B00221A611F4B00229A611E4870
:1030300004F0E2FF0346002B01D000F033FB002335
:10304000FB6100237B6207F11C031946164805F05B
:1030500025FF0346002B01D000F024FB60233B60DA
:103060004FF480737B600023BB6000233B613B46D1
:10307000082219460C4805F04FF90346002B01D0F1
:1030800000F010FB3B460C221946074805F044F9B6
:103090000346002B01D000F005FB034800F0D4FDEF
:1030A00000BF2837BD4680BDC07E0120000400401F
:1030B000D34D621080B584B000AF3B4600221A6049
:1030C0005A609A60DA60194B194A1A6004F0CAF91A
:1030D00003465B00174AA2FB03239B0C013B134AE8
:1030E0005360124B00229A60104B0E22DA600F4B95
:1030F00000221A610D4B00229A610C4804F0FDFE7B
:103100000346002B01D000F0CDFA4FF480533B6012
:103110003B461946054805F017FA0346002B01D037
:1031200000F0C0FA00BF1037BD4680BD8C7D012085
:103130000008004083DE1B4380B584B000AF3B1D18
:1031400000221A605A609A601C4B1D4A1A601B4B81
:1031500000225A60194B00229A6004F083F903465A
:103160005B00184AA2FB0323DB0C013B134AD3602C
:10317000124B00229A61114804F0BFFE0346002B57
:1031800001D000F08FFA08210C4804F060FF0346DC
:10319000002B01D000F086FA20237B600023FB6027
:1031A0003B1D1946054805F079FE0346002B01D06A
:1031B00000F078FA00BF1037BD4680BD588101206D
:1031C0000014004083DE1B4380B596B000AF07F1CA
:1031D0004C0300221A605A609A6007F13003002203
:1031E0001A605A609A60DA601A615A619A613B1DEE
:1031F0002C220021184606F07AFF3D4B3D4A1A600A
:1032000004F044F903465B003B4AA2FB03239B0CFA
:10321000013B374A5360364B00229A60344B3122CF
:10322000DA60334B00221A61314B00225A61304B75
:1032300000229A612E4804F0DFFE0346002B01D0E5
:1032400000F030FA2023FB6400233B6500237B65FC
:1032500007F14C031946264805F020FE0346002BD3
:1032600001D000F01FFA60233B6301237B6300233E
:10327000BB630823FB6300233B6400237B644FF4A0
:103280000073BB6407F1300308221946184805F0A3
:1032900043F80346002B01D000F004FA00237B60C2
:1032A0000023BB600023FB6000233B6100237B61A4
:1032B0004FF40053BB610023FB6100233B624FF0DE
:1032C00000737B620023BB620023FB623B1D194637
:1032D000074805F071FE0346002B01D000F0E2F92B
:1032E000034800F0B1FC00BF5837BD4680BD00BFA9
:1032F0004C7D01200004014083DE1B4380B500AFFC
:10330000174B184A1A60164B174A5A60144B002282
:103310009A60134B0022DA60114B00221A61104BA5
:103320000C225A610E4B00229A610D4B0022DA6189
:103330000B4B00221A620A4B40225A62084B4FF490
:1033400080121A64064B4FF4C0025A64044805F018
:10335000F4FE0346002B01D000F0A4F900BF80BDAD
:103360000880012000100140987F330080B582B0B2
:1033700000AF264B1B6B254A43F480031363234B9A
:103380001B6B03F480037B607B68204B1B6B1F4A25
:1033900043F4001313631D4B1B6B03F400133B60DA
:1033A0003B68002205210D2002F0FFFB0D2002F0FA
:1033B00018FC00220F210E2002F0F7FB0E2002F075
:1033C00010FC00220F210F2002F0EFFB0F2002F073
:1033D00008FC00220721382002F0E7FB382002F029
:1033E00000FC002208213A2002F0DFFB3A2002F024
:1033F000F8FB00220821462002F0D7FB462002F00D
:10340000F0FB00BF0837BD4680BD00BF003802405A
:1034100080B58AB000AF07F1140300221A605A6029
:103420009A60DA601A61974B1B6B964A43F004036B
:103430001363944B1B6B03F004033B613B69914B9B
:103440001B6B904A43F0010313638E4B1B6B03F01D
:103450000103FB60FB688B4B1B6B8A4A43F0020342
:103460001363884B1B6B03F00203BB60BB68854B87
:103470001B6B844A43F008031363824B1B6B03F0FE
:1034800008037B607B68002240F241417E4803F0E4
:1034900009FB0122C0217D4803F004FB0122902199
:1034A000794803F0FFFA01220121784803F0FAFA83
:1034B000002241F20471754803F0F4FA00224FF43F
:1034C0000041734803F0EEFA00220421714803F032
:1034D000E9FA4FF400537B616F4BBB610223FB6140
:1034E00007F114031946684803F02AF94FF48043A2
:1034F0007B616A4BBB610123FB6107F11403194631
:10350000614803F01DF94FF400437B610023BB6168
:103510000123FB6107F1140319465B4803F010F91E
:1035200040F291437B610123BB610023FB610023D7
:103530003B6207F114031946534803F001F9FF23D6
:103540007B610023BB610223FB6107F11403194671
:103550004F4803F0F5F840F205737B610123BB612E
:103560000023FB6103233B6207F11403194647481C
:1035700003F0E6F84FF400637B61494BBB61022323
:10358000FB6107F114031946404803F0D9F84FF4E2
:1035900080537B610123BB610023FB6103233B62FA
:1035A00007F114031946394803F0CAF840237B6138
:1035B0000123BB610023FB6103233B6207F114037A
:1035C0001946314803F0BCF84FF410637B610023C7
:1035D000BB610123FB6107F1140319462C4803F07A
:1035E000AFF84FF400437B610123BB610023FB6113
:1035F00000233B6207F114031946254803F0A0F8A5
:103600004FF4C0537B610023BB610023FB6107F1D2
:10361000140319461C4803F093F804237B6101232B
:10362000BB610023FB6100233B6207F114031946D1
:10363000184803F085F830237B610023BB61012328
:10364000FB6107F114031946104803F079F8C02311
:103650007B610123BB610023FB6103233B6207F114
:1036600014031946094803F06BF8002202212820B0
:1036700002F09BFA282002F0B4FA00BF2837BD46BA
:1036800080BD00BF00380240000802400004024034
:1036900000000240000C0240000031100000111038
:1036A0000000211080B400AF72B6FEE780B500AF15
:1036B000002204210C4803F0F5F900224FF4806148
:1036C000094803F0EFF900221021084803F0EAF955
:1036D00000220121044803F0E5F90821044805F01F
:1036E000ADFB00BF80BD00BF0004024000080240E7
:1036F0004C7D012080B485B000AF264B1B69FB7266
:10370000FB7A07EE903AB8EEE77ADFED236AC7EE70
:10371000267AC7ED017AD7ED017A9FED207AF4EE93
:10372000C77AF1EE10FA03D51D4B01221A7002E0A0
:103730001B4B00221A70D7ED017AB6EE007A77EEB5
:10374000C77A9FED187A67EE877AC7ED037AD7EDCF
:10375000037AF5EEC07AF1EE10FA02D54FF00003CD
:10376000FB60114BD3ED007A9FED107A27EE877A3C
:10377000D7ED037ADFED0E6A67EEA67A77EE277A49
:10378000094BC3ED007A00BF1437BD465DF8047BDA
:10379000704700BF00000240000048429A99993EDD
:1037A00035170120005AC746280001203333733FE4
:1037B000CDCC4C3D80B400AF044B1B6807EE903A73
:1037C000B0EE670ABD465DF8047B70472800012013
:1037D00080B483B000AF0F4B1B6C0E4A43F0805394
:1037E00013640C4B1B6C03F080537B607B68094BAC
:1037F0005B6C084A43F480435364064B5B6C03F4F0
:1038000080433B603B6800BF0C37BD465DF8047BDE
:10381000704700BF0038024080B58AB000AF7860C2
:1038200007F1140300221A605A609A60DA601A6184
:103830007B681B68334A93425FD1334B5B6C324ADF
:1038400043F480735364304B5B6C03F480733B61CF
:103850003B692D4B1B6B2C4A43F0010313632A4B2E
:103860001B6B03F00103FB60FB68274B1B6B264AB5
:1038700043F004031363244B1B6B03F00403BB608E
:10388000BB680C237B610323BB610023FB6107F151
:10389000140319461D4802F053FF1D4B1D4A1A60C0
:1038A0001B4B00225A601A4B00229A60184B0022D0
:1038B000DA60174B4FF480621A61154B4FF40062C7
:1038C0005A61134B4FF400529A61114B4FF48072BE
:1038D000DA610F4B00221A620D4B00225A620C482B
:1038E00002F096FB0346002B01D0FFF7DBFE7B685E
:1038F000074A9A63064A7B68936300BF2837BD4630
:1039000080BD00BF00200140003802400008024096
:10391000888001201064024080B485B000AF7860D8
:103920007B681B680A4A93420BD10A4B1B6B094AFE
:1039300043F480531363074B1B6B03F48053FB600A
:10394000FB6800BF1437BD465DF8047B704700BFBD
:10395000003002400038024080B485B000AF78608B
:103960007B681B680A4A93420BD10A4B5B6B094A7E
:1039700043F040035363074B5B6B03F04003FB6072
:10398000FB6800BF1437BD465DF8047B704700BF7D
:10399000000806500038024080B58AB000AF786059
:1039A00007F1140300221A605A609A60DA601A6103
:1039B0007B681B68494A934240F08B80484B1B6CE4
:1039C000474A43F480431364454B1B6C03F4804324
:1039D0003B613B69424B1B6B414A43F0020313635B
:1039E0003F4B1B6B03F00203FB60FB684FF460432B
:1039F0007B610223BB610123FB6103233B6205233F
:103A00007B6207F114031946364802F099FE364BE3
:103A1000364A1A60344B00225A60334B40229A6077
:103A2000314B0022DA60304B4FF480621A612E4B2A
:103A300000225A612C4B00229A612B4B0022DA6142
:103A4000294B00221A62284B00225A62264802F0B3
:103A5000DFFA0346002B01D0FFF724FE7B68224AE1
:103A60005A65214A7B689363214B224A1A60204B96
:103A700000225A601E4B00229A601D4B0022DA6021
:103A80001B4B4FF480621A61194B00225A61184B8C
:103A900000229A61164B0022DA61154B00221A624D
:103AA000134B00225A62124802F0B2FA0346002B6E
:103AB00001D0FFF7F7FD7B680D4A9A650C4A7B68D9
:103AC000936300220E21242002F06FF8242002F0DC
:103AD00088F800BF2837BD4680BD00BF00380040D1
:103AE0000038024000040240F8800120706002406B
:103AF000607E01205860024080B485B000AF7860DD
:103B00007B681B68134A93420CD1134B1B6C124AFF
:103B100043F002031364104B1B6C03F00203FB60C1
:103B2000FB6810E07B681B680C4A93420BD10A4B80
:103B30005B6C094A43F002035364074B5B6C03F070
:103B40000203BB60BB6800BF1437BD465DF8047B51
:103B5000704700BF000400400038024000040140EC
:103B600080B584B000AF78607B681B68314A9342AF
:103B700014D1314B1B6C304A43F0040313642E4BB9
:103B80001B6C03F00403FB60FB68002203211E2072
:103B900002F00BF81E2002F024F847E07B681B6857
:103BA000264A934242D1244B1B6C234A43F0200304
:103BB0001364214B1B6C03F02003BB60BB68204BDC
:103BC000204A1A601E4B4FF000725A601C4B0022B4
:103BD0009A601B4B0022DA60194B4FF480621A6125
:103BE000174B00225A61164B00229A61144B4FF476
:103BF0008072DA61124B00221A62114B00225A6263
:103C00000F4802F005FA0346002B01D0FFF74AFDEA
:103C10007B680B4A1A620A4A7B689363002205217B
:103C2000372001F0C2FF372001F0DBFF00BF103763
:103C3000BD4680BD0008004000380240001400402E
:103C4000CC7D01204060024080B58AB000AF786032
:103C500007F1140300221A605A609A60DA601A6150
:103C60007B681B68224A93421DD1224B1B6B214A61
:103C700043F0040313631F4B1B6B03F004033B610E
:103C80003B694FF440737B610223BB610223FB61FC
:103C900003233B6202237B6207F114031946164893
:103CA00002F04EFD20E07B681B68144A93421BD152
:103CB000104B1B6B0F4A43F0020313630D4B1B6B3E
:103CC00003F00203FB60FB6802237B610223BB61FC
:103CD0000123FB6103233B6203237B6207F114038F
:103CE0001946074802F02CFD00BF2837BD4680BDAD
:103CF0000004004000380240000802400004014077
:103D00000004024080B58AB000AF786007F1140368
:103D100000221A605A609A60DA601A617B681B6838
:103D20004A4A934240F08E80494B5B6C484A43F0CC
:103D300010035364464B5B6C03F010033B613B691B
:103D4000434B1B6B424A43F001031363404B1B6B15
:103D500003F00103FB60FB684FF4C0637B61022347
:103D6000BB610123FB6103233B6207237B6207F1F5
:103D700014031946374802F0E3FC374B374A1A6000
:103D8000354B4FF000625A60334B00229A60324B41
:103D90000022DA60304B4FF480621A612E4B002211
:103DA0005A612D4B00229A612B4B4FF48072DA61DD
:103DB000294B00221A62284B00225A62264802F040
:103DC00027F90346002B01D0FFF76CFC7B68224AE1
:103DD000DA66214A7B689363214B224A1A60204BA2
:103DE0004FF000625A601E4B40229A601C4B00222A
:103DF000DA601B4B4FF480621A61194B00225A6142
:103E0000174B00229A61164B0022DA61144B0022F4
:103E10001A62134B00225A62114802F0F9F8034665
:103E2000002B01D0FFF73EFC7B680D4A9A660C4AD6
:103E30007B68936300220921252001F0B6FE25202E
:103E400001F0CFFE00BF2837BD4680BD0010014005
:103E50000038024000000240A87F01204064024078
:103E6000007F0120B864024080B400AFFEE780B458
:103E700000AFFEE780B400AFFEE780B400AFFEE71E
:103E800080B400AFFEE780B400AF00BFBD465DF870
:103E9000047B704780B400AF00BFBD465DF8047B73
:103EA000704780B400AF00BFBD465DF8047B70472B
:103EB00080B500AF01F0F6FA00BF80BD80B500AF5D
:103EC000024802F0D5F900BF80BD00BFCC7D0120C3
:103ED00080B500AF024802F0CBF900BF80BD00BF43
:103EE000607E012080B500AF024802F0C1F900BF3A
:103EF00080BD00BFF880012080B500AF024803F00C
:103F0000DDFE00BF80BD00BFE87C012080B500AFB2
:103F1000024805F061FA00BF80BD00BF08800120A3
:103F200080B500AF4FF4006002F0D6FD4FF40050B2
:103F300002F0D2FD4FF4804002F0CEFD4FF400407D
:103F400002F0CAFD00BF80BD80B500AF024804F09A
:103F5000C4F800BF80BD00BF8C7D012080B500AFDC
:103F6000024804F0BAF800BF80BD00BF58810120AC
:103F700080B500AF024802F07BF900BF80BD00BFF2
:103F80008880012080B500AF024802F071F900BFBF
:103F900080BD00BFA87F012080B500AF024802F0BD
:103FA00067F900BF80BD00BF007F012080B400AF73
:103FB000084BD3F88830074A43F47003C2F88830BE
:103FC000044B4FF000629A6000BFBD465DF8047B71
:103FD000704700BF00ED00E080B487B000AF7860AC
:103FE00039603B687B617B683B612023FB60BFF3EA
:103FF0004F8F0BE00C4A3B69C2F85C32FB683A69B0
:1040000013443B617A69FB68D31A7B617B69002B9F
:10401000F0DCBFF34F8FBFF36F8F00BF1C37BD467F
:104020005DF8047B704700BF00ED00E080B487B00E
:1040300000AF786039603B687B617B683B6120231F
:10404000FB60BFF34F8F0BE00C4A3B69C2F868324C
:10405000FB683A6913443B617A69FB68D31A7B6158
:104060007B69002BF0DCBFF34F8FBFF36F8F00BF76
:104070001C37BD465DF8047B704700BF00ED00E0D3
:1040800080B400AF00BFBD465DF8047B704780B4CC
:1040900000AF00BFBD465DF8047B704780B483B0BD
:1040A00000AF0346FB71FB7903F0070318460C379A
:1040B000BD465DF8047B704780B483B000AF034613
:1040C000FB71FB79DB08DBB203F0070318460C3702
:1040D000BD465DF8047B704780B584B000AF786062
:1040E00039607B6803F01F03FB60FB68002B05D180
:1040F0003B6819467868FFF76FFF09E07A68FB684C
:10410000D31A18463A68FB6813441946FFF764FF50
:1041100000BF1037BD4680BD80B584B000AF786069
:1041200039607B6803F01F03FB60FB68002B05D13F
:104130003B6819467868FFF779FF09E07A68FB6801
:10414000D31A18463A68FB6813441946FFF76EFF06
:1041500000BF1037BD4680BD80B584B000AF194B9D
:104160001B8801339AB2174B1A80164B1B88FB81B0
:10417000154B5B6ABB60FB891B0A9BB2DBB23B70D1
:10418000FB89DBB27B70BB681B0EDBB2BB70BB680C
:104190001B0CDBB2FB70BB681B0ADBB23B71BB685C
:1041A000DBB27B713B4606211846FDF743FF034611
:1041B000FB80FB88002BD2D0FB8818461037BD4609
:1041C00080BD00BF40170120000C004080B586B0C4
:1041D00000AFF860B96011461A460B46FB801346E3
:1041E0007B71FB68002B00F0ED80FB88B3F5C07F8E
:1041F00080F0E88000233B82FB88002B03D0FB8803
:104200000A339BB200E00823BB827B79DB005BB200
:1042100043F002035BB2FB74FB6803F58453552241
:104220001A70FA6841F28103134455221A70FA6831
:1042300041F282031344FA7C1A70BB8AD9B2FA683D
:1042400041F2830313440A461A70BB8A1B0A9BB2CD
:10425000D9B2FA6841F2840313440A461A703B8CBF
:10426000D9B2FA6841F2850313440A461A703B8CAE
:104270001B0A9BB2D9B2FA6841F2860313440A467C
:104280001A70FB6803F5845307211846FDF7EEFE0C
:1042900003461946FA6841F2870313440A461A7026
:1042A000FB88002B13D0FA6841F288031344FA8884
:1042B000B968184605F010FFFB6803F58452FB88C7
:1042C000083319461046FDF7B5FE03463B8200232E
:1042D000FB75FA6841F288331344184601F05FF821
:1042E0000346002B47D1FFF7CBFEFB6803F59E5337
:1042F0001B78DBB2002B3CD1FB6803F59E530122F7
:104300001A700123FB75FFF7C2FEFB6803F54070CE
:10431000FB6803F584530822194605F0DDFEFB888F
:10432000002B12D0FB6803F54270FA6841F2880353
:104330001344FA88194605F0CFFEFB88083303F5CD
:104340004073FA6813443A8A1A80FB6803F5407395
:10435000BA8A11461846FFF7DFFEFB6803F59C5347
:104360001868FB6803F54073BA8A194604F034FFF5
:1043700001E0FFF78CFEFB7D002B23D1FA6841F2B0
:1043800088331344FA6802F584510822184600F075
:10439000AEFFFB88002B15D0FA6841F28833134436
:1043A000FA6841F288011144FA88184600F09FFF2C
:1043B000FA6841F28833134407F1100102221846CB
:1043C00000F095FF00BF1837BD4680BD80B586B0B0
:1043D00000AF78600B467B8013467B707B68002BB8
:1043E0006FD00823BB827B78DB005BB263F07D0378
:1043F0005BB2FB7455233B7255237B72FB7CBB7213
:10440000BB8ADBB2FB72BB8A1B0A9BB2DBB23B737B
:104410007B88DBB27B737B881B0A9BB2DBB2BB73EE
:1044200007F1080307211846FDF720FE0346FB733A
:104430000023FB757A6841F288331344184600F074
:10444000AEFF0346002B2FD1FFF71AFE7B6803F562
:104450009E531B78DBB2002B24D17B6803F59E535F
:1044600001221A700123FB75FFF711FE7B6803F52B
:1044700040731A4607F1080303CB106051607B6854
:1044800003F5407308211846FFF746FE7B6803F5E5
:104490009C5318687B6803F540730822194604F0A2
:1044A0009BFE01E0FFF7F3FDFB7D002B09D17A684D
:1044B00041F28833134407F108010822184600F03E
:1044C00016FF00BF1837BD4680BD000080B588B01C
:1044D00002AF0346B9607A60FB733D4B5B6A7B6158
:1044E0003C4B3B613B69002B6CD0FFF7C9FD3A4B5D
:1044F0001B889BB2002B45D0384B1B889BB2002BEE
:1045000009D0354B00221A80354B00221A80FFF764
:10451000BEFD012357E0334B1B6819467869FEF74F
:104520004BFA024641F288339A4228D92E4B1B8817
:104530009BB2142B0AD9284B00221A80284B002248
:104540001A80FFF7A4FD4FF0FF333CE0254A7B695A
:104550001360254B1B889BB201339AB2224B1A8001
:10456000FFF795FD7B689AB21D4B1B889BB2F97BC8
:1045700000930B46B9683869FFF728FE22E0FFF781
:1045800086FD1FE0154B00221A80134B01221A8072
:10459000144A7B691360144B00221A80FFF777FDE1
:1045A000FFF7DAFD03461A460D4B1A807B689AB274
:1045B0000B4B1B889BB2F97B00930B46B96838699B
:1045C000FFF704FE002318461837BD4680BD00BF24
:1045D000000C00404000012038170120300001206D
:1045E0003A1701203C1701203617012080B58EB004
:1045F00000AFF860B9607A60FB7000233B63002372
:10460000FB6227E00023BB621BE0A74AFB6A41F282
:10461000C43101FB03F31A44BB6A1A4441F28433E8
:1046200013441B78FA789A4208D1FB6A41F2C432EB
:1046300002FB03F39C4A13443B6305E0BB6A01336E
:10464000BB62BB6A032BE0D93B6B002B06D1FB6A34
:104650000133FB62FB6A002BD4D000E000BF97F867
:104660004030022B06D0032B00F08F80012B00F08E
:104670008C80FBE07B68002B4FD000237B620AE03C
:1046800007F114027B6A13441946F86800F04FFEE4
:104690007B6A01337B627B6A072BF1DD00237B633E
:1046A00010E007F11D031946F86800F040FE797F1D
:1046B0003A6B7B6B134403F590530A461A707B6B7D
:1046C00001337B637B680A3B7A6B9A42E9D307F13B
:1046D0001D031946F86800F02AFE07F11D0319466C
:1046E000F86800F024FE3A6B7B6B134403F590539B
:1046F00000221A703B6B002B06D0BB689BB2FA7885
:104700001946386BFFF762FE3B6B03F59051FB785F
:104710007A6B1846FDF728FCC2E000237B6313E0A8
:1047200000233B620AE007F114023B6A1344194676
:10473000F86800F0FCFD3B6A01333B623B6A072BE3
:10474000F1DD7B6B01337B637B6B072BE8D9FFF7D4
:1047500097FC564B1B889BB2002B13D0544B1B88E5
:104760009BB2002B0ED0524B1B889BB21A46BB68E3
:10477000934207D14F4B1B889BB2002B02D14D4B6C
:1047800001221A80FFF783FC8AE07B680A2B02D99A
:104790007B68DBB200E00823BB773B6B002B65D066
:1047A0000023FB773A6B41F288331344184600F03C
:1047B000F6FD0346002B3BD1FFF762FC3B6B03F594
:1047C0009E531B78DBB2002B30D13B6B03F59E531D
:1047D00001221A700123FB77FFF759FC00237B634A
:1047E0000BE07B6B03F540733A6B13441946F86892
:1047F00000F09DFD7B6B01337B63BB7F7A6B9A423C
:10480000EFD33B6B03F54073BA7F11461846FFF7B1
:1048100083FC3B6B03F59C5318683B6B03F54073BB
:10482000BA7F92B2194604F0D7FC01E0FFF72FFCE3
:10483000FB7F002B33D100237B6312E007F11D03C4
:104840001946F86800F073FD3A6B41F2883313445F
:1048500007F11D021146184600F05AFD7B6B01332B
:104860007B63BB7F7A6B9A42E8D318E07B680A2BA4
:1048700002D97B68DBB200E00823BB7700237B63AF
:1048800008E007F11D031946F86800F050FD7B6B46
:1048900001337B63BB7F7A6B9A42F2D300E000BFA7
:1048A00000BF3837BD4680BD4000012038170120C9
:1048B0003A1701203000012080B584B000AF786045
:1048C000396007F10F031A463968786800F03EFD39
:1048D000FB7B18461037BD4680BD80B584B000AF65
:1048E00078600023FB720023FB6013E07A6841F2DA
:1048F0009C331344F9681846FFF7DEFF0346194658
:104900007A68FB68134403F590530A461A70FB68F3
:104910000133FB60FB68062BE8D97B6803F59053F5
:1049200007211846FDF7A2FB0346FB72FB7A1846E7
:104930001037BD4680BD80B584B000AF7860396067
:104940000023BB600023FB6013E07A6841F29C33D4
:104950001344F9681846FFF7AFFF034619467A6813
:10496000FB68134403F590530A461A70FB68013341
:10497000FB603B68023BFA689A42E6D37B6803F52A
:1049800090523B68023B19461046FDF753FB034625
:10499000BB60BB6818461037BD4680BDB0B58CB053
:1049A00002AF786000237B627A6841F29C33134443
:1049B0007B617A6841F2B03313443B617A6841F21B
:1049C000B4331344FB607A6841F2B8331344BB60DC
:1049D000BB681B887B84FB681B68FB613B691B68A9
:1049E000BB61BB69002B43D0786900F097FB02469E
:1049F000FB69934200F2AD80F9697868FFF79BFF8D
:104A00000446FB69023B19467869FFF755FF0346E8
:104A10001D46FB69013B19467869FFF74DFF0346C8
:104A20001B022B449C421CD17C8C02217869FFF72D
:104A300043FF03461846FFF731FB0346DDB2022170
:104A40007869FFF739FF03461846FFF735FB034641
:104A5000DBB200932B46FA6921467869FFF7C6FD61
:104A600001E001237B620023BB610023FB6170E056
:104A7000786900F053FB0346072B6AD90021786957
:104A8000FFF71AFF0346552B61D101217869FFF723
:104A900013FF0346552B5AD17868FFF71EFF0346D4
:104AA0001C4607217869FFF707FF03469C424AD15D
:104AB00003217869FFF700FF03461C46042178694B
:104AC000FFF7FAFE03461B022344FB6105217869C8
:104AD000FFF7F2FE03469CB206217869FFF7ECFE71
:104AE00003469BB21B029BB223447B847B8C002B2E
:104AF00026D0FB69B3F5C07F22D2FB690A2B02D90D
:104B00000123BB6122E07C8C02217869FFF7D4FE8F
:104B100003461846FFF7C2FA0346DDB20221786960
:104B2000FFF7CAFE03461846FFF7C6FA0346DBB294
:104B300000932B46002221467869FFF757FD05E0D8
:104B400001237B6205E001237B6202E001E0012397
:104B50007B627B6A002B03D0796A786900F00EFCD7
:104B60003B69BA691A60FB68FA691A60BB687A8C9B
:104B70001A8000BF2837BD46B0BD000080B586B0A2
:104B800000AF786000237B6153E07B6941F2C4325F
:104B900002FB03F32A4A1344FB6000233B61FB68DA
:104BA00003F59C531B687A689A423FD1FA6841F238
:104BB00088331344184600F0F2FB0346002B2FD035
:104BC000FB6803F59E5301221A7000BFFA6841F298
:104BD000883313443A69511C396102F54072F9680F
:104BE0000A441146184600F0A2FB0346002B03D0EE
:104BF0003B69B3F5C07FE9D3FB6803F540733969BE
:104C00001846FFF789FAFB6803F59C531868FB68A0
:104C100003F540733A6992B2194604F0DDFA0BE0ED
:104C2000FB6803F59E5300221A7005E07B6901338F
:104C30007B617B69002BA8D000BF1837BD4680BDC3
:104C40004000012080B584B000AF78600023FB6095
:104C500028E0FB6841F2C43202FB03F3154A134417
:104C6000BB60BB6803F59C531B687A689A4216D1F7
:104C7000BB6803F59C531B68B9684FF44072184633
:104C800004F026FBBB6803F59C531B68B3F858304F
:104C90001946BA6841F2BC331344196005E0FB6859
:104CA0000133FB60FB68002BD3D000BF1037BD463B
:104CB00080BD00BF4000012080B582B000AF00235E
:104CC0007B6040E07B6841F2C43202FB03F241F2B8
:104CD000883313441F4A98187B6841F2C43202FBA0
:104CE00003F303F528631B4A99184FF4C0630122AC
:104CF00000F024FA7B6841F2C43202FB03F241F275
:104D000098331344134A1344181D7B6841F2C4328C
:104D100002FB03F303F590630E4A99184FF4C06346
:104D2000012200F00BFA0B4A7B6841F2C43101FB0F
:104D300003F31A4441F2BC3313444FF0FF321A60BC
:104D40007B6801337B607B68002BBBD000BF0837DA
:104D5000BD4680BD4000012080B582B000AF002379
:104D60007B6026E07B6841F2C43202FB03F3144A05
:104D700013443B603B684FF440711846FFF7CCF991
:104D80003B6803F59C531B6839684FF44072184622
:104D900004F09EFA3B6803F59C531B68B3F8583047
:104DA00019463A6841F2BC33134419607B680133F9
:104DB0007B607B68002BD5D000BF0837BD4680BD27
:104DC0004000012080B5E6B000AF0023C7F8903165
:104DD0001FE1D7F8903141F2C43202FB03F3924A4B
:104DE0001344C7F88C31D7F88C3103F59C531B68FA
:104DF000DB6E1B685B68C7F88831D7F88C3103F528
:104E00009C531B68B3F85830C7F88431D7F88C210D
:104E100041F2BC3313441B68B3F1FF3F07D1D7F80D
:104E20008C2141F2BC331344D7F888211A60D7F89B
:104E30008C2141F2BC3313441B68D7F888219A4275
:104E40000ED9D7F88421D7F88831D21AD7F88C1127
:104E500041F2BC330B441B681344C7F894310AE099
:104E6000D7F88C2141F2BC3313441A68D7F8883143
:104E7000D31AC7F89431D7F89431B3F5C07F03D96A
:104E80004FF4C073C7F89431D7F89431002B50D049
:104E9000D7F88C314FF440711846FFF71DF9002305
:104EA000C7F8903134E0D7F88C2141F2BC33134479
:104EB0001B68D7F88421D31AD7F88C21D15C3A1D0E
:104EC000D7F8903113440A461A70D7F88C2141F272
:104ED000BC3313441B68012B08D1D7F88C2141F255
:104EE000BC331344D7F884211A600CE0D7F88C2126
:104EF00041F2BC3313441B685A1ED7F88C1141F29F
:104F0000BC330B441A60D7F890310133C7F89031A5
:104F1000D7F89031D7F894219A42C4D8D7F88C2189
:104F200041F29C331344391DD7F89421184600F000
:104F3000DEF9D7F89431002B7FF455AFD7F88C21E8
:104F400041F29C331344184600F029FA0346002B23
:104F500003D0D7F88C01FFF721FDFFF791F8D7F8C0
:104F60008C3103F59E531B78DBB2002B4AD1D7F866
:104F70008C2141F288331344184600F010FA03469E
:104F8000002B3FD00023C7F89431D7F88C3103F5BC
:104F90009E5301221A70FFF77AF800BFD7F88C21D0
:104FA00041F288331344D7F89421511CC7F8941167
:104FB00002F54072D7F88C110A441146184600F0E9
:104FC000B6F90346002B04D0D7F89431B3F5C07F6F
:104FD000E4D3D7F88C3103F54073D7F89411184611
:104FE000FFF79AF8D7F88C3103F59C531868D7F877
:104FF0008C3103F54073D7F8942192B2194604F02E
:10500000EBF801E0FFF743F8D7F890310133C7F828
:105010009031D7F89031002B3FF4DBAE00BF07F59D
:10502000CC77BD4680BD00BF4000012080B483B076
:1050300000AF78607B689A687B685B689A4205D3AA
:105040007B689A687B685B68D31A07E07B681A689C
:105050007B685B68D21A7B689B68134418460C37E0
:10506000BD465DF8047B704790B583B000AF7860B3
:105070007B681C687868FFF7D9FF0346E31A184677
:105080000C37BD4690BD80B485B000AFF860B96004
:105090007A60BB681A687B681344FA681268B3FBCD
:1050A000F2F102FB01F29B1A18461437BD465DF877
:1050B000047B704780B584B000AFF860B9607A6057
:1050C0007A68B968F868FFF7DEFF0246BB681A60C5
:1050D00000BF1037BD4680BD80B483B000AF78609C
:1050E0007B685A687B689B689A4214BF012300233F
:1050F000DBB218460C37BD465DF8047B704780B5BF
:1051000084B000AFF860B9607A607A68B968F8680E
:10511000FFF7D0FF00BF1037BD4680BD80B584B01B
:1051200000AF78607B6804331846FFF77FFF0346C3
:10513000FB60FB6818461037BD4680BD80B485B063
:1051400000AFF860B9603B601346FB71FB68BA685A
:105150001A603A68FB685A60FB6800229A60FB6834
:105160000022DA60FB6800225A74FB68FA791A742C
:1051700000BF1437BD465DF8047B704780B582B030
:1051800000AF786039607B681B6819467B68DB6814
:105190007A68127C02FB03F30B4418467B681B7C85
:1051A0001A46396804F098FF00BF0837BD4680BD35
:1051B00080B582B000AF786039607B681B681946A3
:1051C0007B689B687A68127C02FB03F30B441946E8
:1051D0007B681B7C1A46386804F07EFF00BF0837E6
:1051E000BD4680BD80B584B000AFF860B9607A601C
:1051F000FB681B681A46FB681B7C1946BB6803FBEF
:1052000001F313441946FB681B7C1A46786804F0C6
:1052100063FF00BF1037BD4680BD80B584B000AFCE
:10522000786039607B6804331846FFF71DFFF8602B
:10523000FB68002B0CD039687868FFF79FFF7B680C
:10524000181D7B680C3301221946FFF733FF02E07B
:105250007B6801225A74FB6818461037BD4680BD32
:1052600080B584B000AF786039607B68043318463D
:10527000FFF732FF0346FB60FB68002B0BD0396859
:105280007868FFF795FF7B68181D7B68083301225B
:105290001946FFF70FFFFB6818461037BD4680BD63
:1052A00080B586B000AFF860B9607A6000233B61DA
:1052B00012E0FB681B7C1A463B6903FB02F2BB68E9
:1052C00013441946F868FFF7A8FF78617B69002B43
:1052D00007D03B6901333B613A697B689A42E8D366
:1052E00000E000BF7B6918461837BD4680BD80B519
:1052F00086B000AFF860B9607A607A68B968F8681B
:10530000FFF7CEFF78617B6918461837BD4680BD30
:1053100080B584B000AF7860396039687868FFF78D
:105320007CFFF860FB6818461037BD4680BD80B52D
:1053300084B000AF7860396039687868FFF790FF13
:10534000F860FB6818461037BD4680BD80B586B052
:1053500000AFF860B9607A60FB68181DFB6808331D
:10536000BA681946FFF78FFE78617A687969F8683C
:10537000FFF738FF00BF1837BD4680BD80B582B04B
:1053800000AF786039607B68181D7B6808333A6825
:105390001946FFF7B4FE00BF0837BD4680BD80B494
:1053A00083B000AF78607B689A687B68DB689A425C
:1053B00014BF01230023DBB218460C37BD465DF84D
:1053C000047B7047DFF834D0002103E00C4B5B58BE
:1053D000435004310B480C4B42189A42F6D30B4A07
:1053E00002E0002342F8043B094B9A42F9D3FEF74E
:1053F000DDFD04F04DFEFDF7B9FB70470000042011
:1054000048A10008000001202814012028140120D0
:105410009C810120FEE7000080B500AF084B1B68AF
:10542000074A43F400731360032000F0B3FB00202D
:1054300000F008F8FEF7CCF90023184680BD00BF45
:10544000003C024080B582B000AF7860124B1A6811
:10545000124B1B7819464FF47A73B3FBF1F3B2FB8E
:10546000F3F3184600F0CBFB0346002B01D00123D9
:105470000EE07B680F2B0AD8002279684FF0FF30CE
:1054800000F093FB064A7B681360002300E00123D1
:1054900018460837BD4680BD2C0001202414012089
:1054A0002014012080B400AF064B1B781A46064B2F
:1054B0001B681344044A136000BFBD465DF8047BBB
:1054C000704700BF241401209881012080B400AFF0
:1054D000034B1B681846BD465DF8047B704700BF50
:1054E0009881012080B584B000AF78600023FB7301
:1054F0007B68002B01D1012331E07B681B6C002B02
:1055000009D17868FEF788F97B6800225A647B68C5
:10551000002283F83C207B681B6C03F01003002BF7
:1055200016D17B681A6C104B134043F002027B6863
:105530001A64786800F064F97B6800225A647B681A
:105540001B6C23F0030343F001027B681A6401E043
:105550000123FB737B68002283F83C20FB7B184609
:105560001037BD4680BD00BFFDEEFFFF80B485B0A3
:1055700000AF786039600023FB607B6893F83C30B3
:10558000012B01D102232AE17B68012283F83C2010
:105590003B681B68092B3AD93B681B68B3F1004F85
:1055A00035D07B681B68D9683B681B689BB21A467C
:1055B00013465B0013441E3B072202FA03F3DA434F
:1055C0007B681B680A40DA603B681B68874A934225
:1055D0000AD17B681B68D9683B689B681A067B68A0
:1055E0001B680A43DA6035E07B681B68D9683B6852
:1055F0009A683B681B689BB2184603465B000344ED
:105600001E3B9A407B681B680A43DA6022E07B6895
:105610001B6819693B681B689BB21A4613465B00FE
:105620001344072202FA03F3DA437B681B680A403B
:105630001A617B681B6819693B689A683B681B683C
:105640009BB2184603465B0003449A407B681B6884
:105650000A431A613B685B68062B24D87B681B6889
:10566000596B3B685A6813469B001344053B1F2245
:1056700002FA03F3DA437B681B680A405A637B68CB
:105680001B68596B3B681B689BB218463B685A689D
:1056900013469B001344053B00FA03F27B681B682A
:1056A0000A435A634CE03B685B680C2B24D87B6848
:1056B0001B68196B3B685A6813469B001344233BD5
:1056C0001F2202FA03F3DA437B681B680A401A635D
:1056D0007B681B68196B3B681B689BB218463B686C
:1056E0005A6813469B001344233B00FA03F27B687D
:1056F0001B680A431A6323E07B681B68D96A3B680E
:105700005A6813469B001344413B1F2202FA03F3DD
:10571000DA437B681B680A40DA627B681B68D96AD7
:105720003B681B689BB218463B685A6813469B004F
:105730001344413B00FA03F27B681B680A43DA62B8
:105740007B681B682A4A93420AD13B681B68B3F105
:10575000004F05D1274B5B68264A23F44003536072
:105760007B681B68224A934209D13B681B68122B55
:1057700005D1204B5B681F4A43F4800353607B686C
:105780001B681B4A934225D13B681B68174A93420A
:1057900003D03B681B68112B1CD1164B5B68154A64
:1057A00043F4000353603B681B68104A934211D1D5
:1057B000114B1B68114AA2FB03239A0C13469B0052
:1057C00013445B00FB6002E0FB68013BFB60FB688D
:1057D000002BF9D17B68002283F83C200023184677
:1057E0001437BD465DF8047B704700BF12000010FF
:1057F00000200140002301402C00012083DE1B43D8
:1058000080B483B000AF7860784B5B68774A23F44C
:1058100040335360754B5A687B685B687349134328
:105820004B607B681B685A687B681B6822F4807237
:105830005A607B681B6859687B681B691A027B6821
:105840001B680A435A607B681B685A687B681B6840
:1058500022F040725A607B681B6859687B689A68BE
:105860007B681B680A435A607B681B689A687B6880
:105870001B6822F400629A607B681B6899687B68E9
:10588000DA687B681B680A439A607B689B6A584A9F
:10589000934222D07B681B689A687B681B6822F061
:1058A00070629A607B681B6899687B689A6A7B68FB
:1058B0001B680A439A607B681B689A687B681B6850
:1058C00022F040529A607B681B6899687B68DA6AAC
:1058D0007B681B680A439A600FE07B681B689A68C4
:1058E0007B681B6822F070629A607B681B689A680C
:1058F0007B681B6822F040529A607B681B689A683C
:105900007B681B6822F002029A607B681B689968BA
:105910007B689B695A007B681B680A439A607B68B6
:1059200093F82030002B1BD07B681B685A687B687B
:105930001B6842F400625A607B681B685A687B6887
:105940001B6822F460425A607B681B6859687B6858
:105950005B6A013B5A037B681B680A435A6007E095
:105960007B681B685A687B681B6822F400625A6077
:105970007B681B68DA6A7B681B6822F47002DA6253
:105980007B681B68D96A7B68DB69013B1A057B6809
:105990001B680A43DA627B681B689A687B681B682D
:1059A00022F400729A607B681B6899687B6893F8A0
:1059B00030305A027B681B680A439A607B681B6818
:1059C0009A687B681B6822F480629A607B681B6817
:1059D00099687B685B699A027B681B680A439A60D6
:1059E00000BF0C37BD465DF8047B704700230140C3
:1059F0000100000F80B485B000AF78607B6803F0D1
:105A00000703FB600B4BDB68BB60BA684FF6FF0314
:105A10001340BB60FB681A02BB681A43064B134372
:105A2000BB60044ABB68D36000BF1437BD465DF855
:105A3000047B704700ED00E00000FA0580B400AF81
:105A4000044BDB681B0A03F007031846BD465DF8EC
:105A5000047B704700ED00E080B483B000AF0346E4
:105A6000FB7197F90730002B0BDBFB7903F01F026A
:105A7000074997F907305B09012000FA02F241F863
:105A8000232000BF0C37BD465DF8047B704700BF84
:105A900000E100E080B483B000AF03463960FB71E1
:105AA00097F90730002B0ADB3B68DAB20C4997F90B
:105AB00007301201D2B20B4483F800230AE03B689E
:105AC000DAB20849FB7903F00F03043B1201D2B2AA
:105AD0000B441A7600BF0C37BD465DF8047B704757
