:020000040800F2
:10000000000004203D340008CD320008D33200083F
:10001000D9320008DF320008E53200080000000095
:10002000000000000000000000000000EB320008AB
:10003000F9320008000000000733000815330008FB
:100040008D3400088D3400088D3400088D3400088C
:100050008D3400088D3400088D3400088D3400087C
:100060008D3400088D3400088D3400088D3400086C
:100070008D34000821330008353300084933000867
:100080008D3400088D3400088D3400088D3400084C
:100090008D3400088D3400088D3400088D3400083C
:1000A0008D3400088D3400088D3400088D3400082C
:1000B0008D3400088D340008AD3300088D340008FD
:1000C0008D3400088D3400088D3400088D3400080C
:1000D0005D330008713300088D3400088D3400084A
:1000E000853300088D3400088D3400088D340008F5
:1000F0008D3400088D3400088D3400088D340008DC
:100100008D3400088D3400088D3400088D340008CB
:100110008D3400088D3400088D340008C133000888
:10012000D53300088D340008E93300088D34000809
:100130008D340008000000000000000000000000F6
:100140000000000000000000000000008D340008E6
:100150008D3400088D340008FD3300088D3400080C
:100160008D3400088D3400088D3400088D3400086B
:100170008D3400088D3400080000000000000000ED
:100180008D3400088D3400088D3400088D3400084B
:100190008D3400088D340008000000008D34000804
:1001A0000000000000000000000000008D34000886
:1001B0008D3400088D3400080000000000000000AD
:1001C000000000000000000000000000000000002F
:1001D0000000000000000000000000008D34000856
:1001E00010B5054C237833B9044B13B10448AFF371
:1001F00000800123237010BD2000012000000000BA
:10020000507A000808B5034B1BB103490348AFF30C
:10021000008008BD0000000024000120507A000882
:1002200081F0004102E000BF83F0004330B54FEAA7
:1002300041044FEA430594EA050F08BF90EA020F14
:100240001FBF54EA000C55EA020C7FEA645C7FEAA7
:10025000655C00F0E2804FEA5454D4EB5555B8BFCA
:100260006D420CDD2C4480EA020281EA030382EA3B
:10027000000083EA010180EA020281EA0303362DCD
:1002800088BF30BD11F0004F4FEA01314FF4801CA0
:100290004CEA113102D0404261EB410113F0004FB2
:1002A0004FEA03334CEA133302D0524263EB430369
:1002B00094EA050F00F0A780A4F10104D5F1200E07
:1002C0000DDB02FA0EFC22FA05F2801841F1000162
:1002D00003FA0EF2801843FA05F359410EE0A5F136
:1002E00020050EF1200E012A03FA0EFC28BF4CF067
:1002F000020C43FA05F3C01851EBE37101F000451D
:1003000007D54FF0000EDCF1000C7EEB00006EEB29
:100310000101B1F5801F1BD3B1F5001F0CD34908B3
:100320005FEA30004FEA3C0C04F101044FEA44520A
:1003300012F5800F80F09A80BCF1004F08BF5FEA91
:10034000500C50F1000041EB045141EA050130BD71
:100350005FEA4C0C404141EB010111F4801FA4F114
:100360000104E9D191F0000F04BF01460020B1FA69
:1003700081F308BF2033A3F10B03B3F120020CDAA1
:100380000C3208DD02F1140CC2F10C0201FA0CF07F
:1003900021FA02F10CE002F11402D8BFC2F1200CE4
:1003A00001FA02F120FA0CFCDCBF41EA0C0190409A
:1003B000E41AA2BF01EB0451294330BD6FEA0404E3
:1003C0001F3C1CDA0C340EDC04F11404C4F12002CE
:1003D00020FA04F001FA02F340EA030021FA04F3E0
:1003E00045EA030130BDC4F10C04C4F1200220FA37
:1003F00002F001FA04F340EA0300294630BD21FA75
:1004000004F0294630BD94F0000F83F4801306BF3A
:1004100081F480110134013D4EE77FEA645C18BF2E
:100420007FEA655C29D094EA050F08BF90EA020FC5
:1004300005D054EA000C04BF1946104630BD91EABD
:10044000030F1EBF0021002030BD5FEA545C05D1C0
:100450004000494128BF41F0004130BD14F58004FF
:100460003CBF01F5801130BD01F0004545F0FE4173
:1004700041F470014FF0000030BD7FEA645C1ABFA8
:10048000194610467FEA655C1CBF0B46024650EADF
:10049000013406BF52EA033591EA030F41F400210B
:1004A00030BD00BF90F0000F04BF0021704730B591
:1004B0004FF4806404F132044FF000054FF0000166
:1004C00050E700BF90F0000F04BF0021704730B527
:1004D0004FF4806404F1320410F0004548BF4042FC
:1004E0004FF000013EE700BF42004FEAE2014FEA51
:1004F00031014FEA02701FBF12F07F4393F07F4F2C
:1005000081F06051704732F07F4208BF704793F02E
:100510007F4F04BF41F40021704730B54FF4607441
:1005200001F0004521F000411CE700BF50EA010244
:1005300008BF704730B54FF000050AE050EA0102ED
:1005400008BF704730B511F0004502D5404261EB5D
:1005500041014FF4806404F132045FEA915C3FF49E
:10056000D8AE4FF003025FEADC0C18BF03325FEA3B
:10057000DC0C18BF033202EBDC02C2F1200300FAEC
:1005800003FC20FA02F001FA03FE40EA0E0021FA11
:1005900002F11444BDE600BF70B54FF0FF0C4CF4FF
:1005A000E06C1CEA11541DBF1CEA135594EA0C0FB1
:1005B00095EA0C0F00F0DEF82C4481EA030621EAEC
:1005C0004C5123EA4C5350EA013518BF52EA033527
:1005D00041F4801143F4801338D0A0FB02CE4FF0D9
:1005E0000005E1FB02E506F00042E0FB03E54FF009
:1005F0000006E1FB03569CF0000F18BF4EF0010E01
:10060000A4F1FF04B6F5007F64F5407404D25FEAFC
:100610004E0E6D4146EB060642EAC62141EA5551AF
:100620004FEAC52040EA5E504FEACE2EB4F1FD0CF1
:1006300088BFBCF5E06F1ED8BEF1004F08BF5FEA6F
:10064000500E50F1000041EB045170BD06F0004621
:1006500046EA010140EA020081EA0301B4EB5C04CE
:10066000C2BFD4EB0C0541EA045170BD41F48011C6
:100670004FF0000E013C00F3AB8014F1360FDEBFEB
:10068000002001F0004170BDC4F10004203C35DAC7
:100690000C341BDC04F11404C4F1200500FA05F34A
:1006A00020FA04F001FA05F240EA020001F00042EB
:1006B00021F0004110EBD37021FA04F642EB060161
:1006C0005EEA430E08BF20EAD37070BDC4F10C048B
:1006D000C4F1200500FA04F320FA05F001FA04F24F
:1006E00040EA020001F0004110EBD37041F100013B
:1006F0005EEA430E08BF20EAD37070BDC4F1200546
:1007000000FA05F24EEA020E20FA04F301FA05F2AD
:1007100043EA020321FA04F001F0004121FA04F255
:1007200020EA020000EBD3705EEA430E08BF20EA25
:10073000D37070BD94F0000F0FD101F0004640005F
:1007400041EB010111F4801F08BF013CF7D041EAE1
:10075000060195F0000F18BF704703F000465200E5
:1007600043EB030313F4801F08BF013DF7D043EAB6
:100770000603704794EA0C0F0CEA135518BF95EA6C
:100780000C0F0CD050EA410618BF52EA4306D1D1F3
:1007900081EA030101F000414FF0000070BD50EA12
:1007A000410606BF1046194652EA430619D094EA9C
:1007B0000C0F02D150EA013613D195EA0C0F05D186
:1007C00052EA03361CBF104619460AD181EA0301DA
:1007D00001F0004141F0FE4141F470014FF0000092
:1007E00070BD41F0FE4141F4780170BD70B54FF02D
:1007F000FF0C4CF4E06C1CEA11541DBF1CEA1355AD
:1008000094EA0C0F95EA0C0F00F0A7F8A4EB05048E
:1008100081EA030E52EA03354FEA013100F0888085
:100820004FEA03334FF0805545EA131343EA12634E
:100830004FEA022245EA111545EA10654FEA002603
:100840000EF000419D4208BF964244F1FD0404F5BC
:10085000407402D25B084FEA3202B61A65EB030518
:100860005B084FEA32024FF480104FF4002CB6EBD5
:10087000020E75EB030E22BFB61A754640EA0C0055
:100880005B084FEA3202B6EB020E75EB030E22BF95
:10089000B61A754640EA5C005B084FEA3202B6EBD6
:1008A000020E75EB030E22BFB61A754640EA9C0095
:1008B0005B084FEA3202B6EB020E75EB030E22BF65
:1008C000B61A754640EADC0055EA060E18D04FEA23
:1008D000051545EA16754FEA06164FEAC30343EAC3
:1008E00052734FEAC2025FEA1C1CC0D111F4801F90
:1008F0000BD141EA00014FF000004FF0004CB6E789
:1009000011F4801F04BF01430020B4F1FD0C88BF27
:10091000BCF5E06F3FF6AFAEB5EB030C04BFB6EB32
:10092000020C5FEA500C50F1000041EB045170BD25
:100930000EF0004E4EEA113114EB5C04C2BFD4EB52
:100940000C0541EA045170BD41F480114FF0000ED6
:10095000013C90E645EA060E8DE60CEA135594EA52
:100960000C0F08BF95EA0C0F3FF43BAF94EA0C0F55
:100970000AD150EA01347FF434AF95EA0C0F7FF4CA
:1009800025AF104619462CE795EA0C0F06D152EA1E
:1009900003353FF4FDAE1046194622E750EA410602
:1009A00018BF52EA43067FF4C5AE50EA41047FF413
:1009B0000DAF52EA43057FF4EBAE12E74FEA410276
:1009C000B2F1E04324BFB3F5001CDCF1FE5C0DD9AD
:1009D00001F0004C4FEAC0024CEA5070B2F1004FF7
:1009E00040EB830008BF20F00100704711F0804FFA
:1009F00021D113F13872BCBF01F00040704741F4BF
:100A000080114FEA5252C2F11802C2F1200C10FAC2
:100A10000CF320FA02F018BF40F001004FEAC123A6
:100A20004FEAD32303FA0CFC40EA0C0023FA02F34A
:100A30004FEA4303CCE77FEA625307D150EA013320
:100A40001EBF4FF0FE4040F44000704701F00040F0
:100A500040F0FE4040F40000704700BF53B94AB96F
:100A6000002908BF00281CBF4FF0FF314FF0FF30B6
:100A700000F072B9ADF1080C6DE904CE00F006F893
:100A8000DDF804E0DDE9022304B070472DE9F0470A
:100A9000089E04468846002B4BD18A42154667D9EA
:100AA000B2FA82F24AB1C2F1200701FA02F320FA47
:100AB00007F7954047EA030894404FEA154E230C88
:100AC000B8FBFEF71FFA85FC0EFB178843EA0843C4
:100AD00007FB0CF1994209D9EB1807F1FF3080F0C0
:100AE0001B81994240F21881023F2B445B1AA4B249
:100AF000B3FBFEF00EFB103344EA034400FB0CFC96
:100B0000A44509D92C1900F1FF3380F00781A445D1
:100B100040F2048102382C4440EA0740A4EB0C0464
:100B200000271EB1D4400023C6E900433946BDE882
:100B3000F0878B4209D9002E00F0EB800027C6E930
:100B4000000138463946BDE8F087B3FA83F7002F35
:100B500047D18B4202D3824200F2FA80841A61EBC1
:100B6000030301209846002EE0D0C6E90048DDE7E7
:100B700002B9FFDEB2FA82F2002A40F08F80491BF0
:100B80004FEA154E1FFA85F80127B1FBFEFC230C36
:100B90000EFB1C1143EA014308FB0CF1994207D9F3
:100BA000EB180CF1FF3002D2994200F2CD8084465E
:100BB000591AA3B2B1FBFEF00EFB101443EA044431
:100BC00008FB00F8A04507D92C1900F1FF3302D229
:100BD000A04500F2B6801846A4EB080440EA0C4099
:100BE0009FE7C7F1200CBB4022FA0CFE4EEA030E31
:100BF00001FA07F420FA0CF521FA0CF34FEA1E482B
:100C00002543B3FBF8F92C0C08FB19331FFA8EFAB5
:100C100044EA034309FB0AF49C4202FA07F200FA91
:100C200007F10BD91EEB030309F1FF3080F0878039
:100C30009C4240F28480A9F1020973441B1BADB2AF
:100C4000B3FBF8F008FB103345EA034400FB0AFA53
:100C5000A24508D91EEB040400F1FF336BD2A24574
:100C600069D90238744440EA0940A0FB0289A4EB28
:100C70000A044C45C2464B4654D351D0002E69D08D
:100C8000B1EB0A0564EB030404FA0CFCFD40FC40E4
:100C90004CEA0505C6E90054002747E7C2F12003E6
:100CA00020FA03F7954001FA02F021FA03F34FEA24
:100CB000154E3843010CB3FBFEF71FFA85F80EFB07
:100CC000173341EA034107FB08F38B4204FA02F4AD
:100CD00007D9691807F1FF3C2FD28B422DD9023F6B
:100CE0002944CB1A81B2B3FBFEF00EFB103341EA6C
:100CF000034100FB08F38B4207D9691800F1FF3C60
:100D000017D28B4215D902382944C91A40EA07473D
:100D10003BE73746304609E70746E7E61846FBE675
:100D20004145ABD2B8EB020A69EB0E02013813461B
:100D3000A4E76046E9E7184695E76746D1E78146AC
:100D40007CE702382C4447E7ACF1020C2B442FE738
:100D5000384608E73746E9E6704700BF80B500AF80
:100D6000024804F0A3FF00BF80BD00BFE061012086
:100D700080B500AF01228021074803F017FD074B23
:100D80001B68074A1360074B5B6A044A1360064BF3
:100D900000221A7000BF80BD000402403C00012008
:100DA00044000120000C00400000012080B500AF8D
:100DB00001224021074803F0F9FC074B1B68074A52
:100DC0001360074B5B6A044A1360064B00221A70DB
:100DD00000BF80BD00040240400001204800012007
:100DE000000C00400000012080B500AF00228021EF
:100DF000034803F0DBFC034B00221A7000BF80BDE8
:100E0000000402400000012080B500AF0022402114
:100E1000034803F0CBFC034B00221A7000BF80BDD7
:100E2000000402400000012080B582B000AF0346FC
:100E3000FB71FB79002B02D1FFF79AFF04E0FB79ED
:100E4000012B01D1FFF7B2FF00BF0837BD4680BDBF
:100E500080B582B000AF0346FB71FB79002B02D155
:100E6000FFF7C2FF04E0FB79012B01D1FFF7CCFFB4
:100E700000BF0837BD4680BD90B585B000AF9F4B21
:100E80005B6AFB6000F0EAFE87ED020A00F010FFEB
:100E90000346002B04D19A4B1B78DBB2002B01D008
:100EA000012300E00023FB71964B1B78002B40F0E0
:100EB0001481FB79002B00F01081934B1B681946BD
:100EC000F86800F0E3FF0246904B9A4205D90122F0
:100ED00080218F4803F06AFC71E08E4A45F60913C1
:100EE00013441B78002B6AD0D7ED027A9FED8A7AE3
:100EF000F4EEC77AF1EE10FA1CD5834B1B68194645
:100F0000F86800F0C3FF04467F4B1A68834B1B68E8
:100F10001946104600F0BAFF024613465B00134420
:100F20005B01DB099C424AD300228021784803F010
:100F30003DFC44E0744B1A68784B1B681946104618
:100F400000F0A4FF024643F698239A421BD96E4B49
:100F50001A68724B1B681946104600F097FF03464B
:100F60001C46694B1B681946F86800F08FFF034662
:100F7000E31A42F6C652934221DC002280216448E3
:100F800003F014FC1BE0604B1B681946F86800F086
:100F90007DFF04465C4B1A68604B1B68194610467F
:100FA00000F074FF02461346DB009B1A9B00DB092E
:100FB0009C4204D300228021554803F0F7FB584B94
:100FC0001B681946F86800F061FF02464F4B9A42D1
:100FD00005D9012240214E4803F0E8FB88E04D4A44
:100FE00045F6091313441B78002B00F08180D7EDE0
:100FF000027A9FED497AF4EEC77AF1EE10FA1CD529
:10100000474B1B681946F86800F040FF0446444B04
:101010001A68444B1B681946104600F037FF024619
:1010200013465B0013445B01DB099C4260D3002242
:101030004021374803F0BAFB5AE0D7ED027A9FED22
:101040003A7AF4EEC77AF1EE10FA28DD344B1A68DA
:10105000344B1B681946104600F018FF024643F651
:1010600098239A421BD92E4B1A682E4B1B6819469F
:10107000104600F00BFF03461C46294B1B6819461F
:10108000F86800F003FF0346E31A42F6C6529342A3
:1010900022DC002240211E4803F088FB1CE0204B8C
:1010A0001B681946F86800F0F1FE04461C4B1A68EC
:1010B0001C4B1B681946104600F0E8FE024613461A
:1010C000DB009B1A9B00DB099C4211D300224021CC
:1010D0000F4803F06BFB0BE00AE0012280210C4873
:1010E00003F064FB01224021094803F05FFB00E0AC
:1010F00000BF00BF1437BD4690BD00BF000C0040CC
:1011000058000120000001203C0001201FA1070021
:10111000000402402C0301200000964344000120FB
:1011200040000120480001200000FA4380B588B04B
:1011300000AF424B5B6A7B610023FB77404A7B69CF
:1011400013604FF00003BB6100F0A6FC87ED040ABA
:1011500000F084FD87ED030A01F05EFD87ED020AD1
:1011600097ED040A00F050FD87ED010A00F0ACFD98
:10117000034607EE903AF8EE677AC7ED007AD7EDAE
:10118000017A9FED307AF4EEC77AF1EE10FA08DCBE
:10119000D7ED017A9FED2C7AF4EEC77AF1EE10FAD2
:1011A00003D80223FB773B69BB61D7ED047A9FED3F
:1011B000257AF4EEC77AF1EE10FA08DCD7ED047A5E
:1011C0009FED217AF4EEC77AF1EE10FA13D8FB7F87
:1011D000002B04D10123FB777B68BB610BE000236C
:1011E000FB771A4BD3ED007AB7EE007A77EE877A69
:1011F000164BC3ED007A164ABB691360D7ED007A2F
:10120000F5EE407AF1EE10FA11D0124A45F60913C4
:1012100013441B78002B0AD0FB7F012B02D1FFF770
:10122000A7FD04E0FB7F022B01D1FFF7BFFD0A4BB6
:1012300001221A7000BF2037BD4680BD000C00405F
:101240004C0001200000B4420000B4C25400012050
:10125000500001202C030120580001200000000054
:1012600090B583B000AF1C4B1B687B601B4B5B6A67
:101270003B601B4B1B681946386800F007FE0246AE
:10128000184B9A4215D9184B1B681846FFF72CF9D2
:101290000FA3D3E90023FFF77FF903460C46184656
:1012A0002146FFF78BFB02460F4B1A600C4A3B6846
:1012B00013607968386800F0E9FD02460B4B9A42EA
:1012C00002D90B4B00221A7000BF0C37BD4690BDEF
:1012D000666666666666EE3F4C000120000C0040C4
:1012E00074000120A086010054000120C0270900DD
:1012F0005800012080B590B000AF4FF00003BB60F4
:101300004FF00003FB6000F0C7FBF0EE407AC7ED42
:10131000027AD7ED027AB0EE670A00F075FCF0EEC3
:10132000407AC7ED037A00237B6300F097FC87EDDA
:101330000C0A00F0A1FC87ED0B0A00F0ABFC87ED76
:101340000A0A01F069FC87ED090A824BFB6300F091
:10135000BBFC034607EE903AF8EE677AC7ED087AD1
:101360007D4B5B6AFB617D4B1B78DBB2BB617C4BC9
:101370001A68BB699A4202D8BB69032B08DCBB69B7
:101380004FF4B25202FB03F3754A134404337B63F8
:101390004FF000037B61D7ED0A7A9FED727AF4EE8D
:1013A000C77AF1EE10FA07D5D7ED0A7A9FED6E7A7B
:1013B00067EE877AC7ED0F7AD7ED0F6A97ED0B7A54
:1013C000C6EE877AC7ED047A684A7B691360684A7B
:1013D0003B691360D7ED087AF5EE407AF1EE10FA2A
:1013E00000F0A9800023BB63A0E0BB6B9B0007F16A
:1013F00040021344383B93ED007AD7ED057AF1EEC5
:10140000677AB4EEE77AF1EE10FA16D5BB6B9B0063
:1014100007F140021344383BD3ED007AB1EE677A0E
:10142000D7ED057A77EE677ABB6B9B0007F1400238
:101430001344403BC3ED007A17E0BB6B9B0007F100
:1014400040021344383BD3ED007A9FED4A7A37EEE1
:10145000677AD7ED057A77EE677ABB6B9B0007F169
:1014600040021344403BC3ED007ABB6B9B0007F185
:1014700040021344403B93ED007AD7ED047A77EEB7
:10148000677AF5EEC07AF1EE10FA10D53A4ABB6BE6
:1014900013441B78002B0FD1374ABB6B1344012236
:1014A0001A70BB6BDBB21846FFF7D2FC04E0324A7D
:1014B000BB6B134400221A70304ABB6B9B00134471
:1014C00093ED007ABB6B9B0007F140021344403B55
:1014D000D3ED007A77EE677AF5EEC07AF1EE10FA86
:1014E00010D5274ABB6B13441B78002B0FD1244A1D
:1014F000BB6B134401221A70BB6BDBB21846FFF7BB
:1015000093FC04E01E4ABB6B134400221A70BB6BB1
:101510009B0007F140021344403B1A681749BB6B1C
:101520009B000B441A60BB6B0133BB63BB6B012B8D
:101530007FF75BAF03E00D4B4FF000021A60114ADA
:101540003B691360FFF78CFEFFF796FC00BF403746
:10155000BD4680BD00803B46000C00406400012079
:101560002C03012000C05A46B76D5B3F5C00012090
:10157000600001200000B443040001206800012045
:101580000800012070000120B0B592B000AF4FF00C
:101590000003FB634FF000037B63AF4BBB63AF4BB8
:1015A0003B63AF4B5B6AFB62AE4AFB6A136001238D
:1015B0007B640BE07B6C013BAB497A6C51F82220D9
:1015C000A94941F823207B6C01337B647B6C072B9A
:1015D000F0D9A54AFB6AD361A34B1B68002B00F02E
:1015E0003982A14B9B693B64A04B01221A70A04B2E
:1015F0001B6801339E4A136001237B6418E09A4AFA
:101600007B6C52F823007B6C013B974A52F82330E5
:10161000194600F03BFC07EE900AF8EE677A97ED6A
:101620000F7A77EE277AC7ED0F7A7B6C01337B64F4
:101630007B6C072BE3D997ED0F7AF1EE0C6AC7EEBE
:10164000267AC7ED0F7A8B4B93ED007AD7ED0F6AB0
:10165000C6EE877A884BC3ED007A864B93ED007A0D
:10166000D7ED0F6AC6EE877AB7EE027AF4EEC77A44
:10167000F1EE10FA26DD814B1B6801337F4A1360BF
:101680007E4B1B68022B2ED1794B1B68BB62784BBB
:1016900000221A60794B00221A60BB6A742B0AD0B0
:1016A000774BD3ED007AB7EE007A77EE877A744BFA
:1016B000C3ED007A17E0734AFB6A1360724B012294
:1016C0001A7010E06A4B1B68732B0CD9684B01220F
:1016D0001A606B4BD3ED007AB7EE007A77EE877A1B
:1016E000674BC3ED007A634AFB6B1360664B1B7854
:1016F000DBB2002B00F062815D4B1B68002B02D037
:10170000012B29D036E0614B614A1A60614B624A75
:101710001A605E4BD3ED007AB0EE087A77EEC77AA6
:101720005E4BC3ED007A5B4BD3ED007AB0EE087AE6
:1017300077EEC77A5A4BC3ED007A396CF86A00F03D
:10174000A5FB0246574BA3FB02235B081946F86A28
:1017500000F09CFB3864B6E0396CF86A00F096FB48
:101760000246504BA3FB02235B081946F86A00F0BF
:101770008DFB3864454BD3ED007AB0EE087A77EEF6
:10178000877AC7ED097AD7ED097A9FED477AF4EEAB
:10179000C77AF1EE10FA09DDD7ED097A9FED437AA9
:1017A00077EEC77A394BC3ED007A02E0374A7B6A9D
:1017B0001360384BD3ED007AB0EE087A77EE877A73
:1017C000C7ED087AD7ED087A9FED377AF4EEC77A3D
:1017D000F1EE10FA09DDD7ED087A9FED347A77EE55
:1017E000C77A2C4BC3ED007A02E02A4A3B6A1360A9
:1017F0002A4BD3ED007AB0EE087A77EE877A274B42
:10180000C3ED007A254BD3ED007A9FED277AF4EEF5
:10181000C77AF1EE10FA09DD204BD3ED007A9FED87
:10182000237A77EEC77A1D4BC3ED007A1C4BD3EDBC
:10183000007AB0EE087A77EE877A194BC3ED007A1A
:10184000174BD3ED007A9FED187AF4EEC77AF1EEDC
:1018500010FA2DDC36E000BF8988883CCDCCCC3D29
:10186000000C00409C00012078000120990001201C
:10187000B8020120BC020120B4000120C0020120F6
:10188000A4000120A000012098000120C402012032
:101890000000E4C2C802012000008442CC02012002
:1018A000D0020120ABAAAAAA000034430000B4432E
:1018B0006A4BD3ED007A9FED6A7A77EEC77A674B71
:1018C000C3ED007A00BF674BD3ED007AF5EE407AA6
:1018D000F1EE10FA02D14FF07E53BB63396CF86A17
:1018E00000F0D4FA07EE900AF8EE677AC7ED0D7AA9
:1018F0005D4BD3ED007A9FED5D7AF4EEC77AF1EEA1
:1019000010FA02DD584B5A4A1A60B7EE007AD7ED4A
:101910000E7A37EE677A544BD3ED007A27EE277AAA
:10192000D7ED0D7ADFED536A67EEA66AD7ED0E7A32
:1019300066EEA77A77EE277A4B4BC3ED007A4A4BD7
:1019400093ED007ADFED496AC6EE877A9FED4A7A19
:1019500067EE877A434BC3ED007AB7EE007AD7ED96
:101960000C7A37EE677A454BD3ED007A27EE277A6B
:10197000D7ED0D7AB0EE086AC7EE866AD7ED0C7A1D
:1019800066EEA77A77EE277A3C4BC3ED007A3C4BA4
:101990001B68BB603B4B1B683B613B4B1B68FB60A0
:1019A0002E4B1B687B613B6C7B60FB6A3B602D4B65
:1019B0001B68BB61314B1B68FB6129E04FF00003E2
:1019C000BB604FF000033B614FF00003FB604FF042
:1019D00000037B6100237B6000233B604FF000032A
:1019E000BB61204B4FF000021A601E4B93ED007A52
:1019F000F7EE006AC6EE877AC7ED077A194B93EDCA
:101A0000007AF7EE006AC6EE877A174BC3ED007ACC
:101A10001E4B1B781E4A5B0113441D463C460FCCEF
:101A20000FC594E80F0085E80F00184B1B785B0189
:101A3000174A1344174A1360144B1B780133DAB268
:101A4000124B1A70114B1B780F2B04D90F4B00222D
:101A50001A7000E000BF4837BD46B0BDD00201207B
:101A60000000B443A8000120B00001200024744904
:101A7000002474490000F04200007042AC000120D4
:101A8000C4020120C8020120CC020120D40201209E
:101A9000B80001200C000120B0B58EB000AF534B50
:101AA0005B6A07EE903AF8EE677AC7ED0B7A504B17
:101AB0001B683C461D460FCD0FC495E80F0084E817
:101AC0000F003B687A681146184600F0DFF907EE10
:101AD000900AF8EE677AC7ED0A7AD7ED0B7AFCEE3A
:101AE000E77A7B68194617EE900A00F0CFF907EE07
:101AF000900AF8EE677AC7ED0B7ABB683B63FB6828
:101B00007B6297ED0C7AD7ED097AB4EEE77AF1EEC5
:101B100010FA07D5D7ED0C7A9FED367A77EE877AF3
:101B2000C7ED0C7A97ED0C7AD7ED097A77EE677AE4
:101B3000C7ED0D7AD7ED0D6A97ED0A7AC6EE877A72
:101B4000C7ED087A97ED087AD7ED0B7A67EE277A1A
:101B500097ED097A77EE277AC7ED0D7A07E0D7ED92
:101B60000D7A9FED247A77EEC77AC7ED0D7AD7ED1F
:101B70000D7A9FED217AF4EEC77AF1EE10FAEEDCE1
:101B80001E4BD3ED007A97ED0D7A77EE677AF5EE7E
:101B9000C07AF1EE10FA0DD5184BD3ED007A97ED1F
:101BA0000D7A77EE677A9FED167AF4EEC77AF1EE4A
:101BB00010FA0DDC114BD3ED007A97ED0D7A77EE2C
:101BC000677A9FED107AF4EEC77AF1EE10FA02DD33
:101BD0000A4B1B687B63094A7B6B13607B6B07EEC8
:101BE000903AB0EE670A3837BD46B0BD000C0040F1
:101BF0000C0001200000B44300003443D80201204F
:101C00000000B4C20000B44280B483B000AF87EDDE
:101C1000010AD7ED017AF5EEC07AF1EE10FA08DD8F
:101C2000D7ED017A9FED0C7A77EEC77AC7ED017A8E
:101C300007E0D7ED017A9FED087A77EE877AC7ED56
:101C4000017A7B6807EE903AB0EE670A0C37BD4622
:101C50005DF8047B704700BF0000344380B400AFE0
:101C6000044B1B6807EE903AB0EE670ABD465DF87C
:101C7000047B7047A800012080B400AF044B1B68B0
:101C800007EE903AB0EE670ABD465DF8047B7047F8
:101C9000AC00012080B400AF044B1B6807EE903A03
:101CA000B0EE670ABD465DF8047B7047B0000120C6
:101CB00080B400AF034B1B78DBB21846BD465DF81D
:101CC000047B70479900012080B400AF034B1B7860
:101CD000DBB21846BD465DF8047B704798000120D2
:101CE00080B584B000AF374B1B68BB60364B1B68B8
:101CF0007B60364B5B6A3B60B968386800F0C6F8B9
:101D000002464CF250339A4221D93B68BB60002313
:101D1000FB6007E02E4AFB68002142F82310FB68B5
:101D20000133FB60FB68072BF4DD2A4B00221A709D
:101D3000294B4FF000021A60274B93ED007AF7EE23
:101D4000006AC6EE877A254BC3ED007A1DE07968FC
:101D5000386800F09BF80246214B9A4215D93B683F
:101D60007B601C4B00221A701B4B4FF000021A6064
:101D70001C4B00221A70184B93ED007AF7EE006AA4
:101D8000C6EE877A154BC3ED007A174B1B681946D0
:101D9000386800F07BF802464CF250339A420CD976
:101DA000124BD3ED007A9FED127A67EE877A0F4BD4
:101DB000C3ED007A0C4A3B68136000BF1037BD4684
:101DC00080BD00BF9C000120A0000120000C00404D
:101DD0007800012098000120A8000120B000012017
:101DE000C0C62D0099000120DC020120A4000120C2
:101DF0003333733F80B588B000AF204B1B6C1F4A54
:101E000043F0080313641D4B1B6C03F008033B6095
:101E10003B681B4B1B4A1A6003F0A8F903465B00A2
:101E2000194AA2FB03239B0C013B154A5360144B38
:101E300000229A60124B4FF0FF32DA60104B002202
:101E40001A610F4803F0DDFE4FF480533B6107F148
:101E5000100319460A4804F0FBF900237B600023B5
:101E6000FB603B1D1946064804F09CFE044803F045
:101E7000F3FE00BF2037BD4680BD00BF00380240E2
:101E8000E0020120000C004083DE1B4380B483B0DD
:101E900000AF786039607A683B689A4203D37A6809
:101EA0003B68D31A03E07A683B68D31A013B1846B3
:101EB0000C37BD465DF8047B7047000080B400AF6E
:101EC000BFF34F8FBFF36F8F0B4B0022C3F850222D
:101ED000BFF34F8FBFF36F8F074B5B69064A43F425
:101EE00000335361BFF34F8FBFF36F8F00BFBD4609
:101EF0005DF8047B704700BF00ED00E080B485B062
:101F000000AF1D4B0022C3F88420BFF34F8F1A4B44
:101F1000D3F880307B607B685B0BC3F30E03FB6000
:101F20007B68DB08C3F30903BB60FB685A0143F617
:101F3000E0731340BA6892070F491343C1F8603247
:101F4000BB685A1EBA60002BEFD1FB685A1EFA60BC
:101F5000002BE5D1BFF34F8F074B5B69064A43F473
:101F600080335361BFF34F8FBFF36F8F00BF1437C0
:101F7000BD465DF8047B704700ED00E080B582B09F
:101F800000AF0346FB80FB88B3F5005F06D0B3F5D6
:101F9000804F06D0B3F5006F06D009E0FFF7F4FAE2
:101FA00006E0FFF7C3F803E0034803F07FFE00BF3D
:101FB00000BF0837BD4680BDAC65012080B582B04A
:101FC00000AF78607B68104A934212D1FFF792F914
:101FD0000E4B1B8801339AB20C4B1A800B4B1B889B
:101FE000B3F5FA7F0BD3FFF77BFE084B00221A8074
:101FF00005E07B68064A934201D100F0C1FD00BFB5
:102000000837BD4680BD00BFE061012020030120EC
:10201000AC65012080B500AFFFF750FFFFF76EFF02
:1020200001F036FA00F0A4F800F038FC00F0E4FB10
:1020300000F0AAFB00F0D6F900F032F900F010FA37
:1020400000F07EFA00F0BEFA00F004FB00F08AF91E
:1020500000F0B4F9FFF7CEFE00F06EFDFEF77EFE55
:10206000034803F0F9FD00F005F800F025F8FAE761
:10207000A061012080B582B000AF0B4B5B6A7B6032
:102080000A4B1B6819467868FFF700FF0246084BA9
:102090009A4205D9054A7B681360064802F0B8FBEE
:1020A00000BF0837BD4680BD000C0040240301205E
:1020B00040420F008062012080B483B000AF2A4B01
:1020C0005B68DBB203F00703FB71284B1B78FA79DE
:1020D0009A4242D0254AFB791370FB79002B1ED01F
:1020E000214B9B68204A43F4805393601E4B9B68AE
:1020F0001D4A43F0040393601B4B9B681A4A43F04C
:1021000008039360184B9B68174A43F020039360C1
:10211000154BDB68144A43F00203D3601DE0124BF9
:102120009B68114A23F4805393600F4B9B680E4ABF
:1021300023F0040393600C4B9B680B4A23F00803C5
:102140009360094B9B68084A23F020039360064B79
:10215000DB68054A23F00203D36000BF0C37BD469D
:102160005DF8047B704700BF002004E028030120D5
:1021700080B5B4B000AF07F1A003302200211846AB
:1021800005F05EFC07F18C0300221A605A609A6029
:10219000DA601A6107F10C0380220021184605F06D
:1021A0004FFC3C4B1B6C3B4A43F080531364394B50
:1021B0001B6C03F08053BB60BB68374B1B68364A0F
:1021C00043F440431360344B1B6803F440437B608B
:1021D0007B680A23C7F8A0300123C7F8AC300A2374
:1021E000C7F8B0300123C7F8B4300223C7F8B830BD
:1021F0000023C7F8BC300823C7F8C030D823C7F87D
:10220000C4300223C7F8C8300923C7F8CC3007F11F
:10221000A003184602F05CFB0346002B01D000F03F
:1022200087FC02F005FB0346002B01D000F080FC88
:102230000F23C7F88C300223C7F890300023C7F86B
:1022400094304FF4A053C7F898304FF48053C7F838
:102250009C3007F18C030721184602F0DDFD034690
:10226000002B01D000F064FC0C4BFB600023BB642E
:102270000023C7F8803007F10C03184602F09EFFD8
:102280000346002B01D000F053FC00BFD037BD4601
:1022900080BD00BF003802400070004040002000B8
:1022A00080B584B000AF3B4600221A605A609A6045
:1022B000DA602A4B2A4A1A60284B4FF480325A605F
:1022C000264B00229A60254B01221A61234B0022E3
:1022D0009A61224B002283F82020204B4FF080523D
:1022E000DA621E4B4FF0E0629A621C4B4FF40062C0
:1022F000DA601A4B0222DA61184B012283F830208F
:10230000164B00225A61154801F028F90346002BAC
:1023100001D000F00DFC0C233B6001237B60002307
:10232000BB603B4619460D4801F05CF90346002BA3
:1023300001D000F0FDFB0D233B6002237B603B4698
:102340001946064801F04EF90346002B01D000F073
:10235000EFFB00BF1037BD4680BD00BFB463012056
:102360000020014080B500AF124B134A1A60114B98
:1023700001221A710F4B01225A710E4B4AF20102CF
:102380009A600C4B0822DA600A4B00221A61094B52
:1023900020225A61074B80229A61064B01221A6261
:1023A000044801F075FC0346002B01D000F0C0FB8F
:1023B00000BF80BD906201200030024080B500AFB8
:1023C000064B074A1A60054803F040FA0346002B03
:1023D00001D000F0ADFB00BF80BD00BF3C65012017
:1023E0000008065080B500AF1B4B1C4A1A601A4B00
:1023F0004FF482725A60184B00229A60164B4FF4C9
:10240000E062DA60144B00221A61134B00225A6119
:10241000114B4FF400729A610F4B0022DA610E4BA0
:1024200000221A620C4B00225A620B4B00229A6265
:10243000094B0722DA62084B00221A63064B082276
:102440005A63054803F02CFA0346002B01D000F034
:102450006FFB00BF80BD00BF3C6101200038004021
:1024600080B58AB000AF07F11C0300221A605A60E1
:102470009A603B4600221A605A609A60DA601A61DC
:102480005A619A612B4B2C4A1A6002F06FFE034688
:102490005B002A4AA2FB03239B0B013B254A5360A6
:1024A000244B00229A60234B41F2FF32DA60214B29
:1024B00000221A611F4B00229A611E4803F020FC83
:1024C0000346002B01D000F033FB0023FB61002307
:1024D0007B6207F11C031946164804F063FB0346B0
:1024E000002B01D000F024FB60233B604FF480738D
:1024F0007B600023BB6000233B613B4608221946FA
:102500000C4803F08DFD0346002B01D000F010FBBA
:102510003B460C221946074803F082FD0346002B78
:1025200001D000F005FB034800F0C0FD00BF2837D4
:10253000BD4680BD1463012000040040D34D6210ED
:1025400080B584B000AF3B4600221A605A609A60A2
:10255000DA60194B194A1A6002F008FE03465B0064
:10256000174AA2FB03239B0C013B134A5360124BF7
:1025700000229A60104B0E22DA600F4B00221A6183
:102580000D4B00229A610C4803F03BFB0346002BE5
:1025900001D000F0CDFA4FF480533B603B46194622
:1025A000054803F055FE0346002B01D000F0C0FAA9
:1025B00000BF1037BD4680BDE0610120000800402B
:1025C00083DE1B4380B584B000AF3B1D00221A6040
:1025D0005A609A601C4B1D4A1A601B4B00225A60BD
:1025E000194B00229A6002F0C1FD03465B00184AB5
:1025F000A2FB0323DB0C013B134AD360124B0022E6
:102600009A61114803F0FDFA0346002B01D000F057
:102610008FFA08210C4803F09EFB0346002B01D0E3
:1026200000F086FA20237B600023FB603B1D1946E7
:10263000054804F0B7FA0346002B01D000F078FA01
:1026400000BF1037BD4680BDAC65012000140040BE
:1026500083DE1B4380B596B000AF07F14C03002228
:102660001A605A609A6007F1300300221A605A60BB
:102670009A60DA601A615A619A613B1D2C2200212E
:10268000184605F0DDF93D4B3D4A1A6002F082FD27
:1026900003465B003B4AA2FB03239B0C013B374AEA
:1026A0005360364B00229A60344B3122DA60334B50
:1026B00000221A61314B00225A61304B00229A618C
:1026C0002E4803F01DFB0346002B01D000F030FA2A
:1026D0002023FB6400233B6500237B6507F14C034B
:1026E0001946264804F05EFA0346002B01D000F09C
:1026F0001FFA60233B6301237B630023BB63082332
:10270000FB6300233B6400237B644FF40073BB64D2
:1027100007F1300308221946184803F081FC0346EC
:10272000002B01D000F004FA00237B600023BB6083
:102730000023FB6000233B6100237B614FF40053C7
:10274000BB610023FB6100233B624FF000737B629F
:102750000023BB620023FB623B1D1946074804F0BF
:10276000AFFA0346002B01D000F0E2F9034800F075
:102770009DFC00BF5837BD4680BD00BFA061012051
:102780000004014083DE1B4380B500AF174B184A9D
:102790001A60164B174A5A60144B00229A60134B6A
:1027A0000022DA60114B00221A61104B0C225A6190
:1027B0000E4B00229A610D4B0022DA610B4B002276
:1027C0001A620A4B40225A62084B4FF480121A6474
:1027D000064B4FF4C0025A64044804F032FB03462F
:1027E000002B01D000F0A4F900BF80BD5C64012083
:1027F00000100140987F330080B582B000AF264BB7
:102800001B6B254A43F480031363234B1B6B03F4B8
:1028100080037B607B68204B1B6B1F4A43F40013D3
:1028200013631D4B1B6B03F400133B603B680022DA
:1028300005210D2001F0F5F90D2001F00EFA00221E
:102840000F210E2001F0EDF90E2001F006FA002212
:102850000F210F2001F0E5F90F2001F0FEF9002211
:102860000621382001F0DDF9382001F0F6F90022C8
:1028700008213A2001F0D5F93A2001F0EEF90022C2
:102880000921462001F0CDF9462001F0E6F900BF0C
:102890000837BD4680BD00BF0038024080B58AB011
:1028A00000AF07F1140300221A605A609A60DA60E0
:1028B0001A61974B1B6B964A43F004031363944BC6
:1028C0001B6B03F004033B613B69914B1B6B904A0C
:1028D00043F0010313638E4B1B6B03F00103FB609A
:1028E000FB688B4B1B6B8A4A43F002031363884BD4
:1028F0001B6B03F00203BB60BB68854B1B6B844AF8
:1029000043F008031363824B1B6B03F008037B60E7
:102910007B68002240F241417E4801F047FF0122DE
:10292000C0217D4801F042FF01229021794801F049
:102930003DFF01220121784801F038FF002241F2D9
:102940000471754801F032FF00224FF400417348D2
:1029500001F02CFF00220421714801F027FF4FF401
:1029600000537B616F4BBB610223FB6107F11403D2
:102970001946684801F080FD4FF480437B616A4B43
:10298000BB610123FB6107F114031946614801F0A3
:1029900073FD4FF400437B610023BB610123FB61A6
:1029A00007F1140319465B4801F066FD40F29143BC
:1029B0007B610123BB610023FB6100233B6207F1C4
:1029C00014031946534801F057FDFF237B61002390
:1029D000BB610223FB6107F1140319464F4801F064
:1029E0004BFD40F205737B610123BB610023FB615A
:1029F00003233B6207F114031946474801F03CFDED
:102A00004FF400637B61494BBB610223FB6107F11B
:102A100014031946404801F02FFD4FF480537B61A9
:102A20000123BB610023FB6103233B6207F1140315
:102A30001946394801F020FD40237B610123BB6129
:102A40000023FB6103233B6207F11403194631485D
:102A500001F012FD4FF410637B610023BB61012381
:102A6000FB6107F1140319462C4801F005FD4FF4F2
:102A700000437B610123BB610023FB6100233B62B8
:102A800007F114031946254801F0F6FC4FF4C05332
:102A90007B610023BB610023FB6107F1140319462E
:102AA0001C4801F0E9FC04237B610123BB61002386
:102AB000FB6100233B6207F114031946184801F03B
:102AC000DBFC30237B610023BB610123FB6107F149
:102AD00014031946104801F0CFFCC0237B61012389
:102AE000BB610023FB6103233B6207F1140319461A
:102AF000094801F0C1FC00220221282001F091F8D0
:102B0000282001F0AAF800BF2837BD4680BD00BFCD
:102B10000038024000080240000402400000024069
:102B2000000C0240000031100000111000002110C4
:102B300080B400AF72B6FEE780B500AF002204217A
:102B40000C4801F033FE00224FF48061094801F087
:102B50002DFE00221021084801F028FE002201214C
:102B6000044801F023FE0821044803F0EBFF00BFF6
:102B700080BD00BF0004024000080240A0610120A7
:102B800080B485B000AF1E4B1B69FB72FB7A07EE69
:102B9000903AB8EEE77ADFED1B6AC7EE267AC7ED0A
:102BA000017AD7ED017AB6EE007A77EEC77A9FED1B
:102BB000167A67EE877AC7ED037AD7ED037AF5EEDA
:102BC000C07AF1EE10FA02D54FF00003FB600F4B14
:102BD000D3ED007A9FED0E7A27EE877AD7ED037A50
:102BE000DFED0C6A67EEA67A77EE277A074BC3ED26
:102BF000007A00BF1437BD465DF8047B704700BF04
:102C00000000024000004842005AC7461000012060
:102C10003333733FCDCC4C3D80B400AF044B1B68C5
:102C200007EE903AB0EE670ABD465DF8047B704748
:102C30001000012080B483B000AF0F4B1B6C0E4A14
:102C400043F0805313640C4B1B6C03F080537B6088
:102C50007B68094B5B6C084A43F480435364064B22
:102C60005B6C03F480433B603B6800BF0C37BD46A0
:102C70005DF8047B704700BF0038024080B58AB021
:102C800000AF786007F1140300221A605A609A605E
:102C9000DA601A617B681B68334A93425FD1334B19
:102CA0005B6C324A43F480735364304B5B6C03F4C7
:102CB00080733B613B692D4B1B6B2C4A43F0010336
:102CC00013632A4B1B6B03F00103FB60FB68274B6C
:102CD0001B6B264A43F004031363244B1B6B03F066
:102CE0000403BB60BB680C237B610323BB6100232F
:102CF000FB6107F1140319461D4801F0BDFB1D4B94
:102D00001D4A1A601B4B00225A601A4B00229A601F
:102D1000184B0022DA60174B4FF480621A61154B92
:102D20004FF400625A61134B4FF400529A61114BF9
:102D30004FF48072DA610F4B00221A620D4B0022B1
:102D40005A620C4801F08EF80346002B01D0FFF7C1
:102D5000EFFE7B68074A9A63064A7B68936300BF6D
:102D60002837BD4680BD00BF00200140003802402A
:102D700000080240DC6401201064024080B485B089
:102D800000AF78607B681B680A4A93420BD10A4BFC
:102D90001B6B094A43F480531363074B1B6B03F40B
:102DA0008053FB60FB6800BF1437BD465DF8047BB1
:102DB000704700BF003002400038024080B485B048
:102DC00000AF78607B681B680A4A93420BD10A4BBC
:102DD0005B6B094A43F040035363074B5B6B03F0A3
:102DE0004003FB60FB6800BF1437BD465DF8047B01
:102DF000704700BF000806500038024080B58AB016
:102E000000AF786007F1140300221A605A609A60DC
:102E1000DA601A617B681B68494A934240F08B80F4
:102E2000484B1B6C474A43F480431364454B1B6C6F
:102E300003F480433B613B69424B1B6B414A43F0C7
:102E4000020313633F4B1B6B03F00203FB60FB6841
:102E50004FF460437B610223BB610123FB610323C9
:102E60003B6205237B6207F114031946364801F0E3
:102E700003FB364B364A1A60344B00225A60334B00
:102E800040229A60314B0022DA60304B4FF480626E
:102E90001A612E4B00225A612C4B00229A612B4B57
:102EA0000022DA61294B00221A62284B00225A6262
:102EB000264800F0D7FF0346002B01D0FFF738FE6D
:102EC0007B68224A5A65214A7B689363214B224AD8
:102ED0001A60204B00225A601E4B00229A601D4B44
:102EE0000022DA601B4B4FF480621A61194B0022FA
:102EF0005A61184B00229A61164B0022DA61154B79
:102F000000221A62134B00225A62124800F0AAFFF4
:102F10000346002B01D0FFF70BFE7B680D4A9A6534
:102F20000C4A7B68936300220E21242000F079FE76
:102F3000242000F092FE00BF2837BD4680BD00BFB0
:102F40000038004000380240000402404C65012077
:102F500070600240B46201205860024080B485B0C5
:102F600000AF78607B681B68134A93420CD1134B07
:102F70001B6C124A43F002031364104B1B6C03F0EA
:102F80000203FB60FB6810E07B681B680C4A9342FD
:102F90000BD10A4B5B6C094A43F002035364074BA5
:102FA0005B6C03F00203BB60BB6800BF1437BD4617
:102FB0005DF8047B704700BF000400400038024009
:102FC0000004014080B584B000AF78607B681B6866
:102FD000314A934214D1314B1B6C304A43F0040305
:102FE00013642E4B1B6C03F00403FB60FB68002290
:102FF00003211E2000F015FE1E2000F02EFE47E0EB
:103000007B681B68264A934242D1244B1B6C234A9F
:1030100043F020031364214B1B6C03F02003BB60BF
:10302000BB68204B204A1A601E4B4FF000725A605A
:103030001C4B00229A601B4B0022DA60194B4FF4A4
:1030400080621A61174B00225A61164B00229A6166
:10305000144B4FF48072DA61124B00221A62114B4A
:1030600000225A620F4800F0FDFE0346002B01D0FB
:10307000FFF75EFD7B680B4A1A620A4A7B6893631E
:1030800000220521372000F0CCFD372000F0E5FDBF
:1030900000BF1037BD4680BD000800400038024028
:1030A00000140040206201204060024080B58AB0D8
:1030B00000AF786007F1140300221A605A609A602A
:1030C000DA601A617B681B68224A93421DD1224B49
:1030D0001B6B214A43F0040313631F4B1B6B03F06C
:1030E00004033B613B694FF440737B610223BB6186
:1030F0000223FB6103233B6202237B6207F114037B
:103100001946164801F0B8F920E07B681B68144A9C
:1031100093421BD1104B1B6B0F4A43F00203136306
:103120000D4B1B6B03F00203FB60FB6802237B610A
:103130000223BB610123FB6103233B6203237B6208
:1031400007F114031946074801F096F900BF283724
:10315000BD4680BD00040040003802400008024027
:10316000000401400004024080B58AB000AF7860DE
:1031700007F1140300221A605A609A60DA601A613B
:103180007B681B684A4A934240F08D80494B5B6CD8
:10319000484A43F010035364464B5B6C03F0100342
:1031A0003B613B69434B1B6B424A43F00103136392
:1031B000404B1B6B03F00103FB60FB684FF4C063E3
:1031C0007B610223BB610123FB6103233B62072375
:1031D0007B6207F114031946374801F04DF9374B6C
:1031E000374A1A60354B4FF000625A60334B002269
:1031F0009A60324B0022DA60304B4FF480621A61E1
:103200002E4B00225A612D4B00229A612B4B00223B
:10321000DA612A4B00221A62284B00225A622748A0
:1032200000F020FE0346002B01D0FFF781FC7B68F5
:10323000224ADA66214A7B689363224B224A1A604B
:10324000204B4FF000625A601E4B40229A601D4B8B
:103250000022DA601B4B4FF480621A61194B002286
:103260005A61184B00229A61164B0022DA61154B05
:1032700000221A62134B00225A62124800F0F2FD3B
:103280000346002B01D0FFF753FC7B680D4A9A667A
:103290000C4A7B68936300220721252000F0C1FCC3
:1032A000252000F0DAFC00BF2837BD4680BD00BFF6
:1032B000001001400038024000000240FC63012081
:1032C0004064024054630120B864024080B400AFFF
:1032D000FEE780B400AFFEE780B400AFFEE780B445
:1032E00000AFFEE780B400AFFEE780B400AF00BFE0
:1032F000BD465DF8047B704780B400AF00BFBD469B
:103300005DF8047B704780B400AF00BFBD465DF838
:10331000047B704780B500AF00F000F900BF80BDAE
:1033200080B500AF024800F06DFE00BF80BD00BF59
:103330002062012080B500AF024800F063FE00BFAC
:1033400080BD00BFB462012080B500AF024800F02C
:1033500059FE00BF80BD00BF4C65012080B500AFA5
:10336000024802F02FFB00BF80BD00BF3C6101207E
:1033700080B500AF024803F0B3FD00BF80BD00BFC1
:103380005C64012080B500AF4FF4006001F028FAC2
:103390004FF4005001F024FA4FF4804001F020FA7D
:1033A0004FF4004001F01CFA00BF80BD80B500AFB3
:1033B000024802F016FD00BF80BD00BFE0610120A1
:1033C00080B500AF024802F00CFD00BF80BD00BF19
:1033D000AC65012080B500AF024800F013FE00BFCD
:1033E00080BD00BFDC64012080B500AF024800F062
:1033F00009FE00BF80BD00BFFC63012080B500AFA7
:10340000024800F0FFFD00BF80BD00BF54630120F3
:1034100080B400AF084BD3F88830074A43F47003F8
:10342000C2F88830044B4FF000629A6000BFBD467E
:103430005DF8047B704700BF00ED00E0DFF834D09A
:10344000002103E00C4B5B58435004310B480C4BFC
:1034500042189A42F6D30B4A02E0002342F8043B9A
:10346000094B9A42F9D3FFF7D3FF04F0C5FAFEF7F0
:10347000D1FD704700000420987A00080000012068
:103480002000012020000120F0650120FEE700005F
:1034900080B500AF084B1B68074A43F40073136004
:1034A000032000F0B3FB002000F008F8FFF7C2FB98
:1034B0000023184680BD00BF003C024080B582B0AA
:1034C00000AF7860124B1A68124B1B7819464FF404
:1034D0007A73B3FBF1F3B2FBF3F3184600F0CBFBC6
:1034E0000346002B01D001230EE07B680F2B0AD886
:1034F000002279684FF0FF3000F093FB064A7B68AA
:103500001360002300E0012318460837BD4680BD44
:10351000140001201C0001201800012080B400AF1D
:10352000064B1B781A46064B1B681344044A13606B
:1035300000BFBD465DF8047B704700BF1C00012042
:10354000EC65012080B400AF034B1B681846BD46F4
:103550005DF8047B704700BFEC65012080B584B046
:1035600000AF78600023FB737B68002B01D101233F
:1035700031E07B681B6C002B09D17868FFF77EFB7C
:103580007B6800225A647B68002283F83C207B68B9
:103590001B6C03F01003002B16D17B681A6C104BC8
:1035A000134043F002027B681A64786800F064F903
:1035B0007B6800225A647B681B6C23F0030343F092
:1035C00001027B681A6401E00123FB737B6800221F
:1035D00083F83C20FB7B18461037BD4680BD00BFFA
:1035E000FDEEFFFF80B485B000AF78603960002346
:1035F000FB607B6893F83C30012B01D102232AE168
:103600007B68012283F83C203B681B68092B3AD970
:103610003B681B68B3F1004F35D07B681B68D968E5
:103620003B681B689BB21A4613465B0013441E3B63
:10363000072202FA03F3DA437B681B680A40DA6068
:103640003B681B68874A93420AD17B681B68D9682C
:103650003B689B681A067B681B680A43DA6035E0A2
:103660007B681B68D9683B689A683B681B689BB29B
:10367000184603465B0003441E3B9A407B681B6868
:103680000A43DA6022E07B681B6819693B681B68A3
:103690009BB21A4613465B001344072202FA03F357
:1036A000DA437B681B680A401A617B681B681969EA
:1036B0003B689A683B681B689BB2184603465B00F0
:1036C00003449A407B681B680A431A613B685B6845
:1036D000062B24D87B681B68596B3B685A681346D5
:1036E0009B001344053B1F2202FA03F3DA437B6875
:1036F0001B680A405A637B681B68596B3B681B68F0
:103700009BB218463B685A6813469B001344053B1E
:1037100000FA03F27B681B680A435A634CE03B687B
:103720005B680C2B24D87B681B68196B3B685A6854
:1037300013469B001344233B1F2202FA03F3DA4390
:103740007B681B680A401A637B681B68196B3B68BF
:103750001B689BB218463B685A6813469B0013448B
:10376000233B00FA03F27B681B680A431A6323E0D9
:103770007B681B68D96A3B685A6813469B001344F0
:10378000413B1F2202FA03F3DA437B681B680A40BD
:10379000DA627B681B68D96A3B681B689BB2184673
:1037A0003B685A6813469B001344413B00FA03F2FE
:1037B0007B681B680A43DA627B681B682A4A93426B
:1037C0000AD13B681B68B3F1004F05D1274B5B68FA
:1037D000264A23F4400353607B681B68224A9342C5
:1037E00009D13B681B68122B05D1204B5B681F4A2F
:1037F00043F4800353607B681B681B4A934225D1C6
:103800003B681B68174A934203D03B681B68112B27
:103810001CD1164B5B68154A43F4000353603B68A8
:103820001B68104A934211D1114B1B68114AA2FB2D
:1038300003239A0C13469B0013445B00FB6002E0D9
:10384000FB68013BFB60FB68002BF9D17B68002221
:1038500083F83C20002318461437BD465DF8047BEE
:10386000704700BF120000100020014000230140FB
:103870001400012083DE1B4380B483B000AF786066
:10388000784B5B68774A23F440335360754B5A6832
:103890007B685B68734913434B607B681B685A689D
:1038A0007B681B6822F480725A607B681B685968C9
:1038B0007B681B691A027B681B680A435A607B6835
:1038C0001B685A687B681B6822F040725A607B68EC
:1038D0001B6859687B689A687B681B680A435A6052
:1038E0007B681B689A687B681B6822F400629A6098
:1038F0007B681B6899687B68DA687B681B680A4389
:103900009A607B689B6A584A934222D07B681B6806
:103910009A687B681B6822F070629A607B681B68FB
:1039200099687B689A6A7B681B680A439A607B681F
:103930001B689A687B681B6822F040529A607B681B
:103940001B6899687B68DA6A7B681B680A439A601F
:103950000FE07B681B689A687B681B6822F07062C6
:103960009A607B681B689A687B681B6822F04052EB
:103970009A607B681B689A687B681B6822F0020269
:103980009A607B681B6899687B689B695A007B68B2
:103990001B680A439A607B6893F82030002B1BD089
:1039A0007B681B685A687B681B6842F400625A6037
:1039B0007B681B685A687B681B6822F460425A6007
:1039C0007B681B6859687B685B6A013B5A037B68AC
:1039D0001B680A435A6007E07B681B685A687B686B
:1039E0001B6822F400625A607B681B68DA6A7B6895
:1039F0001B6822F47002DA627B681B68D96A7B68F4
:103A0000DB69013B1A057B681B680A43DA627B6845
:103A10001B689A687B681B6822F400729A607B6856
:103A20001B6899687B6893F830305A027B681B6882
:103A30000A439A607B681B689A687B681B6822F45B
:103A400080629A607B681B6899687B685B699A02F0
:103A50007B681B680A439A6000BF0C37BD465DF85F
:103A6000047B7047002301400100000F80B485B043
:103A700000AF78607B6803F00703FB600B4BDB68EB
:103A8000BB60BA684FF6FF031340BB60FB681A02C5
:103A9000BB681A43064B1343BB60044ABB68D36040
:103AA00000BF1437BD465DF8047B704700ED00E0B1
:103AB0000000FA0580B400AF044BDB681B0A03F07A
:103AC00007031846BD465DF8047B704700ED00E033
:103AD00080B483B000AF0346FB7197F90730002B29
:103AE0000BDBFB7903F01F02074997F907305B09ED
:103AF000012000FA02F241F8232000BF0C37BD4636
:103B00005DF8047B704700BF00E100E080B483B043
:103B100000AF03463960FB7197F90730002B0ADBD1
:103B20003B68DAB20C4997F907301201D2B20B4464
:103B300083F800230AE03B68DAB20849FB7903F016
:103B40000F03043B1201D2B20B441A7600BF0C37AC
:103B5000BD465DF8047B704700E100E000ED00E049
:103B600080B489B000AFF860B9607A60FB6803F098
:103B70000703FB61FB69C3F10703042B28BF042380
:103B8000BB61FB690433062B02D9FB69033B00E0F0
:103B900000237B614FF0FF32BB6902FA03F3DA4383
:103BA000BB681A407B699A404FF0FF317B6901FA8C
:103BB00003F3D9437B680B40134318462437BD46B3
:103BC0005DF8047B7047000080B582B000AF78607C
:103BD0007B68013BB3F1807F01D301230FE00A4AE8
:103BE0007B68013B53600F214FF0FF30FFF78EFFE2
:103BF000054B00229A60044B07221A6000231846E6
:103C00000837BD4680BD00BF10E000E080B582B03F
:103C100000AF78607868FFF729FF00BF0837BD461E
:103C200080BD80B586B000AF0346B9607A60FB7393
:103C300000237B61FFF73EFF78617A68B968786995
:103C4000FFF78EFF024697F90F3011461846FFF72F
:103C50005DFF00BF1837BD4680BD80B582B000AFA4
:103C60000346FB7197F907301846FFF731FF00BF95
:103C70000837BD4680BD80B582B000AF78607868F7
:103C8000FFF7A2FF034618460837BD4680BD000077
:103C900080B582B000AF78607B68002B01D1012332
:103CA00054E07B685B7FDBB2002B05D17B68002290
:103CB0001A777868FFF762F87B6802225A777B6888
:103CC0001B79002B0CD17B681B68224A5A617B68E8
:103CD0001B689A687B681B6822F018029A600CE0E7
:103CE0007B6899687B68DB681A46786800F034F86E
:103CF0000346002B01D0012328E07B685B79002B71
:103D000005D17B681B684FF0FF321A6104E07B68C5
:103D10001B687A6812691A617B681B689B6823F0CC
:103D200060017B685A697B681B680A439A607B68FC
:103D30001B689B6823F080017B689A697B681B681D
:103D40000A439A607B6801225A7700231846083795
:103D5000BD4680BDB71DC10480B487B000AFF86018
:103D6000B9607A600023FB751F233B6100BF3B698C
:103D70005A1E3A61002B09D03B6903F01F03BA6851
:103D800022FA03F303F00103002BF0D07B68182B19
:103D900046D801A252F823F0273E0008213E000831
:103DA000213E0008213E0008213E0008213E000877
:103DB000213E0008213E0008153E0008213E000873
:103DC000213E0008213E0008213E0008213E000857
:103DD000213E0008213E0008093E0008213E00085F
:103DE000213E0008213E0008213E0008213E000837
:103DF000213E0008213E0008FD3D00083B69062BDE
:103E000013D90123FB7510E03B69072B0FD9012360
:103E1000FB750CE03B690F2B0BD90123FB7508E008
:103E20000123FB7506E000BF04E000BF02E000BF15
:103E300000E000BFFB7D002B0DD1FB681B68BA685A
:103E40005A61FB681B689B6823F01801FB681B68BC
:103E50007A680A439A60FB7D18461C37BD465DF8B8
:103E6000047B704780B586B000AF786000237B612B
:103E7000FFF768FB38617B68002B01D1012399E0D3
:103E80007B68002283F834207B68022283F8352087
:103E90007B681B681A687B681B6822F001021A6045
:103EA0000FE0FFF74FFB02463B69D31A052B08D9F9
:103EB0007B6820225A657B68032283F83520032320
:103EC00078E07B681B681B6803F00103002BE8D1D6
:103ED0007B681B681B687B617A69384B13407B6188
:103EE0007B685A687B689B681A437B68DB681A4367
:103EF0007B681B691A437B685B691A437B689B6913
:103F00001A437B68DB691A437B681B6A13437A692F
:103F100013437B617B685B6A042B07D17B68DA6A99
:103F20007B681B6B13437A6913437B617B681B6857
:103F30007A691A607B681B685B697B617B6923F027
:103F400007037B617B685B6A7A6913437B617B68EB
:103F50005B6A042B17D17B689B6A7A6913437B6188
:103F60007B68DB6A002B0ED0786800F00BFA034602
:103F7000002B08D07B6840225A657B68012283F8B9
:103F80003520012316E07B681B687A695A617868DE
:103F900000F0C2F90346FB607B68DB6D3F229A406C
:103FA000FB689A607B6800225A657B68012283F86F
:103FB0003520002318461837BD4680BD3F8010E0ED
:103FC00080B483B000AF78607B6893F83530DBB2A3
:103FD000022B04D07B6880225A6501230CE07B68A9
:103FE000052283F835207B681B681A687B681B688C
:103FF00022F001021A60002318460C37BD465DF816
:10400000047B704780B586B000AF78600023BB604A
:10401000924B1B68924AA2FB03239B0A7B617B683D
:104020009B6D3B613B691B68FB607B68DB6D082215
:104030009A40FB681340002B1AD07B681B681B68F2
:1040400003F00403002B13D07B681B681A687B689D
:104050001B6822F004021A607B68DB6D08229A401C
:104060003B699A607B685B6D43F001027B685A652F
:104070007B68DB6D01229A40FB681340002B12D055
:104080007B681B685B6903F08003002B0BD07B68A7
:10409000DB6D01229A403B699A607B685B6D43F05F
:1040A00002027B685A657B68DB6D04229A40FB68DC
:1040B0001340002B12D07B681B681B6803F00203BF
:1040C000002B0BD07B68DB6D04229A403B699A6021
:1040D0007B685B6D43F004027B685A657B68DB6D2F
:1040E00010229A40FB681340002B43D07B681B686A
:1040F0001B6803F00803002B3CD07B68DB6D1022AB
:104100009A403B699A607B681B681B6803F48023B4
:10411000002B18D07B681B681B6803F40023002B5E
:1041200008D17B681B6C002B24D07B681B6C7868E3
:1041300098471FE07B689B6C002B1BD07B689B6CB7
:104140007868984716E07B681B681B6803F48073E7
:10415000002B07D17B681B681A687B681B6822F0FC
:1041600008021A607B681B6C002B03D07B681B6CF9
:10417000786898477B68DB6D20229A40FB68134083
:10418000002B00F08E807B681B681B6803F0100317
:10419000002B00F086807B68DB6D20229A403B6913
:1041A0009A607B6893F83530DBB2052B36D17B689B
:1041B0001B681A687B681B6822F016021A607B680D
:1041C0001B685A697B681B6822F080025A617B6811
:1041D0001B6C002B03D17B689B6C002B07D07B688A
:1041E0001B681A687B681B6822F008021A607B68EB
:1041F000DB6D3F229A403B699A607B68002283F81E
:1042000034207B68012283F835207B681B6D002BEE
:104210007DD07B681B6D7868984778E07B681B6869
:104220001B6803F48023002B1CD07B681B681B6871
:1042300003F40023002B08D17B685B6C002B30D08B
:104240007B685B6C786898472BE07B68DB6B002BA6
:1042500027D07B68DB6B7868984722E01400012048
:10426000B5814E1B7B681B681B6803F48073002BB1
:104270000FD17B681B681A687B681B6822F01002EC
:104280001A607B68002283F834207B68012283F85F
:1042900035207B68DB6B002B03D07B68DB6B786899
:1042A00098477B685B6D002B32D07B685B6D03F0B9
:1042B0000103002B22D07B68052283F835207B6820
:1042C0001B681A687B681B6822F001021A60BB68D1
:1042D0000133BB607A699A4207D37B681B681B680D
:1042E00003F00103002BF2D100E000BF7B68002245
:1042F00083F834207B68012283F835207B68DB6CEF
:10430000002B05D07B68DB6C7868984700E000BF25
:104310001837BD4680BD00BF80B485B000AF78605F
:104320007B681B68DBB2103B134AA2FB03231B090B
:10433000FB60124AFB6813441B781A467B68DA65F7
:10434000FB68032B08D97B681B681A460C4B13408B
:104350001A1D7B689A6506E07B681B681A46084B45
:1043600013407A6893657B689B6D18461437BD4689
:104370005DF8047B704700BFABAAAAAA807A000848
:1043800000FCFFFF80B485B000AF78600023FB73B2
:104390007B689B6ABB607B689B69002B1FD1BB68F5
:1043A000032B55D801A252F823F000BFBD430008EB
:1043B000CF430008BD430008514400087B68DB6A16
:1043C00003F08073002B45D00123FB7342E07B6830
:1043D000DB6AB3F1C07F3FD10123FB733CE07B6814
:1043E0009B69B3F5005F21D1BB68032B36D801A2CE
:1043F00052F823F0054400080B4400080544000867
:104400001D4400080123FB732FE07B68DB6A03F087
:104410008073002B24D00123FB7321E07B68DB6ACF
:10442000B3F1C07F1ED10123FB731BE0BB68022BDD
:1044300002D9032B03D018E00123FB7315E07B683E
:10444000DB6A03F08073002B0ED00123FB730BE0BB
:1044500000BF0AE000BF08E000BF06E000BF04E0C4
:1044600000BF02E000BF00E000BFFB7B184614372E
:10447000BD465DF8047B704780B489B000AF7860BA
:1044800039600023FB6100237B6100233B61002333
:10449000BB610023FB6169E10122FB6902FA03F3BE
:1044A0007B613B681B687A6913403B613A697B69B1
:1044B0009A4240F058813B685B68012B0BD03B6807
:1044C0005B68022B07D03B685B68112B03D03B680D
:1044D0005B68122B30D17B689B68BB61FB695B001A
:1044E000032202FA03F3DB43BA691340BB613B6862
:1044F000DA68FB695B0002FA03F3BA691343BB6134
:104500007B68BA699A607B685B68BB610122FB6962
:1045100002FA03F3DB43BA691340BB613B685B6893
:104520001B0903F00102FB6902FA03F3BA691343A2
:10453000BB617B68BA695A607B68DB68BB61FB69F9
:104540005B00032202FA03F3DB43BA691340BB6149
:104550003B689A68FB695B0002FA03F3BA6913438C
:10456000BB617B68BA69DA603B685B68022B03D089
:104570003B685B68122B23D1FB69DA087B68083241
:1045800053F82230BB61FB6903F007039B000F2245
:1045900002FA03F3DB43BA691340BB613B681A6953
:1045A000FB6903F007039B0002FA03F3BA691343A4
:1045B000BB61FB69DA087B680832B96943F82210ED
:1045C0007B681B68BB61FB695B00032202FA03F393
:1045D000DB43BA691340BB613B685B6803F00302CD
:1045E000FB695B0002FA03F3BA691343BB617B68A2
:1045F000BA691A603B685B6803F08053002B00F0D7
:10460000B2805F4B5B6C5E4A43F4804353645C4B07
:104610005B6C03F48043FB60FB685A4AFB699B08B0
:10462000023352F82330BB61FB6903F003039B00A4
:104630000F2202FA03F3DB43BA691340BB617B68C4
:10464000514A93422BD07B68504A934225D07B68D5
:104650004F4A93421FD07B684E4A934219D07B68E1
:104660004D4A934213D07B684C4A93420DD07B68ED
:104670004B4A934207D07B684A4A934201D10723B1
:104680000EE008230CE006230AE0052308E00423DB
:1046900006E0032304E0022302E0012300E00023FC
:1046A000FA6902F0030292009340BA691343BB61B6
:1046B0003449FB699B080233BA6941F823203A4B1D
:1046C0001B68BB613B69DB43BA691340BB613B6854
:1046D0005B6803F48033002B03D0BA693B69134352
:1046E000BB61314ABB6913602F4B5B68BB613B699F
:1046F000DB43BA691340BB613B685B6803F400337A
:10470000002B03D0BA693B691343BB61264ABB69DE
:104710005360254B9B68BB613B69DB43BA6913401F
:10472000BB613B685B6803F48013002B03D0BA695C
:104730003B691343BB611C4ABB6993601A4BDB683E
:10474000BB613B69DB43BA691340BB613B685B6893
:1047500003F40013002B03D0BA693B691343BB6118
:10476000114ABB69D360FB690133FB61FB690F2B05
:104770007FF692AE00BF2437BD465DF8047B7047DC
:1047800000380240003801400000024000040240AE
:1047900000080240000C02400010024000140240D9
:1047A00000180240001C0240003C014080B483B06D
:1047B00000AF78600B467B8013467B707B78002BC4
:1047C00003D07A887B689A6103E07B881A047B684F
:1047D0009A6100BF0C37BD465DF8047B704700004E
:1047E00080B582B000AF0346FB80084B5A69FB8856
:1047F0001340002B06D0054AFB885361FB881846FE
:10480000FDF7BCFB00BF0837BD4680BD003C014042
:1048100080B483B000AF78607B681B684AF6AA2238
:104820001A60002318460C37BD465DF8047B7047BC
:1048300080B582B000AF00237B60234B1B6C224A03
:1048400043F080531364204B1B6C03F080533B6098
:104850003B681E4B1B681D4A43F480331360FEF710
:1048600071FE786009E0FEF76DFE02467B68D31AA0
:10487000B3F57A7F01D9032322E0144B5B6803F47C
:104880008033B3F5803FEED1104B1B680F4A43F4E1
:1048900000331360FEF756FE786009E0FEF752FE23
:1048A00002467B68D31AB3F57A7F01D9032307E068
:1048B000064B5B6803F40033B3F5003FEED10023F1
:1048C00018460837BD4680BD0038024000700040E1
:1048D00080B586B000AF78600023FB757B68002B45
:1048E00001D1012391E27B681B6803F00103002BD7
:1048F00000F08780964B9B6803F00C03042B0CD0D0
:10490000934B9B6803F00C03082B12D1904B5B6810
:1049100003F48003B3F5800F0BD18D4B1B6803F4B8
:104920000033002B6CD07B685B68002B68D10123BF
:104930006BE27B685B68B3F5803F06D1844B1B68F4
:10494000834A43F4803313602EE07B685B68002B5E
:104950000CD17F4B1B687E4A23F4803313607C4B61
:104960001B687B4A23F4802313601DE07B685B682F
:10497000B3F5A02F0CD1764B1B68754A43F4802306
:104980001360734B1B68724A43F4803313600BE06F
:104990006F4B1B686E4A23F4803313606C4B1B68AB
:1049A0006B4A23F4802313607B685B68002B13D071
:1049B000FEF7C8FD386108E0FEF7C4FD02463B691A
:1049C000D31A642B01D903231FE2614B1B6803F444
:1049D0000033002BF0D014E0FEF7B4FD386108E09E
:1049E000FEF7B0FD02463B69D31A642B01D90323BD
:1049F0000BE2574B1B6803F40033002BF0D100E0AF
:104A000000BF7B681B6803F00203002B69D0504B8A
:104A10009B6803F00C03002B0BD04D4B9B6803F0FD
:104A20000C03082B1CD14A4B5B6803F48003002B5A
:104A300016D1474B1B6803F00203002B05D07B689F
:104A4000DB68012B01D00123DFE1414B1B6823F020
:104A5000F8027B681B69DB003D4913430B6040E0B3
:104A60007B68DB68002B23D0394B1B68384A43F046
:104A700001031360FEF766FD386108E0FEF762FD92
:104A800002463B69D31A022B01D90323BDE1304B07
:104A90001B6803F00203002BF0D02D4B1B6823F0A2
:104AA000F8027B681B69DB00294913430B6018E09F
:104AB000274B1B68264A23F001031360FEF742FDD3
:104AC000386108E0FEF73EFD02463B69D31A022B2F
:104AD00001D9032399E11E4B1B6803F00203002B4D
:104AE000F0D17B681B6803F00803002B38D07B688B
:104AF0005B69002B19D0164B5B6F154A43F001031D
:104B00005367FEF71FFD386108E0FEF71BFD024604
:104B10003B69D31A022B01D9032376E10C4B5B6F5F
:104B200003F00203002BF0D01AE0094B5B6F084A38
:104B300023F001035367FEF705FD38610AE0FEF735
:104B400001FD02463B69D31A022B03D903235CE122
:104B500000380240914B5B6F03F00203002BEED153
:104B60007B681B6803F00403002B00F0A4808B4BD0
:104B70001B6C03F08053002B0DD1884B1B6C874AB4
:104B800043F080531364854B1B6C03F08053BB6070
:104B9000BB680123FB75824B1B6803F48073002BF9
:104BA00018D17F4B1B687E4A43F480731360FEF775
:104BB000C9FC386108E0FEF7C5FC02463B69D31A20
:104BC000642B01D9032320E1754B1B6803F4807328
:104BD000002BF0D07B689B68012B06D16F4B1B6FBD
:104BE0006E4A43F0010313672DE07B689B68002B3E
:104BF0000CD16A4B1B6F694A23F001031367674BA3
:104C00001B6F664A23F0040313671CE07B689B68F4
:104C1000052B0CD1614B1B6F604A43F004031367F3
:104C20005E4B1B6F5D4A43F0010313670BE05B4B68
:104C30001B6F5A4A23F001031367584B1B6F574AE7
:104C400023F0040313677B689B68002B15D0FEF7E5
:104C500079FC38610AE0FEF775FC02463B69D31A1D
:104C600041F28832934201D90323CEE04B4B1B6FB4
:104C700003F00203002BEED014E0FEF763FC386172
:104C80000AE0FEF75FFC02463B69D31A41F2883224
:104C9000934201D90323B8E0404B1B6F03F002039A
:104CA000002BEED1FB7D012B05D13C4B1B6C3B4A0D
:104CB00023F0805313647B689B69002B00F0A48071
:104CC000364B9B6803F00C03082B6BD07B689B6909
:104CD000022B49D1314B1B68304A23F0807313609B
:104CE000FEF730FC386108E0FEF72CFC02463B6919
:104CF000D31A022B01D9032387E0284B1B6803F04A
:104D00000073002BF0D17B68DA697B681B6A1A4359
:104D10007B685B6A9B011A437B689B6A5B08013B6B
:104D20001B041A437B68DB6A1B0613431B4A43F0D0
:104D300000535360194B1B68184A43F0807313608B
:104D4000FEF700FC386108E0FEF7FCFB02463B6919
:104D5000D31A022B01D9032357E0104B1B6803F031
:104D60000073002BF0D04FE00C4B1B680B4A23F074
:104D700080731360FEF7E6FB386108E0FEF7E2FBA4
:104D800002463B69D31A022B01D903233DE0034BB2
:104D90001B6803F00073002BF0D135E000380240AF
:104DA000007000401B4B5B68FB607B689B69012BBC
:104DB00028D0FB6803F480027B68DB699A4221D12A
:104DC000FB6803F03F027B681B6A9A421AD1FA68BB
:104DD00047F6C07313407A68526A9201934211D128
:104DE000FB6803F440327B689B6A5B08013B1B0451
:104DF0009A4207D1FB6803F070627B68DB6A1B068E
:104E00009A4201D0012300E0002318461837BD461E
:104E100080BD00BF0038024080B584B000AF78602C
:104E200039600023FB607B68002B01D10123D0E0B7
:104E30006A4B1B6803F00F033A689A4210D9674B1C
:104E40001B6823F00F0265493B6813430B60634BFB
:104E50001B6803F00F033A689A4201D00123B8E0BF
:104E60007B681B6803F00203002B20D07B681B6863
:104E700003F00403002B05D0594B9B68584A43F4B8
:104E8000E05393607B681B6803F00803002B05D098
:104E9000534B9B68524A43F460439360504B9B686A
:104EA00023F0F0027B689B684D4913438B607B685D
:104EB0001B6803F00103002B40D07B685B68012B6B
:104EC00007D1474B1B6803F40033002B15D1012396
:104ED0007FE07B685B68022B07D1414B1B6803F0C6
:104EE0000073002B09D1012373E03D4B1B6803F0D5
:104EF0000203002B01D101236BE0394B9B6823F0A7
:104F000003027B685B68364913438B60FEF71AFB2C
:104F1000F8600AE0FEF716FB0246FB68D31A41F27E
:104F20008832934201D9032353E02D4B9B6803F051
:104F30000C027B685B689B009A42EBD1274B1B6895
:104F400003F00F033A689A4210D2244B1B6823F0F7
:104F50000F0222493B6813430B60204B1B6803F090
:104F60000F033A689A4201D0012332E07B681B6844
:104F700003F00403002B08D0194B9B6823F4E05284
:104F80007B68DB68164913438B607B681B6803F002
:104F90000803002B09D0124B9B6823F460427B6806
:104FA0001B69DB000E4913438B6000F021F80146BA
:104FB0000B4B9B681B0903F00F030A4AD35C21FAD1
:104FC00003F3094A1360094B1B681846FEF776FA8B
:104FD000002318461037BD4680BD00BF003C02408C
:104FE00000380240687A00081400012018000120EF
:104FF000F0B585B000AF00237B600023FB60002389
:105000003B600023BB60504B9B6803F00C03042BF8
:1050100007D0082B08D0002B40F08D804B4BBB6095
:105020008CE04B4BBB6089E0474B5B6803F03F0370
:105030007B60454B5B6803F48003002B23D0424B1D
:105040005B689B094FF0000440F2FF114FF0000233
:1050500003EA010504EA02063D4A02FB06F10022CA
:1050600002FB05F20A443A49A5FB0101531819460F
:105070007B684FF000041A462346FBF7EFFC03461B
:105080000C46FB6049E0304B5B689B094FF0000425
:1050900040F2FF114FF0000203EA010504EA0206A4
:1050A000294632464FF000034FF00004540144EA11
:1050B000D1644B0119462246491B62EB06024FF0B0
:1050C00000034FF00004940144EA91648B015B1AE1
:1050D00064EB02044FF000014FF00002E20042EAEC
:1050E0005372D9000B4614465B1944EB06044FF08B
:1050F00000014FF00002A20242EA935299020B46CD
:105100001446184621467B684FF000041A46234691
:10511000FBF7A4FC03460C46FB600B4B5B681B0CC7
:1051200003F0030301335B003B60FA683B68B2FBAA
:10513000F3F3BB6002E0054BBB6000BFBB681846E1
:105140001437BD46F0BD00BF003802400024F40013
:1051500040787D0180B400AF034B1B681846BD4604
:105160005DF8047B704700BF1400012080B500AFDC
:10517000FFF7F0FF0146054B9B689B0A03F007030E
:10518000034AD35C21FA03F3184680BD003802407D
:10519000787A000880B500AFFFF7DCFF0146054BC9
:1051A0009B685B0B03F00703034AD35C21FA03F30C
:1051B000184680BD00380240787A000880B588B073
:1051C00000AF786000237B6100233B610023FB611B
:1051D0000023BB617B681B6803F00103002B12D026
:1051E000654B9B68644A23F400039360624B9A68A2
:1051F0007B68DB6A604913438B607B68DB6A002B4A
:1052000001D10123FB617B681B6803F40023002BA1
:1052100017D0594BD3F88C3023F440127B685B6B6A
:1052200055491343C1F88C307B685B6BB3F5801F25
:1052300001D10123FB617B685B6B002B01D1012352
:10524000BB617B681B6803F48013002B17D04A4BAB
:10525000D3F88C3023F440027B689B6B46491343A0
:10526000C1F88C307B689B6BB3F5800F01D10123B3
:10527000FB617B689B6B002B01D10123BB617B68C9
:105280001B6803F02003002B00F08B803A4B1B6C53
:10529000394A43F080531364374B1B6C03F080533F
:1052A000FB60FB68354B1B68344A43F48073136022
:1052B000FEF748F9786108E0FEF744F902467B6999
:1052C000D31A642B01D90323BAE22C4B1B6803F4D5
:1052D0008073002BF0D0284B1B6F03F440733B61AD
:1052E0003B69002B35D07B689B6A03F440733A69B5
:1052F0009A422ED0204B1B6F23F440733B611E4B10
:105300001B6F1D4A43F4803313671B4B1B6F1A4AF4
:1053100023F480331367184A3B691367164B1B6FDE
:1053200003F00103012B14D1FEF70CF978610AE0B8
:10533000FEF708F902467B69D31A41F2883293429C
:1053400001D903237CE20C4B1B6F03F00203002BFB
:10535000EED07B689B6A03F44073B3F5407F11D1B4
:10536000054B9B6823F4F8127B68996A044B0B4049
:10537000014913438B600BE000380240007000408D
:10538000FFFCFF0FA34B9B68A24A23F4F813936022
:10539000A04B1A6F7B689B6AC3F30B039D491343B1
:1053A0000B677B681B6803F01003002B10D0994B30
:1053B000D3F88C30974A23F08073C2F88C30954B29
:1053C000D3F88C207B681B6B92491343C1F88C3057
:1053D0007B681B6803F48043002B0AD08D4BD3F805
:1053E000903023F440327B68DB6D8A491343C1F867
:1053F00090307B681B6803F40043002B0AD0854B78
:10540000D3F8903023F440227B681B6E814913430C
:10541000C1F890307B681B6803F48033002B0AD0FE
:105420007C4BD3F8903023F440127B685B6E794953
:105430001343C1F890307B681B6803F04003002BD6
:105440000AD0744BD3F8903023F003027B68DB6BF7
:1054500070491343C1F890307B681B6803F08003E8
:10546000002B0AD06B4BD3F8903023F00C027B68F2
:105470001B6C68491343C1F890307B681B6803F4C8
:105480008073002B0AD0634BD3F8903023F03002A6
:105490007B685B6C5F491343C1F890307B681B6885
:1054A00003F40073002B0AD05A4BD3F8903023F04A
:1054B000C0027B689B6C57491343C1F890307B68EE
:1054C0001B6803F48063002B0AD0524BD3F8903052
:1054D00023F440727B68DB6C4E491343C1F8903073
:1054E0007B681B6803F40063002B0AD0494BD3F898
:1054F000903023F440627B681B6D46491343C1F82A
:1055000090307B681B6803F48053002B0AD0414B1A
:10551000D3F8903023F440527B685B6D3D491343D0
:10552000C1F890307B681B6803F40053002B0AD04D
:10553000384BD3F8903023F440427B689B6D35495B
:105540001343C1F890307B681B6803F40013002BF1
:1055500011D0304BD3F8903023F000627B685B6F42
:105560002C491343C1F890307B685B6FB3F1006F37
:1055700001D10123BB617B681B6803F48023002BEE
:105580000AD0244BD3F8903023F040727B68DB6E56
:1055900020491343C1F890307B681B6803F4000373
:1055A000002B0AD01B4BD3F8903023F080527B683D
:1055B0009B6F18491343C1F890307B681B6803F058
:1055C0008063002B0AD0134BD3F8903023F00052A5
:1055D0007B68DB6F0F491343C1F89030FB69012BE7
:1055E00005D07B681B68B3F1007F40F09C80094BBD
:1055F0001B68084A23F080631360FDF7A3FF7861FE
:105600000AE0FDF79FFF02467B69D31A642B03D99A
:10561000032315E1003802408B4B1B6803F0006345
:10562000002BEED17B681B6803F00103002B17D021
:105630007B68DB6A002B13D1834BD3F884301B0EBD
:1056400003F00F033B617B685B689A013B691B06B3
:105650001A437B689B681B077B491343C1F884305E
:105660007B681B6803F40023002B04D07B685B6B12
:10567000B3F5801F0AD07B681B6803F48013002BEE
:1056800024D07B689B6BB3F5800F1FD16E4BD3F892
:1056900084301B0F03F007033B617B685B689A0152
:1056A0007B68DB681B061A433B691B07664913438B
:1056B000C1F88430644BD3F88C3023F01F027B6830
:1056C000DB69013B60491343C1F88C307B681B6880
:1056D00003F00073002B0DD07B685B689A017B6838
:1056E000DB681B061A437B689B681B0756491343FC
:1056F000C1F88430544B1B68534A43F080631360F5
:10570000FDF720FF786108E0FDF71CFF02467B698A
:10571000D31A642B01D9032392E04B4B1B6803F08F
:105720000063002BF0D0BB69012B40F08880464B12
:105730001B68454A23F080531360FDF703FF78612F
:1057400008E0FDF7FFFE02467B69D31A642B01D9FE
:10575000032375E03C4B1B6803F00053B3F1005F7B
:10576000EFD07B681B6803F40023002B03D07B6819
:105770005B6B002B09D07B681B6803F48013002B44
:1057800024D07B689B6B002B20D12F4BD3F8883023
:105790001B0C03F003033B617B681B699A013B69A7
:1057A0001B041A437B685B691B0627491343C1F836
:1057B0008830254BD3F88C3023F4F8527B681B6A71
:1057C000013B1B0220491343C1F88C307B681B68E6
:1057D00003F40013002B18D07B685B6FB3F1006FEC
:1057E00013D1194BD3F888301B0E03F00F033B6124
:1057F0007B681B699A017B689B691B041A433B69A0
:105800001B0611491343C1F888300F4B1B680E4A21
:1058100043F080531360FDF795FE786108E0FDF7D3
:1058200091FE02467B69D31A642B01D9032307E05A
:10583000054B1B6803F00053B3F1005FEFD1002369
:1058400018462037BD4680BD0038024080B582B082
:1058500000AF78607B68002B01D101231CE07B68DE
:105860005B79DBB2002B05D17B6800221A71786866
:10587000FDF7A4FA7B6802225A717B681B681A68DC
:105880007B681B6842F004021A607B6801225A712F
:105890007B6800229A60002318460837BD4680BD09
:1058A00080B584B000AF78607B68002B01D1012304
:1058B00084E07B6800229A627B6893F85D30DBB2FB
:1058C000002B06D17B68002283F85C207868FDF706
:1058D00095FA7B68022283F85D207B681B681A6852
:1058E0007B681B6822F040021A607B68DB68B3F5B6
:1058F000E06F02D90023FB6002E04FF48053FB60AD
:105900007B68DB68B3F5706F07D07B68DB68B3F545
:10591000E06F02D07B6800229A627B681B6B002BD1
:105920000BD17B68DB68B3F5E06F03D97B6802229B
:105930001A6302E07B6801221A637B685A687B68FD
:105940009B681A437B681B691A437B685B691A432F
:105950007B689B6903F400731A437B68DB691A4315
:105960007B681B6A42EA03017B689A6A7B681B6852
:105970000A431A607B689B691B0C03F004027B6876
:105980005B6A1A437B685B6B1A437B68DB6842EA9D
:1059900003017B681B68FA680A435A607B681B68CE
:1059A000DA697B681B6822F40062DA617B68002296
:1059B0001A667B68012283F85D20002318461037A1
:1059C000BD4680BD80B588B000AF78607B681B683D
:1059D0005B68FB617B681B689B68BB61BB699B095B
:1059E00003F00103002B0FD1BB6903F00103002B6F
:1059F0000AD0FB699B0903F00103002B04D07B68EC
:105A0000DB6C78689847D8E0BB695B0803F001035A
:105A1000002B0AD0FB69DB0903F00103002B04D043
:105A20007B681B6D78689847C7E0BB695B0903F02A
:105A30000103002B0CD1BB699B0903F00103002B70
:105A400006D1BB691B0A03F00103002B00F0B580EF
:105A5000FB695B0903F00103002B00F0AE80BB691A
:105A60009B0903F00103002B23D07B6893F85D3082
:105A7000DBB2032B11D07B681B6E43F004027B6802
:105A80001A6600237B617B681B68DB687B617B682F
:105A90001B689B687B617B690BE000233B617B6833
:105AA0001B68DB683B617B681B689B683B613B69EB
:105AB00083E0BB695B0903F00103002B14D07B6812
:105AC0001B6E43F001027B681A660023FB607B6853
:105AD0001B689B68FB607B681B681A687B681B6897
