:020000040800F2
:1000000000000420EDB8000889A300088FA30008B1
:1000100097A300089DA30008A3A300080000000008
:10002000000000000000000000000000A9A300087C
:10003000B7A3000800000000C5A30008D3A3000870
:100040003DB900083DB900083DB900083DB90008B8
:100050003DB900083DB900083DB900083DB90008A8
:100060003DB900083DB900083DB900083DB9000898
:100070003DB90008E1A30008F5A3000809A40008A1
:100080003DB900083DB900083DB900083DB9000878
:100090003DB900083DB900083DB900083DB9000868
:1000A0003DB900083DB900083DB900083DB9000858
:1000B0003DB900083DB900086DA400083DB900082D
:1000C0003DB900083DB900083DB900083DB9000838
:1000D0001DA4000831A400083DB900083DB900087E
:1000E00045A400083DB900083DB900083DB9000825
:1000F0003DB900083DB900083DB900083DB9000808
:100100003DB900083DB900083DB900083DB90008F7
:100110003DB900083DB900083DB9000881A40008B8
:1001200095A400083DB90008A9A400083DB900083D
:100130003DB90008000000000000000000000000C1
:100140000000000000000000000000003DB90008B1
:100150003DB900083DB90008BDA400083DB900083C
:100160003DB900083DB900083DB900083DB9000897
:100170003DB900083DB90008000000000000000083
:100180003DB900083DB900083DB900083DB9000877
:100190003DB900083DB90008000000003DB9000865
:1001A0000000000000000000000000003DB9000851
:1001B0003DB900083DB90008000000000000000043
:1001C000000000000000000000000000000000002F
:1001D0000000000000000000000000003DB9000821
:1001E00010B5054C237833B9044B13B10448AFF371
:1001F00000800123237010BDE018012000000000E2
:10020000141E010808B5034B1BB103490348AFF3A3
:10021000008008BD00000000E4180120141E010841
:1002200081F0004102E000BF83F0004330B54FEAA7
:1002300041044FEA430594EA050F08BF90EA020F14
:100240001FBF54EA000C55EA020C7FEA645C7FEAA7
:10025000655C00F0E2804FEA5454D4EB5555B8BFCA
:100260006D420CDD2C4480EA020281EA030382EA3B
:10027000000083EA010180EA020281EA0303362DCD
:1002800088BF30BD11F0004F4FEA01314FF4801CA0
:100290004CEA113102D0404261EB410113F0004FB2
:1002A0004FEA03334CEA133302D0524263EB430369
:1002B00094EA050F00F0A780A4F10104D5F1200E07
:1002C0000DDB02FA0EFC22FA05F2801841F1000162
:1002D00003FA0EF2801843FA05F359410EE0A5F136
:1002E00020050EF1200E012A03FA0EFC28BF4CF067
:1002F000020C43FA05F3C01851EBE37101F000451D
:1003000007D54FF0000EDCF1000C7EEB00006EEB29
:100310000101B1F5801F1BD3B1F5001F0CD34908B3
:100320005FEA30004FEA3C0C04F101044FEA44520A
:1003300012F5800F80F09A80BCF1004F08BF5FEA91
:10034000500C50F1000041EB045141EA050130BD71
:100350005FEA4C0C404141EB010111F4801FA4F114
:100360000104E9D191F0000F04BF01460020B1FA69
:1003700081F308BF2033A3F10B03B3F120020CDAA1
:100380000C3208DD02F1140CC2F10C0201FA0CF07F
:1003900021FA02F10CE002F11402D8BFC2F1200CE4
:1003A00001FA02F120FA0CFCDCBF41EA0C0190409A
:1003B000E41AA2BF01EB0451294330BD6FEA0404E3
:1003C0001F3C1CDA0C340EDC04F11404C4F12002CE
:1003D00020FA04F001FA02F340EA030021FA04F3E0
:1003E00045EA030130BDC4F10C04C4F1200220FA37
:1003F00002F001FA04F340EA0300294630BD21FA75
:1004000004F0294630BD94F0000F83F4801306BF3A
:1004100081F480110134013D4EE77FEA645C18BF2E
:100420007FEA655C29D094EA050F08BF90EA020FC5
:1004300005D054EA000C04BF1946104630BD91EABD
:10044000030F1EBF0021002030BD5FEA545C05D1C0
:100450004000494128BF41F0004130BD14F58004FF
:100460003CBF01F5801130BD01F0004545F0FE4173
:1004700041F470014FF0000030BD7FEA645C1ABFA8
:10048000194610467FEA655C1CBF0B46024650EADF
:10049000013406BF52EA033591EA030F41F400210B
:1004A00030BD00BF90F0000F04BF0021704730B591
:1004B0004FF4806404F132044FF000054FF0000166
:1004C00050E700BF90F0000F04BF0021704730B527
:1004D0004FF4806404F1320410F0004548BF4042FC
:1004E0004FF000013EE700BF42004FEAE2014FEA51
:1004F00031014FEA02701FBF12F07F4393F07F4F2C
:1005000081F06051704732F07F4208BF704793F02E
:100510007F4F04BF41F40021704730B54FF4607441
:1005200001F0004521F000411CE700BF50EA010244
:1005300008BF704730B54FF000050AE050EA0102ED
:1005400008BF704730B511F0004502D5404261EB5D
:1005500041014FF4806404F132045FEA915C3FF49E
:10056000D8AE4FF003025FEADC0C18BF03325FEA3B
:10057000DC0C18BF033202EBDC02C2F1200300FAEC
:1005800003FC20FA02F001FA03FE40EA0E0021FA11
:1005900002F11444BDE600BF70B54FF0FF0C4CF4FF
:1005A000E06C1CEA11541DBF1CEA135594EA0C0FB1
:1005B00095EA0C0F00F0DEF82C4481EA030621EAEC
:1005C0004C5123EA4C5350EA013518BF52EA033527
:1005D00041F4801143F4801338D0A0FB02CE4FF0D9
:1005E0000005E1FB02E506F00042E0FB03E54FF009
:1005F0000006E1FB03569CF0000F18BF4EF0010E01
:10060000A4F1FF04B6F5007F64F5407404D25FEAFC
:100610004E0E6D4146EB060642EAC62141EA5551AF
:100620004FEAC52040EA5E504FEACE2EB4F1FD0CF1
:1006300088BFBCF5E06F1ED8BEF1004F08BF5FEA6F
:10064000500E50F1000041EB045170BD06F0004621
:1006500046EA010140EA020081EA0301B4EB5C04CE
:10066000C2BFD4EB0C0541EA045170BD41F48011C6
:100670004FF0000E013C00F3AB8014F1360FDEBFEB
:10068000002001F0004170BDC4F10004203C35DAC7
:100690000C341BDC04F11404C4F1200500FA05F34A
:1006A00020FA04F001FA05F240EA020001F00042EB
:1006B00021F0004110EBD37021FA04F642EB060161
:1006C0005EEA430E08BF20EAD37070BDC4F10C048B
:1006D000C4F1200500FA04F320FA05F001FA04F24F
:1006E00040EA020001F0004110EBD37041F100013B
:1006F0005EEA430E08BF20EAD37070BDC4F1200546
:1007000000FA05F24EEA020E20FA04F301FA05F2AD
:1007100043EA020321FA04F001F0004121FA04F255
:1007200020EA020000EBD3705EEA430E08BF20EA25
:10073000D37070BD94F0000F0FD101F0004640005F
:1007400041EB010111F4801F08BF013CF7D041EAE1
:10075000060195F0000F18BF704703F000465200E5
:1007600043EB030313F4801F08BF013DF7D043EAB6
:100770000603704794EA0C0F0CEA135518BF95EA6C
:100780000C0F0CD050EA410618BF52EA4306D1D1F3
:1007900081EA030101F000414FF0000070BD50EA12
:1007A000410606BF1046194652EA430619D094EA9C
:1007B0000C0F02D150EA013613D195EA0C0F05D186
:1007C00052EA03361CBF104619460AD181EA0301DA
:1007D00001F0004141F0FE4141F470014FF0000092
:1007E00070BD41F0FE4141F4780170BD70B54FF02D
:1007F000FF0C4CF4E06C1CEA11541DBF1CEA1355AD
:1008000094EA0C0F95EA0C0F00F0A7F8A4EB05048E
:1008100081EA030E52EA03354FEA013100F0888085
:100820004FEA03334FF0805545EA131343EA12634E
:100830004FEA022245EA111545EA10654FEA002603
:100840000EF000419D4208BF964244F1FD0404F5BC
:10085000407402D25B084FEA3202B61A65EB030518
:100860005B084FEA32024FF480104FF4002CB6EBD5
:10087000020E75EB030E22BFB61A754640EA0C0055
:100880005B084FEA3202B6EB020E75EB030E22BF95
:10089000B61A754640EA5C005B084FEA3202B6EBD6
:1008A000020E75EB030E22BFB61A754640EA9C0095
:1008B0005B084FEA3202B6EB020E75EB030E22BF65
:1008C000B61A754640EADC0055EA060E18D04FEA23
:1008D000051545EA16754FEA06164FEAC30343EAC3
:1008E00052734FEAC2025FEA1C1CC0D111F4801F90
:1008F0000BD141EA00014FF000004FF0004CB6E789
:1009000011F4801F04BF01430020B4F1FD0C88BF27
:10091000BCF5E06F3FF6AFAEB5EB030C04BFB6EB32
:10092000020C5FEA500C50F1000041EB045170BD25
:100930000EF0004E4EEA113114EB5C04C2BFD4EB52
:100940000C0541EA045170BD41F480114FF0000ED6
:10095000013C90E645EA060E8DE60CEA135594EA52
:100960000C0F08BF95EA0C0F3FF43BAF94EA0C0F55
:100970000AD150EA01347FF434AF95EA0C0F7FF4CA
:1009800025AF104619462CE795EA0C0F06D152EA1E
:1009900003353FF4FDAE1046194622E750EA410602
:1009A00018BF52EA43067FF4C5AE50EA41047FF413
:1009B0000DAF52EA43057FF4EBAE12E74FEA410276
:1009C000B2F1E04324BFB3F5001CDCF1FE5C0DD9AD
:1009D00001F0004C4FEAC0024CEA5070B2F1004FF7
:1009E00040EB830008BF20F00100704711F0804FFA
:1009F00021D113F13872BCBF01F00040704741F4BF
:100A000080114FEA5252C2F11802C2F1200C10FAC2
:100A10000CF320FA02F018BF40F001004FEAC123A6
:100A20004FEAD32303FA0CFC40EA0C0023FA02F34A
:100A30004FEA4303CCE77FEA625307D150EA013320
:100A40001EBF4FF0FE4040F44000704701F00040F0
:100A500040F0FE4040F40000704700BF53B94AB96F
:100A6000002908BF00281CBF4FF0FF314FF0FF30B6
:100A700000F072B9ADF1080C6DE904CE00F006F893
:100A8000DDF804E0DDE9022304B070472DE9F0470A
:100A9000089E04468846002B4BD18A42154667D9EA
:100AA000B2FA82F24AB1C2F1200701FA02F320FA47
:100AB00007F7954047EA030894404FEA154E230C88
:100AC000B8FBFEF71FFA85FC0EFB178843EA0843C4
:100AD00007FB0CF1994209D9EB1807F1FF3080F0C0
:100AE0001B81994240F21881023F2B445B1AA4B249
:100AF000B3FBFEF00EFB103344EA034400FB0CFC96
:100B0000A44509D92C1900F1FF3380F00781A445D1
:100B100040F2048102382C4440EA0740A4EB0C0464
:100B200000271EB1D4400023C6E900433946BDE882
:100B3000F0878B4209D9002E00F0EB800027C6E930
:100B4000000138463946BDE8F087B3FA83F7002F35
:100B500047D18B4202D3824200F2FA80841A61EBC1
:100B6000030301209846002EE0D0C6E90048DDE7E7
:100B700002B9FFDEB2FA82F2002A40F08F80491BF0
:100B80004FEA154E1FFA85F80127B1FBFEFC230C36
:100B90000EFB1C1143EA014308FB0CF1994207D9F3
:100BA000EB180CF1FF3002D2994200F2CD8084465E
:100BB000591AA3B2B1FBFEF00EFB101443EA044431
:100BC00008FB00F8A04507D92C1900F1FF3302D229
:100BD000A04500F2B6801846A4EB080440EA0C4099
:100BE0009FE7C7F1200CBB4022FA0CFE4EEA030E31
:100BF00001FA07F420FA0CF521FA0CF34FEA1E482B
:100C00002543B3FBF8F92C0C08FB19331FFA8EFAB5
:100C100044EA034309FB0AF49C4202FA07F200FA91
:100C200007F10BD91EEB030309F1FF3080F0878039
:100C30009C4240F28480A9F1020973441B1BADB2AF
:100C4000B3FBF8F008FB103345EA034400FB0AFA53
:100C5000A24508D91EEB040400F1FF336BD2A24574
:100C600069D90238744440EA0940A0FB0289A4EB28
:100C70000A044C45C2464B4654D351D0002E69D08D
:100C8000B1EB0A0564EB030404FA0CFCFD40FC40E4
:100C90004CEA0505C6E90054002747E7C2F12003E6
:100CA00020FA03F7954001FA02F021FA03F34FEA24
:100CB000154E3843010CB3FBFEF71FFA85F80EFB07
:100CC000173341EA034107FB08F38B4204FA02F4AD
:100CD00007D9691807F1FF3C2FD28B422DD9023F6B
:100CE0002944CB1A81B2B3FBFEF00EFB103341EA6C
:100CF000034100FB08F38B4207D9691800F1FF3C60
:100D000017D28B4215D902382944C91A40EA07473D
:100D10003BE73746304609E70746E7E61846FBE675
:100D20004145ABD2B8EB020A69EB0E02013813461B
:100D3000A4E76046E9E7184695E76746D1E78146AC
:100D40007CE702382C4447E7ACF1020C2B442FE738
:100D5000384608E73746E9E6704700BF80B487B0F9
:100D600000AF786039607B68002B02D03B68002BB5
:100D700002D14FF0FF3337E07B687B613B683B611A
:100D80007B6901331B78BB817B6901331A783B692E
:100D900001331B789A420ED17B691A783B691B7824
:100DA0009A4208D1B7F90C30002B04D0B7F90C30B7
:100DB000B3F5C07F02DD6FF0010315E00223FB7382
:100DC0000AE03A69531C3B617B69591C79611278CE
:100DD0001A70FB7B0133FB73FA7BB7F90C300233DB
:100DE0009A42EEDBB7F90C3018461C37BD465DF869
:100DF000047B704780B582B000AF0223FB714FF4D3
:100E0000C0630122184919480AF02AFC0122012175
:100E100017480CF055FA174804F02AF80346FB71FE
:100E2000FB79022BF7D0144AFB791370FB79002B66
:100E30000AD0104805F0E4FE0E4806F0ABFB03466E
:100E4000FB71FB79022BF7D0FB79002B02D009480C
:100E500005F0D6FE094B01221A7009480EF024FF56
:100E600000BF0837BD4680BDF00A0220F010022006
:100E700000080240A0140220A60401201419012039
:100E8000E447022080B5B8B000AF87ED010A9A4B65
:100E9000C7F8C830B7EE007AD7ED327A77EE677AC6
:100EA000C7ED317A954A07F160031146582218467A
:100EB00010F094FF924A07F1080311465822184691
:100EC00010F08CFF4FF00003C7F8DC304FF0000348
:100ED000C7F8D4304FF00003C7F8D030D7ED187AF8
:100EE00097ED017AB4EEE77AF1EE10FA1ADB0023FF
:100EF00087F8DB30012387F8DA3097F8DB309B0086
:100F000007F1E0021344803B1B68C7F8D43097F820
:100F1000DA309B0007F1E0021344803B1B68C7F8FE
:100F2000D0306AE0D7ED2D7A97ED017AB4EEE77A0A
:100F3000F1EE10FA1AD8142387F8DB30152387F85E
:100F4000DA3097F8DB309B0007F1E0021344803B76
:100F50001B68C7F8D43097F8DA309B0007F1E0023D
:100F60001344803B1B68C7F8D03046E00123C7F824
:100F7000CC303EE0D7F8CC30013B9B0007F1E002DB
:100F80001344803B1B68C7F8D430D7F8CC309B00A3
:100F900007F1E0021344803B1B68C7F8D03097ED9F
:100FA000357AD7ED017AB4EEE77AF1EE10FA13DD77
:100FB00097ED347AD7ED017AB4EEE77AF1EE10FAD4
:100FC0000AD5D7F8CC30DBB2013B87F8DB30D7F855
:100FD000CC3087F8DA3010E04FF00003C7F8D43097
:100FE0004FF00003C7F8D030D7F8CC300133C7F842
:100FF000CC30D7F8CC30152BBCD9D7ED357AF5EEFF
:10100000407AF1EE10FA06D1D7ED347AF5EE407A57
:10101000F1EE10FA49D097F8DB309B0007F1E002BF
:101020001344D83B1B68C7F8C03097F8DA309B00F0
:1010300007F1E0021344D83B1B68C7F8BC3097EDBA
:10104000347AD7ED357AB4EE677AF1EE10FA20D023
:1010500097ED017AD7ED357A77EE676A97ED347AB6
:10106000D7ED357A37EE677AC6EE877AC7ED2E7AF6
:1010700097ED2F7AD7ED307A37EE677AD7ED2E7A63
:1010800067EE277A97ED307A77EE277AC7ED377AD1
:101090000BE097ED307AD7ED2F7A37EE277AF0EE26
:1010A000006AC7EE267AC7ED377AD7ED377A9FED1B
:1010B000157AF4EEC77AF1EE10FA02DD124BC7F89A
:1010C000DC3097ED377AD7ED327A27EE277A0F4B5F
:1010D000D3ED006AD7ED317A66EEA77A77EE277AFC
:1010E0000A4BC3ED007A094B1B6807EE903AB0EE4D
:1010F000670AE037BD4680BDCDCCCC3D2C1E010833
:10110000841E010800001643000016433C11022013
:1011100080B500AF0C4B1B78DBB2002B0DD04FF429
:1011200000610A480CF0B4F80346012B05D10022F7
:10113000012107480CF0C4F804E001220121044811
:101140000CF0BEF800BF80BD141901200000024061
:101150000008024080B483B000AF78603960074A6D
:101160007B681360064A3B681360064B01221A70C5
:1011700000BF0C37BD465DF8047B70476409022050
:10118000680902206C09022080B500AF0A4B1B6879
:101190000A4A13600A4B5B6A074A136001228021E6
:1011A00008480CF08DF8084B00221A70074B0022FB
:1011B0001A7000BF80BD00BF041901200C19012066
:1011C000000C004000040240A50401205E0902203A
:1011D00080B500AF0A4B1B680A4A13600A4B5B6A72
:1011E000074A13600122402108480CF069F8084BB7
:1011F00000221A70074B00221A7000BF80BD00BF8A
:101200000819012010190120000C004000040240C0
:10121000A50401205F09022080B582B000AF114B08
:101220005B6A114A13604FF4006110480CF030F80B
:101230000346002B0CBF01230023DBB2FB71FB79BB
:10124000002B04D00022802109480CF039F8094B0A
:1012500000221A70084B01221A7000BF0837BD46E1
:1012600080BD00BF000C0040FC18012000000240BF
:1012700000040240A50401205E09022080B582B06E
:1012800000AF114B5B6A114A13604FF400611048C4
:101290000BF0FEFF0346002B0CBF01230023DBB243
:1012A000FB71FB79002B04D00022402109480CF08F
:1012B00007F8094B00221A70084B01221A7000BF70
:1012C0000837BD4680BD00BF000C0040001901205A
:1012D0000000024000040240A50401205F09022032
:1012E00080B582B000AF0346FB71FB79002B02D1C1
:1012F000FFF74AFF04E0FB79012B01D1FFF768FFFC
:1013000000BF0837BD4680BD80B586B000AF03463C
:10131000FB71AC4B5B68002B70D006F0F3FE87EDE1
:10132000050AA84B1B6C3B61A64BDB6BFB6097ED82
:10133000057AD7ED037AB4EEE77AF1EE10FA5DDBC9
:101340003B69002B00F07F813B69012B09D19E4B4B
:1013500093F90030B3F1FF3F50D19B4B00221A703C
:101360004CE03B69022B09D1984B93F90030B3F163
:10137000FF3F43D1954B00221A703FE03B69032B9E
:1013800009D1934B93F90030B3F1FF3F36D1904B25
:1013900000221A7032E03B69042B09D18D4B93F97E
:1013A0000030B3F1FF3F29D18A4B00221A7025E0AB
:1013B0003B69052B09D1884B93F90030B3F1FF3F0E
:1013C0001CD1854B00221A7018E03B69062B09D10D
:1013D000824B93F90030B3F1FF3F0FD17F4B0022D6
:1013E0001A700BE03B69072B08D17D4B93F9003055
:1013F000B3F1FF3F02D17A4B00221A70794B93F977
:10140000003097F907209A4200F00181754AFB7974
:1014100013706D4B93F90030002B17DB6A4B93F977
:101420000030DBB20133DBB25AB2674B1A70664B45
:1014300093F90030242B03DD634BFF221A7005E083
:10144000614B93F90030202B40F3FF805F4B93F901
:101450000030002B17DB5D4B93F90030DBB201331A
:10146000DBB25AB2594B1A70584B93F90030182B13
:1014700003DD564BFF221A7005E0544B93F9003000
:10148000142B40F3E480524B93F90030002B17DB10
:101490004F4B93F90030DBB20133DBB25AB24C4B05
:1014A0001A704B4B93F90030102B03DD484BFF2291
:1014B0001A7005E0464B93F900300C2B40F3C980BD
:1014C000444B93F90030002B17DB424B93F900306B
:1014D000DBB20133DBB25AB23E4B1A703D4B93F98B
:1014E0000030082B03DD3B4BFF221A7005E0394B1F
:1014F00093F90030042B40F3AE80374B93F9003062
:10150000002B22DB344B93F90030DBB20133DBB22A
:101510005AB2314B1A70304B93F90030142B03DD63
:101520002D4BFF221A7010E02B4B93F900202E4B0D
:1015300083FB02135910D317C91A0B469B000B44A7
:10154000D31A5BB2002B40F08880244B93F9003013
:10155000002B20DB214B93F90030DBB20133DBB2EF
:101560005AB21E4B1A701D4B93F900300C2B03DD41
:101570001A4BFF221A700EE0184B93F900201B4BF8
:1015800083FB0231D317C91A0B465B000B44D31AF5
:101590005BB2002B63D1124B93F90030002B36DB8A
:1015A0000F4B93F90030DBB20133DBB25AB20C4B74
:1015B0001A700B4B93F900300C2B19DD084BFF22EE
:1015C0001A7024E0A0140220241102202511022008
:1015D00026110220271102202811022029110220A1
:1015E0002A110220BA0401206766666656555555D1
:1015F0001E4B93F900201E4B83FB0231D317C91AEF
:101600000B465B000B44D31A5BB2002B29D097F931
:101610000730002B09D1FFF7FFFD164B1B7883F035
:101620000103DAB2134B1A701CE097F90730012B53
:1016300018D1FFF723FE104B1B7883F00103DAB2B9
:101640000D4B1A700EE000BF0CE000BF0AE000BFB7
:1016500008E000BF06E000BF04E000BF02E000BFFA
:1016600000E000BF1837BD4680BD00BF2A11022030
:10167000565555552B1102202C11022090B58BB0D8
:1016800000AF06F031FD87ED090A06F065FD03465F
:10169000002B04D1AE4B1B78DBB2002B01D0012311
:1016A00000E0002387F823304FF40061A9480BF0D5
:1016B000EFFD0346002B0CBF01230023DBB287F8AC
:1016C000223097F82230002B00F02B81A24B1B78A0
:1016D000002B40F0268197F82330002B00F0218169
:1016E0009E4B1B7887F821309D4B1B68FB619D4BFF
:1016F0001B68BB619C4B1B687B619C4B5B6A3B61BD
:10170000B969386906F00EFE0246994B9A4210D923
:10171000F969386906F006FE0246954B9A4208D9E7
:101720000122802193480BF0CBFD8C4B00221A70D4
:1017300062E097F82130002B5ED18F4B5B69002B64
:101740005AD0D7ED097A9FED8D7AF4EEC77AF1EE93
:1017500010FA19D5B969386906F0E4FD04467969CB
:10176000B86906F0DFFD024613465B0013445B01D7
:10177000DB099C4240D3002280217E480BF0A0FD73
:10178000764B01221A7037E07969B86906F0CAFD14
:10179000024643F698239A4218D97969B86906F047
:1017A000C1FD03461C46B969386906F0BBFD034616
:1017B000E31A42F6C65293421EDC002280216D4895
:1017C0000BF07EFD654B01221A7015E0B96938698E
:1017D00006F0A8FD04467969B86906F0A3FD034642
:1017E0009B01DB099C4207D30022802161480BF05A
:1017F00067FD5A4B01221A70614B1B78FB73614BDA
:101800001B68BB60604B1B687B60604B1B683B6068
:10181000564B5B6A3B617968386906F083FD024686
:10182000534B9A4210D9B968386906F07BFD0246DD
:101830004F4B9A4208D9012240214E480BF040FDFF
:101840004F4B00221A706BE0FB7B002B7AD14A4B86
:101850005B69002B76D0D7ED097A9FED487AF4EEDC
:10186000C77AF1EE10FA19D57968386906F05AFD91
:1018700004463968786806F055FD024613465B0059
:1018800013445B01DB099C425CD3002240213948B0
:101890000BF016FD3A4B01221A7053E0D7ED097A8E
:1018A0009FED3B7AF4EEC77AF1EE10FA21DD39684C
:1018B000786806F037FD024643F698239A4218D915
:1018C0003968786806F02EFD03461C467968386949
:1018D00006F028FD0346E31A42F6C65293421FDC87
:1018E0000022402123480BF0EBFC254B01221A700B
:1018F00016E07968386906F015FD0446396878689D
:1019000006F010FD03469B01DB099C421AD300221E
:10191000402118480BF0D4FC194B01221A7011E039
:1019200010E00122802113480BF0CAFC0122402163
:1019300010480BF0C5FC094B00221A70104B002216
:101940001A7000E000BF00BF2C37BD4690BD00BF3D
:101950002419012000000240A50401205E09022094
:10196000FC180120041901200C190120000C004072
:10197000BF27090000040240A01402200000964383
:101980005F09022000190120081901201019012007
:101990000000FA4380B586B000AF2A4B5B6AFB605B
:1019A0000023FB75284AFB6813604FF000033B617E
:1019B00006F0A4FA87ED020A97ED020A06F060FB32
:1019C00087ED010A06F0D4FB034607EE903AF8EEE5
:1019D000677AC7ED007AD7ED027A9FED1C7AF4EEB4
:1019E000C77AF1EE10FA0DD5D7ED027A9FED187A8D
:1019F000F4EEC77AF1EE10FA04DB0123FB75BB6845
:101A00003B6103E00223FB757B683B61114A3B6944
:101A10001360D7ED007AF5EE407AF1EE10FA09D0B6
:101A20000D4B5B69002B05D0FB7D013BDBB21846FB
:101A3000FFF756FC094B01221A7000BF1837BD464C
:101A400080BD00BF000C0040181901200000B44206
:101A50000000B4C21C190120A01402202419012086
:101A600090B583B000AF264B1B687B60254B5B6A4B
:101A70003B60254B1B681946386806F053FC02464C
:101A800042F210739A4215D9204B1B681846FEF794
:101A90002BFD19A3D3E90023FEF77EFD03460C4678
:101AA00018462146FEF78AFF0246184B1A60164A6E
:101AB0003B6813607968386806F034FC0246144BC2
:101AC0009A4212D9134B9B69002B03D1114B5B69CE
:101AD000002B07D006F04CFB0346002B02D00B4B2B
:101AE0000D4A1A600D4B00221A7000BF0C37BD461C
:101AF00090BD00BFAFF30080666666666666EE3F27
:101B000018190120000C004040110220201901206A
:101B1000C0270900A0140220000040402419012021
:101B200080B5A4B000AF06F0EDFA87ED100A07F01B
:101B300011FC87ED230AC04B1B68FB6307F018FC00
:101B40000346002B02D0BD4BC7F88C304FF4004148
:101B5000BB480BF09DFB0346012B0CBF0123002368
:101B6000DBB287F83B30B74B5B6A7B634FF0000317
:101B7000C7F888304FF00003C7F884304FF00003F7
:101B8000C7F880304FF00003FB674FF00003BB67DE
:101B90004FF000037B674FF000033B674FF00003FB
:101BA0003B634FF00003FB624FF00003BB624FF05A
:101BB00000037B624FF000033B624FF00003FB61C8
:101BC0000023FB660023BB6600237B6600233B6685
:101BD0000023FB650023BB6500237B659A4B1B78C4
:101BE000BB619A4B1B68BA699A4202DBBB69032B43
:101BF00008DCBB6940F66C4202FB03F3C033934A36
:101C000013447B65D7ED107A9FED917AF4EEC77A95
:101C1000F1EE10FA06DD8F4B00221A708E4A7B6BB4
:101C2000136015E0D7ED107AB2EE047AF4EEC77ABD
:101C3000F1EE10FA0CD5884B1B681946786B06F04C
:101C400071FB0246854B9A4202D8824B01221A70E0
:101C50007B6D002B00F0A2847B6D5B69C7F8883038
:101C60007C4B1B78002B40F07884D7ED107AB2EED5
:101C7000047AF4EEC77AF1EE10FA40F36E8497F826
:101C80003B30002B00F0EC807B6DDB69002B40F3D8
:101C9000E7807B6DDB69012B04D17B6D1B6AC7F884
:101CA000883054E37B6DD3ED207A97ED107AB4EE53
:101CB000E77AF1EE10FA04D87B6D1B6AC7F888301A
:101CC00065E07B6DD3F84431013B7A6D20339B0096
:101CD0001344D3ED007A97ED107AB4EEE77AF1EE83
:101CE00010FA18DB7B6DDB69023BFB667B6DDB6901
:101CF000013BBB667A6DFB6E20339B0013441B686F
:101D0000C7F884307A6DBB6E20339B0013441B6888
:101D1000C7F880303BE001233B6533E03B6D013B7E
:101D20007A6D20339B0013441B68C7F884307A6DAA
:101D30003B6D20339B0013441B68C7F8803097ED40
:101D4000217AD7ED107AB4EEE77AF1EE10FA0ED5DB
:101D500097ED207AD7ED107AB4EEE77AF1EE10FA2B
:101D600005DD3B6D013BFB663B6DBB660FE04FF055
:101D70000003C7F884304FF00003C7F880303B6D94
:101D800001333B657B6DDB693A6D9A42C6DBD7ED6B
:101D9000217AF5EE407AF1EE10FA07D1D7ED207AEC
:101DA000F5EE407AF1EE10FA00F0D1827A6DFB6E1A
:101DB00008339B0013441B683B637A6DBB6E08338A
:101DC0009B0013441B68FB6297ED217AD7ED207AC4
:101DD000B4EE677AF1EE10FA20D097ED107AD7EDD5
:101DE000217A77EE676A97ED207AD7ED217A37EE80
:101DF000677AC6EE877AC7ED057A97ED0B7AD7ED4D
:101E00000C7A37EE677AD7ED057A67EE277A97ED89
:101E10000C7A77EE277AC7ED227A98E297ED0C7A62
:101E2000D7ED0B7A37EE277AF0EE006AC7EE267A06
:101E3000C7ED227A8BE200BF381901200050C3475A
:101E400000080240000C004034190120A0140220B8
:101E50000000C843A7040120A80401209F860100B8
:101E60007B6DD3F8E030002B00F072827B6DD3F8ED
:101E70004431002B00F06C827B6DD3F8E030012BF5
:101E80000CD100237B6600233B667B6DD3F8E430E6
:101E9000FB677B6DD3F8E430BB6786E07B6DD3EDE9
:101EA000397A97ED237AB4EEE77AF1EE10FA14D886
:101EB00000237B6601233B667A6D7B6E38339B0083
:101EC000134404331B68FB677A6D3B6E38339B0009
:101ED000134404331B68BB6767E07B6DD3F8E030C5
:101EE000013B7A6D38339B0013440433D3ED007A01
:101EF00097ED237AB4EEE77AF1EE10FA1ADB7B6DF8
:101F0000D3F8E030023B7B667B6DD3F8E030013BD9
:101F10003B667A6D7B6E38339B00134404331B6839
:101F2000FB677A6D3B6E38339B00134404331B68A8
:101F3000BB673AE00123FB6431E0FB6C013B7A6D47
:101F400038339B00134404331B68FB677A6DFB6CCA
:101F500038339B00134404331B68BB6797ED1F7A2B
:101F6000D7ED237AB4EEE77AF1EE10FA0ED597EDBD
:101F70001E7AD7ED237AB4EEE77AF1EE10FA05DD9A
:101F8000FB6C013B7B66FB6C3B660EE04FF0000395
:101F9000FB674FF00003BB67FB6C0133FB647B6D99
:101FA000D3F8E030FA6C9A42C7DB7B6DD3F844314A
:101FB000012B0ED10023FB660023BB667B6DD3F89B
:101FC0004831C7F884307B6DD3F84831C7F880308A
:101FD00087E07B6DD3ED527A97ED107AB4EEE77A15
:101FE000F1EE10FA14D80023FB660123BB667A6D6C
:101FF000FB6E52339B0013441B68C7F884307A6D24
:10200000BB6E52339B0013441B68C7F8803068E0F6
:102010007B6DD3F84431013B7A6D52339B001344FE
:10202000D3ED007A97ED107AB4EEE77AF1EE10FA7C
:102030001ADB7B6DD3F84431023BFB667B6DD3F832
:102040004431013BBB667A6DFB6E52339B001344F7
:102050001B68C7F884307A6DBB6E52339B00134403
:102060001B68C7F880303CE00123BB6433E0BB6CE5
:10207000013B7A6D52339B0013441B68C7F88430D0
:102080007A6DBB6C52339B0013441B68C7F88030D9
:1020900097ED217AD7ED107AB4EEE77AF1EE10FAE7
:1020A0000ED597ED207AD7ED107AB4EEE77AF1EEFF
:1020B00010FA05DDBB6C013BFB66BB6CBB6610E038
:1020C0004FF00003C7F884304FF00003C7F88030AA
:1020D000BB6C0133BB647B6DD3F84431BA6C9A425C
:1020E000C5DB796D7A6E13465B001344DB00FA6E34
:1020F00013446A339B000B441B68BB62796D7A6E94
:1021000013465B001344DB00BA6E13446A339B0032
:102110000B441B687B62796D3A6E13465B00134477
:10212000DB00FA6E13446A339B000B441B683B626E
:10213000796D3A6E13465B001344DB00BA6E1344AC
:102140006A339B000B441B68FB61D7ED217AF5EEE7
:10215000407AF1EE10FA07D1D7ED207AF5EE407A09
:10216000F1EE10FA00F0F480D7ED1F7AF5EE407A28
:10217000F1EE10FA07D1D7ED1E7AF5EE407AF1EEC6
:1021800010FA00F0E58097ED207AD7ED217AB4EED1
:10219000677AF1EE10FA59D097ED1F7AD7ED1E7AD3
:1021A000B4EE677AF1EE10FA50D097ED107AD7EDD1
:1021B000217A77EE676A97ED207AD7ED217A37EEAC
:1021C000677AC6EE877AC7ED047A97ED237AD7ED62
:1021D0001F7A77EE676A97ED1E7AD7ED1F7A37EE92
:1021E000677AC6EE877AC7ED037A97ED097AD7ED5D
:1021F0000A7A37EE677AD7ED047A67EE277A97ED99
:102200000A7A77EE277AC7ED027A97ED077AD7ED4B
:10221000087A37EE677AD7ED047A67EE277A97ED7A
:10222000087A77EE277AC7ED017A97ED017AD7ED34
:10223000027A37EE677AD7ED037A67EE277A97ED61
:10224000027A77EE277AC7ED227A81E097ED207A3D
:10225000D7ED217AB4EE677AF1EE10FA2CD197ED32
:102260001F7AD7ED1E7AB4EE677AF1EE10FA23D01A
:1022700097ED237AD7ED1F7A77EE676A97ED1E7A8E
:10228000D7ED1F7A37EE677AC6EE877AC7ED037A05
:102290004FF07E533B6197ED087AD7ED0A7A37EE1F
:1022A000677AD7ED037A67EE277A97ED0A7A77EEA9
:1022B000277AC7ED227A4BE097ED207AD7ED217A85
:1022C000B4EE677AF1EE10FA2CD097ED1F7AD7EDC5
:1022D0001E7AB4EE677AF1EE10FA23D197ED107AF8
:1022E000D7ED217A77EE676A97ED207AD7ED217ADC
:1022F00037EE677AC6EE877AC7ED047A4FF07E53E1
:10230000FB6097ED097AD7ED0A7A37EE677AD7ED59
:10231000047A67EE277A97ED0A7A77EE277AC7ED87
:10232000227A15E097ED0A7AD7ED097A37EE277A07
:10233000D7ED087A37EE277AD7ED077A37EE277A86
:10234000F1EE006AC7EE267AC7ED227A00E000BF00
:10235000974B9B68002B00F000817B6DD3F8A83A67
:10236000002B40F3FA807B6DD3F8A83A012B0BD1F8
:102370007B6D03F6DC23D3ED007A97ED227A77EEBE
:10238000277AC7ED227AE8E07B6DD3F8A83A012BD3
:1023900040F3E3807B6D03F6AC23D3ED007A97ED39
:1023A0000F7AB4EEE77AF1EE10FA0BD87B6D03F6F4
:1023B000DC23D3ED007A97ED227A77EE277AC7ED0A
:1023C000227A6CE07B6DD3F8A83A013B7A6D03F278
:1023D000AA239B0013440433D3ED007A97ED0F7AC0
:1023E000B4EEE77AF1EE10FA1CDB7B6DD3F8A83A75
:1023F000023BFB657B6DD3F8A83A013BBB657A6D68
:10240000FB6D03F2AA239B00134404331B687B6714
:102410007A6DBB6D03F2AA239B00134404331B683F
:102420003B673CE001237B6433E07B6C013B7A6DCE
:1024300003F2AA239B00134404331B687B677A6D65
:102440007B6C03F2AA239B00134404331B683B6795
:1024500097ED1D7AD7ED0F7AB4EEE77AF1EE10FA28
:102460000ED597ED1C7AD7ED0F7AB4EEE77AF1EE40
:1024700010FA05DD7B6C013BFB657B6CBB650EE0F8
:102480004FF000037B674FF000033B677B6C013329
:102490007B647B6DD3F8A83A7A6C9A42C5DBD7EDA2
:1024A0001D7AF5EE407AF1EE10FA06D1D7ED1C7ADE
:1024B000F5EE407AF1EE10FA4FD07A6DFB6D03F233
:1024C000B6239B00134404331B683B637A6DBB6DDA
:1024D00003F2B6239B00134404331B68FB6297EDA1
:1024E0001D7AD7ED1C7AB4EE677AF1EE10FA24D09B
:1024F00097ED0F7AD7ED1D7A77EE676A97ED1C7A24
:10250000D7ED1D7A37EE677AC6EE877AC7ED057A82
:1025100097ED0B7AD7ED0C7A37EE677AD7ED057A1F
:1025200027EE277AD7ED0C7A77EE277A97ED227A85
:1025300077EE277AC7ED227A0FE097ED0C7AD7ED88
:102540000B7A37EE277AF0EE006AC7EE267A97ED1F
:10255000227A77EE277AC7ED227A7B6DD3ED067A61
:1025600097ED227A77EE277AC7ED227AD7ED227A95
:102570009FED107AF4EEC77AF1EE10FA02DD0E4B01
:10258000C7F88830D7ED227A9FED0C7AF4EEC77A3F
:10259000F1EE10FA02D50A4BC7F88830D7F8883028
:1025A00007EE903AB0EE670A9037BD4680BD00BF97
:1025B000A01402200000B4420000B442000070C227
:1025C000000070C280B5A2B000AFA04B1B78DBB298
:1025D000002B00F0488605F0D7FD0346002B40F0A5
:1025E000428606F0C5FE0346002B40F03C8605F00F
:1025F0007BFD87ED150A964B1B683B6506F0AAFE2E
:1026000087ED130A4FF4004192480AF041FE034659
:10261000012B0CBF01230023DBB287F84B308E4B1C
:102620005B6A7B644FF000033B644FF00003C7F824
:1026300084304FF00003C7F880304FF00003FB6791
:102640004FF00003BB674FF00003FB634FF0000344
:10265000BB634FF000037B634FF000033B634FF01D
:102660000003FB624FF00003BB6200237B67002383
:102670003B670023FB660023BB6600237B66774B2A
:102680001B787B62764B1B687A6A9A4202DB7B6A14
:10269000032B08DC7B6A40F66C4202FB03F3C03379
:1026A0006F4A13447B66D7ED157A9FED6E7AF4EE90
:1026B000C77AF1EE10FA06DD6B4B00221A706B4AF6
:1026C0007B6C136018E0D7ED157AB2EE047AF4EE65
:1026D000C77AF1EE10FA0FD5654A7B6C1360634B35
:1026E0001B681946786C05F01DFE0246614B9A4244
:1026F00002D85D4B01221A705D4B1B681946786C3D
:1027000005F010FE07EE900AF8EE677AC7ED087A3A
:10271000D7ED087A9FED587AF4EEC77AF1EE10FA09
:1027200000F1A38597ED087ADFED546AC7EE267AAB
:10273000C7ED077AB7EE007AD7ED077A77EE677ABA
:10274000C7ED067A4A4A7B6C13607B6E002B00F063
:102750008F85454B1B78002B40F08A8597F84B30CE
:10276000002B00F045817B6EDB69002B40F340813C
:102770007B6EDB69012B04D17B6E1B6A3B6400F02E
:1027800076BD7B6ED3ED207A97ED157AB4EEE77ABD
:10279000F1EE10FA03D87B6E1B6A3B6480E07B6E1F
:1027A000D3F84431013B7A6E20339B001344D3EDC0
:1027B000007A97ED157AB4EEE77AF1EE10FA18DBAD
:1027C0007B6EDB69023B7B677B6EDB69013B3B67B2
:1027D0007A6E7B6F20339B0013441B68C7F88430EC
:1027E0007A6E3B6F20339B0013441B68C7F8803020
:1027F00056E001233B664EE03B6E013B7A6E203390
:102800009B0013441B68C7F884307A6E3B6E2033FC
:102810009B0013441B68C7F8803097ED217AD7EDF1
:10282000157AB4EEE77AF1EE10FA29D597ED207A11
:10283000D7ED157AB4EEE77AF1EE10FA20DD3B6EB3
:10284000013B7B673B6E3B672AE000BF24190120F8
:102850001C19012000080240000C0040341901201E
:10286000A01402200000C842AC040120B0040120E2
:10287000041102209F86010000401C468096184BE0
:102880004FF00003C7F884304FF00003C7F88030E2
:102890003B6E01333B667B6EDB693A6E9A42ABDB83
:1028A000D7ED217AF5EE407AF1EE10FA07D1D7EDA7
:1028B000207AF5EE407AF1EE10FA00F0D8847A6EC4
:1028C0007B6F08339B0013441B68FB637A6E3B6F7E
:1028D00008339B0013441B68BB6397ED0F7AD7ED59
:1028E0000E7AB4EE677AF1EE10FA5FD097ED157AB2
:1028F000D7ED217A77EE676A97ED207AD7ED217AC6
:1029000037EE677AC6EE877AC7ED057A97ED0E7ACD
:10291000D7ED0F7A37EE677AD7ED057A67EE277A2B
:1029200097ED0F7A77EE277AC7ED107A97ED107A48
:10293000D7ED067A27EE277AD7ED076AD7ED147A16
:1029400066EEA77A77EE277AC7ED147A97ED147AB8
:10295000D7ED107A77EE677AC7ED047AB7EE007A92
:10296000D7ED057A37EE677AD7ED047A27EE277A26
:10297000D7ED0F7A77EE277A7A6E7B6F08339B005C
:102980001344C3ED007A97ED047AD7ED057A27EE6C
:10299000277AD7ED0E7A77EE277A7A6E3B6F083377
:1029A0009B001344C3ED007A00F061BCFB6B3B64F9
:1029B00097ED107AD7ED067A27EE277AD7ED076ADA
:1029C000D7ED147A66EEA77A77EE277AC7ED147AF8
:1029D0007A6E7B6F08339B0013443A6D1A607A6EEF
:1029E0003B6F08339B0013443A6D1A6000F03FBC04
:1029F0007B6ED3F8E030002B00F03A847B6ED3F886
:102A00004431002B00F034847B6ED3F8E030012B8E
:102A10000CD10023FB660023BB667B6ED3F8E43049
:102A2000FB677B6ED3F8E430BB6786E07B6ED3ED4B
:102A3000397A97ED137AB4EEE77AF1EE10FA14D8FA
:102A40000023FB660123BB667A6EFB6E38339B0066
:102A5000134404331B68FB677A6EBB6E38339B00EC
:102A6000134404331B68BB6767E07B6ED3F8E03028
:102A7000013B7A6E38339B0013440433D3ED007A64
:102A800097ED137AB4EEE77AF1EE10FA1ADB7B6E6B
:102A9000D3F8E030023BFB667B6ED3F8E030013BBD
:102AA000BB667A6EFB6E38339B00134404331B689D
:102AB000FB677A6EBB6E38339B00134404331B688C
:102AC000BB673AE00123FB6531E0FB6D013B7A6EA9
:102AD00038339B00134404331B68FB677A6EFB6D2D
:102AE00038339B00134404331B68BB6797ED1F7A90
:102AF000D7ED137AB4EEE77AF1EE10FA0ED597ED32
:102B00001E7AD7ED137AB4EEE77AF1EE10FA05DD0E
:102B1000FB6D013BFB66FB6DBB660EE04FF00003F7
:102B2000FB674FF00003BB67FB6D0133FB657B6EFA
:102B3000D3F8E030FA6D9A42C7DB7B6ED3F84431AC
:102B4000012B0ED100237B6700233B677B6ED3F8FC
:102B50004831C7F884307B6ED3F84831C7F88030ED
:102B600087E07B6ED3ED527A97ED157AB4EEE77A73
:102B7000F1EE10FA14D800237B6701233B677A6ECD
:102B80007B6F52339B0013441B68C7F884307A6E06
:102B90003B6F52339B0013441B68C7F8803068E0DA
:102BA0007B6ED3F84431013B7A6E52339B00134461
:102BB000D3ED007A97ED157AB4EEE77AF1EE10FADC
:102BC0001ADB7B6ED3F84431023B7B677B6ED3F814
:102BD0004431013B3B677A6E7B6F52339B00134459
:102BE0001B68C7F884307A6E3B6F52339B001344E6
:102BF0001B68C7F880303CE00123BB6533E0BB6D48
:102C0000013B7A6E52339B0013441B68C7F8843033
:102C10007A6EBB6D52339B0013441B68C7F880303B
:102C200097ED217AD7ED157AB4EEE77AF1EE10FA46
:102C30000ED597ED207AD7ED157AB4EEE77AF1EE5E
:102C400010FA05DDBB6D013B7B67BB6D3B6710E098
:102C50004FF00003C7F884304FF00003C7F880300E
:102C6000BB6D0133BB657B6ED3F84431BA6D9A42BC
:102C7000C5DBD7ED217AF5EE407AF1EE10FA07D1F7
:102C8000D7ED207AF5EE407AF1EE10FA00F0F082FE
:102C9000D7ED1F7AF5EE407AF1EE10FA07D1D7EDB5
:102CA0001E7AF5EE407AF1EE10FA00F0E182796ECC
:102CB000FA6E13465B001344DB007A6F13446A33E9
:102CC0009B000B441B687B63796EFA6E13465B00B6
:102CD0001344DB003A6F13446A339B000B441B68B8
:102CE0003B63796EBA6E13465B001344DB007A6F68
:102CF00013446A339B000B441B68FB62796EBA6E07
:102D000013465B001344DB003A6F13446A339B00A5
:102D10000B441B68BB6297ED207AD7ED217AB4EEA5
:102D2000677AF1EE10FA00F0EF8097ED1F7AD7ED99
:102D30001E7AB4EE677AF1EE10FA00F0E58097EDB6
:102D4000157AD7ED217A77EE676A97ED207AD7ED7D
:102D5000217A37EE677AC6EE877AC7ED037A97ED68
:102D6000137AD7ED1F7A77EE676A97ED1E7AD7ED63
:102D70001F7A37EE677AC6EE877AC7ED027A97ED4B
:102D80000C7AD7ED0D7A37EE677AD7ED037A67EED6
:102D9000277A97ED0D7A77EE277AC7ED017A97EDCE
:102DA0000A7AD7ED0B7A37EE677AD7ED037A67EEBA
:102DB000277A97ED0B7A77EE277AC7ED007A97EDB1
:102DC000007AD7ED017A37EE677AD7ED027A67EEAF
:102DD000277A97ED017A77EE277AC7ED107A97ED8B
:102DE000107AD7ED067A27EE277AD7ED076AD7ED66
:102DF000147A66EEA77A77EE277AC7ED147A97ED04
:102E0000147AD7ED107A77EE677AC7ED047AB7EEC9
:102E1000007AD7ED037A37EE677AD7ED047A27EE9A
:102E2000277AF7EE006AD7ED027A76EEE77A27EE98
:102E3000277AD7ED0D7A77EE277A796EFA6E1346F8
:102E40005B001344DB007A6F13446A339B000B442E
:102E5000C3ED007A97ED047AD7ED037A27EE277A4F
:102E6000F7EE006AD7ED027A76EEE77A27EE277A58
:102E7000D7ED0C7A77EE277A796EFA6E13465B00FF
:102E80001344DB003A6F13446A339B000B44C3EDD9
:102E9000007AB7EE007AD7ED037A37EE677AD7ED8E
:102EA000047A27EE277AD7ED027A27EE277AD7ED34
:102EB0000B7A77EE277A796EBA6E13465B0013446D
:102EC000DB007A6F13446A339B000B44C3ED007A36
:102ED00097ED047AD7ED037A27EE277AD7ED027AB9
:102EE00027EE277AD7ED0A7A77EE277A796EBA6ECF
:102EF00013465B001344DB003A6F13446A339B00B4
:102F00000B44C3ED007AB3E197ED207AD7ED217A37
:102F1000B4EE677AF1EE10FA40F0AA8097ED1F7ACE
:102F2000D7ED1E7AB4EE677AF1EE10FA00F0A080C9
:102F300097ED137AD7ED1F7A77EE676A97ED1E7AD1
:102F4000D7ED1F7A37EE677AC6EE877AC7ED027A39
:102F50004FF07E53FB6097ED0B7AD7ED0D7A37EE8D
:102F6000677AD7ED027A67EE277A97ED0D7A77EEDA
:102F7000277AC7ED107A97ED107AD7ED067A27EE0B
:102F8000277AD7ED076AD7ED147A66EEA77A77EE3F
:102F9000277AC7ED147A97ED147AD7ED107A77EE89
:102FA000677AC7ED047AB7EE007AD7ED027A37EE8A
:102FB000677AD7ED047A27EE277AD7ED0D7A77EE88
:102FC000277A796EFA6E13465B001344DB007A6F42
:102FD00013446A339B000B44C3ED007AB7EE007ACA
:102FE000D7ED027A37EE677AD7ED047A27EE277AA3
:102FF000D7ED0C7A77EE277A796EFA6E13465B007E
:103000001344DB003A6F13446A339B000B44C3ED57
:10301000007A97ED047AD7ED027A27EE277AD7ED7A
:103020000B7A77EE277A796EBA6E13465B001344FB
:10303000DB007A6F13446A339B000B44C3ED007AC4
:1030400097ED047AD7ED027A27EE277AD7ED0A7A40
:1030500077EE277A796EBA6E13465B001344DB0075
:103060003A6F13446A339B000B44C3ED007AFFE0D0
:1030700097ED207AD7ED217AB4EE677AF1EE10FA67
:1030800000F0AA8097ED1F7AD7ED1E7AB4EE677A2A
:10309000F1EE10FA40F0A08097ED157AD7ED217A85
:1030A00077EE676A97ED207AD7ED217A37EE677A67
:1030B000C6EE877AC7ED037A4FF07E53BB6097ED7B
:1030C0000C7AD7ED0D7A37EE677AD7ED037A67EE93
:1030D000277A97ED0D7A77EE277AC7ED107A97ED7C
:1030E000107AD7ED067A27EE277AD7ED076AD7ED63
:1030F000147A66EEA77A77EE277AC7ED147A97ED01
:10310000147AD7ED107A77EE677AC7ED047AB7EEC6
:10311000007AD7ED037A37EE677AD7ED047A27EE97
:10312000277AD7ED0D7A77EE277A796EFA6E134605
:103130005B001344DB007A6F13446A339B000B443B
:10314000C3ED007A97ED047AD7ED037A27EE277A5C
:10315000D7ED0C7A77EE277A796EFA6E13465B001C
:103160001344DB003A6F13446A339B000B44C3EDF6
:10317000007AB7EE007AD7ED037A37EE677AD7EDAB
:10318000047A27EE277AD7ED0B7A77EE277A796ED5
:10319000BA6E13465B001344DB007A6F13446A3344
:1031A0009B000B44C3ED007A97ED047AD7ED037AC8
:1031B00027EE277AD7ED0A7A77EE277A796EBA6EFC
:1031C00013465B001344DB003A6F13446A339B00E1
:1031D0000B44C3ED007A4BE07B6B3B6497ED107AB8
:1031E000D7ED067A27EE277AD7ED076AD7ED147A5E
:1031F00066EEA77A77EE277AC7ED147A796EFA6EC3
:1032000013465B001344DB007A6F13446A339B0060
:103210000B443A6D1A60796EFA6E13465B001344E4
:10322000DB003A6F13446A339B000B443A6D1A601B
:10323000796EBA6E13465B001344DB007A6F134459
:103240006A339B000B443A6D1A60796EBA6E13466E
:103250005B001344DB003A6F13446A339B000B445A
:103260003A6D1A6004E000BF02E000BF00E000BF5A
:103270008837BD4680BD00BF80B590B000AF904B91
:103280005B6A7B634FF00003FB604FF000033B6120
:103290004FF400618B4809F0FBFF0346002B0CBF85
:1032A00001230023DBB287F8333004F027FEF0EE71
:1032B000407AC7ED037AD7ED037AB0EE670A04F0DF
:1032C000DFFEF0EE407AC7ED047A7F4BFB62B7EE8B
:1032D000007AD7ED0B7A77EE677AC7ED0A7A97F81E
:1032E0003330002B00F07C82784B1B6A002B21D0FE
:1032F00004F032FF0346002B17D0D7ED037A9FED81
:10330000747AF4EEC77AF1EE10FA0EDDD7ED037A97
:10331000B7EE087AF4EEC77AF1EE10FA05D501227D
:1033200004216C4809F0CCFF04E000220421694824
:1033300009F0C6FF654B5B69002B40F0538204F037
:10334000D3FE87ED090A04F0EBFE87ED080A04F0CE
:10335000F5FE87ED070A604BFB63D7ED097A9FED19
:103360005F7AF4EEC77AF1EE10FA02D55C4BFB639C
:103370002EE0D7ED097A9FED5B7AF4EEC77AF1EE95
:1033800010FA02D5584BFB6322E0D7ED097A9FED86
:10339000577AF4EEC77AF1EE10FA02D5544BFB637C
:1033A00016E0D7ED097A9FED537AF4EEC77AF1EE85
:1033B00010FA02D5504BFB630AE0D7ED097A9FED76
:1033C0004F7AF4EEC77AF1EE10FA01D54C4BFB635D
:1033D00004F0CEFE034607EE903AF8EE677AC7EDAA
:1033E000067AD7ED067AF5EE407AF1EE10FA00F0A3
:1033F000F281D7ED077A9FED437AF4EEC77AF1EECA
:1034000010FA07D5D7ED077A9FED3F7A67EE877AF6
:10341000C7ED0F7AD7ED0F6A97ED087AC6EE877A77
:10342000C7ED057A394B93ED007AD7ED0B7A27EE8D
:10343000277A364BD3ED006AD7ED0A7A66EEA77A83
:1034400077EE277A324BC3ED007A324A7B691360FC
:103450002F4B93ED007AD7ED087A67EE277A2E4B43
:10346000C3ED007A0023BB63B0E1BB6B9B0007F1A7
:1034700040021344343B93ED007A254BD3ED007AA0
:10348000F1EE677AB4EEE77AF1EE10FA48D5BB6B4D
:103490009B0007F140021344343BD3ED007AB1EEB8
:1034A000677A1B4BD3ED007A77EE677ABB6B9B0094
:1034B00007F1400213443C3BC3ED007A49E000BFF2
:1034C000000C0040000002406F12833AA01402205A
:1034D000CDCC4CBE000C02400040CE440000C8439E
:1034E00000C0DA4500002F440080BB4500007A444C
:1034F00000409C450080A24400007A450080BB4407
:1035000000803B4500207D45B497D03E2C1901201A
:103510000811022030190120281901200000B443AD
:10352000BB6B9B0007F140021344343BD3ED007AA0
:103530001FED067A37EE677AAC4BD3ED007A77EE63
:10354000677ABB6B9B0007F1400213443C3BC3ED21
:10355000007ABB6B9B0007F1400213443C3B93EDA8
:10356000007AA34ABB6B9B001344D3ED007A77EE3D
:10357000677AF5EEC07AF1EE10FA22DDBB6B9B00A4
:1035800007F1400213443C3B93ED007A984ABB6B31
:103590009B001344D3ED007A77EE677A9FED957A1E
:1035A000F4EEC77AF1EE10FA0BD5914ABB6B9B0093
:1035B00013441A68BB6B9B0007F140010B443C3B72
:1035C0001A60D7ED097A9FED8C7AF4EEC77AF1EEA6
:1035D00010FA59D5894ABB6B13441B78002B53D082
:1035E000BB6B9B0007F140021344343BD3ED007AE0
:1035F0009FED837AF4EEC77AF1EE10FA44D5814A52
:10360000BB6B13441B78002B1CD07F4ABB6B52F85A
:1036100023301946786B04F085FE024640F272634F
:103620009A420FD9BB6BDBB21846FDF759FE754ABB
:10363000BB6B134400221A707349BB6B7A6B41F861
:10364000232037E06F4ABB6B13441B78002B31D12A
:103650006D4ABB6B52F823301946786B04F062FE5A
:103660000346B3F5966F25D9BB6B5BB21846FDF7E1
:103670004BFE644ABB6B134401221A706249BB6B58
:103680007A6B41F8232015E05E4ABB6B13441B782C
:10369000002B09D05B4ABB6B134400221A70BB6B32
:1036A000DBB21846FDF71CFE544ABB6B13440022E4
:1036B0001A7000E000BFBB6B9B0007F1400213448F
:1036C0003C3B93ED007AD7ED057A77EE677AF5EE1D
:1036D000C07AF1EE10FA1AD54C4ABB6B13441B7832
:1036E000002B14D14A4ABB6B13441B78002B0ED11C
:1036F000464ABB6B134401221A70404ABB6B134409
:1037000000221A70BB6B5BB21846FDF7FDFD384A0C
:10371000BB6B9B00134493ED007ABB6B9B0007F1DE
:10372000400213443C3BD3ED007A77EE677ABFEE5C
:10373000007AF4EEC77AF1EE10FA33D5344ABB6B57
:1037400013441B78002B32D1304ABB6B13441B78D7
:10375000002B2CD02E4ABB6B134401221A702B4A2B
:10376000BB6B134400221A70BB6BDBB21846FDF72B
:10377000B7FDD7ED097A9FED207AF4EEC77AF1EE26
:1037800010FA14D52049BB6B7A6B41F823201D4AEF
:10379000BB6B134400221A70184ABB6B13440122FE
:1037A0001A7004E01A4ABB6B134400221A70BB6BF8
:1037B0009B0007F1400213443C3B1A680C49BB6B69
:1037C0009B000B441A60BB6B0133BB63BB6B012BCB
:1037D0007FF74BAE07E00F4B4FF000021A6002E09C
:1037E00000BF00E000BF4037BD4680BD0811022089
:1037F0000C110220000034430000AF4314110220DA
:103800000000A042181102201C110220B404012063
:10381000B80401202C19012090B591B000AF02230B
:1038200087F82330B64B5B6AFB6104F05DFC87EDE3
:10383000060A05F08FFD87ED050A05F08BFDF0EE19
:10384000406A9FEDB07AC6EE877A9FEDAF7A67EE59
:10385000877AC7ED047A0023BB6300237B634FF4B0
:103860000041AA4809F014FD0346012B0CBF0123B7
:103870000023DBB2FB734FF40061A54809F008FD9B
:103880000346002B0CBF01230023DBB2BB730023D4
:1038900087F82F309F4B93F900307B739E4B1B684A
:1038A000002B0DD0D7ED067AB2EE047AF4EEC77A8B
:1038B000F1EE10FA04DC04F04FFC0346002B02D0BA
:1038C000954AFB691360954B1B78002B33D19448C4
:1038D00007F0B6FE0346042B2DD9924A01219048E9
:1038E00007F0C8FF904A02218D4807F0C3FF8C48BB
:1038F00007F0A6FE02468B4B1B789A421BD38B4BDC
:103900003B630023BB6209E03B6B5A1C3A631946D8
:10391000834807F0A0FFBB6A0133BB62814B1B7871
:103920001A46BB6A9342EFDB7F4B1B78002B02D019
:103930007A4B01221A70794B1B78002B11D07A4BED
:103940001878784B1B781A46784901F07FFA0346BD
:103950003B7397F90C30002B03D0704B00221A7088
:1039600000BF734B1B78DBB2002B00F0B180714BB2
:103970001B68BB60704B1B687B606D4B00221A702C
:10398000BB68002B00F0A48000237B6215E07B6AFB
:103990005A1C7A625B00BA6813441B881A467B6B18
:1039A00013447B637B6A5A1C7A625B00BA681344D7
:1039B0001B881A46BB6B1344BB637B6A7A689A42C6
:1039C000E5D87B685B087A6BB2FBF3F37B637B68BB
:1039D0005B08BA6BB2FBF3F3BB63BB6B07EE903AC9
:1039E000B8EE677ADFED556AC7EE267A9FED547A16
:1039F00067EE877AB1EE067A67EE877A514BC3EDB0
:103A0000007A7B6B07EE903AB8EE677ADFED4B6A8F
:103A1000C7EE267A9FED4A7A67EE877AB2EE067A8B
:103A200067EE877AC7ED0F7AD7ED0F7AB7EE007A97
:103A3000F4EEC77AF1EE10FA03D5434B434A1A600D
:103A400046E0404BD3ED007A97ED0F7AB4EEE77A7B
:103A5000F1EE10FA02DB3B4B1B68FB633C4B3B6017
:103A6000384B93ED007AD7ED0F6AC6EE877AB7EE42
:103A7000007A77EE677AD7ED006A86EEA77AD7EDFF
:103A8000007A77EE677AC7ED007A97ED000AFDF7C6
:103A9000F9F987ED0F0AD7ED0F7A9FED2E7AF4EE44
:103AA000C77AF1EE10FA03D5274B2B4A1A600FE0C4
:103AB000D7ED0F7A9FED297AF4EEC77AF1EE10FA7E
:103AC00003DD214B214A1A6002E01F4AFB6B1360A1
:103AD000234B1B78002B57D1224B1B78002B53D143
:103AE000214B1B78DBB2002B42D01E4B1B78002BE6
:103AF0003ED11B4B01221A701C4B00221A7043E06E
:103B0000000C004000D8D6470000C8420008024020
:103B1000000002404019012030110220341102201F
:103B2000F010022035110220361102207009022007
:103B30006C090220640902206809022000FF7F4707
:103B40008FC255403C19012038190120000016434E
:103B500000004843000020C2000020C200001643BD
:103B600037110220381102205C09022014190120AB
:103B7000B04B1B78DBB2002B06D0AF4B1B78002B71
:103B800002D1AE4B01221A70AB4B1B78002B2ED00A
:103B9000AB4B00221A70AB4803F0FCFC034687F8DD
:103BA000233097F82330022B4DD0A74B1B78DAB285
:103BB000A64B9A7097F82330002B14BF01230023E3
:103BC000DBB21A46A14B5A600822A049A04807F070
:103BD00022FEA04A97F823301370974B00221A70E8
:103BE000974B01221A709C4B00221A702BE0934BCA
:103BF0001B78002B27D0934801F03AF9034687F849
:103C0000233097F82330022B1DD0944B1B78DAB267
:103C1000934B9A7097F82330002B14BF0123002395
:103C2000DBB21A468E4B5A6008228D49884807F04D
:103C3000F2FD884A97F823301370804B00221A70E7
:103C40007C4B00221A70BB7B002B0BD07D4B5B6939
:103C5000002B07D1FDF764FFF0EE407A814BC3EDF6
:103C6000007A03E07F4B4FF000021A60BB7B002B11
:103C700005D0744B9B69002B01D0FEF7A3FCFDF728
:103C8000EFFEFDF7FBFCBB7B002B00F010816D4BC2
:103C90005B6A002B04D06B4B9B6A87F82F3051E096
:103CA000684BDB69002B36D000224FF480716E48E0
:103CB00009F006FB00224FF400716B4809F000FB8D
:103CC0002021694809F0E4FA0346002B0BD11021AA
:103CD000654809F0DDFA0346012B04D1594BDB6A34
:103CE00087F82F302EE020215F4809F0D1FA0346F3
:103CF000012B0BD110215C4809F0CAFA0346002BB6
:103D000004D1504B5B6B87F82F301BE04D4B1B6B86
:103D100087F82F3016E07B7B002B04D1494B1B6BBF
:103D200087F82F300EE07B7B012B04D1454BDB6AFB
:103D300087F82F3006E07B7B022B03D1414B5B6B76
:103D400087F82F3097F82F30032B00F2BC80474ABA
:103D500097F82F30137097F82F303A4A40F66C419D
:103D600001FB03F31344CC331A78414B1A70404BD8
:103D70001A78404B1B789A4206D03D4B1A783D4B3F
:103D80001A703D4AFB6913602E4BDB69002B40F033
:103D90009A8097F82F302B4A40F66C4101FB03F3D1
:103DA0001344CC331B78002B1DD097F82F30254AB5
:103DB00040F66C4101FB03F31344D0331B68002B26
:103DC0001ED02D4B1B681946F86904F0ABFA97F822
:103DD0002F301C4A40F66C4101FB03F31344D033EF
:103DE0001B6898420CD900224FF480711E4809F0DC
:103DF00067FA00224FF400711B4809F061FA62E093
:103E000097F82F300F4A40F66C4101FB03F313443F
:103E1000CC331B78012B31D100224FF48071124832
:103E200009F04EFA01224FF400710F4809F048FAE8
:103E300049E000BF5D09022037110220381102203D
:103E400014190120A014022060090220000301209F
:103E5000F0100220A60401205C0902206109022062
:103E6000200301202C1901200004024034190120F4
:103E700035190120391102203011022097F82F3016
:103E8000B74A40F66C4101FB03F31344CC331B7873
:103E9000022B18D101224FF48071B24809F010FAB8
:103EA00000224FF40071AF4809F00AFA0BE000223B
:103EB0004FF48071AB4809F003FA00224FF400710F
:103EC000A84809F0FDF9BB7B002B05D10022042195
:103ED000A54809F0F5F93AE0A14B1B6A002B36D151
:103EE0009F4BDB68002B2DD0FB7B002B13D09C4B12
:103EF000D3ED0E7A9FED9D7A77EE877A97ED067A6D
:103F0000B4EEE77AF1EE10FA05DD002204219648BE
:103F100009F0D6F91BE0FB7B002B0DD0904BD3EDC5
:103F20000E7A9FED927A77EEC77A97ED067AB4EE25
:103F3000E77AF1EE10FA0AD5012204218A4809F045
:103F4000BFF904E001220421874809F0B9F9884B40
:103F50001B78002B00F00082864B1B78002B06D0CC
:103F6000834B00221A70844B00221A70F4E1824BBA
:103F70001B78002B00F01481804B1B681946F869F0
:103F800004F0D0F9024644F61F639A4240F2E481FD
:103F90007A4AFB6913607A4B1B68B3F5406F80F077
:103FA000CF80774B1A68774B1968774813469B0088
:103FB00013449B0003440C331960714B1C6804F0DC
:103FC000A1F8F0EE407A704A23469B0023449B0000
:103FD0001344C3ED007A6A4B1A686B4913469B0081
:103FE00013449B000B4404337A691A60644B1A68CB
:103FF000654913469B0013449B000B4408333A6900
:104000001A60624B1A685E4B1C681146F86904F02E
:1040100089F901465C4A23469B0023449B001344D4
:1040200010331960564B1B680133554A1360584BC7
:1040300093ED007A574BD3ED007AB4EEE77AF1EEC8
:1040400010FA38D5534BD3ED007A97ED067AB4EEDB
:10405000E77AF1EE10FA0FDB474B00221A704E4B55
:1040600000221A70424B00221A70424B01221A7031
:10407000424B00221A606FE1454BD3ED007A9FED71
:10408000477A77EEC77A97ED067AB4EEE77AF1EEE3
:1040900010FA00D460E1384B00221A703E4B042223
:1040A0001A70334B00221A70324B01221A70334BB4
:1040B00000221A6050E1364B93ED007A354BD3ED78
:1040C000007AB4EEE77AF1EE10FA00DC44E1314B0D
:1040D000D3ED007A97ED067AB4EEE77AF1EE10FAB6
:1040E0000FD8254B00221A702B4B00221A70204B40
:1040F00000221A701F4B01221A70204B00221A60F6
:104100002AE1234BD3ED007A9FED247A77EE877A6C
:1041100097ED067AB4EEE77AF1EE10FA00DC1BE1D7
:10412000154B00221A701C4B04221A70104B0022EF
:104130001A70104B01221A70104B00221A600BE10A
:104140000D4B00221A70144B05221A70084B0022E6
:104150001A70084B01221A70084B00221A60FBE00B
:10416000A014022000040240000C0240000096420D
:10417000500902205209022051090220540902204C
:10418000440902202C190120441901205809022059
:10419000480902204C090220530902200000C842AD
:1041A0006F4B93ED007A6F4BD3ED007AB4EEE77A64
:1041B000F1EE10FA64D56A4BD3ED007A97ED067AEA
:1041C000B4EEE77AF1EE10FA56DD674B1B68002B70
:1041D00000F0C280644AFB691360644B01221A70CC
:1041E000634B00221A70634B00221A60624AFB691B
:1041F0001360604B1A68614B1968614813469B0055
:1042000013449B0003440C3319605A4B1A685C49F1
:1042100013469B0013449B000B44BA691A60554B2C
:104220001A68574913469B0013449B000B44043300
:104230007A691A604F4B1A68514913469B00134420
:104240009B000B4408333A691A604B4B1A68494B80
:104250001C681146F86904F065F80146484A23468F
:104260009B0023449B00134410331960414B1B688F
:104270000133404A13606FE03B4AFB6913606BE017
:10428000374B93ED007A374BD3ED007AB4EEE77AF3
:10429000F1EE10FA00DC5FE0314BD3ED007A97EDE0
:1042A000067AB4EEE77AF1EE10FA52D52E4B1B687F
:1042B000002B51D02C4AFB6913602C4B01221A7041
:1042C0002C4B00221A602C4AFB691360294B1A6898
:1042D0002A4B19682A4813469B0013449B00034449
:1042E0000C331960234B1A68254913469B0013446D
:1042F0009B000B44BA691A601E4B1A68204913468A
:104300009B0013449B000B4404337A691A60194BD9
:104310001A681B4913469B0013449B000B44083347
:104320003A691A60144B1A68124B1C681146F869F6
:1043300003F0F8FF0146124A23469B0023449B00EA
:104340001344103319600B4B1B680133094A136087
:1043500002E0054AFB69136000BF4437BD4690BDCB
:10436000480902204C090220540902205109022068
:104370005309022044090220580902202C19012067
:1043800044190120B0B58EB000AF0346B9607A6021
:10439000FB73834B5B6A7B63C0233B63FB7B012B1B
:1043A00014D1804B1B681946786B03F0BBFF0246A3
:1043B0007D4B9A420AD97B4A7B6B13607B4B03226D
:1043C0009A70042279497A4807F025FABB681B786D
:1043D000013B172B00F21B8501A252F823F000BF0E
:1043E0004144000865440008714400080F4E00086D
:1043F000F9450008F7460008E94D0008F1470008B4
:10440000C1480008DF4D000875490008CD49000883
:104410000F4E00080F4E0008554A0008D14B000807
:104420000F4E0008494B0008194D00080F4E0008B8
:104430000F4E00080F4E00080F4E0008F34D000805
:10444000B9685C48FCF78AFC5A4B5B685A4A53606F
:10445000594AFB7B937008225749554807F0DBF90E
:1044600000F0D8BCB9685448FCF778FC00F0D2BC26
:10447000524AFB7B937003F037FEF0EE407A4F4BCD
:10448000C3ED057A03F03EFEF0EE407A4B4BC3EDF0
:10449000067A04F05FFFF0EE407A484BC3ED077AEE
:1044A00004F058FFF0EE406A9FED457AC6EE877A39
:1044B0009FED447A67EE877A404BC3ED087A424B12
:1044C0001B683E4A5362414B1B683C4AD362404BD7
:1044D0001B683A4A13633F4B1A78384B5A71374B73
:1044E000D3ED067AB2EE047AF4EEC77AF1EE10FA62
:1044F00009D5324BD3ED077A9FED377AF4EEC77AC0
:10450000F1EE10FA1AD403F03FFE0346002B15D14A
:10451000324BD3ED007AB7EE007AF4EEC77AF1EEC3
:1045200010FA0BDC254BD3ED087AF5EE407AF1EE6C
:1045300010FA03D02A4B1B78002B01D0012300E096
:104540000023DAB21D4B9A71264B1A781B4B1A7155
:10455000234B1B78002B14D1184B1B79032B0AD843
:10456000164B1B791A4640F66C4303FB02F3C0332B
:104570001D4A134400E01D4B19461D480DF041FC37
:1045800007E00E4B1B4ADC1D134607CB2060616021
:10459000A26034220949064807F03DF900F03ABC10
:1045A000000C00404411022020A1070080040120DB
:1045B000F010022000000120200001204000012016
:1045C00000D8D6470000C8422C1901203C19012010
:1045D00038190120351901200004A64720190120AF
:1045E000A604012034190120A0140220DC1E0108B9
:1045F00047000120E01E0108B9687748FCF7AEFBD0
:10460000764AFB7B9370744BDB68744A1361734B7F
:104610001B69BB62704B1B69704A53616F4B5B69CE
:104620007B626D4B5B686D4A93606C4B9B68BB61B2
:10463000694B9B68694AD360684BDB687B61674B59
:1046400000225A607B6940F66C42934202D0634B71
:1046500001225A607A6ABB6A134440F66C42934264
:1046600002D95E4B02225A607B6AE02B04D87B6A37
:1046700040F66C42934202D9584B03225A60BB6900
:10468000032B02D9554B04225A60544B5B68002B14
:1046900023D1BB6940F66C4202FB03F3C033504A9E
:1046A0001A44BB6A13447A6A19464E480DF096FBC9
:1046B0007B6A1833494A1344981C7B6AC3F1E003B0
:1046C0001A4600210DF095FBE021464803F020F842
:1046D00003461A46414B1A8307E0E0220021414875
:1046E0000DF087FB3D4B00221A83FC223B493E48DC
:1046F00007F091F88EE3B9683848FCF72FFB3B4A86
:10470000FB7B9370354B1B69384A1361374B1B6930
:10471000BB62324B5B69354A5361344B5B697B62E8
:104720002E4B9B68314A9360304B9B68BB612B4B8F
:10473000DB682E4AD3602D4BDB687B612B4B00225C
:104740005A607B6940F66C42934202D0274B0122AB
:104750005A607A6ABB6A134440F66C42934202D9AB
:10476000224B02225A607B6AE02B04D87B6A40F617
:104770006C42934202D91D4B03225A60BB69032B42
:1047800002D91A4B04225A60184B5B68002B1DD1CA
:10479000E021144802F0BCFF03467B820F4B1B8BC9
:1047A0007A8A9A420FD1BB6940F66C4202FB03F34E
:1047B000C0330B4A1A44BB6A13447A6A0949184643
:1047C0000DF00CFB02E0094B05225A601822074944
:1047D000054807F020F81DE380000120A00001201B
:1047E000A0140220BA000120F0100220A001012034
:1047F000B9688B48FCF7B2FA8A4AFB7B9370884B06
:104800009B68884AD360874BDB68BB62844BDB685C
:10481000844A1361834B1B697B62814B5B68814ACD
:104820009360804B9B683B627E4B00225A603A6AE1
:104830003B6B9A4202D07B4B01225A607A6ABB6A78
:1048400013443A6B9A4202D2764B02225A607A6A39
:104850003B6B9A4202D87B6AE02B02D9714B032250
:104860005A60704B5B68002B1CD1BB6A6E4A1344C4
:104870007A6A19466D480DF0B1FA7B6A1033694ABD
:104880001344981D7B6AC3F1E0031A4600210DF022
:10489000B0FAE021654802F03BFF03461A46614B3F
:1048A0009A8207E0E022002160480DF0A2FA5D4BF9
:1048B00000229A82F8225B495D4806F0ACFFA9E22B
:1048C000B9685848FCF74AFA5A4AFB7B9370554B33
:1048D000DB68584AD360574BDB68BB62514B1B699E
:1048E000544A1361534B1B697B624E4B9B68514A80
:1048F0009360504B9B683B624E4B00225A603A6A71
:104900003B6B9A4202D0474B01225A607A6ABB6ADB
:1049100013443A6B9A4202D2424B02225A607A6A9C
:104920003B6B9A4202D87B6AE02B02D93D4B0322B3
:104930005A60404B5B68002B16D1E0213B4802F0E7
:10494000E7FE0346FB83374B9B8AFA8B9A4208D1DA
:10495000BB6A354A13447A6A344918460DF03EFA68
:1049600002E0344B05225A6014223249304806F0E6
:1049700052FF4FE2304B1B78DBB2002B09D12F4A9C
:10498000FB7B13702C4B01221A702D4B00221A70E6
:1049900040E22C4B1B78DBB2002B0BD02A4AFB7B6E
:1049A0009370294B03225A6008222749204806F0B9
:1049B00032FF2FE2244AFB7B9370234B02225A6082
:1049C000082221491A4806F026FF23E21D4B1B78D6
:1049D000DBB2002B06D11D4AFB7B1370194B012261
:1049E0001A7017E2144B1B78DBB2002B0BD0184A5D
:1049F000FB7B9370164B03225A60082214490C4823
:104A000006F009FF06E2124AFB7B9370104B02226C
:104A10005A6008220E49064806F0FDFEFAE100BF82
:104A2000C0010120E0010120A0140220F6010120B4
:104A3000F0100220E00201205C090220600902203F
:104A4000141901205D0902200003012061090220E0
:104A500020030120B9689B48FCF780F99A4AFB7B48
:104A60009370984B5B68984A9360974B9B68974A02
:104A70001360944B9B68944AD360934BDB68944AD1
:104A80001360944B00221A70934B00221A70934BC0
:104A900000221A70924B00221A60924B00221A6078
:104AA000914B00221A60894BD3ED007A9FED8F7AEB
:104AB000F4EEC77AF1EE10FA39DD844BD3ED007ACB
:104AC0009FED8B7AF4EEC77AF1EE10FA2FD5804B7A
:104AD000D3ED007A9FED857AF4EEC77AF1EE10FA05
:104AE00025DD7B4BD3ED007A9FED817AF4EEC77A1A
:104AF000F1EE10FA1BD5754B93ED007A744BD3EDA4
:104B0000007A77EE677AF0EEE77A9FED7A7AF4EE44
:104B1000C77AF1EE10FA0ADD6B4B00221A716A4B6C
:104B20001A79754B1A706C4B01221A7006E0664BAD
:104B300001221A71644B1A796F4B1A701022624964
:104B40006E4806F068FE65E1B9686D48FCF706F945
:104B50006C4AFB7B93706A4B5B686A4A9360684B54
:104B60009B68684AD360674B00221A71654B1A79BB
:104B7000614B1A70574B00221A70574B00221A7063
:104B8000564B00221A70564B00221A60554B0022D9
:104B90001A605B4B93ED017A4C4BD3ED007AB4EE87
:104BA000677AF1EE10FA0AD1554B93ED027A484B31
:104BB000D3ED007AB4EE677AF1EE10FA02D0514BE1
:104BC00002221A7110224F494C4806F024FE21E1BE
:104BD000B9684D48FCF7C2F84C4AFB7B93704B4BCD
:104BE00000221A71484B5B68484A9360464B9B68A9
:104BF000464AD36003F078FAF0EE407A434BC3EDB7
:104C0000047A434B1B68414AD36104F0A3FBF0EEE6
:104C1000407A3E4BC3ED057A04F09CFBF0EE406A0F
:104C20009FED3C7AC6EE877A9FED307A67EE877A01
:104C3000364BC3ED067A2A4B1B68344A5362254B28
:104C40001A78324B83F82820244B1A782F4B83F89C
:104C50002920244B1B68002B07D0224B1B681946C8
:104C6000786B03F05FFB034600E00023274A1362E2
:104C7000254B93ED017A154BD3ED007AB4EE677AAC
:104C8000F1EE10FA0AD1204B93ED027A104BD3EDDE
:104C9000007AB4EE677AF1EE10FA03D01B4B0222D1
:104CA0001A7109E0144B1B78002B05D0124B1B78AE
:104CB0000A33DAB2154B1A712C2214490F4806F048
:104CC000AAFDA7E04003012040040120480902207A
:104CD0004C090220510902205009022052090220E9
:104CE0004409022058090220540902200000C84249
:104CF00000409C4600008C4253090220F010022024
:104D0000C003012060040120600301208003012012
:104D10002C19012000D8D647B9684048FCF71EF886
:104D20003F4AFB7B93703F4B5B683D4A93603D4B32
:104D30009B683B4AD3603A4B00221A71374B5B6841
:104D4000374A1361364B1B69FB62374B1B68FA6AA3
:104D50009A4216D3324B4FF000029A61304B4FF01B
:104D600000025A612E4B4FF00002DA612C4B4FF0DB
:104D700000021A622A4B00225A62294B03221A713E
:104D800027E027492948FA6A13469B0013449B00F1
:104D9000034401F114041D460FCD0FC42B6823609A
:104DA0001E4B93ED027A224BD3ED007AB4EE677A74
:104DB000F1EE10FA0AD1194B93ED037A1D4BD3EDA6
:104DC000007AB4EE677AF1EE10FA02D0144B0222A8
:104DD0001A7128221249184806F01DFD1AE0B96818
:104DE0001648FBF7BBFF15E0B9681548FBF7B6FF9F
:104DF00010E0B9681348FBF7B1FF124B1B79022B87
:104E000007D8104B1B795AB20F4B1A7001E000BF44
:104E100000E000BF00BF3837BD46B0BDE003012051
:104E200000040120C003012044090220441901208C
:104E3000480902204C090220F0100220E002012063
:104E4000A0010120A00401204019012080B584B0F8
:104E500000AF0346B9607A60FB73FB7B7A68B96880
:104E6000184605F0C5FD034618461037BD4680BDFF
:104E700080B586B000AF78600223FB754FF44A53CB
:104E80003B617A6843F2A021002004F0EEFE034665
:104E9000FB73FB7B002B11D03969786802F038FC7A
:104EA0000346BB817B6803F54A531B88BA899A4243
:104EB00002D10023FB7501E00123FB75FB7D184641
:104EC0001837BD4680BD000080B483B000AF786065
:104ED0000B46FB70FB787A6840F66C4101FB03F3EC
:104EE000134403F5017310221A60FB787A6840F6C8
:104EF0006C4101FB03F3134403F50273BA4A1A60D1
:104F0000FB787A6840F66C4101FB03F3134403F528
:104F10000373B64A1A60FB787A6840F66C4101FB6D
:104F200003F3134403F50473B14A1A60FB787A68FB
:104F300040F66C4101FB03F3134403F50573AD4ADE
:104F40001A60FB787A6840F66C4101FB03F3134466
:104F500003F50673A84A1A60FB787A6840F66C413C
:104F600001FB03F3134403F50773A44A1A60FB78AB
:104F70007A6840F66C4101FB03F3134403F50873B0
:104F80009F4A1A60FB787A6840F66C4101FB03F394
:104F9000134403F509739B4A1A60FB787A6840F65C
:104FA0006C4101FB03F3134403F50A73964A1A603C
:104FB000FB787A6840F66C4101FB03F3134403F578
:104FC0000B73924A1A60FB787A6840F66C4101FBD9
:104FD00003F3134403F50C738D4A1A60FB787A6867
:104FE00040F66C4101FB03F3134403F50D73894A4A
:104FF0001A60FB787A6840F66C4101FB03F31344B6
:1050000003F50E73844A1A60FB787A6840F66C41A7
:1050100001FB03F3134403F50F73804A1A60FB7816
:105020007A6840F66C4101FB03F3134403F51073F7
:105030007B4A1A60FB787A6840F66C4101FB03F307
:10504000134403F51173774A1A60FB787A6840F6C7
:105050006C4101FB03F3134403F5D07310221A6073
:10506000FB787A6840F66C4101FB03F3134403F5C7
:10507000D2736D4A1A60FB787A6840F66C4101FB86
:1050800003F3134403F5D473684A1A60FB787A6813
:1050900040F66C4101FB03F3134403F5D673644AF5
:1050A0001A60FB787A6840F66C4101FB03F3134405
:1050B00003F5D8735F4A1A60FB787A6840F66C4152
:1050C00001FB03F3134403F5DA735B4A1A60FB78C0
:1050D0007A6840F66C4101FB03F3134403F5DC737B
:1050E000564A1A60FB787A6840F66C4101FB03F37C
:1050F000134403F5DE73524A1A60FB787A6840F66F
:105100006C4101FB03F3134403F5E0734D4A1A604D
:10511000FB787A6840F66C4101FB03F3134403F516
:10512000E273494A1A60FB787A6840F66C4101FBE9
:1051300003F3134403F5E473444A1A60FB787A6876
:1051400040F66C4101FB03F3134403F5E673404A58
:105150001A60FB787A6840F66C4101FB03F3134454
:1051600003F5E8733B4A1A60FB787A6840F66C41B5
:1051700001FB03F3134403F5EA73374A1A60FB7823
:105180007A6840F66C4101FB03F3134403F5EC73BA
:10519000324A1A60FB787A6840F66C4101FB03F3EF
:1051A000134403F5EE732E4A1A60FB787A6840F6D2
:1051B0006C4101FB03F3134403F5F073294A1A60B1
:1051C000FB787A6840F66C4101FB03F3134403F566
:1051D0001A73254A1A60FB787A6840F66C4101FB25
:1051E00003F3134442E000BF0000164400003444BF
:1051F0000000524400807744004092440080AC4458
:105200000040CE4400C0F3440060104500A02A4591
:1052100000A048450000704500908D4500D0A7458E
:1052200000C0C6450060EA4500A0D74500D04F4603
:1052300000E8994600E8CB4600E8FD4600F4174731
:1052400000F4304700F4494700F4624700587C47B7
:1052500000AC8A47002C974700ACA347002CB0470E
:10526000007ABC47002CC9470000684103F51B7356
:10527000BA4A1A60FB787A6840F66C4101FB03F386
:10528000134403F51C73B64A1A60FB787A6840F63B
:105290006C4101FB03F3134403F51D73B14A1A601B
:1052A000FB787A6840F66C4101FB03F3134403F585
:1052B0001E73AD4A1A60FB787A6840F66C4101FBB8
:1052C00003F3134403F51F73A84A1A60FB787A6846
:1052D00040F66C4101FB03F3134403F52073A44A29
:1052E0001A60FB787A6840F66C4101FB03F31344C3
:1052F00003F521739F4A1A60FB787A6840F66C4187
:1053000001FB03F3134403F522739B4A1A60FB78F5
:105310007A6840F66C4101FB03F3134403F52373F1
:10532000964A1A60FB787A6840F66C4101FB03F3F9
:10533000134403F52473924A1A60FB787A6840F6A6
:105340006C4101FB03F3134403F525738D4A1A6086
:10535000FB787A6840F66C4101FB03F3134403F5D4
:105360002673894A1A60FB787A6840F66C4101FB23
:1053700003F3134403F52773834A1A60FB787A68B2
:1053800040F66C4101FB03F3134403F528737F4A95
:105390001A60FB787A6840F66C4101FB03F3134412
:1053A00003F529737A4A1A60FB787A6840F66C41F3
:1053B00001FB03F3134403F53273684A1A60FB7868
:1053C0007A6840F66C4101FB03F3134403F5337331
:1053D000634A1A60FB787A6840F66C4101FB03F37C
:1053E000134403F534736B4A1A60FB787A6840F60D
:1053F0006C4101FB03F3134403F53573664A1A60ED
:10540000FB787A6840F66C4101FB03F3134403F523
:105410003673624A1A60FB787A6840F66C4101FB89
:1054200003F3134403F537735D4A1A60FB787A6817
:1054300040F66C4101FB03F3134403F53873594AFA
:105440001A60FB787A6840F66C4101FB03F3134461
:1054500003F53973544A1A60FB787A6840F66C4158
:1054600001FB03F3134403F53A73434A1A60FB78D4
:105470007A6840F66C4101FB03F3134403F53B7378
:105480003E4A1A60FB787A6840F66C4101FB03F3F0
:10549000134403F53C73454A1A60FB787A6840F67A
:1054A0006C4101FB03F3134403F53D73354A1A6065
:1054B000FB787A6840F66C4101FB03F3134403F573
:1054C0003E73314A1A60FB787A6840F66C4101FB02
:1054D00003F3134403F53F732B4A1A60FB787A6891
:1054E00040F66C4101FB03F3134403F54073274A74
:1054F0001A60FB787A6840F66C4101FB03F31344B1
:1055000003F54173224A1A60FB787A6840F66C41D1
:1055100001FB03F3134403F54A73254A1A60FB7831
:105520007A6840F66C4101FB03F3134403F54B73B7
:10553000204A1A60FB787A6840F66C4101FB03F35D
:10554000134403F54C731C4A1A60FB787A6840F6E2
:105550006C4101FB03F3134430E000BFCDCC80412C
:10556000000090413333A7419A99C5419A99ED4182
:10557000333317429A99234266662A429A992D42FA
:10558000000030429A99314233333142333333424F
:1055900000003442CDCCA041CDCCB841CDCCD441DB
:1055A0000000F841666618420000244200002C42C8
:1055B00066668E419A999D410000AC4103F54D739A
:1055C000BA4A1A60FB787A6840F66C4101FB03F333
:1055D000134403F54E73B64A1A60FB787A6840F6B6
:1055E0006C4101FB03F3134403F54F73B14A1A6096
:1055F000FB787A6840F66C4101FB03F3134403F532
:105600005073AD4A1A60FB787A6840F66C4101FB32
:1056100003F3134403F55173A84A1A60FB787A68C0
:1056200040F66C4101FB03F3134403F55273A44AA3
:105630001A60FB787A6840F66C4101FB03F313446F
:1056400003F553739F4A1A60FB787A6840F66C4101
:1056500001FB03F3134403F554739B4A1A60FB7870
:105660007A6840F66C4101FB03F3134403F555736C
:10567000964A1A60FB787A6840F66C4101FB03F3A6
:10568000134403F55673924A1A60FB787A6840F621
:105690006C4101FB03F3134403F557738C4A1A6002
:1056A000FB787A6840F66C4101FB03F3134403F581
:1056B0005873884A1A60FB787A6840F66C4101FB9F
:1056C00003F3134403F55973834A1A60FB787A682D
:1056D00040F66C4101FB03F3134403F562737F4A08
:1056E0001A60FB787A6840F66C4101FB03F31344BF
:1056F00003F563737A4A1A60FB787A6840F66C4166
:1057000001FB03F3134403F56473764A1A60FB78D4
:105710007A6840F66C4101FB03F3134403F56573AB
:10572000714A1A60FB787A6840F66C4101FB03F31A
:10573000134403F566736D4A1A60FB787A6840F685
:105740006C4101FB03F3134403F56773684A1A6065
:10575000FB787A6840F66C4101FB03F3134403F5D0
:105760006873644A1A60FB787A6840F66C4101FB02
:1057700003F3134403F569735F4A1A60FB787A6890
:1057800040F66C4101FB03F3134403F56A735B4A73
:105790001A60FB787A6840F66C4101FB03F313440E
:1057A00003F56B73564A1A60FB787A6840F66C41D1
:1057B00001FB03F3134403F56C73524A1A60FB7840
:1057C0007A6840F66C4101FB03F3134403F56D73F3
:1057D0004D4A1A60FB787A6840F66C4101FB03F38E
:1057E000134403F56E73494A1A60FB787A6840F6F1
:1057F0006C4101FB03F3134403F56F73424A1A60D3
:10580000FB787A6840F66C4101FB03F3134403F51F
:1058100070733F4A1A60FB787A6840F66C4101FB6E
:1058200003F3134403F571733A4A1A60FB787A68FC
:1058300040F66C4101FB03F3134403F57A73274AE6
:105840001A60FB787A6840F66C4101FB03F313445D
:1058500003F57B73304A1A60FB787A6840F66C4136
:1058600001FB03F3134403F57C732C4A1A60FB78A5
:105870007A6840F66C4101FB03F3134403F57D7332
:10588000274A1A60FB787A6840F66C4101FB03F303
:10589000134403F57E73234A1A60FB787A6840F656
:1058A0006C4101FB03F313443EE000BF9A99C141F0
:1058B000CDCCDC419A99FD413333194266662442CE
:1058C00066662A429A992D4200002C429A993142EA
:1058D0003333314233333342000034429A99954195
:1058E0000000A4419A99B141CDCCC4419A99DD41BF
:1058F0006666FE41CDCC18429A9923429A99294274
:10590000CDCC2C42CDCC2E426666304200003042D7
:10591000CDCC32429A9933423333A3413333AF4132
:105920006666C2416666DA4103F57F73BA4A1A6059
:10593000FB787A6840F66C4101FB03F3134403F5EE
:105940008063B64A1A60FB787A6840F66C4101FBC6
:1059500003F3134403F20443B14A1A60FB787A68F4
:1059600040F66C4101FB03F3134403F58163AD4A38
:105970001A60FB787A6840F66C4101FB03F313442C
:1059800003F20C43A84A1A60FB787A6840F66C412F
:1059900001FB03F3134403F58263A44A1A60FB7806
:1059A0007A6840F66C4101FB03F3134403F214439D
:1059B0009F4A1A60FB787A6840F66C4101FB03F35A
:1059C000134403F583639B4A1A60FB787A6840F6B8
:1059D0006C4101FB03F3134403F21C43964A1A6023
:1059E000FB787A6840F66C4101FB03F3134403F53E
:1059F0008463924A1A60FB787A6840F66C4101FB36
:105A000003F3134403F224438D4A1A60FB787A6847
:105A100040F66C4101FB03F3134403F58963894AA3
:105A20001A60FB787A6840F66C4101FB03F313447B
:105A300003F24C43844A1A60FB787A6840F66C4162
:105A400001FB03F3134403F58A63804A1A60FB7871
:105A50007A6840F66C4101FB03F3134403F25443AC
:105A60007B4A1A60FB787A6840F66C4101FB03F3CD
:105A7000134403F58B63774A1A60FB787A6840F623
:105A80006C4101FB03F3134403F25C43724A1A6056
:105A9000FB787A6840F66C4101FB03F3134403F58D
:105AA0008C636E4A1A60FB787A6840F66C4101FBA1
:105AB00003F3134403F26443694A1A60FB787A687B
:105AC00040F66C4101FB03F3134403F58D63654A13
:105AD0001A60FB787A6840F66C4101FB03F31344CB
