:020000040800F2
:100000000000042099450008813400088734000866
:100010008D34000893340008993400080000000073
:100020000000000000000000000000009F340008F5
:10003000AD34000800000000BB340008C9340008DB
:10004000E9450008E9450008E9450008E9450008D8
:10005000E9450008E9450008E9450008E9450008C8
:10006000E9450008E9450008E9450008E9450008B8
:10007000E9450008D5340008E9340008FD340008DB
:10008000E9450008E9450008E9450008E945000898
:10009000E9450008E9450008E9450008E945000888
:1000A000E9450008E9450008E9450008E945000878
:1000B000E9450008E945000861350008E945000800
:1000C000E9450008E9450008E9450008E945000858
:1000D0001135000825350008E9450008E945000804
:1000E00039350008E9450008E9450008E9450008F8
:1000F000E9450008E9450008E9450008E945000828
:10010000E9450008E9450008E9450008E945000817
:10011000E9450008E9450008E9450008753500088B
:1001200089350008E94500089D350008E9450008C3
:10013000E945000800000000000000000000000089
:10014000000000000000000000000000E945000879
:10015000E9450008E9450008B1350008E94500080F
:10016000E9450008E9450008E9450008E9450008B7
:10017000E9450008E9450008000000000000000013
:10018000E9450008E9450008E9450008E945000897
:10019000E9450008E945000800000000E9450008BD
:1001A000000000000000000000000000E945000819
:1001B000E9450008E94500080000000000000000D3
:1001C000000000000000000000000000000000002F
:1001D000000000000000000000000000E9450008E9
:1001E00010B5054C237833B9044B13B10448AFF371
:1001F00000800123237010BD080B012000000000C7
:10020000A492000808B5034B1BB103490348AFF3A0
:10021000008008BD000000000C0B0120A492000823
:1002200081F0004102E000BF83F0004330B54FEAA7
:1002300041044FEA430594EA050F08BF90EA020F14
:100240001FBF54EA000C55EA020C7FEA645C7FEAA7
:10025000655C00F0E2804FEA5454D4EB5555B8BFCA
:100260006D420CDD2C4480EA020281EA030382EA3B
:10027000000083EA010180EA020281EA0303362DCD
:1002800088BF30BD11F0004F4FEA01314FF4801CA0
:100290004CEA113102D0404261EB410113F0004FB2
:1002A0004FEA03334CEA133302D0524263EB430369
:1002B00094EA050F00F0A780A4F10104D5F1200E07
:1002C0000DDB02FA0EFC22FA05F2801841F1000162
:1002D00003FA0EF2801843FA05F359410EE0A5F136
:1002E00020050EF1200E012A03FA0EFC28BF4CF067
:1002F000020C43FA05F3C01851EBE37101F000451D
:1003000007D54FF0000EDCF1000C7EEB00006EEB29
:100310000101B1F5801F1BD3B1F5001F0CD34908B3
:100320005FEA30004FEA3C0C04F101044FEA44520A
:1003300012F5800F80F09A80BCF1004F08BF5FEA91
:10034000500C50F1000041EB045141EA050130BD71
:100350005FEA4C0C404141EB010111F4801FA4F114
:100360000104E9D191F0000F04BF01460020B1FA69
:1003700081F308BF2033A3F10B03B3F120020CDAA1
:100380000C3208DD02F1140CC2F10C0201FA0CF07F
:1003900021FA02F10CE002F11402D8BFC2F1200CE4
:1003A00001FA02F120FA0CFCDCBF41EA0C0190409A
:1003B000E41AA2BF01EB0451294330BD6FEA0404E3
:1003C0001F3C1CDA0C340EDC04F11404C4F12002CE
:1003D00020FA04F001FA02F340EA030021FA04F3E0
:1003E00045EA030130BDC4F10C04C4F1200220FA37
:1003F00002F001FA04F340EA0300294630BD21FA75
:1004000004F0294630BD94F0000F83F4801306BF3A
:1004100081F480110134013D4EE77FEA645C18BF2E
:100420007FEA655C29D094EA050F08BF90EA020FC5
:1004300005D054EA000C04BF1946104630BD91EABD
:10044000030F1EBF0021002030BD5FEA545C05D1C0
:100450004000494128BF41F0004130BD14F58004FF
:100460003CBF01F5801130BD01F0004545F0FE4173
:1004700041F470014FF0000030BD7FEA645C1ABFA8
:10048000194610467FEA655C1CBF0B46024650EADF
:10049000013406BF52EA033591EA030F41F400210B
:1004A00030BD00BF90F0000F04BF0021704730B591
:1004B0004FF4806404F132044FF000054FF0000166
:1004C00050E700BF90F0000F04BF0021704730B527
:1004D0004FF4806404F1320410F0004548BF4042FC
:1004E0004FF000013EE700BF42004FEAE2014FEA51
:1004F00031014FEA02701FBF12F07F4393F07F4F2C
:1005000081F06051704732F07F4208BF704793F02E
:100510007F4F04BF41F40021704730B54FF4607441
:1005200001F0004521F000411CE700BF50EA010244
:1005300008BF704730B54FF000050AE050EA0102ED
:1005400008BF704730B511F0004502D5404261EB5D
:1005500041014FF4806404F132045FEA915C3FF49E
:10056000D8AE4FF003025FEADC0C18BF03325FEA3B
:10057000DC0C18BF033202EBDC02C2F1200300FAEC
:1005800003FC20FA02F001FA03FE40EA0E0021FA11
:1005900002F11444BDE600BF70B54FF0FF0C4CF4FF
:1005A000E06C1CEA11541DBF1CEA135594EA0C0FB1
:1005B00095EA0C0F00F0DEF82C4481EA030621EAEC
:1005C0004C5123EA4C5350EA013518BF52EA033527
:1005D00041F4801143F4801338D0A0FB02CE4FF0D9
:1005E0000005E1FB02E506F00042E0FB03E54FF009
:1005F0000006E1FB03569CF0000F18BF4EF0010E01
:10060000A4F1FF04B6F5007F64F5407404D25FEAFC
:100610004E0E6D4146EB060642EAC62141EA5551AF
:100620004FEAC52040EA5E504FEACE2EB4F1FD0CF1
:1006300088BFBCF5E06F1ED8BEF1004F08BF5FEA6F
:10064000500E50F1000041EB045170BD06F0004621
:1006500046EA010140EA020081EA0301B4EB5C04CE
:10066000C2BFD4EB0C0541EA045170BD41F48011C6
:100670004FF0000E013C00F3AB8014F1360FDEBFEB
:10068000002001F0004170BDC4F10004203C35DAC7
:100690000C341BDC04F11404C4F1200500FA05F34A
:1006A00020FA04F001FA05F240EA020001F00042EB
:1006B00021F0004110EBD37021FA04F642EB060161
:1006C0005EEA430E08BF20EAD37070BDC4F10C048B
:1006D000C4F1200500FA04F320FA05F001FA04F24F
:1006E00040EA020001F0004110EBD37041F100013B
:1006F0005EEA430E08BF20EAD37070BDC4F1200546
:1007000000FA05F24EEA020E20FA04F301FA05F2AD
:1007100043EA020321FA04F001F0004121FA04F255
:1007200020EA020000EBD3705EEA430E08BF20EA25
:10073000D37070BD94F0000F0FD101F0004640005F
:1007400041EB010111F4801F08BF013CF7D041EAE1
:10075000060195F0000F18BF704703F000465200E5
:1007600043EB030313F4801F08BF013DF7D043EAB6
:100770000603704794EA0C0F0CEA135518BF95EA6C
:100780000C0F0CD050EA410618BF52EA4306D1D1F3
:1007900081EA030101F000414FF0000070BD50EA12
:1007A000410606BF1046194652EA430619D094EA9C
:1007B0000C0F02D150EA013613D195EA0C0F05D186
:1007C00052EA03361CBF104619460AD181EA0301DA
:1007D00001F0004141F0FE4141F470014FF0000092
:1007E00070BD41F0FE4141F4780170BD70B54FF02D
:1007F000FF0C4CF4E06C1CEA11541DBF1CEA1355AD
:1008000094EA0C0F95EA0C0F00F0A7F8A4EB05048E
:1008100081EA030E52EA03354FEA013100F0888085
:100820004FEA03334FF0805545EA131343EA12634E
:100830004FEA022245EA111545EA10654FEA002603
:100840000EF000419D4208BF964244F1FD0404F5BC
:10085000407402D25B084FEA3202B61A65EB030518
:100860005B084FEA32024FF480104FF4002CB6EBD5
:10087000020E75EB030E22BFB61A754640EA0C0055
:100880005B084FEA3202B6EB020E75EB030E22BF95
:10089000B61A754640EA5C005B084FEA3202B6EBD6
:1008A000020E75EB030E22BFB61A754640EA9C0095
:1008B0005B084FEA3202B6EB020E75EB030E22BF65
:1008C000B61A754640EADC0055EA060E18D04FEA23
:1008D000051545EA16754FEA06164FEAC30343EAC3
:1008E00052734FEAC2025FEA1C1CC0D111F4801F90
:1008F0000BD141EA00014FF000004FF0004CB6E789
:1009000011F4801F04BF01430020B4F1FD0C88BF27
:10091000BCF5E06F3FF6AFAEB5EB030C04BFB6EB32
:10092000020C5FEA500C50F1000041EB045170BD25
:100930000EF0004E4EEA113114EB5C04C2BFD4EB52
:100940000C0541EA045170BD41F480114FF0000ED6
:10095000013C90E645EA060E8DE60CEA135594EA52
:100960000C0F08BF95EA0C0F3FF43BAF94EA0C0F55
:100970000AD150EA01347FF434AF95EA0C0F7FF4CA
:1009800025AF104619462CE795EA0C0F06D152EA1E
:1009900003353FF4FDAE1046194622E750EA410602
:1009A00018BF52EA43067FF4C5AE50EA41047FF413
:1009B0000DAF52EA43057FF4EBAE12E74FEA410276
:1009C000B2F1E04324BFB3F5001CDCF1FE5C0DD9AD
:1009D00001F0004C4FEAC0024CEA5070B2F1004FF7
:1009E00040EB830008BF20F00100704711F0804FFA
:1009F00021D113F13872BCBF01F00040704741F4BF
:100A000080114FEA5252C2F11802C2F1200C10FAC2
:100A10000CF320FA02F018BF40F001004FEAC123A6
:100A20004FEAD32303FA0CFC40EA0C0023FA02F34A
:100A30004FEA4303CCE77FEA625307D150EA013320
:100A40001EBF4FF0FE4040F44000704701F00040F0
:100A500040F0FE4040F40000704700BF53B94AB96F
:100A6000002908BF00281CBF4FF0FF314FF0FF30B6
:100A700000F072B9ADF1080C6DE904CE00F006F893
:100A8000DDF804E0DDE9022304B070472DE9F0470A
:100A9000089E04468846002B4BD18A42154667D9EA
:100AA000B2FA82F24AB1C2F1200701FA02F320FA47
:100AB00007F7954047EA030894404FEA154E230C88
:100AC000B8FBFEF71FFA85FC0EFB178843EA0843C4
:100AD00007FB0CF1994209D9EB1807F1FF3080F0C0
:100AE0001B81994240F21881023F2B445B1AA4B249
:100AF000B3FBFEF00EFB103344EA034400FB0CFC96
:100B0000A44509D92C1900F1FF3380F00781A445D1
:100B100040F2048102382C4440EA0740A4EB0C0464
:100B200000271EB1D4400023C6E900433946BDE882
:100B3000F0878B4209D9002E00F0EB800027C6E930
:100B4000000138463946BDE8F087B3FA83F7002F35
:100B500047D18B4202D3824200F2FA80841A61EBC1
:100B6000030301209846002EE0D0C6E90048DDE7E7
:100B700002B9FFDEB2FA82F2002A40F08F80491BF0
:100B80004FEA154E1FFA85F80127B1FBFEFC230C36
:100B90000EFB1C1143EA014308FB0CF1994207D9F3
:100BA000EB180CF1FF3002D2994200F2CD8084465E
:100BB000591AA3B2B1FBFEF00EFB101443EA044431
:100BC00008FB00F8A04507D92C1900F1FF3302D229
:100BD000A04500F2B6801846A4EB080440EA0C4099
:100BE0009FE7C7F1200CBB4022FA0CFE4EEA030E31
:100BF00001FA07F420FA0CF521FA0CF34FEA1E482B
:100C00002543B3FBF8F92C0C08FB19331FFA8EFAB5
:100C100044EA034309FB0AF49C4202FA07F200FA91
:100C200007F10BD91EEB030309F1FF3080F0878039
:100C30009C4240F28480A9F1020973441B1BADB2AF
:100C4000B3FBF8F008FB103345EA034400FB0AFA53
:100C5000A24508D91EEB040400F1FF336BD2A24574
:100C600069D90238744440EA0940A0FB0289A4EB28
:100C70000A044C45C2464B4654D351D0002E69D08D
:100C8000B1EB0A0564EB030404FA0CFCFD40FC40E4
:100C90004CEA0505C6E90054002747E7C2F12003E6
:100CA00020FA03F7954001FA02F021FA03F34FEA24
:100CB000154E3843010CB3FBFEF71FFA85F80EFB07
:100CC000173341EA034107FB08F38B4204FA02F4AD
:100CD00007D9691807F1FF3C2FD28B422DD9023F6B
:100CE0002944CB1A81B2B3FBFEF00EFB103341EA6C
:100CF000034100FB08F38B4207D9691800F1FF3C60
:100D000017D28B4215D902382944C91A40EA07473D
:100D10003BE73746304609E70746E7E61846FBE675
:100D20004145ABD2B8EB020A69EB0E02013813461B
:100D3000A4E76046E9E7184695E76746D1E78146AC
:100D40007CE702382C4447E7ACF1020C2B442FE738
:100D5000384608E73746E9E6704700BF80B500AF80
:100D6000024806F0F1F900BF80BD00BFCC6C012045
:100D700080B500AF01228021074804F065FF074BD2
:100D80001B68074A1360074B5B6A044A1360064BF3
:100D900000221A7000BF80BD00040240240B012015
:100DA0002C0B0120000C00400000012080B500AF9A
:100DB00001224021074804F047FF074B1B68074A00
:100DC0001360074B5B6A044A1360064B00221A70DB
:100DD00000BF80BD00040240280B0120300B012021
:100DE000000C00400000012080B500AF00228021EF
:100DF000034804F029FF034B00221A7000BF80BD96
:100E0000000402400000012080B500AF0022402114
:100E1000034804F019FF034B00221A7000BF80BD85
:100E2000000402400000012080B582B000AF0346FC
:100E3000FB71FB79002B02D1FFF79AFF04E0FB79ED
:100E4000012B01D1FFF7B2FF00BF0837BD4680BDBF
:100E500080B582B000AF0346FB71FB79002B02D155
:100E6000FFF7C2FF04E0FB79012B01D1FFF7CCFFB4
:100E700000BF0837BD4680BD90B585B000AF9F4B21
:100E80005B6AFB6000F08EFF87ED020A00F0B4FFA2
:100E90000346002B04D19A4B1B78DBB2002B01D008
:100EA000012300E00023FB71964B1B78002B40F0E0
:100EB0001481FB79002B00F01081934B1B681946BD
:100EC000F86801F087F80246904B9A4205D9012252
:100ED00080218F4804F0B8FE71E08E4A45F6091370
:100EE00013441B78002B6AD0D7ED027A9FED8A7AE3
:100EF000F4EEC77AF1EE10FA1CD5834B1B68194645
:100F0000F86801F067F804467F4B1A68834B1B684A
:100F10001946104601F05EF8024613465B00134482
:100F20005B01DB099C424AD300228021784804F00F
:100F30008BFE44E0744B1A68784B1B6819461046C8
:100F400001F048F8024643F698239A421BD96E4BAB
:100F50001A68724B1B681946104601F03BF80346AD
:100F60001C46694B1B681946F86801F033F80346C4
:100F7000E31A42F6C652934221DC002280216448E3
:100F800004F062FE1BE0604B1B681946F86801F034
:100F900021F804465C4B1A68604B1B6819461046E2
:100FA00001F018F802461346DB009B1A9B00DB0990
:100FB0009C4204D300228021554804F045FE584B42
:100FC0001B681946F86801F005F802464F4B9A4233
:100FD00005D9012240214E4804F036FE88E04D4AF2
:100FE00045F6091313441B78002B00F08180D7EDE0
:100FF000027A9FED497AF4EEC77AF1EE10FA1CD529
:10100000474B1B681946F86800F0E4FF0446444B60
:101010001A68444B1B681946104600F0DBFF024675
:1010200013465B0013445B01DB099C4260D3002242
:101030004021374804F008FE5AE0D7ED027A9FEDD0
:101040003A7AF4EEC77AF1EE10FA28DD344B1A68DA
:10105000344B1B681946104600F0BCFF024643F6AD
:1010600098239A421BD92E4B1A682E4B1B6819469F
:10107000104600F0AFFF03461C46294B1B6819467B
:10108000F86800F0A7FF0346E31A42F6C6529342FF
:1010900022DC002240211E4804F0D6FD1CE0204B3B
:1010A0001B681946F86800F095FF04461C4B1A6847
:1010B0001C4B1B681946104600F08CFF0246134675
:1010C000DB009B1A9B00DB099C4211D300224021CC
:1010D0000F4804F0B9FD0BE00AE0012280210C4822
:1010E00004F0B2FD01224021094804F0ADFD00E00A
:1010F00000BF00BF1437BD4690BD00BF000C0040CC
:10110000400B012000000120240B01201FA107003B
:1011100000040240180E0120000096432C0B012011
:10112000280B0120300B01200000FA4380B588B065
:1011300000AF424B5B6A7B610023FB77404A7B69CF
:1011400013604FF00003BB6100F04AFD87ED040A15
:1011500000F028FE87ED030A01F038FE87ED020A51
:1011600097ED040A00F0F4FD87ED010A00F050FE4F
:10117000034607EE903AF8EE677AC7ED007AD7EDAE
:10118000017A9FED307AF4EEC77AF1EE10FA08DCBE
:10119000D7ED017A9FED2C7AF4EEC77AF1EE10FAD2
:1011A00003D80223FB773B69BB61D7ED047A9FED3F
:1011B000257AF4EEC77AF1EE10FA08DCD7ED047A5E
:1011C0009FED217AF4EEC77AF1EE10FA13D8FB7F87
:1011D000002B04D10123FB777B68BB610BE000236C
:1011E000FB771A4BD3ED007AB7EE007A77EE877A69
:1011F000164BC3ED007A164ABB691360D7ED007A2F
:10120000F5EE407AF1EE10FA11D0124A45F60913C4
:1012100013441B78002B0AD0FB7F012B02D1FFF770
:10122000A7FD04E0FB7F022B01D1FFF7BFFD0A4BB6
:1012300001221A7000BF2037BD4680BD000C00405F
:10124000340B01200000B4420000B4C23C0B01206A
:10125000380B0120180E0120400B01200000000077
:1012600090B583B000AF1C4B1B687B601B4B5B6A67
:101270003B601B4B1B681946386800F0ABFE02460A
:10128000184B9A4215D9184B1B681846FFF72CF9D2
:101290000FA3D3E90023FFF77FF903460C46184656
:1012A0002146FFF78BFB02460F4B1A600C4A3B6846
:1012B00013607968386800F08DFE02460B4B9A4245
:1012C00002D90B4B00221A7000BF0C37BD4690BDEF
:1012D000666666666666EE3F340B0120000C0040D1
:1012E000580B0120A08601003C0B0120C0270900FB
:1012F000400B012080B590B000AF4FF00003BB6001
:101300004FF00003FB6000F06BFCF0EE407AC7ED9D
:10131000027AD7ED027AB0EE670A00F019FDF0EE1E
:10132000407AC7ED037A00237B6300F03BFD87ED35
:101330000C0A00F045FD87ED0B0A00F04FFD87ED2C
:101340000A0A01F043FD87ED090AA44BFB6300F094
:101350005FFD034607EE903AF8EE677AC7ED087A2C
:101360009F4B5B6AFB619F4B1B78DBB2BB619E4B63
:101370001A68BB699A4202D8BB69032B08DCBB69B7
:101380004FF4B25202FB03F3974A134404337B63D6
:1013900097ED097ADFED956AC7EE267AC7ED057AF3
:1013A000D7ED0A7A9FED927AF4EEC77AF1EE10FA51
:1013B00007D5D7ED0A7A9FED8F7A67EE877AC7ED6A
:1013C0000F7AD7ED0F6A97ED0B7AC6EE877AC7EDE5
:1013D000047A894A7B691360884A3B691360D7EDB8
:1013E000087AF5EE407AF1EE10FA00F0EA80002378
:1013F000BB63E1E0BB6B9B0007F140021344383B49
:1014000093ED007AD7ED057AF1EE677AB4EEE77ADC
:10141000F1EE10FA16D5BB6B9B0007F140021344A6
:10142000383BD3ED007AB1EE677AD7ED057A77EEE7
:10143000677ABB6B9B0007F140021344403BC3ED4E
:10144000007A17E0BB6B9B0007F140021344383B66
:10145000D3ED007A9FED6A7A37EE677AD7ED057A99
:1014600077EE677ABB6B9B0007F140021344403B69
:10147000C3ED007ABB6B9B0007F140021344403B75
:1014800093ED007A5F4ABB6B9B001344D3ED007A67
:1014900077EE677AF5EEC07AF1EE10FA22DDBB6BDB
:1014A0009B0007F140021344403B93ED007A554AFC
:1014B000BB6B9B001344D3ED007A77EE677A9FED08
:1014C000527AF4EEC77AF1EE10FA0BD54D4ABB6BA7
:1014D0009B0013441A68BB6B9B0007F140010B444F
:1014E000403B1A60BB6B9B0007F140021344403B3A
:1014F00093ED007AD7ED047A77EE677AF5EEC07A4D
:10150000F1EE10FA13D5414ABB6B13441B78002B44
:101510000DD13F4B1B78002B09D13C4ABB6B1344C8
:1015200001221A70BB6BDBB21846FFF791FC354AFB
:10153000BB6B9B00134493ED007ABB6B9B0007F1E0
:1015400040021344403BD3ED007A77EE677AF5EE24
:10155000C07AF1EE10FA1BD52D4ABB6B13441B78F1
:10156000002B1AD1294ABB6B13441B78002B14D0D3
:10157000274ABB6B134401221A70244ABB6B1344E5
:1015800000221A70BB6BDBB21846FFF74DFC04E07B
:101590001F4ABB6B134400221A70BB6B9B0007F100
:1015A00040021344403B1A681649BB6B9B000B4436
:1015B0001A60BB6B0133BB63BB6B012B7FF71AAFA8
:1015C00003E00D4B4FF000021A60FFF749FEFFF7F2
:1015D00053FC00BF4037BD4680BD00BF00803B4686
:1015E000000C00404C0B0120180E012000408345E8
:1015F00000C05A46B76D5B3F440B0120480B0120E9
:101600000000B443500B01200000344304000120CB
:101610000800012080B485B000AF0346B9607A604D
:10162000FB7300BF1437BD465DF8047B70470000B4
:1016300080B483B000AF7860044A7B68136000BF59
:101640000C37BD465DF8047B704700BF5C0B012082
:1016500080B584B000AF786039600023FB81094B0E
:101660001B68002B08D0074B1B683A68796818463E
:1016700003F020FC0346FB81FB8918461037BD466A
:1016800080BD00BF5C0B012080B584B000AF7860E6
:1016900039600023FB810D4B1B68002B08D00B4BDE
:1016A0001B683A687968184603F004FC0346FB811E
:1016B000FB895AB2FB891B0A9BB25BB253405BB2F7
:1016C000DBB218461037BD4680BD00BF5C0B012061
:1016D000B0B592B000AF4FF00003FB634FF00003D2
:1016E0007B63AF4BBB63AF4B3B63AF4B5B6AFB6250
:1016F000AE4AFB6A136001237B640BE07B6C013B09
:10170000AB497A6C51F82220A94941F823207B6C1F
:1017100001337B647B6C072BF0D9A54AFB6AD3614C
:10172000A34B1B68002B00F03982A14B9B693B64E3
:10173000A04B01221A70A04B1B6801339E4A136014
:1017400001237B6418E09A4A7B6C52F823007B6C7F
:10175000013B974A52F82330194600F03BFC07EE54
:10176000900AF8EE677A97ED0F7A77EE277AC7ED51
:101770000F7A7B6C01337B647B6C072BE3D997ED8D
:101780000F7AF1EE0C6AC7EE267AC7ED0F7A8B4B13
:1017900093ED007AD7ED0F6AC6EE877A884BC3EDDA
:1017A000007A864B93ED007AD7ED0F6AC6EE877A02
:1017B000B7EE027AF4EEC77AF1EE10FA26DD814B2D
:1017C0001B6801337F4A13607E4B1B68022B2ED1AE
:1017D000794B1B68BB62784B00221A60794B002260
:1017E0001A60BB6A742B0AD0774BD3ED007AB7EE40
:1017F000007A77EE877A744BC3ED007A17E0734A6C
:10180000FB6A1360724B01221A7010E06A4B1B686E
:10181000732B0CD9684B01221A606B4BD3ED007A05
:10182000B7EE007A77EE877A674BC3ED007A634AAA
:10183000FB6B1360664B1B78DBB2002B00F0628100
:101840005D4B1B68002B02D0012B29D036E0614B89
:10185000614A1A60614B624A1A605E4BD3ED007AAE
:10186000B0EE087A77EEC77A5E4BC3ED007A5B4B39
:10187000D3ED007AB0EE087A77EEC77A5A4BC3ED13
:10188000007A396CF86A00F0A5FB0246574BA3FBBF
:1018900002235B081946F86A00F09CFB3864B6E046
:1018A000396CF86A00F096FB0246504BA3FB02230A
:1018B0005B081946F86A00F08DFB3864454BD3EDA0
:1018C000007AB0EE087A77EE877AC7ED097AD7ED1D
:1018D000097A9FED477AF4EEC77AF1EE10FA09DD46
:1018E000D7ED097A9FED437A77EEC77A394BC3ED8E
:1018F000007A02E0374A7B6A1360384BD3ED007AF6
:10190000B0EE087A77EE877AC7ED087AD7ED087AD5
:101910009FED377AF4EEC77AF1EE10FA09DDD7EDD4
:10192000087A9FED347A77EEC77A2C4BC3ED007AB4
:1019300002E02A4A3B6A13602A4BD3ED007AB0EEEC
:10194000087A77EE877A274BC3ED007A254BD3EDE3
:10195000007A9FED277AF4EEC77AF1EE10FA09DDEE
:10196000204BD3ED007A9FED237A77EEC77A1D4B9B
:10197000C3ED007A1C4BD3ED007AB0EE087A77EE17
:10198000877A194BC3ED007A174BD3ED007A9FEDA0
:10199000187AF4EEC77AF1EE10FA2DDC36E000BFCB
:1019A0008988883CCDCCCC3D000C0040840B0120C4
:1019B000600B0120810B0120A00D0120A40D01204E
:1019C0009C0B0120A80D01208C0B0120880B01200D
:1019D000800B0120AC0D01200000E4C2B00D0120FD
:1019E00000008442B40D0120B80D0120ABAAAAAAC0
:1019F000000034430000B4436A4BD3ED007A9FEDFE
:101A00006A7A77EEC77A674BC3ED007A00BF674BFF
:101A1000D3ED007AF5EE407AF1EE10FA02D14FF0F4
:101A20007E53BB63396CF86A00F0D4FA07EE900A73
:101A3000F8EE677AC7ED0D7A5D4BD3ED007A9FED36
:101A40005D7AF4EEC77AF1EE10FA02DD584B5A4A8D
:101A50001A60B7EE007AD7ED0E7A37EE677A544BFC
:101A6000D3ED007A27EE277AD7ED0D7ADFED536AB2
:101A700067EEA66AD7ED0E7A66EEA77A77EE277A3A
:101A80004B4BC3ED007A4A4B93ED007ADFED496A88
:101A9000C6EE877A9FED4A7A67EE877A434BC3EDAD
:101AA000007AB7EE007AD7ED0C7A37EE677A454BBD
:101AB000D3ED007A27EE277AD7ED0D7AB0EE086ADB
:101AC000C7EE866AD7ED0C7A66EEA77A77EE277AAC
:101AD0003C4BC3ED007A3C4B1B68BB603B4B1B6827
:101AE0003B613B4B1B68FB602E4B1B687B613B6C77
:101AF0007B60FB6A3B602D4B1B68BB61314B1B68F5
:101B0000FB6129E04FF00003BB604FF000033B6135
:101B10004FF00003FB604FF000037B6100237B600C
:101B200000233B604FF00003BB61204B4FF00002ED
:101B30001A601E4B93ED007AF7EE006AC6EE877AC4
:101B4000C7ED077A194B93ED007AF7EE006AC6EEFF
:101B5000877A174BC3ED007A1E4B1B781E4A5B0138
:101B600013441D463C460FCC0FC594E80F0085E892
:101B70000F00184B1B785B01174A1344174A136078
:101B8000144B1B780133DAB2124B1A70114B1B78CD
:101B90000F2B04D90F4B00221A7000E000BF48370A
:101BA000BD46B0BDB80D01200000B443900B01202C
:101BB000980B012000247449002474490000F0426D
:101BC00000007042940B0120AC0D0120B00D0120EB
:101BD000B40D0120BC0D0120A00B01200C00012040
:101BE000B0B58EB000AF534B5B6A07EE903AF8EE9B
:101BF000677AC7ED0B7A504B1B683C461D460FCDEC
:101C00000FC495E80F0084E80F003B687A6811461E
:101C1000184600F0DFF907EE900AF8EE677AC7ED94
:101C20000A7AD7ED0B7AFCEEE77A7B68194617EE55
:101C3000900A00F0CFF907EE900AF8EE677AC7ED48
:101C40000B7ABB683B63FB687B6297ED0C7AD7ED40
:101C5000097AB4EEE77AF1EE10FA07D5D7ED0C7AEF
:101C60009FED367A77EE877AC7ED0C7A97ED0C7A8E
:101C7000D7ED097A77EE677AC7ED0D7AD7ED0D6A61
:101C800097ED0A7AC6EE877AC7ED087A97ED087A5B
:101C9000D7ED0B7A67EE277A97ED097A77EE277AF8
:101CA000C7ED0D7A07E0D7ED0D7A9FED247A77EE38
:101CB000C77AC7ED0D7AD7ED0D7A9FED217AF4EE54
:101CC000C77AF1EE10FAEEDC1E4BD3ED007A97EDF9
:101CD0000D7A77EE677AF5EEC07AF1EE10FA0DD54F
:101CE000184BD3ED007A97ED0D7A77EE677A9FED7A
:101CF000167AF4EEC77AF1EE10FA0DDC114BD3ED43
:101D0000007A97ED0D7A77EE677A9FED107AF4EE10
:101D1000C77AF1EE10FA02DD0A4B1B687B63094AB1
:101D20007B6B13607B6B07EE903AB0EE670A383737
:101D3000BD46B0BD000C00400C0001200000B443C3
:101D400000003443C00D01200000B4C20000B442C2
:101D500080B483B000AF87ED010AD7ED017AF5EECC
:101D6000C07AF1EE10FA08DDD7ED017A9FED0C7A1A
:101D700077EEC77AC7ED017A07E0D7ED017A9FEDDC
:101D8000087A77EE877AC7ED017A7B6807EE903A9A
:101D9000B0EE670A0C37BD465DF8047B704700BFA4
:101DA0000000344380B400AF044B1B6807EE903A48
:101DB000B0EE670ABD465DF8047B7047900B0120CA
:101DC00080B400AF044B1B6807EE903AB0EE670A90
:101DD000BD465DF8047B7047940B012080B400AFD2
:101DE000044B1B6807EE903AB0EE670ABD465DF8FB
:101DF000047B7047980B012080B400AF034B1B7825
:101E0000DBB21846BD465DF8047B7047810B0120AC
:101E100080B400AF034B1B78DBB21846BD465DF8BB
:101E2000047B7047800B012080B584B000AF374B36
:101E30001B68BB60364B1B687B60364B5B6A3B6044
:101E4000B968386800F0C6F802464CF250339A423E
:101E500021D93B68BB600023FB6007E02E4AFB688A
:101E6000002142F82310FB680133FB60FB68072B5D
:101E7000F4DD2A4B00221A70294B4FF000021A6041
:101E8000274B93ED007AF7EE006AC6EE877A254B72
:101E9000C3ED007A1DE07968386800F09BF80246CF
:101EA000214B9A4215D93B687B601C4B00221A706B
:101EB0001B4B4FF000021A601C4B00221A70184B8B
:101EC00093ED007AF7EE006AC6EE877A154BC3ED04
:101ED000007A174B1B681946386800F07BF80246F9
:101EE0004CF250339A420CD9124BD3ED007A9FED4D
:101EF000127A67EE877A0F4BC3ED007A0C4A3B6883
:101F0000136000BF1037BD4680BD00BF840B0120A9
:101F1000880B0120000C0040600B0120800B012089
:101F2000900B0120980B0120C0C62D00810B0120D1
:101F3000C40D01208C0B01203333733F80B588B072
:101F400000AF204B1B6C1F4A43F0080313641D4B6A
:101F50001B6C03F008033B603B681B4B1B4A1A6079
:101F600004F052FB03465B00194AA2FB03239B0CBF
:101F7000013B154A5360144B00229A60124B4FF0FC
:101F8000FF32DA60104B00221A610F4805F087F823
:101F90004FF480533B6107F1100319460A4805F0DE
:101FA000A5FB00237B600023FB603B1D1946064810
:101FB00006F046F8044805F09DF800BF2037BD46FE
:101FC00080BD00BF00380240C80D0120000C004059
:101FD00083DE1B4380B483B000AF786039607A68D9
:101FE0003B689A4203D37A683B68D31A03E07A6865
:101FF0003B68D31A013B18460C37BD465DF8047B9D
:102000007047000080B400AFBFF34F8FBFF36F8FF6
:102010000B4B0022C3F85022BFF34F8FBFF36F8FDB
:10202000074B5B69064A43F400335361BFF34F8F9C
:10203000BFF36F8F00BFBD465DF8047B704700BFE4
:1020400000ED00E080B485B000AF1D4B0022C3F866
:102050008420BFF34F8F1A4BD3F880307B607B68AE
:102060005B0BC3F30E03FB607B68DB08C3F3090360
:10207000BB60FB685A0143F6E0731340BA689207ED
:102080000F491343C1F86032BB685A1EBA60002B77
:10209000EFD1FB685A1EFA60002BE5D1BFF34F8FDA
:1020A000074B5B69064A43F480335361BFF34F8F9C
:1020B000BFF36F8F00BF1437BD465DF8047B7047D8
:1020C00000ED00E080B582B000AF0346FB80FB88E6
:1020D000B3F5005F06D0B3F5804F06D0B3F5006FBF
:1020E00006D009E0FFF7F4FA06E0FFF71FF803E077
:1020F000034805F029F800BF00BF0837BD4680BD82
:102100009870012080B582B000AF78607B68104A7B
:10211000934212D1FFF7EEF80E4B1B8801339AB2AF
:102120000C4B1A800B4B1B88B3F5FA7F0BD3FFF7D0
:102130007BFE084B00221A8005E07B68064A93422A
:1021400001D100F0E3FD00BF0837BD4680BD00BFF0
:10215000CC6C0120080E01209870012080B582B05F
:1021600000AF7860786801F039FE00BF0837BD46DF
:1021700080BD80B582B000AF7860786801F08CFED9
:1021800000BF0837BD4680BD80B500AFFFF73AFFFE
:10219000FFF758FF02F02AFA00F0B0F800F044FC14
:1021A00000F0F0FB00F0B6FB00F0E2F900F03EF9C1
:1021B00000F01CFA00F08AFA00F0CAFA00F010FBF6
:1021C00000F096F900F0C0F90B48FFF731FA01F082
:1021D00097FE01F0D7FEFFF7B1FE00F073FDFEF7AA
:1021E000BDFD064804F086FF00F00AF800F02AF86A
:1021F00001F0FAFEF8E700BF7C6D01208C6C012035
:1022000080B582B000AF0B4B5B6A7B600A4B1B68EA
:1022100019467868FFF7DEFE0246084B9A4205D958
:10222000054A7B681360064803F040FD00BF08378D
:10223000BD4680BD000C00400C0E012040420F0046
:102240006C6D012080B483B000AF2A4B5B68DBB2B9
:1022500003F00703FB71284B1B78FA799A4242D0AE
:10226000254AFB791370FB79002B1ED0214B9B680C
:10227000204A43F4805393601E4B9B681D4A43F0F1
:10228000040393601B4B9B681A4A43F00803936056
:10229000184B9B68174A43F020039360154BDB688B
:1022A000144A43F00203D3601DE0124B9B68114AAD
:1022B00023F4805393600F4B9B680E4A23F0040372
:1022C00093600C4B9B680B4A23F008039360094B07
:1022D0009B68084A23F020039360064BDB68054A9D
:1022E00023F00203D36000BF0C37BD465DF8047BCA
:1022F000704700BF002004E0100E012080B5B4B08C
:1023000000AF07F1A00330220021184606F0C1FFFC
:1023100007F18C0300221A605A609A60DA601A6131
:1023200007F10C0380220021184606F0B2FF3C4B57
:102330001B6C3B4A43F080531364394B1B6C03F016
:102340008053BB60BB68374B1B68364A43F440433D
:102350001360344B1B6803F440437B607B680A23A3
:10236000C7F8A0300123C7F8AC300A23C7F8B03053
:102370000123C7F8B4300223C7F8B8300023C7F8E8
:10238000BC300823C7F8C030D823C7F8C4300223B4
:10239000C7F8C8300923C7F8CC3007F1A0031846A6
:1023A00003F0E4FC0346002B01D000F087FC03F0AF
:1023B0008DFC0346002B01D000F080FC0F23C7F8F2
:1023C0008C300223C7F890300023C7F894304FF4C4
:1023D000A053C7F898304FF48053C7F89C3007F1EA
:1023E0008C030721184603F065FF0346002B01D03C
:1023F00000F064FC0C4BFB600023BB640023C7F8B7
:10240000803007F10C03184604F026F90346002B30
:1024100001D000F053FC00BFD037BD4680BD00BFE7
:1024200000380240007000404000200080B584B0B9
:1024300000AF3B4600221A605A609A60DA602A4B6D
:102440002A4A1A60284B4FF480325A60264B0022E9
:102450009A60254B01221A61234B00229A61224B7C
:10246000002283F82020204B4FF08052DA621E4B6E
:102470004FF0E0629A621C4B4FF40062DA601A4B34
:102480000222DA61184B012283F83020164B002219
:102490005A61154802F010F90346002B01D000F0F4
:1024A0000DFC0C233B6001237B600023BB603B469B
:1024B00019460D4802F044F90346002B01D000F004
:1024C000FDFB0D233B6002237B603B46194606481B
:1024D00002F036F90346002B01D000F0EFFB00BFFD
:1024E0001037BD4680BD00BFA06E01200020014016
:1024F00080B500AF124B134A1A60114B01221A71BA
:102500000F4B01225A710E4B4AF201029A600C4B9A
:102510000822DA600A4B00221A61094B20225A6114
:10252000074B80229A61064B01221A62044802F08E
:102530005DFC0346002B01D000F0C0FB00BF80BD56
:102540007C6D01200030024080B500AF064B074A89
:102550001A60054804F0C8FB0346002B01D000F0C8
:10256000ADFB00BF80BD00BF2870012000080650F1
:1025700080B500AF1B4B1C4A1A601A4B4FF4827295
:102580005A60184B00229A60164B4FF4E062DA60F2
:10259000144B00221A61134B00225A61114B4FF465
:1025A00000729A610F4B0022DA610E4B00221A6210
:1025B0000C4B00225A620B4B00229A62094B0722F5
:1025C000DA62084B00221A63064B08225A63054858
:1025D00004F0B4FB0346002B01D000F06FFB00BFFA
:1025E00080BD00BF286C01200038004080B58AB053
:1025F00000AF07F11C0300221A605A609A603B4644
:1026000000221A605A609A60DA601A615A619A610F
:102610002B4B2C4A1A6003F0F7FF03465B002A4A53
:10262000A2FB03239B0B013B254A5360244B002252
:102630009A60234B41F2FF32DA60214B00221A618B
:102640001F4B00229A611E4804F0A8FD0346002B90
:1026500001D000F033FB0023FB6100237B6207F114
:102660001C031946164805F0EBFC0346002B01D06D
:1026700000F024FB60233B604FF480737B600023F9
:10268000BB6000233B613B46082219460C4804F01E
:1026900015FF0346002B01D000F010FB3B460C2237
:1026A0001946074804F00AFF0346002B01D000F04A
:1026B00005FB034800F0D4FD00BF2837BD4680BDB0
:1026C000006E012000040040D34D621080B584B03C
:1026D00000AF3B4600221A605A609A60DA60194BDC
:1026E000194A1A6003F090FF03465B00174AA2FBE9
:1026F00003239B0C013B134A5360124B00229A6048
:10270000104B0E22DA600F4B00221A610D4B002293
:102710009A610C4804F0C3FC0346002B01D000F082
:10272000CDFA4FF480533B603B461946054804F010
:10273000DDFF0346002B01D000F0C0FA00BF1037C8
:10274000BD4680BDCC6C01200008004083DE1B43E9
:1027500080B584B000AF3B1D00221A605A609A60B9
:102760001C4B1D4A1A601B4B00225A60194B002259
:102770009A6003F049FF03465B00184AA2FB03235B
:10278000DB0C013B134AD360124B00229A611148C3
:1027900004F085FC0346002B01D000F08FFA0821DD
:1027A0000C4804F026FD0346002B01D000F086FA09
:1027B00020237B600023FB603B1D1946054805F084
:1027C0003FFC0346002B01D000F078FA00BF103721
:1027D000BD4680BD987001200014004083DE1B437D
:1027E00080B596B000AF07F14C0300221A605A6022
:1027F0009A6007F1300300221A605A609A60DA602A
:102800001A615A619A613B1D2C220021184606F07C
:1028100040FD3D4B3D4A1A6003F00AFF03465B0052
:102820003B4AA2FB03239B0C013B374A5360364BC8
:1028300000229A60344B3122DA60334B00221A6155
:10284000314B00225A61304B00229A612E4804F02D
:10285000A5FC0346002B01D000F030FA2023FB64D6
:1028600000233B6500237B6507F14C03194626488E
:1028700005F0E6FB0346002B01D000F01FFA6023B1
:102880003B6301237B630023BB630823FB630023BB
:102890003B6400237B644FF40073BB6407F1300397
:1028A00008221946184804F009FE0346002B01D0FF
:1028B00000F004FA00237B600023BB600023FB6070
:1028C00000233B6100237B614FF40053BB61002375
:1028D000FB6100233B624FF000737B620023BB620D
:1028E0000023FB623B1D1946074805F037FC0346F1
:1028F000002B01D000F0E2F9034800F0B1FC00BF6A
:102900005837BD4680BD00BF8C6C012000040140DB
:1029100083DE1B4380B500AF174B184A1A60164B75
:10292000174A5A60144B00229A60134B0022DA6057
:10293000114B00221A61104B0C225A610E4B0022DF
:102940009A610D4B0022DA610B4B00221A620A4B8E
:1029500040225A62084B4FF480121A64064B4FF41F
:10296000C0025A64044805F0BAFC0346002B01D0AB
:1029700000F0A4F900BF80BD486F012000100140A5
:10298000987F330080B582B000AF264B1B6B254A81
:1029900043F480031363234B1B6B03F480037B60BE
:1029A0007B68204B1B6B1F4A43F4001313631D4BC2
:1029B0001B6B03F400133B603B68002205210D20D4
:1029C00002F0DDF90D2002F0F6F900220F210E20B1
:1029D00002F0D5F90E2002F0EEF900220F210F20AF
:1029E00002F0CDF90F2002F0E6F90022062138208E
:1029F00002F0C5F9382002F0DEF9002208213A2061
:102A000002F0BDF93A2002F0D6F900220921462051
:102A100002F0B5F9462002F0CEF900BF0837BD46F6
:102A200080BD00BF0038024080B58AB000AF07F11A
:102A3000140300221A605A609A60DA601A61974B98
:102A40001B6B964A43F004031363944B1B6B03F018
:102A500004033B613B69914B1B6B904A43F00103BC
:102A600013638E4B1B6B03F00103FB60FB688B4B06
:102A70001B6B8A4A43F002031363884B1B6B03F002
:102A80000203BB60BB68854B1B6B844A43F00803A1
:102A90001363824B1B6B03F008037B607B6800228F
:102AA00040F241417E4803F0CFF80122C0217D4829
:102AB00003F0CAF801229021794803F0C5F80122F9
:102AC0000121784803F0C0F8002241F204717548F2
:102AD00003F0BAF800224FF40041734803F0B4F851
:102AE00000220421714803F0AFF84FF400537B61DA
:102AF0006F4BBB610223FB6107F114031946684861
:102B000002F008FF4FF480437B616A4BBB610123F5
:102B1000FB6107F114031946614802F0FBFE4FF414
:102B200000437B610023BB610123FB6107F11403B8
:102B300019465B4802F0EEFE40F291437B610123AF
:102B4000BB610023FB6100233B6207F114031946BC
:102B5000534802F0DFFEFF237B610023BB610223A9
:102B6000FB6107F1140319464F4802F0D3FE40F20F
:102B700005737B610123BB610023FB6103233B627F
:102B800007F114031946474802F0C4FE4FF40063EE
:102B90007B61494BBB610223FB6107F114031946BA
:102BA000404802F0B7FE4FF480537B610123BB61C4
:102BB0000023FB6103233B6207F1140319463948E4
:102BC00002F0A8FE40237B610123BB610023FB616F
:102BD00003233B6207F114031946314802F09AFEC1
:102BE0004FF410637B610023BB610123FB6107F19C
:102BF000140319462C4802F08DFE4FF400437B610C
:102C00000123BB610023FB6100233B6207F1140336
:102C10001946254802F07EFE4FF4C0537B61002325
:102C2000BB610023FB6107F1140319461C4802F045
:102C300071FE04237B610123BB610023FB61002340
:102C40003B6207F114031946184802F063FE302373
:102C50007B610023BB610123FB6107F1140319466B
:102C6000104802F057FEC0237B610123BB610023A3
:102C7000FB6103233B6207F114031946094802F084
:102C800049FE00220221282002F079F8282002F0D3
:102C900092F800BF2837BD4680BD00BF0038024013
:102CA000000802400004024000000240000C024004
:102CB00000003110000011100000211080B400AF9E
:102CC00072B6FEE780B500AF002204210C4802F086
:102CD000BBFF00224FF48061094802F0B5FF0022DB
:102CE0001021084802F0B0FF00220121044802F040
:102CF000ABFF0821044805F073F900BF80BD00BF99
:102D000000040240000802408C6C012080B485B0B1
:102D100000AF264B1B69FB72FB7A07EE903AB8EEC8
:102D2000E77ADFED236AC7EE267AC7ED017AD7EDA1
:102D3000017A9FED207AF4EEC77AF1EE10FA03D50E
:102D40001D4B01221A7002E01B4B00221A70D7EDB6
:102D5000017AB6EE007A77EEC77A9FED187A67EEC1
:102D6000877AC7ED037AD7ED037AF5EEC07AF1EEF4
:102D700010FA02D54FF00003FB60114BD3ED007A3F
:102D80009FED107A27EE877AD7ED037ADFED0E6A92
:102D900067EEA67A77EE277A094BC3ED007A00BF7B
:102DA0001437BD465DF8047B704700BF0000024049
:102DB000000048429A99993E110E0120005AC746D8
:102DC000100001203333733FCDCC4C3D80B400AFB5
:102DD000044B1B6807EE903AB0EE670ABD465DF8FB
:102DE000047B70471000012080B483B000AF0F4B0C
:102DF0001B6C0E4A43F0805313640C4B1B6C03F0A6
:102E000080537B607B68094B5B6C084A43F48043CA
:102E10005364064B5B6C03F480433B603B6800BF2C
:102E20000C37BD465DF8047B704700BF0038024098
:102E300080B58AB000AF786007F1140300221A60F1
:102E40005A609A60DA601A617B681B68334A934261
:102E50005FD1334B5B6C324A43F480735364304B25
:102E60005B6C03F480733B613B692D4B1B6B2C4AFD
:102E700043F0010313632A4B1B6B03F00103FB6058
:102E8000FB68274B1B6B264A43F004031363244B58
:102E90001B6B03F00403BB60BB680C237B61032343
:102EA000BB610023FB6107F1140319461D4802F0C2
:102EB00031FD1D4B1D4A1A601B4B00225A601A4BF4
:102EC00000229A60184B0022DA60174B4FF48062A0
:102ED0001A61154B4FF400625A61134B4FF40052C4
:102EE0009A61114B4FF48072DA610F4B00221A6223
:102EF0000D4B00225A620C4802F074F90346002B75
:102F000001D0FFF7DBFE7B68074A9A63064A7B68BD
:102F1000936300BF2837BD4680BD00BF002001403D
:102F20000038024000080240C86F012010640240CF
:102F300080B485B000AF78607B681B680A4A934212
:102F40000BD10A4B1B6B094A43F480531363074BA5
:102F50001B6B03F48053FB60FB6800BF1437BD4656
:102F60005DF8047B704700BF00300240003802402B
:102F700080B485B000AF78607B681B680A4A9342D2
:102F80000BD10A4B5B6B094A43F040035363074B79
:102F90005B6B03F04003FB60FB6800BF1437BD466A
:102FA0005DF8047B704700BF0008065000380240FF
:102FB00080B58AB000AF786007F1140300221A6070
:102FC0005A609A60DA601A617B681B68494A9342CA
:102FD00040F08B80484B1B6C474A43F4804313649A
:102FE000454B1B6C03F480433B613B69424B1B6BBD
:102FF000414A43F0020313633F4B1B6B03F0020390
:10300000FB60FB684FF460437B610223BB610123DB
:10301000FB6103233B6205237B6207F1140319461E
:10302000364802F077FC364B364A1A60344B0022A1
:103030005A60334B40229A60314B0022DA60304BA9
:103040004FF480621A612E4B00225A612C4B0022F1
:103050009A612B4B0022DA61294B00221A62284B1D
:1030600000225A62264802F0BDF80346002B01D028
:10307000FFF724FE7B68224A5A65214A7B689363E6
:10308000214B224A1A60204B00225A601E4B00221C
:103090009A601D4B0022DA601B4B4FF480621A616C
:1030A000194B00225A61184B00229A61164B0022DC
:1030B000DA61154B00221A62134B00225A62124841
:1030C00002F090F80346002B01D0FFF7F7FD7B6874
:1030D0000D4A9A650C4A7B68936300220E212420D6
:1030E00001F04DFE242001F066FE00BF2837BD46EA
:1030F00080BD00BF0038004000380240000402409C
:103100003870012070600240A06D012058600240BC
:1031100080B485B000AF78607B681B68134A934227
:103120000CD1134B1B6C124A43F002031364104B77
:103130001B6C03F00203FB60FB6810E07B681B68FC
:103140000C4A93420BD10A4B5B6C094A43F00203D1
:103150005364074B5B6C03F00203BB60BB6800BFAA
:103160001437BD465DF8047B704700BF0004004083
:10317000003802400004014080B584B000AF7860A0
:103180007B681B68314A934214D1314B1B6C304A27
:1031900043F0040313642E4B1B6C03F00403FB6029
:1031A000FB68002203211E2001F0E9FD1E2001F032
:1031B00002FE47E07B681B68264A934242D1244BBB
:1031C0001B6C234A43F020031364214B1B6C03F058
:1031D0002003BB60BB68204B204A1A601E4B4FF097
:1031E00000725A601C4B00229A601B4B0022DA606E
:1031F000194B4FF480621A61174B00225A61164B2B
:1032000000229A61144B4FF48072DA61124B002253
:103210001A62114B00225A620F4801F0E3FF034685
:10322000002B01D0FFF74AFD7B680B4A1A620A4A5D
:103230007B68936300220521372001F0A0FD372031
:1032400001F0B9FD00BF1037BD4680BD0008004049
:1032500000380240001400400C6D01204060024024
:1032600080B58AB000AF786007F1140300221A60BD
:103270005A609A60DA601A617B681B68224A93423E
:103280001DD1224B1B6B214A43F0040313631F4BD8
:103290001B6B03F004033B613B694FF440737B619C
:1032A0000223BB610223FB6103233B6202237B6297
:1032B00007F114031946164802F02CFB20E07B6846
:1032C0001B68144A93421BD1104B1B6B0F4A43F0EF
:1032D000020313630D4B1B6B03F00203FB60FB68DF
:1032E00002237B610223BB610123FB6103233B6259
:1032F00003237B6207F114031946074802F00AFB17
:1033000000BF2837BD4680BD0004004000380240A1
:1033100000080240000401400004024080B58AB069
:1033200000AF786007F1140300221A605A609A60B7
:10333000DA601A617B681B684A4A934240F08E80CB
:10334000494B5B6C484A43F010035364464B5B6C3B
:1033500003F010033B613B69434B1B6B424A43F054
:1033600001031363404B1B6B03F00103FB60FB681D
:103370004FF4C0637B610223BB610123FB61032324
:103380003B6207237B6207F114031946374802F0BA
:10339000C1FA374B374A1A60354B4FF000625A601A
:1033A000334B00229A60324B0022DA60304B4FF4EC
:1033B00080621A612E4B00225A612D4B00229A61C5
:1033C0002B4B4FF48072DA61294B00221A62284B92
:1033D00000225A62264801F005FF0346002B01D067
:1033E000FFF76CFC7B68224ADA66214A7B689363AC
:1033F000214B224A1A60204B4FF000625A601E4B4C
:1034000040229A601C4B0022DA601B4B4FF4806212
:103410001A61194B00225A61174B00229A61164B10
:103420000022DA61144B00221A62134B00225A6206
:10343000114801F0D7FE0346002B01D0FFF73EFCF8
:103440007B680D4A9A660C4A7B68936300220721C9
:10345000252001F094FC252001F0ADFC00BF2837A9
:10346000BD4680BD0010014000380240000002400F
:10347000E86E012040640240406E0120B8640240C2
:1034800080B400AFFEE780B400AFFEE780B400AFC9
:10349000FEE780B400AFFEE780B400AFFEE780B483
:1034A00000AF00BFBD465DF8047B704780B400AF3D
:1034B00000BFBD465DF8047B704780B400AF00BF1D
:1034C000BD465DF8047B704780B500AF01F0D4F8CD
:1034D00000BF80BD80B500AF024801F0B3FF00BF60
:1034E00080BD00BF0C6D012080B500AF024801F027
:1034F000A9FF00BF80BD00BFA06D012080B500AF57
:10350000024801F09FFF00BF80BD00BF387001205E
:1035100080B500AF024803F0A3FC00BF80BD00BF30
:10352000286C012080B500AF024805F027F800BFE5
:1035300080BD00BF486F012080B500AF4FF4006030
:1035400002F09CFB4FF4005002F098FB4FF48040D7
:1035500002F094FB4FF4004002F090FB00BF80BDEE
:1035600080B500AF024803F08AFE00BF80BD00BFF7
:10357000CC6C012080B500AF024803F080FE00BF94
:1035800080BD00BF9870012080B500AF024801F0F7
:1035900059FF00BF80BD00BFC86F012080B500AFDC
:1035A000024801F04FFF00BF80BD00BFE86E012060
:1035B00080B500AF024801F045FF00BF80BD00BFED
:1035C000406E012080B400AF084BD3F88830074A22
:1035D00043F47003C2F88830044B4FF000629A60E5
:1035E00000BFBD465DF8047B704700BF00ED00E002
:1035F00080B487B000AF786039603B687B617B68DE
:103600003B612023FB60BFF34F8F0BE00C4A3B690B
:10361000C2F85C32FB683A6913443B617A69FB6823
:10362000D31A7B617B69002BF0DCBFF34F8FBFF3B4
:103630006F8F00BF1C37BD465DF8047B704700BF2D
:1036400000ED00E080B487B000AF786039603B687F
:103650007B617B683B612023FB60BFF34F8F0BE0F6
:103660000C4A3B69C2F86832FB683A6913443B6113
:103670007A69FB68D31A7B617B69002BF0DCBFF3AE
:103680004F8FBFF36F8F00BF1C37BD465DF8047BC3
:10369000704700BF00ED00E080B400AF00BFBD4642
:1036A0005DF8047B704780B400AF00BFBD465DF895
:1036B000047B704780B483B000AF0346FB71FB7995
:1036C00003F0070318460C37BD465DF8047B7047CE
:1036D00080B483B000AF0346FB71FB79DB08DBB23B
:1036E00003F0070318460C37BD465DF8047B7047AE
:1036F00080B584B000AF786039607B6803F01F0349
:10370000FB60FB68002B05D13B6819467868FFF722
:103710006FFF09E07A68FB68D31A18463A68FB68BD
:1037200013441946FFF764FF00BF1037BD4680BD44
:1037300080B584B000AF786039607B6803F01F0308
:10374000FB60FB68002B05D13B6819467868FFF7E2
:1037500079FF09E07A68FB68D31A18463A68FB6873
:1037600013441946FFF76EFF00BF1037BD4680BDFA
:1037700080B586B000AF78600B467B8013467B70C7
:103780007B68002B6AD00823BB827B78DB005BB2AE
:1037900063F07D035BB2FB7455233B7255237B7250
:1037A000FB7CBB72BB8ADBB2FB72BB8A1B0A9BB27F
:1037B000DBB23B737B88DBB27B737B881B0A9BB2DB
:1037C000DBB2BB7307F1080307211846FDF75CFF66
:1037D0000346FB730023FB757B6803F688231846BA
:1037E00000F0C6FE0346002B2CD1FFF755FF7B6887
:1037F00093F8C03ADBB2002B22D17B68012283F818
:10380000C02A0123FB75FFF74EFF7B6803F5407369
:103810001A4607F1080303CB106051607B6803F57B
:10382000407308211846FFF783FF7B68D3F8800AAE
:103830007B6803F540730822194604F09FFD01E000
:10384000FFF731FFFB7D002B08D17B6803F688234F
:1038500007F108010822184600F02FFE00BF1837B4
:10386000BD4680BD80B58EB000AFF860B9607A60AB
:10387000FB7000233B630023FB6226E00023BB6256
:103880001AE0A44AFB6A40F6C42101FB03F31A4480
:10389000BB6A134403F684231B78FA789A4208D152
:1038A000FB6A40F6C42202FB03F39A4A13443B63CB
:1038B00005E0BB6A0133BB62BB6A032BE1D93B6BFA
:1038C000002B06D1FB6A0133FB62FB6A002BD5D0CB
:1038D00000E000BF97F84030022B06D0032B00F029
:1038E0008F80012B00F08C80F6E07B68002B4FD09E
:1038F00000237B620AE007F114027B6A1344194635
:10390000F86800F0FCFD7B6A01337B627B6A072B61
:10391000F1DD00237B6310E007F11D031946F86811
:1039200000F0EDFD797F3A6B7B6B134403F5106378
:103930000A461A707B6B01337B637B680A3B7A6BA8
:103940009A42E9D307F11D031946F86800F0D7FD44
:1039500007F11D031946F86800F0D1FD3A6B7B6B47
:10396000134403F5106300221A703B6B002B06D042
:10397000BB689BB2FA781946386BFFF7F9FE3B6BD0
:1039800003F51061FB787A6B1846FDF743FEBDE046
:1039900000237B6313E000233B620AE007F114027B
:1039A0003B6A13441946F86800F0A9FD3B6A0133ED
:1039B0003B623B6A072BF1DD7B6B01337B637B6BE7
:1039C000072BE8D9FFF768FE534B1B889BB2002BEF
:1039D00013D0524B1B889BB2002B0ED04F4B1B8831
:1039E0009BB21A46BB68934207D14D4B1B889BB2D2
:1039F000002B02D14A4B01221A80FFF754FE85E0CA
:103A00007B680A2B02D97B68DBB200E00823BB7716
:103A10003B6B002B60D00023FB773B6B03F68823C6
:103A2000184600F0A5FD0346002B38D1FFF734FE01
:103A30003B6B93F8C03ADBB2002B2ED13B6B0122DB
:103A400083F8C02A0123FB77FFF72DFE00237B6359
:103A50000BE07B6B03F540733A6B13441946F8682F
:103A600000F04DFD7B6B01337B63BB7F7A6B9A4229
:103A7000EFD33B6B03F54073BA7F11461846FFF74F
:103A800057FE3B6BD3F8800A3B6B03F54073BA7F5C
:103A900092B2194604F072FC01E0FFF704FEFB7FCE
:103AA000002B32D100237B6311E007F11D0319467F
:103AB000F86800F024FD3B6B03F6882307F11D0234
:103AC0001146184600F00BFD7B6B01337B63BB7F17
:103AD0007A6B9A42E9D318E07B680A2B02D97B689B
:103AE000DBB200E00823BB7700237B6308E007F12B
:103AF0001D031946F86800F002FD7B6B01337B6300
:103B0000BB7F7A6B9A42F2D300E000BF00BF383728
:103B1000BD4680BD20000120120E0120140E0120A0
:103B20001800012080B584B000AF7860396007F1DB
:103B30000F031A463968786800F0F1FCFB7B1846E1
:103B40001037BD4680BD80B584B000AF78600023DB
:103B5000FB720023FB6012E07B6803F69C23F9688C
:103B60001846FFF7DFFF034619467A68FB681344DF
:103B700003F510630A461A70FB680133FB60FB68AB
:103B8000062BE9D97B6803F5106307211846FDF77A
:103B90007BFD0346FB72FB7A18461037BD4680BD9D
:103BA00080B584B000AF786039600023BB6000232B
:103BB000FB6012E07B6803F69C23F9681846FFF768
:103BC000B1FF034619467A68FB68134403F5106396
:103BD0000A461A70FB680133FB603B68023BFA68D7
:103BE0009A42E7D37B6803F510623B68023B1946B3
:103BF0001046FDF72DFD0346BB60BB681846103725
:103C0000BD4680BDB0B58CB002AF786000237B624A
:103C10007B6803F69C237B617B6803F52B633B6128
:103C20007B6803F6B423FB607B6803F6B823BB60B4
:103C3000BB681B887B84FB681B68FB613B691B6856
:103C4000BB61BB69002B43D0786900F04BFB024697
:103C5000FB69934200F2AD80F9697868FFF7A0FF35
:103C60000446FB69023B19467869FFF75BFF034690
:103C70001D46FB69013B19467869FFF753FF034670
:103C80001B022B449C421CD17C8C02217869FFF7DB
:103C900049FF03461846FFF70DFD0346DDB202213A
:103CA0007869FFF73FFF03461846FFF711FD03460B
:103CB000DBB200932B46FA6921467869FFF7D2FD03
:103CC00001E001237B620023BB610023FB6170E004
:103CD000786900F007FB0346072B6AD90021786951
:103CE000FFF720FF0346552B61D101217869FFF7CB
:103CF00019FF0346552B5AD17868FFF724FF034676
:103D00001C4607217869FFF70DFF03469C424AD104
:103D100003217869FFF706FF03461C4604217869F2
:103D2000FFF700FF03461B022344FB61052178696E
:103D3000FFF7F8FE03469CB206217869FFF7F2FE12
:103D400003469BB21B029BB223447B847B8C002BDB
:103D500026D0FB69B3F5C07F22D2FB690A2B02D9BA
:103D60000123BB6122E07C8C02217869FFF7DAFE37
:103D700003461846FFF79EFC0346DDB20221786930
:103D8000FFF7D0FE03461846FFF7A2FC0346DBB25E
:103D900000932B46002221467869FFF763FD05E07A
:103DA00001237B6205E001237B6202E001E0012345
:103DB0007B627B6A002B03D0796A786900F0C7FBCD
:103DC0003B69BA691A60FB68FA691A60BB687A8C49
:103DD0001A8000BF2837BD46B0BD000080B586B050
:103DE00000AF786000237B6100233B614AE03B69C0
:103DF00040F6C42202FB03F3264A1344FB60FB682F
:103E0000D3F8803A7A689A4239D1FB6803F688235E
:103E1000184600F0ADFB0346002B2BD0FB680122B7
:103E200083F8C02A00BFFB6803F688207B695A1C10
:103E30007A6103F54073FA681344194600F05FFB9A
:103E40000346002B03D07B69B3F5C07FEBD3FB683F
:103E500003F5407379691846FFF76AFCFB68D3F8ED
:103E6000800AFB6803F540737A6992B2194604F040
:103E700085FA0AE0FB68002283F8C02A05E03B6966
:103E800001333B613B69002BB1D000BF1837BD4601
:103E900080BD00BF2000012080B584B000AF7860F5
:103EA0000023FB6023E0FB6840F6C42202FB03F31F
:103EB000124A1344BB60BB68D3F8803A7A689A42CE
:103EC00012D1BB68D3F8803AB9684FF440721846F3
:103ED00004F0D0FABB68D3F8803AB3F858301A46E9
:103EE000BB68C3F8BC2A05E0FB680133FB60FB68D4
:103EF000002BD8D000BF1037BD4680BD2000012068
:103F000080B582B000AF00237B6031E07B6840F673
:103F1000C42202FB03F303F68823194A98187B682E
:103F200040F6C42202FB03F303F5C063144A991858
:103F30004FF4C073012200F0E5F97B6840F6C4221B
:103F400002FB03F303F698230D4A1344181D7B6804
:103F500040F6C42202FB03F303F59063084A991864
:103F60004FF4C073012200F0CDF97B6801337B6010
:103F70007B68002BCAD000BF0837BD4680BD00BF9C
:103F80002000012080B582B000AF00237B6022E0DA
:103F90007B6840F6C42202FB03F3124A13443B60E1
:103FA0003B684FF440711846FFF7C2FB3B68D3F8FB
:103FB000803A39684FF44072184604F05BFA3B6867
:103FC000D3F8803AB3F858301A463B68C3F8BC2A95
:103FD0007B6801337B607B68002BD9D000BF08373A
:103FE000BD4680BD2000012080B5B6B000AF0023E3
:103FF000C7F8D030F2E0D7F8D03040F6C42202FB48
:1040000003F37B4A1344C7F8CC30D7F8CC30D3F84D
:10401000803ADB6E1B685B68C7F8C830D7F8CC30D5
:10402000D3F8803AB3F85830C7F8C430D7F8CC305A
:10403000D3F8BC3AD7F8C8209A420CD9D7F8C42094
:10404000D7F8C830D21AD7F8CC30D3F8BC3A1344DA
:10405000C7F8D43008E0D7F8CC30D3F8BC2AD7F86A
:10406000C830D31AC7F8D430D7F8D430C02B02D90F
:10407000C023C7F8D430D7F8D430002B45D0D7F8B8
:10408000CC304FF440711846FFF732FB0023C7F8DD
:10409000D0302AE0D7F8CC30D3F8BC3AD7F8C420D7
:1040A000D31AD7F8CC20D15C3A1DD7F8D0301344BE
:1040B0000A461A70D7F8CC30D3F8BC3A012B06D197
:1040C000D7F8CC30D7F8C420C3F8BC2A08E0D7F81A
:1040D000CC30D3F8BC3A5A1ED7F8CC30C3F8BC2A3F
:1040E000D7F8D0300133C7F8D030D7F8D030D7F870
:1040F000D4209A42CED8D7F8CC3003F69C23391D71
:10410000D7F8D420184600F0D8F9D7F8D430002BCF
:104110007FF47BAFD7F8CC3003F69C23184600F031
:1041200027FA0346002B03D0D7F8CC00FFF76AFD2F
:10413000FFF7B2FAD7F8CC3093F8C03ADBB2002BD5
:1041400045D1D7F8CC3003F68823184600F010FA92
:104150000346002B3BD00023C7F8D430D7F8CC302F
:10416000012283F8C02AFFF79EFA00BFD7F8CC30AF
:1041700003F68820D7F8D4305A1CC7F8D42003F5AA
:104180004073D7F8CC201344194600F0B8F9034621
:10419000002B04D0D7F8D430B3F5C07FE6D3D7F8DE
:1041A000CC3003F54073D7F8D4101846FFF7C0FAA7
:1041B000D7F8CC30D3F8800AD7F8CC3003F5407369
:1041C000D7F8D42092B2194604F0D8F801E0FFF7EE
:1041D0006AFAD7F8D0300133C7F8D030D7F8D030EA
:1041E000002B3FF408AF00BFD837BD4680BD00BFED
:1041F0002000012080B483B000AF78607B689A68AB
:104200007B685B689A4205D37B689A687B685B68C9
:10421000D31A07E07B681A687B685B68D21A7B68F0
:104220009B68134418460C37BD465DF8047B704705
:1042300090B583B000AF78607B681C687868FFF742
:10424000D9FF0346E31A18460C37BD4690BD80B42B
:1042500085B000AFF860B9607A60BB681A687B68A7
:104260001344FA681268B3FBF2F102FB01F29B1AE5
:1042700018461437BD465DF8047B704780B584B09E
:1042800000AFF860B9607A607A68B968F868FFF7DB
:10429000DEFF0246BB681A6000BF1037BD4680BD16
:1042A00080B483B000AF78607B685A687B689B6895
:1042B0009A4214BF01230023DBB218460C37BD46D7
:1042C0005DF8047B704780B584B000AFF860B960DA
:1042D0007A607A68B968F868FFF7D0FF00BF1037D6
:1042E000BD4680BD80B584B000AF78607B68043384
:1042F0001846FFF77FFF0346FB60FB681846103740
:10430000BD4680BD80B485B000AFF860B9603B6049
:104310001346FB71FB68BA681A603A68FB685A601A
:10432000FB6800229A60FB680022DA60FB680022CA
:104330005A74FB68FA791A7400BF1437BD465DF8E9
:10434000047B704780B582B000AF786039607B68CD
:104350001B6819467B68DB687A68127C02FB03F3F2
:104360000B4418467B681B7C1A46396804F086FFAC
:1043700000BF0837BD4680BD80B582B000AF786011
:1043800039607B681B6819467B689B687A68127C79
:1043900002FB03F30B4419467B681B7C1A46386802
:1043A00004F06CFF00BF0837BD4680BD80B584B007
:1043B00000AFF860B9607A60FB681B681A46FB685A
:1043C0001B7C1946BB6803FB01F313441946FB68C9
:1043D0001B7C1A46786804F051FF00BF1037BD46B9
:1043E00080BD80B584B000AF786039607B680433ED
:1043F0001846FFF71DFF0346FB73FB7B002B0CD019
:1044000039687868FFF79EFF7B68181D7B680C335E
:1044100001221946FFF732FF02E07B6801225A743D
:10442000FB7B18461037BD4680BD80B584B000AF19
:10443000786039607B6804331846FFF731FF034624
:10444000FB73FB7B002B0BD039687868FFF794FF78
:104450007B68181D7B68083301221946FFF70EFFA1
:10446000FB7B18461037BD4680BD80B586B000AFD7
:10447000F860B9607A6000233B6113E0FB681B7C45
:104480001A463B6903FB02F2BB6813441946F868FD
:10449000FFF7A7FF0346FB75FB7D002B07D03B69A9
:1044A00001333B613A697B689A42E7D300E000BF81
:1044B000FB7D18461837BD4680BD80B586B000AF7D
:1044C000F860B9607A607A68B968F868FFF7CDFF7C
:1044D0000346FB75FB7D18461837BD4680BD80B589
:1044E00084B000AF7860396039687868FFF779FF89
:1044F0000346FB73FB7B18461037BD4680BD80B575
:1045000084B000AF7860396039687868FFF78DFF54
:104510000346FB73FB7B18461037BD4680BD80B554
:1045200086B000AFF860B9607A60FB68181DFB6860
:104530000833BA681946FFF78AFE78617A687969A4
:10454000F868FFF733FF00BF1837BD4680BD80B560
:1045500082B000AF786039607B68181D7B680833D3
:104560003A681946FFF7AFFE00BF0837BD4680BD69
:1045700080B483B000AF78607B689A687B68DB6842
:104580009A4214BF01230023DBB218460C37BD4604
:104590005DF8047B70470000DFF834D0002103E0B1
:1045A0000C4B5B58435004310B480C4B42189A4259
:1045B000F6D30B4A02E0002342F8043B094B9A422F
:1045C000F9D3FEF7FFFF04F035FEFDF7DDFD704780
:1045D00000000420EC92000800000120080B0120DC
:1045E000080B0120DC700120FEE7000080B500AF61
:1045F000084B1B68074A43F400731360032000F064
:10460000B3FB002000F008F8FEF7EEFB002318468D
:1046100080BD00BF003C024080B582B000AF786032
:10462000124B1A68124B1B7819464FF47A73B3FB7E
:10463000F1F3B2FBF3F3184600F0CBFB0346002B7B
:1046400001D001230EE07B680F2B0AD80022796885
:104650004FF0FF3000F093FB064A7B6813600023A5
:1046600000E0012318460837BD4680BD1400012034
:10467000040B0120000B012080B400AF064B1B7817
:104680001A46064B1B681344044A136000BFBD461C
:104690005DF8047B704700BF040B0120D870012037
:1046A00080B400AF034B1B681846BD465DF8047B21
:1046B000704700BFD870012080B584B000AF78602B
:1046C0000023FB737B68002B01D1012331E07B6861
:1046D0001B6C002B09D17868FEF7AAFB7B680022CF
:1046E0005A647B68002283F83C207B681B6C03F0D3
:1046F0001003002B16D17B681A6C104B134043F04B
:1047000002027B681A64786800F064F97B68002212
:104710005A647B681B6C23F0030343F001027B683F
:104720001A6401E00123FB737B68002283F83C20BC
:10473000FB7B18461037BD4680BD00BFFDEEFFFF76
:1047400080B485B000AF786039600023FB607B687F
:1047500093F83C30012B01D102232AE17B6801222E
:1047600083F83C203B681B68092B3AD93B681B68DF
:10477000B3F1004F35D07B681B68D9683B681B6874
:104780009BB21A4613465B0013441E3B072202FAF3
:1047900003F3DA437B681B680A40DA603B681B68F6
:1047A000874A93420AD17B681B68D9683B689B683B
:1047B0001A067B681B680A43DA6035E07B681B6871
:1047C000D9683B689A683B681B689BB218460346E9
:1047D0005B0003441E3B9A407B681B680A43DA6017
:1047E00022E07B681B6819693B681B689BB21A460C
:1047F00013465B001344072202FA03F3DA437B6893
:104800001B680A401A617B681B6819693B689A68D3
:104810003B681B689BB2184603465B0003449A4002
:104820007B681B680A431A613B685B68062B24D8C7
:104830007B681B68596B3B685A6813469B0013449E
:10484000053B1F2202FA03F3DA437B681B680A4028
:104850005A637B681B68596B3B681B689BB21846A0
:104860003B685A6813469B001344053B00FA03F269
:104870007B681B680A435A634CE03B685B680C2BFF
:1048800024D87B681B68196B3B685A6813469B00E9
:104890001344233B1F2202FA03F3DA437B681B68AD
:1048A0000A401A637B681B68196B3B681B689BB2E4
:1048B00018463B685A6813469B001344233B00FA92
:1048C00003F27B681B680A431A6323E07B681B685A
:1048D000D96A3B685A6813469B001344413B1F2228
:1048E00002FA03F3DA437B681B680A40DA627B68EA
:1048F0001B68D96A3B681B689BB218463B685A68BC
:1049000013469B001344413B00FA03F27B681B688B
:104910000A43DA627B681B682A4A93420AD13B68E1
:104920001B68B3F1004F05D1274B5B68264A23F47F
:10493000400353607B681B68224A934209D13B685D
:104940001B68122B05D1204B5B681F4A43F4800380
:1049500053607B681B681B4A934225D13B681B68E8
:10496000174A934203D03B681B68112B1CD1164B8E
:104970005B68154A43F4000353603B681B68104AA8
:10498000934211D1114B1B68114AA2FB03239A0CCD
:1049900013469B0013445B00FB6002E0FB68013B95
:1049A000FB60FB68002BF9D17B68002283F83C2078
:1049B000002318461437BD465DF8047B704700BFDE
:1049C00012000010002001400023014014000120CB
:1049D00083DE1B4380B483B000AF7860784B5B68A4
:1049E000774A23F440335360754B5A687B685B68A1
:1049F000734913434B607B681B685A687B681B686C
:104A000022F480725A607B681B6859687B681B6956
:104A10001A027B681B680A435A607B681B685A68E5
:104A20007B681B6822F040725A607B681B6859687B
:104A30007B689A687B681B680A435A607B681B68BE
:104A40009A687B681B6822F400629A607B681B6826
:104A500099687B68DA687B681B680A439A607B68A0
:104A60009B6A584A934222D07B681B689A687B688D
:104A70001B6822F070629A607B681B6899687B688B
:104A80009A6A7B681B680A439A607B681B689A680D
:104A90007B681B6822F040529A607B681B689968AB
:104AA0007B68DA6A7B681B680A439A600FE07B6860
:104AB0001B689A687B681B6822F070629A607B684A
:104AC0001B689A687B681B6822F040529A607B687A
:104AD0001B689A687B681B6822F002029A607B68F8
:104AE0001B6899687B689B695A007B681B680A434E
:104AF0009A607B6893F82030002B1BD07B681B6882
:104B00005A687B681B6842F400625A607B681B68C5
:104B10005A687B681B6822F460425A607B681B6895
:104B200059687B685B6A013B5A037B681B680A43D0
:104B30005A6007E07B681B685A687B681B6822F430
:104B400000625A607B681B68DA6A7B681B6822F423
:104B50007002DA627B681B68D96A7B68DB69013B9B
:104B60001A057B681B680A43DA627B681B689A68CF
:104B70007B681B6822F400729A607B681B689968E6
:104B80007B6893F830305A027B681B680A439A604E
:104B90007B681B689A687B681B6822F480629A6055
:104BA0007B681B6899687B685B699A027B681B68F5
:104BB0000A439A6000BF0C37BD465DF8047B70471E
:104BC000002301400100000F80B485B000AF786081
:104BD0007B6803F00703FB600B4BDB68BB60BA68C4
:104BE0004FF6FF031340BB60FB681A02BB681A4311
:104BF000064B1343BB60044ABB68D36000BF143745
:104C0000BD465DF8047B704700ED00E00000FA054A
:104C100080B400AF044BDB681B0A03F0070318469F
:104C2000BD465DF8047B704700ED00E080B483B0C2
:104C300000AF0346FB7197F90730002B0BDBFB79C4
:104C400003F01F02074997F907305B09012000FABA
:104C500002F241F8232000BF0C37BD465DF8047B0B
:104C6000704700BF00E100E080B483B000AF0346AE
:104C70003960FB7197F90730002B0ADB3B68DAB229
:104C80000C4997F907301201D2B20B4483F8002384
:104C90000AE03B68DAB20849FB7903F00F03043BF2
:104CA0001201D2B20B441A7600BF0C37BD465DF834
:104CB000047B704700E100E000ED00E080B489B0C3
:104CC00000AFF860B9607A60FB6803F00703FB612E
:104CD000FB69C3F10703042B28BF0423BB61FB69F5
:104CE0000433062B02D9FB69033B00E000237B6100
:104CF0004FF0FF32BB6902FA03F3DA43BB681A4094
:104D00007B699A404FF0FF317B6901FA03F3D94385
:104D10007B680B40134318462437BD465DF8047B7F
:104D20007047000080B582B000AF78607B68013BBF
:104D3000B3F1807F01D301230FE00A4A7B68013B76
:104D400053600F214FF0FF30FFF78EFF054B00221D
:104D50009A60044B07221A60002318460837BD46A4
:104D600080BD00BF10E000E080B582B000AF786089
:104D70007868FFF729FF00BF0837BD4680BD80B5C2
:104D800086B000AF0346B9607A60FB7300237B6195
:104D9000FFF73EFF78617A68B9687869FFF78EFFA0
:104DA000024697F90F3011461846FFF75DFF00BF26
:104DB0001837BD4680BD80B582B000AF0346FB7199
:104DC00097F907301846FFF731FF00BF0837BD4697
:104DD00080BD80B582B000AF78607868FFF7A2FF31
:104DE000034618460837BD4680BD000080B582B036
:104DF00000AF78607B68002B01D1012354E07B6811
:104E00005B7FDBB2002B05D17B6800221A777868C4
:104E1000FEF78EF87B6802225A777B681B79002B9D
:104E20000CD17B681B68224A5A617B681B689A68B0
:104E30007B681B6822F018029A600CE07B68996816
:104E40007B68DB681A46786800F046F90346002B59
:104E500001D0012328E07B685B79002B05D17B68BA
:104E60001B684FF0FF321A6104E07B681B687A68A8
:104E700012691A617B681B689B6823F060017B687C
:104E80005A697B681B680A439A607B681B689B6849
:104E900023F080017B689A697B681B680A439A60EB
:104EA0007B6801225A77002318460837BD4680BD2B
:104EB000B71DC10480B586B000AFF860B9607A60F4
:104EC00000233B61FB6802225A77FB681B689A68E3
:104ED000FB681B6842F001029A60FB681B6A022BA8
:104EE00022D0032B02D0012B17D024E000237B61BA
:104EF0000AE07B699B00BA681A44FB681B68126869
:104F00001A607B6901337B617A697B689A42F0D3CE
:104F1000FB681B681B683B610DE07A68B968F8683C
:104F200000F011F8386106E07A68B968F86800F0B6
:104F300098F8386100BFFB6801225A773B69184630
:104F40001837BD4680BD80B489B000AFF860B96045
:104F50007A600023FB6123E0FB699B00BA6813447D
:104F60001B781A06FB699B000133B9680B441B7858
:104F70001B041A43FB699B000233B9680B441B787E
:104F80001B021A43FB699B000333B9680B441B786F
:104F90001946FB681B680A431A60FB690133FB6111
:104FA0007B689B08FA699A42D6D37B6803F00303B7
:104FB000002B4DD07B6803F00303012B07D1FB6965
:104FC0009B00BA681344FA6812681B7813707B68F8
:104FD00003F00303022B16D1FB699B00BA6813444C
:104FE0001B781B021AB2FB699B000133B9680B44A2
:104FF0001B781BB213431BB27B83FB681B687B616E
:105000007B697A8B1A807B6803F00303032B1FD123
:10501000FB699B00BA6813441B781B021AB2FB6938
:105020009B000133B9680B441B781BB213431BB2BE
:105030007B83FB681B687B617B697A8B1A80FB69C9
:105040009B000233BA681344FA6812681B78137025
:10505000FB681B681B6818462437BD465DF8047B57
:10506000704780B487B000AFF860B9607A60002301
:105070007B6113E07B699B00BA6813441B881A04A8
:105080007B699B000233B9680B441B881946FB6897
:105090001B680A431A607B6901337B617B685B088C
:1050A0007A699A42E6D37B6803F00103002B09D0AA
:1050B000FB681B683B617B699B00BA6813441A88D4
:1050C0003B691A80FB681B681B6818461C37BD4685
:1050D0005DF8047B7047000080B487B000AFF860D3
:1050E000B9607A600023FB751F233B6100BF3B69F9
:1050F0005A1E3A61002B09D03B6903F01F03BA68BE
:1051000022FA03F303F00103002BF0D07B68182B85
:1051100046D801A252F823F0A7510008A151000877
:10512000A1510008A1510008A1510008A151000897
:10513000A1510008A151000895510008A151000893
:10514000A1510008A1510008A1510008A151000877
:10515000A1510008A151000889510008A15100087F
:10516000A1510008A1510008A1510008A151000857
:10517000A1510008A15100087D5100083B69062B90
:1051800013D90123FB7510E03B69072B0FD90123CD
:10519000FB750CE03B690F2B0BD90123FB7508E075
:1051A0000123FB7506E000BF04E000BF02E000BF82
:1051B00000E000BFFB7D002B0DD1FB681B68BA68C7
:1051C0005A61FB681B689B6823F01801FB681B6829
:1051D0007A680A439A60FB7D18461C37BD465DF825
:1051E000047B704780B586B000AF786000237B6198
:1051F000FFF756FA38617B68002B01D1012399E053
:105200007B68002283F834207B68022283F83520F3
:105210007B681B681A687B681B6822F001021A60B1
:105220000FE0FFF73DFA02463B69D31A052B08D978
:105230007B6820225A657B68032283F8352003238C
:1052400078E07B681B681B6803F00103002BE8D142
:105250007B681B681B687B617A69384B13407B61F4
:105260007B685A687B689B681A437B68DB681A43D3
:105270007B681B691A437B685B691A437B689B697F
:105280001A437B68DB691A437B681B6A13437A699C
:1052900013437B617B685B6A042B07D17B68DA6A06
:1052A0007B681B6B13437A6913437B617B681B68C4
:1052B0007A691A607B681B685B697B617B6923F094
:1052C00007037B617B685B6A7A6913437B617B6858
:1052D0005B6A042B17D17B689B6A7A6913437B61F5
:1052E0007B68DB6A002B0ED0786800F099FA0346E1
:1052F000002B08D07B6840225A657B68012283F826
:105300003520012316E07B681B687A695A6178684A
:1053100000F050FA0346FB607B68DB6D3F229A4049
:10532000FB689A607B6800225A657B68012283F8DB
:105330003520002318461837BD4680BD3F8010E059
:1053400080B586B000AFF860B9607A603B6000233A
:10535000FB75FB689B6D3B61FB6893F83430012B58
:1053600001D1022348E0FB68012283F83420FB6866
:1053700093F83530DBB2012B37D1FB68022283F87A
:105380003520FB6800225A653B687A68B968F8687E
:1053900000F0E2F9FB68DB6D3F229A403B699A60BE
:1053A000FB681B681A68FB681B6842F016021A60EB
:1053B000FB681B685A69FB681B6842F080025A61EF
:1053C000FB681B6C002B07D0FB681B681A68FB6826
:1053D0001B6842F008021A60FB681B681A68FB68C9
:1053E0001B6842F001021A6005E0FB68002283F8A6
:1053F00034200223FB75FB7D18461837BD4680BD5F
:1054000080B483B000AF78607B6893F83530DBB24E
:10541000022B04D07B6880225A6501230CE07B6854
:10542000052283F835207B681B681A687B681B6837
:1054300022F001021A60002318460C37BD465DF8C1
:10544000047B704780B586B000AF78600023BB60F6
:10545000924B1B68924AA2FB03239B0A7B617B68E9
:105460009B6D3B613B691B68FB607B68DB6D0822C1
:105470009A40FB681340002B1AD07B681B681B689E
:1054800003F00403002B13D07B681B681A687B6849
:105490001B6822F004021A607B68DB6D08229A40C8
:1054A0003B699A607B685B6D43F001027B685A65DB
:1054B0007B68DB6D01229A40FB681340002B12D001
:1054C0007B681B685B6903F08003002B0BD07B6853
:1054D000DB6D01229A403B699A607B685B6D43F00B
:1054E00002027B685A657B68DB6D04229A40FB6888
:1054F0001340002B12D07B681B681B6803F002036B
:10550000002B0BD07B68DB6D04229A403B699A60CC
:105510007B685B6D43F004027B685A657B68DB6DDA
:1055200010229A40FB681340002B43D07B681B6815
:105530001B6803F00803002B3CD07B68DB6D102256
:105540009A403B699A607B681B681B6803F4802360
:10555000002B18D07B681B681B6803F40023002B0A
:1055600008D17B681B6C002B24D07B681B6C78688F
:1055700098471FE07B689B6C002B1BD07B689B6C63
:105580007868984716E07B681B681B6803F4807393
:10559000002B07D17B681B681A687B681B6822F0A8
:1055A00008021A607B681B6C002B03D07B681B6CA5
:1055B000786898477B68DB6D20229A40FB6813402F
:1055C000002B00F08E807B681B681B6803F01003C3
:1055D000002B00F086807B68DB6D20229A403B69BF
:1055E0009A607B6893F83530DBB2052B36D17B6847
:1055F0001B681A687B681B6822F016021A607B68B9
:105600001B685A697B681B6822F080025A617B68BC
:105610001B6C002B03D17B689B6C002B07D07B6835
:105620001B681A687B681B6822F008021A607B6896
:10563000DB6D3F229A403B699A607B68002283F8C9
:1056400034207B68012283F835207B681B6D002B9A
:105650007DD07B681B6D7868984778E07B681B6815
:105660001B6803F48023002B1CD07B681B681B681D
:1056700003F40023002B08D17B685B6C002B30D037
:105680007B685B6C786898472BE07B68DB6B002B52
:1056900027D07B68DB6B7868984722E014000120F4
:1056A000B5814E1B7B681B681B6803F48073002B5D
:1056B0000FD17B681B681A687B681B6822F0100298
:1056C0001A607B68002283F834207B68012283F80B
:1056D00035207B68DB6B002B03D07B68DB6B786845
:1056E00098477B685B6D002B32D07B685B6D03F065
:1056F0000103002B22D07B68052283F835207B68CC
:105700001B681A687B681B6822F001021A60BB687C
:105710000133BB607A699A4207D37B681B681B68B8
:1057200003F00103002BF2D100E000BF7B680022F0
:1057300083F834207B68012283F835207B68DB6C9A
:10574000002B05D07B68DB6C7868984700E000BFD1
:105750001837BD4680BD00BF80B485B000AFF8608B
:10576000B9607A603B60FB681B681A68FB681B685D
:1057700022F480221A60FB681B683A685A60FB6852
:105780009B68402B08D1FB681B687A689A60FB68AD
:105790001B68BA68DA6007E0FB681B68BA689A6041
:1057A000FB681B687A68DA6000BF1437BD465DF895
:1057B000047B704780B485B000AF78607B681B685D
:1057C000DBB2103B134AA2FB03231B09FB60124A06
:1057D000FB6813441B781A467B68DA65FB68032B69
:1057E00008D97B681B681A460C4B13401A1D7B684E
:1057F0009A6506E07B681B681A46084B13407A6876
:1058000093657B689B6D18461437BD465DF8047B35
:10581000704700BFABAAAAAAD492000800FCFFFF01
:1058200080B485B000AF78600023FB737B689B6A0F
:10583000BB607B689B69002B1FD1BB68032B55D8CD
:1058400001A252F823F000BF595800086B58000815
:1058500059580008ED5800087B68DB6A03F0807334
:10586000002B45D00123FB7342E07B68DB6AB3F178
:10587000C07F3FD10123FB733CE07B689B69B3F59C
:10588000005F21D1BB68032B36D801A252F823F068
:10589000A1580008A7580008A1580008B9580008E6
:1058A0000123FB732FE07B68DB6A03F08073002B1E
:1058B00024D00123FB7321E07B68DB6AB3F1C07F56
:1058C0001ED10123FB731BE0BB68022B02D9032B03
:1058D00003D018E00123FB7315E07B68DB6A03F05B
:1058E0008073002B0ED00123FB730BE000BF0AE096
:1058F00000BF08E000BF06E000BF04E000BF02E018
:1059000000BF00E000BFFB7B18461437BD465DF8C2
:10591000047B704780B489B000AF786039600023A1
:10592000FB6100237B6100233B610023BB610023FB
:10593000FB6169E10122FB6902FA03F37B613B68C9
:105940001B687A6913403B613A697B699A4240F06F
:1059500058813B685B68012B0BD03B685B68022B6E
:1059600007D03B685B68112B03D03B685B68122B48
:1059700030D17B689B68BB61FB695B00032202FA44
:1059800003F3DB43BA691340BB613B68DA68FB6928
:105990005B0002FA03F3BA691343BB617B68BA691F
:1059A0009A607B685B68BB610122FB6902FA03F3C2
:1059B000DB43BA691340BB613B685B681B0903F0BA
:1059C0000102FB6902FA03F3BA691343BB617B6806
:1059D000BA695A607B68DB68BB61FB695B000322C4
:1059E00002FA03F3DB43BA691340BB613B689A6870
:1059F000FB695B0002FA03F3BA691343BB617B687E
:105A0000BA69DA603B685B68022B03D03B685B686D
:105A1000122B23D1FB69DA087B68083253F8223055
:105A2000BB61FB6903F007039B000F2202FA03F33B
:105A3000DB43BA691340BB613B681A69FB6903F039
:105A400007039B0002FA03F3BA691343BB61FB69C6
:105A5000DA087B680832B96943F822107B681B6852
:105A6000BB61FB695B00032202FA03F3DB43BA6903
:105A70001340BB613B685B6803F00302FB695B009A
:105A800002FA03F3BA691343BB617B68BA691A600F
:105A90003B685B6803F08053002B00F0B2805F4BE3
:105AA0005B6C5E4A43F4804353645C4B5B6C03F471
:105AB0008043FB60FB685A4AFB699B08023352F83B
:105AC0002330BB61FB6903F003039B000F2202FA42
:105AD00003F3DB43BA691340BB617B68514A9342CD
